:020000040800F2
:1080000000500020699F0008519900085599000808
:10801000599900085D99000861990008679F000858
:10802000679F0008679F0008679F0008679F000818
:10803000679F0008679F0008679F00083583000856
:10804000679F0008679F0008679F0008679F0008F8
:10805000679F0008679F0008679F0008679F0008E8
:10806000679F0008679F0008679F00084981000814
:108070005981000869810008798100088981000818
:1080800099810008A9810008679F0008679F000880
:10809000A9870008679F0008679F0008679F00087E
:1080A000B1830008C1830008D1830008118400084F
:1080B0000D85000801850008F5840008679F000809
:1080C000679F0008679F0008679F0008679F000878
:1080D000679F0008679F0008679F0008679F000868
:1080E000679F0008679F0008679F000840F2E01341
:1080F000C2F200031A780AB901201870704700BF55
:1081000040F20000C2F2000008B503682BB140F253
:108110000003C0F2000303B1984708BD4A1E920055
:10812000012111FA02F203685A60704750F83130A9
:1081300070B505460C4633B1984728462146BDE840
:108140007040FFF7EBBF70BD024B01211868FFF7CD
:10815000EDBF00BF04000020024B02211868FFF7AA
:10816000E5BF00BF04000020024B03211868FFF7A1
:10817000DDBF00BF04000020024B04211868FFF798
:10818000D5BF00BF04000020024B05211868FFF78F
:10819000CDBF00BF04000020024B06211868FFF786
:1081A000C5BF00BF04000020024B07211868FFF77D
:1081B000BDBF00BF0400002001F0070C70B54FEAFE
:1081C0008C0C0F25092A14BF1646082605FA0CF553
:1081D00006FA0CFC0368C80853F82040082A24EA71
:1081E00005054CEA050443F8204007D1012010FAA8
:1081F00001F1DA6822EA0101D96070BD092A05D1CE
:10820000012010FA01F1DA681143D96070BD10B590
:108210000446007900F072F82079BDE8104000F0C3
:1082200053B8000010B50748FFF7F1FF0648FFF705
:10823000EEFF0648FFF7EBFF0548BDE81040FFF7EB
:10824000E6BF00BF4800002050000020580000207A
:108250006000002000284FEA011106DA064B00F00A
:108260000F00C9B2C31819767047044BC9B2C318BE
:1082700083F80013704700BFFCEC00E000E100E071
:1082800021F0604121F07F01014B0143996070476B
:1082900000ED00E010B5FFF7F3FF002460B20F21FE
:1082A0000134FFF7D7FF2B2CF8D14FF0FF300F210F
:1082B000BDE81040FFF7CEBF01EBC0039B0003F108
:1082C00084431A60704700000A4B0B4A13F81010E1
:1082D00003EB400370B552F821505C7828462146E4
:1082E0000122FFF7E9FF284621460022BDE8704041
:1082F000FFF7E2BF4CA0000880A00008054B064A2B
:1083000013F8101003EB400352F8210059780122B2
:10831000FFF7D2BF4CA0000840A00008014B072285
:108320001A60704710E000E0014B5860FFF7F6BF9D
:1083300010E000E008B5044B1A6801321A60034BE4
:108340001B6803B1984708BD18020020E401002013
:1083500041790368002201291A60DA6098BF1A6225
:1083600070470000074B10B504461868A047064B3D
:108370001868A047054B1868A047054B1868A04728
:1083800010BD00BFB8000020BC000020C0000020CD
:10839000C4000020023138B550F821301546046879
:1083A00023B19847236923EA0505256138BD0000FC
:1083B000024B072118688022FFF7ECBFB8000020AD
:1083C000024B002118680122FFF7E4BFB80000202B
:1083D000F8B50E4B1E6856F8084BE36827691F4036
:1083E00017F0400F04D0B36913B19847402500E05F
:1083F000002517F0200F04D0736913B1984745F09A
:108400002005236923EA05052561F8BDB800002091
:10841000F8B5164B1D6855F8086BF36837691F40AF
:1084200017F0100F04D02B6913B19847102400E007
:10843000002417F0080F04D0EB6813B1984744F0FC
:10844000080417F0040F04D0AB6813B1984744F048
:10845000040417F0020F04D06B6813B1984744F07E
:108460000204336923EA04043461F8BDB800002033
:108470002DE9F041054655F8087B8046FB683E69CA
:108480001E4016F0400F04D0AB6913B1984740244A
:1084900000E0002416F0100F04D02B6913B19847A8
:1084A00044F0100416F0080F04D0EB6813B198479D
:1084B00044F0080416F0040F04D0AB6813B19847D9
:1084C00044F0040416F0020F04D06B6813B198470F
:1084D00044F0020416F0010F05D0D8F8083013B1AB
:1084E000984744F001043B6923EA04043C61BDE879
:1084F000F0810000014B1868FFF7BABFC4000020EC
:10850000014B1868FFF7B4BFC0000020014B18688A
:10851000FFF7AEBFBC000020002808DB421101239A
:1085200000F01F0013FA00F0014B43F822007047DF
:1085300000E100E0036819B14FF480721A617047DE
:108540004FF480725A617047F8B5114B08211C68CE
:1085500003222046FFF730FE00252E460127B6F500
:10856000007F02D14FF0FF3702E0002E08BF012745
:10857000B5F5007F01D1F6190025B542204601D29C
:10858000012100E00021FFF7D5FF0135E7E700BF3B
:108590003CA000080A4B4FF0FF32C3F8802010B512
:1085A000C3F884200748FFF7DDFE1320FFF7B4FF70
:1085B0001420FFF7B1FF62B6BDE81040FFF7C4BF5B
:1085C00000E100E051830008044B1A6892B242F0C7
:1085D0000C021A60024B03221A607047405C004094
:1085E000F0010020054B4FF6FB72196801EA020208
:1085F0001A604FF43F421A60704700BF405C004071
:10860000072818BF204B10B51F4C18BF18702378CF
:10861000052B35D8DFE803F003070B101823FFF70D
:10862000E1FF062306E0FFF7DDFF042302E002235B
:1086300063700133237010BD6378013BDBB263705C
:108640006378FBB9042218E0104B1A6892B242F02A
:1086500010021A6005232370DB18637010BD637865
:10866000013BDBB26370637863B9084A4FF6EF737E
:10867000116801EA030313600622034B1A7010BD50
:108680000623237010BD00BF1C020020405C004088
:10869000064B01221A60064A002006491860106045
:1086A0004FF4E0520A801A60704700BF405C0040FF
:1086B000445C004014030020014B1868704700BF61
:1086C00004020020034B1868052814BF0020012075
:1086D000704700BFF0010020024B1868003818BF37
:1086E00001207047F0010020144B70B51A680C4649
:1086F000914288BF1C68124B124A19680023521815
:1087000004E012F801CC00F803C001330132A342A7
:10871000F7D10A4B0A4D1A686118121B1A601E68BD
:1087200029604EB90320402101F0DCF803204FF40A
:10873000405101F035F82E60204670BD0402002043
:10874000F401002020020020134B10B51B680C46DA
:108750000BB100241DE0202901D9202400E0C1B183
:10876000C021A2B200F0D0FF0C4B1A680C4B92B2A1
:10877000D3185B001C60084B1A68A2181A60094BDA
:1087800048F6BF72196801EA020282F030021A60EC
:108790001B68204610BD00BF08020020505C00404E
:1087A0000A300020045C0040344B354A196810B58B
:1087B00089B2118033491288098801EA020212F451
:1087C000806F05D04FF6FF321A602F4B5B689847D9
:1087D0002B4B1A882B4B1B8803EA020212F4005F12
:1087E00003D0264A4DF6FF711160254A12881340C6
:1087F00013F4805F06D0214B4EF6FF721A60002002
:10880000FFF7FEFE1E4B1F4A1B88128802EA030375
:1088100013F4006F05D0FFF7D7FE184B4FF2FF722D
:108820001A60174B1A88174B1B8803EA020212F4CE
:10883000007F07D0114A4FF6FF511160134A1168AB
:10884000013111600E4A1288134013F4807F06D064
:108850000A4B4FF6FF621A600720FFF7D1FE084B64
:10886000084A1B88128802EA030313F4004F03D05E
:10887000BDE8104000F08ABE10BD00BF445C00405F
:10888000EC0100201403002014010020E801002066
:1088900007B514238DF80430143B8DF805308DF89E
:1088A000063001A801338DF8073000F0D5F90EBD70
:1088B000036819B14FF480421A6170474FF4804247
:1088C0005A6170470A4B10B51C680E2120460722DA
:1088D000FFF772FC074B2046DA69002142F40002E0
:1088E000DA61FFF7E5FFBDE8104000F033BE00BFDE
:1088F0003CA0000800100240024B18460138FDD889
:1089000000F0E0B97F4F1200014B00221A6070475F
:10891000080200207047000020B9034B4FF0080206
:108920001B681A820148704710030020D001002004
:108930007047704708B50C4B1A68137803F07F0333
:10894000212B0ED1202801D021280AD1074B4FF02E
:1089500000011870064B5182936100209847002057
:1089600008BD022008BD00BF100300200102002046
:1089700019890008154B1B681A7802F07F02212A1A
:1089800021D102281DD022281DD1D878104B00F00B
:10899000030018700F4B1B78032B12D8DFE803F08D
:1089A0000802080810F001000A4B08D1022204E076
:1089B00010F00100074B02D103221A707047012208
:1089C0001A70002070470220704700BF100300207B
:1089D000F80100200002002019B9012801D808463A
:1089E0007047022070470000034B1B689B7A13B14D
:1089F000024B05221A60704710030020F00100208E
:108A0000014B04221A607047F0010020054B1B68DF
:108A1000DB78022B01D900207047034901EBC30129
:108A200000F068BA10030020B8010020014900F0EE
:108A300061BA00BFA4010020014900F05BBA00BF89
:108A4000B001002038B53D4B6FF03F021B68002499
:108A50005A723B4A9C723B4B1460186848F68F115F
:108A600000EA010141F400711960186848F6BF710D
:108A700000EA010181F0100119601168324B89B2DE
:108A8000CB1840255B001D60136880229BB203F168
:108A9000005303F540535B001A60204600F0A4FE2B
:108AA0002A4B20461B6893F82C1000F01BFF204631
:108AB00000F08CFE02204FF4C06100F04EFE022058
:108AC0004FF4807100F0C0FE0220202100F052FE21
:108AD0000220214600F064FE0320214600F03DFE06
:108AE00003204FF4887100F0C1FE0320294600F0F6
:108AF000F9FE03204FF4405100F052FE01202146C0
:108B000000F02BFE0120C02100F09EFE012020215C
:108B100000F030FE0120214600F042FE0C4B012205
:108B20001A60204600F0F4F90A4B1C600A4B1C60E6
:108B30000A4B1D600A4B1C6038BD00BF10030020AB
:108B4000505C0040005C004004300020E80200203F
:108B5000F00100200C020020FC010020AC010020EC
:108B600008020020094B10B51B6800249C72FFF717
:108B70008FFD074B074A1C604FF43F431380064AA2
:108B80001360FFF785FE054B1C6010BD100300202D
:108B9000445C004014030020405C0040F0010020D1
:108BA00013B5032000F0BEFE264C4FF400512060A8
:108BB000032000F0F5FD244B1A78022A38D1013247
:108BC0001A702368934233D9013201A84FF4887197
:108BD00000F0B1FD9DF805209DF80430452A01D034
:108BE000002303E0312B14BF002301239DF806204E
:108BF000412A18BF00239DF80720462A18D1BBB18F
:108C0000124B4FF0C24443F0010C6FF0060E104BB4
:108C1000184685464FF001006146224604B402B46E
:108C200001B401B401B401B401B401B4F646704713
:108C3000044B08481A684FF4887192B200F07BFD2B
:108C40001CBD00BF0402002000020020F9880008BB
:108C50000008002020020020184B30B5DB68447863
:108C6000DB4303F4E0631B0AC3F1040214FA02F2CB
:108C70000F24DC40817803780C40144303F0030C8C
:108C80004FEACC0C2401FF2004FA0CF400FA0CF09B
:108C90000B4A9908C03152F8215025EA000C04EA29
:108CA000000040EA0C0042F821005909012003F0BD
:108CB0001F0310FA03F342F8213030BD00ED00E04D
:108CC00000E100E0024A034BDA6000BFFDE700BFAD
:108CD0000400FA0500ED00E010B5074C20B9226849
:108CE0004FF00101118210BD044B1B681B689847AF
:108CF00020680A3010BD00BF100300200C030020C4
:108D000010B50A4B0A491B684978DA7891420AD3B0
:108D1000997841B99C8834B99A72064B1B685B6894
:108D20009847204610BD022010BD00BF1003002050
:108D3000A00100200C03002010B5074C20B92268C8
:108D40004FF00101118210BD044B1B689B689847CE
:108D500020680C3010BD00BF100300200C03002061
:108D600038B50E4C0E4B22681B6850799B69D17840
:108D7000984723689A7A7AB170B91A7962B99D785E
:108D800055B9084B1B68DB689847236828465A7911
:108D9000DA72DA781A7338BD022038BD1003002069
:108DA000E80200200C03002008B50246244B20B93D
:108DB0001B684FF0020119823FE0224A4FF0000188
:108DC0001B681180197811F07F0112D15B7A13F0C2
:108DD000200F03D0117841F00201117013F0400F01
:108DE000184B1A7814BF22F0010242F001021A70E7
:108DF0001EE0012921D0022901D000221DE059796D
:108E000001F00F039B0003F1804303F5B84311F019
:108E1000800F1B6803D003F03003102B03E003F432
:108E20004053B3F5805F03D1137843F0010313700F
:108E3000054B1B681B699847024A104608BD00BFD6
:108E400010030020E00200200C03002010B51D4B91
:108E50001D4C186894F800C0417921F080029300FD
:108E600003F1804303F5B8431B6811F0800F14BF72
:108E700003F0300303F44053624521D24488FCB927
:108E8000F3B1837AE3B1930003F1804311F0800FD3
:108E900003F5B843196806D048F6BF7201EA02022A
:108EA00082F0100205E04BF68F7201EA020282F4B2
:108EB00080521A60054B1B689B699847002010BDC3
:108EC000022010BD10030020A00100200C03002090
:108ED00008B5064B1B685A7A42F020025A72044BBE
:108EE0001B68DB699847002008BD00BF1003002005
:108EF0000C030020054B1A68538A18B98988CB1ACD
:108F00001382704708681818704700BF10030020CC
:108F100030B50E4B1C78002310E05FFA83FC4FEA5B
:108F20008C0202F1804202F5B842156848F68F7152
:108F300005EA010141EA0C0111600133A342ECD3BF
:108F4000034B40F08000186030BD00BFA00100203E
:108F50004C5C00407047000008B50C4B002093F8B3
:108F60002C1000F0BFFC0A4B1B68187A082807D1A8
:108F7000084B4FF480521A80074B4FF010021A80B2
:108F8000092814BF0020012008BD00BF14010020E3
:108F900010030020160300201803002070B52E4B8C
:108FA0001C68237A032B01D0052B46D1A369228AA2
:108FB000ABB1A2B1A58A954228BF1546284698476D
:108FC000238A06465B1B2382638A0020EB18638298
:108FD00000F06CFC2A460146304600F0ACFB238AC8
:108FE0005BB11E4B4FF4405200201A80014600F046
:108FF0006BFC1B4B4FF030021A80238AA28A9A42E4
:1090000003D8154B03221B6803E0134A1BB11368F6
:1090100005221A720DE0126806211172114A1168B8
:10902000114A89B28A18520013600D4B4FF030027A
:109030001A80094B1B681B7A06E0072B03D10B4BE8
:109040001B68DB6898470823034A12681372BDE85F
:109050007040FFF781BF00BF1003002016030020FF
:1090600018030020505C004002300020E80200207D
:10907000F8B5244B1C68238A267AC3B9042E16D16E
:10908000214822490278012A0CD1214A0370126832
:109090001FFA82FC1F4A6244520013604FF03002F4
:1090A0000A802AE04FF010030B80072625E0A58AEE
:1090B000AB4294BF042602269D4228BF1D46284687
:1090C000A36998470746002000F0E2FB2A460146C4
:1090D000384600F019FB2946002000F0F5FB238AF2
:1090E0004FF030025B1B2382638AED18074B6582C9
:1090F0001A80094B4FF440521A80024B1B681E72B3
:10910000F8BD00BF1003002010020020180300204B
:10911000505C0040023000201603002010B5144BB4
:109120001B681A7A022A01D0042A05D1FFF7A0FF92
:109130000F4B1B681B7A14E0062A11D15A78052AB6
:109140000AD11A7812F07F0F06D1D878FFF7E0FE27
:10915000084B1B681B6A9847074B1B689B6898471E
:109160000823034A12681372BDE81040FFF7F4BEEB
:10917000100300200C030020E802002010B5304B43
:109180001B68187810F07F0004D15A7A22F0200270
:109190005A7210BD022851D15A88002A4ED11A792C
:1091A000002A4BD15A7922F08000840004F18044D7
:1091B00004F5B8442168234C12F0800F94F800C0E5
:1091C00014BF01F0300101F44051604536D200294E
:1091D00034D09B7A002B31D0840004F1804404F514
:1091E000B84412F0800F23680CD003F03003102B2A
:1091F0001ED1C4B2204600F015FB2046302100F0FD
:10920000B9FA15E003F44053B3F5805F10D128B9E3
:109210000D4B93F82C1000F065FB01E000F0F0FA24
:1092200022684BF68F7302EA030383F440532360F2
:10923000064B1B685B699847002010BD022010BDDB
:1092400010030020A0010020140100200C030020C6
:109250008C4BF7B51A688C4E8C4B92B2D31835688C
:109260005B001F682B7A092B1AD0BFB207F1005799
:1092700007F540577F003C4614F8013B2B707B7884
:109280000A376B70B4F8030000F05CFB6880B4F838
:109290000700356800F056FBA88033687F88DF80C0
:1092A000794C012322681372D3885578002B62D140
:1092B000137813F07F032ED1092D02D1FFF720FD83
:1092C0003BE0052D0DD192F90330002B4EDB937856
:1092D000002B4BD19388002B48D1937A002B37D0A9
:1092E00044E0032D0BD1D378012B27D193882BBBDE
:1092F000537A13F0200F21D0FFF7EAFD1DE0012D76
:109300001CD1D378012B19D19388BBB9537A13F0B0
:10931000200F13D00AE0012B04D10B2D0ED1FFF743
:109320001FFD0AE0022B09D1012D02D1FFF726FF14
:1093300003E0032D02D1FFF789FD48B1544B2846C5
:109340001B685B699847032801D109230FE068B9BE
:109350004C4B4FF030011A684E4B92B2D3185B0061
:1093600000221A604C4B1980062300E00823464A6D
:1093700012681372E0E0062D18D1137813F07F0FF6
:1093800040F094809378012B03D1414B1B68DB693B
:109390006CE0022B03D13E4B1B681B6A66E0032B7B
:1093A00040F084803A4B1B685B6A5FE0002D3BD144
:1093B000518800297AD1536823F47F43B3F5003FE5
:1093C00074D1137813F07F0303D19388002B6DD1F0
:1093D00028E0012B0BD12E4B50791B689B699847D5
:1093E000002863D123689B7A002B5FD01AE0022B00
:1093F0005CD15379294803F00F018A0002F18042C1
:1094000002F5B8421268007813F0800F14BF02F022
:10941000300202F44052814248D213F0700F45D11D
:10942000002A43D01E4B22E0082D05D1137813F0FB
:109430007F0F3BD11B4B1AE00A2D37D1137803F075
:109440007F03012B32D1937A002B2FD0518869BB37
:10945000536823F47F43B3F5803F27D10C4B5079F9
:109460001B689B69984708BB0F4B00E0F3B1064AA5
:109470004FF000011268002051829361984700204C
:109480001FE000BF505C00401003002004300020AB
:10949000E80200200230002018030020A001002074
:1094A000A98D0008D98C0008398D0008254B264C61
:1094B0001B6822681B6950789847032801D12368EC
:1094C00006E0214B4FF6FF711B681A8A8A4201D1D0
:1094D000092203E0022800D012B908221A722BE0F8
:1094E00093F90010002921DAD9880191019882426C
:1094F00002D9019A1A8211E08A420FD211490968F1
:1095000091F82C108A4201D2002105E092FBF1F083
:1095100001FB102212B901210C4A1170094A12688C
:1095200092F82C209A82FFF7A3FD05E003221A721D
:10953000074B4FF440521A8003B0BDE8F040FFF7EC
:109540000BBD00BFE8020020100300201002002025
:109550001603002008B5074A074B0849136002228A
:109560001A72074B074A1360074A1B681160984735
:1095700008BD00BF10030020F00200207C01002085
:1095800014010020E80200200C03002038B59FE001
:1095900047F6FF7119601388534903F00F030B70EE
:1095A000002B69D1514C524D2368216803F440537C
:1095B0002B80504B01F03001198021684BF68F73DE
:1095C00001EA030383F400532360216848F6BF7364
:1095D00001EA030383F020032360138813F0100FC4
:1095E00004D023689BB213F0800F08D0226848F69D
:1095F0000F7302EA03032360FFF790FD16E013F4F4
:10960000006F08D0226840F68F7302EA03032360DC
:10961000FFF71EFE0AE013F4004F59D0226840F60F
:109620008F7302EA03032360FFF7B8FC22684BF64E
:109630008F7302EA03032A8812F4805F18BF83F451
:10964000805312F4005F294A18BF83F4005313605B
:10965000126848F6BF7302EA0303264A128812F022
:10966000100F18BF83F0100312F0200F1F4A18BF0D
:1096700083F02003136038BD9B0003F1804303F5A2
:10968000B8431C68A4B214F4004F0BD0186840F61D
:109690008F7200EA02021A600A78174B013A53F8F7
:1096A0002230984714F0800F12D00F4948F60F72FD
:1096B0000B789B0003F1804303F5B843186800EA78
:1096C00002021A600A780D4B013A53F8223098478B
:1096D0000B4B0C4A196889B21180118809B2002914
:1096E000FFF656AF38BD00BFEC020020005C004022
:1096F0001603002018030020600100204401002010
:10970000445C0040EC01002001F10051013201F500
:10971000405110B549005208002309E0C41810F860
:1097200003C06478013A4CEA042C21F813C00233D8
:10973000002AF3D110BD01F10051013201F5405171
:1097400049005208002305E031F813C0013A20F81F
:1097500003C00233002AF7D17047800000F1804037
:1097600000F5B840026848F68F1302EA03030B4382
:1097700003607047800000F1804000F5B840026847
:1097800048F6BF7302EA030311F0100F18BF83F00D
:10979000100311F0200F18BF83F0200303607047FF
:1097A000800000F1804000F5B84002684BF68F73EE
:1097B00002EA030311F4805F18BF83F4805311F4AD
:1097C000005F18BF83F4005303607047800000F10E
:1097D000804000F5B84002684BF68F7302EA03033D
:1097E00083F4405303607047800000F1804000F52F
:1097F000B840026848F68F6302EA030303607047CB
:10980000800000F1804000F5B840036813F4804FF9
:1098100007D0026848F68F7302EA030343F48043DB
:1098200003607047800000F1804000F5B840036895
:1098300013F0400F07D0026848F68F7302EA030363
:1098400043F0400303607047074B4FF6FE721B68FE
:1098500001EA02029BB203EBC00303F1005303F5DC
:1098600040535B001A607047505C0040064B074A4B
:109870001B689BB203EBC0039A184FF6FE735200AD
:1098800001EA030313607047505C0040043000207D
:10989000054B1B689BB203EBC00303F1005303F5B8
:1098A00040535B0018887047505C0040044B054AE9
:1098B0001B689BB203EBC0039A18520010887047D4
:1098C000505C004004300020044B054A1B689BB2EA
:1098D00003EBC0039A18520011607047505C0040BF
:1098E000023000200D4B1A680D4B92B2D31803EBD7
:1098F000C0035B003E2909D94A0911F01F0F01D1AD
:10990000013A92B2920242F4004205E04A0811F094
:10991000010F18BF013292021A607047505C00407C
:1099200006300020054B064A1B689BB203EBC003C0
:109930009A18520010688005800D7047505C0040F6
:1099400006300020C3B2000A40EA0320704700003E
:10995000012007E0022005E0032003E0042001E0ED
:109960000520FFE70D4A0121116072B60C4A002163
:109970001160074902B4084902B486B005498E4611
:10998000704700BFAFF30080AFF30080AFF30080FB
:1099900000000061F9FFFFFF9585000814ED00E06D
:1099A00010E000E0AFF30080AFF30080AFF3008081
:1099B0000E4B0F491A6842F001021A600D4A1068F6
:1099C00000EA01011160196821F0847121F48031ED
:1099D0001960196821F480211960136823F4FE03CB
:1099E0001360054B00221A60704700BF0010024050
:1099F0000000FFF80410024008100240134B1A68E0
:109A000042F001121A60114B1A6812F4003FFAD0AA
:109A10000F4A122111600F490A6842F4E81242F419
:109A200080620A601A6842F080721A60074B1B68F5
:109A300013F0407FFAD0074B1A6842F002021A6016
:109A4000044B1B6813F0080FFAD070470010024057
:109A50000020024004100240024B1A6842F0040247
:109A60001A60704718100240082000F02FB800005C
:109A7000064B07491A68096801328A421A6003DBFB
:109A800000221A60FFF7F0BF704700BF14020020E9
:109A9000D801002010B5FFF78BFFFFF7AFFF0021C3
:109AA0000848FEF7F7FBFFF7D7FF0748FEF73CFC37
:109AB000FEF7B8FB0820002100F03EF8BDE810409A
:109AC000FEF700BF003000083F190100021101211C
:109AD00000F00F0011FA00F0034B53F822301B681E
:109AE000DA685040D860704740A10008002305E0C4
:109AF00000BF00BF00BF00BF00BF01338342F7DBE0
:109B00007047C000FFF7F2BF38B50546002404E0F7
:109B10004FF47A70FFF7F5FF0134AC42F8DB38BD43
:109B2000002305E011F803C0013A00F803C0013337
:109B3000002AF7D1704700002F2803461FDC0829B0
:109B40001DD8DFE801F00705090B0D0F09111300FF
:109B500007220CE003220AE0042208E0002206E0CB
:109B6000092204E0082202E00B2200E00F2204494F
:109B7000181151F8200003F00F01FEF71DBB7047CC
:109B800040A1000850F8043DB3F1FF3FFAD0704700
:109B900038B50A4C6FF05C0363705D332371084B7A
:109BA00008485B7801256371A570E570A060FFF738
:109BB000E9FF054BE0601D7038BD00BF20030020A9
:109BC00048030020000002087103002030B5184B44
:109BD0005A789878012A0DD0022A1AD05A680023A0
:109BE00004E01349C918097A99540133D9B2814262
:109BF000F7D330BD5C681A46002107E01589C3EB36
:109C0000020C02312CF80450C9B202328142F5D361
:109C100030BD5C681A46002107E09568C3EB020C72
:109C200004314CF80450C9B204328142F5D330BD3E
:109C300048030020704708B5804708BD024B034A1F
:109C40001860034B1A6070476C030020859E000863
:109C50007403002009B1FFF7F1BFFFF7ECBF7047B5
:109C6000034B5A68034B1A60034A044B1A6070474F
:109C7000480300206C0300205F9C00087403002050
:109C80000A4B6FF055021A70094A1278A02A02D1C5
:109C90009E3A5A7005E001225A70064A12681278FC
:109CA0009A70054B01221A70704700BF20030020F4
:109CB000730300204003002071030020044B054A79
:109CC000598811705A68044B1A60FFF7D9BF00BF5A
:109CD00048030020730300204003002010B588B023
:109CE00000F017F9041E01DC002016E0202CA8BFAC
:109CF00020246846214600F0FBF89DF80030012B37
:109D000009D1202C07D106480DF101011F22FFF7D0
:109D100007FF204601E04FF0FF3008B010BD00BF44
:109D20004803002010B5094B094C0A481B782278DB
:109D300003704270084902F03F020230FFF7F0FE64
:109D400000232370054B01221A7010BD1C03002054
:109D500079030020200300207C03002071030020F1
:109D600010B50C4600F09AF8204610BDFFF7F8BF7A
:109D700010B51B4B99785A78202904D95868BDE84A
:109D80001040FFF7F3BF012A0ED0022A5A6818D0FC
:109D9000002305E013F802C0124803F800C00133A5
:109DA000D8B28842F6D315E05A68002305E033F8AC
:109DB00002C00C4823F800C00233D8B28842F6D360
:109DC00008E0002303E09C5806481C500433D8B236
:109DD0008842F8D303482021BDE81040FFF7C0BFF8
:109DE000480300202003002010B51D4B1D4A1B789E
:109DF0001370013B0C2B22D8DFE803F01921210A54
:109E0000070D16212113211F1C00FFF7B1FF16E0DB
:109E1000FFF7DCFE13E0124B58685988FFF71AFF72
:109E20000DE0FFF707FF0AE0FFF748FF07E0FFF745
:109E3000AFFE04E0FFF776FF01E0FFF711FF0A4CE9
:109E4000237863B107482021FFF78AFF002323709E
:109E5000064B1B781BB1BDE81040FFF711BF10BDCA
:109E6000480300202003002071030020730300201A
:109E700008B5FFF733FF002803DBFAD0FFF7B4FF84
:109E8000F7E708BD10B504464FF41670FFF73CFE27
:109E90002046BDE81040FFF7CEBE00002DE9F84592
:109EA00007468846FEF718FCE8B1FEF70BFCD0B178
:109EB000CFB10E4B00251E6807E03819C4EB08012E
:109EC000FEF742FC2418A54201D12C4602E0DAF844
:109ED00000602546444506D2DFF810A0DAF80030CD
:109EE0009B1B312BE9D9BDE8F88500BF1802002083
:109EF00070B50E46054608B9044608E0002404E0A3
:109F00002819311BFEF7F0FB2418B442F8D3204681
:109F100070BDFEF7D1BB07B5FFF7FBFF08B90138ED
:109F200005E001A80121FFF7E3FF9DF804000EBD45
:109F300008B5FFF7F0FF002802DAFFF799FDF8E710
:109F400008BD08B5FFF7F4FFAA28FBD1FFF7F0FF23
:109F50005528F7D1FFF78CFFF4E708B5FFF79AFD16
:109F6000FFF7EFFFFCE7FEE701498D46014908478F
:109F700000500020799F000880B5194C194B21E052
:109F800058689968DD6888420CD0002205E0861880
:109F9000D6E9008941E9028908328C460831AA4293
:109FA000F5D101E000EB050C18696146002204E0E0
:109FB0000026002741E90267083208318242F7D1C2
:109FC0001433013C002CDBD100F010F82046214670
:109FD0002246FFF7C2FF044B0BB1AFF30080FEE750
:109FE0000100000074A100080000000070B54AF2F2
:109FF00060164AF26015C0F60006C0F60005761B32
:10A00000B61006D0002455F8243001349847A642F3
:10A01000F9D84AF260154AF26416C0F60005C0F697
:10A020000006761B00F096F8B61006D0002455F80E
:10A03000243001349847A642F9D870BD480000206A
:10A040001C100240181002401410024001020103CB
:10A050000104010501000109010A010F010E0011AF
:10A060000012010B000000010002010C000E0200B2
:10A07000001C001B00150016020602040202010665
:10A08000101002400C1002403203530054004D00E7
:10A090003300320020005600690072007400750021
:10A0A00061006C00200043004F004D002000500074
:10A0B0006F0072007400200020000000260353008F
:10A0C00054004D006900630072006F0065006C0071
:10A0D00065006300740072006F006E006900630029
:10A0E0007300000012010002020000408304405788
:10A0F000000201020001000009024300020100C049
:10A1000032090400000102020100052400011005CB
:10A110002401030104240206052406000107058228
:10A12000034000FF09040100020A000000070503C4
:10A1300002400000070581024000000004030904FA
:10A14000480000205000002058000020600000203F
:10A1500068000020F8B500BFF8BC08BC9E467047F8
:10A1600001810008F8B500BFF8BC08BC9E467047E6
:10A17000ED8000080000000090A100080000002011
:08A18000E0010000E002000014
:08A18800E0FDFF7F0100000073
:10A190000000000008000020000002401100000044
:10A1A000000000000B000000000000000C00000098
:10A1B000000000000D000000000000000E00000084
:10A1C000000000000F000000000000001000000070
:10A1D0000000000011000000000801400000000025
:10A1E000000C0140010100000010014002020000CB
:10A1F000001401400303000000180140190400008E
:10A20000000400400D0100000000000000000000FC
:10A21000000000000000000000000000000000003E
:10A2200000000000000800400E01000000000000D7
:10A23000000000000000000000000000000000001E
:10A240000000000000000000C8000020F000002016
:10A250007000002094000020002C01400B00000042
:10A2600000000000000000000000000000000000EE
:10A2700000000000000000000000000000000000DE
:10A28000000000400C010000000000000000000081
:10A2900000000000000000000000000000000000BE
:10A2A00000000000658B0008458A0008318900081D
:10A2B000338900083589000875890008D9890008A4
:10A2C000398A00082D8A00080D8A00080000000065
:10A2D000400000000989000815890008558F000812
:10A2E000558F0008558F0008558F0008558F0008BE
:10A2F000558F0008558F0008A18B0008558F000866
:10A30000558F0008558F0008558F0008558F00089D
:10A31000E9890008558F0008558F0008558F0008FF
:10A32000558F0008558F0008558F0008018A0008D6
:10A3300004010000F8A0000843000000C000000075
:10A34000E4A00008120000003CA100080400000086
:10A35000BCA000082600000088A000083200000011
:10A3600000C2010000000800A086010000000000FB
:0400000508009F69E7
:00000001FF
