:100000000020001011030000FD02000001030000A9
:1000100000000000000000000000000000000000E0
:1000200000000000000000000000000005030000C8
:10003000000000000000000009030000C50C0000E3
:100040000D0300000D0300000D0300000D03000070
:100050000D0300000D0300000D0300000D03000060
:100060000D0300000D0300000D0300000D03000050
:100070000D0300009D040000850400000D09000030
:10008000350D00009D0600000D030000350C00003A
:10009000610C00004D0D00006D04000055040000CF
:1000A0000D0300000D0300000D0300000D03000010
:1000B000C10600000D0300000D0300002D07000025
:1000C00000B51D4A8E239B00D15820208143D1507A
:1000D00000231362C0460133C82BFBD1164B00210D
:1000E000012219645A6459645A64134A536CD9073B
:1000F000FBD5232393608E239B00D158802081431E
:10010000D1500D4B0122D9681142FAD00321196751
:1001100000215A6759675A67074A0123516F1942EC
:10012000FAD0064993670432D167903213600432E3
:1001300013600432136000BD00800440FFFF010023
:10014000FFFFFFFFFFFFFFFFFFFFFFFFFFFFFFFFBF
:10015000FFFFFFFFFFFFFFFFFFFFFFFFFFFFFFFFAF
:10016000FFFFFFFFFFFFFFFFFFFFFFFFFFFFFFFF9F
:10017000FFFFFFFFFFFFFFFFFFFFFFFFFFFFFFFF8F
:10018000FFFFFFFFFFFFFFFFFFFFFFFFFFFFFFFF7F
:10019000FFFFFFFFFFFFFFFFFFFFFFFFFFFFFFFF6F
:1001A000FFFFFFFFFFFFFFFFFFFFFFFFFFFFFFFF5F
:1001B000FFFFFFFFFFFFFFFFFFFFFFFFFFFFFFFF4F
:1001C000FFFFFFFFFFFFFFFFFFFFFFFFFFFFFFFF3F
:1001D000FFFFFFFFFFFFFFFFFFFFFFFFFFFFFFFF2F
:1001E000FFFFFFFFFFFFFFFFFFFFFFFFFFFFFFFF1F
:1001F000FFFFFFFFFFFFFFFFFFFFFFFFFFFFFFFF0F
:10020000FFFFFFFFFFFFFFFFFFFFFFFFFFFFFFFFFE
:10021000FFFFFFFFFFFFFFFFFFFFFFFFFFFFFFFFEE
:10022000FFFFFFFFFFFFFFFFFFFFFFFFFFFFFFFFDE
:10023000FFFFFFFFFFFFFFFFFFFFFFFFFFFFFFFFCE
:10024000FFFFFFFFFFFFFFFFFFFFFFFFFFFFFFFFBE
:10025000FFFFFFFFFFFFFFFFFFFFFFFFFFFFFFFFAE
:10026000FFFFFFFFFFFFFFFFFFFFFFFFFFFFFFFF9E
:10027000FFFFFFFFFFFFFFFFFFFFFFFFFFFFFFFF8E
:10028000FFFFFFFFFFFFFFFFFFFFFFFFFFFFFFFF7E
:10029000FFFFFFFFFFFFFFFFFFFFFFFFFFFFFFFF6E
:1002A000FFFFFFFFFFFFFFFFFFFFFFFFFFFFFFFF5E
:1002B000FFFFFFFFFFFFFFFFFFFFFFFFFFFFFFFF4E
:1002C000FFFFFFFFFFFFFFFFFFFFFFFFFFFFFFFF3E
:1002D000FFFFFFFFFFFFFFFFFFFFFFFFFFFFFFFF2E
:1002E000FFFFFFFFFFFFFFFFFFFFFFFFFFFFFFFF1E
:1002F000FFFFFFFFFFFFFFFFFFFFFFFF00B5FEE770
:1003000000B5FEE700B5FEE700B5FEE700B5FEE785
:1003100008B50B4A0B4B03E0117801321970013319
:1003200009498B42F8D3094B02E000221A700133CD
:10033000074A9342F9D3FFF7C3FE00F01DFCFEE726
:100340002722000000000010180000101800001004
:10035000F80F001062B6704772B670471F2318403E
:1003600001238340181C024AC0235B00D050704711
:1003700000E100E038B5041C0D1CFFF7EDFF084B51
:1003800061005A690C190121A1408A435A615A69D6
:10039000A5402C1C14435C61FFF7DCFF38BDC04650
:1003A0000000014008B5C3010B4A1B18591C5B0033
:1003B0009B184900895CD8781A79000212045B798D
:1003C00010431B060843184300F072FC034B1A69E4
:1003D00001321A6108BDC046C000001018000010AC
:1003E000F8B51A4A8600B3185C69002C08D1C2011E
:1003F0001018174ACCB240008454596201220BE015
:10040000C501CFB2124AAC46012C07D1604440006E
:1004100082185770596302225A6116E02918490060
:100420000D19AF545F6B013402375C61A7420CD1E8
:1004300000245C618B5C002B02D1FFF7B3FF04E06A
:100440008B5C012B01D1014AB350F8BD180000109C
:10045000C000001008B5044B0320D968FFF7C0FFA7
:100460001720FFF77BFF08BDA000001008B5044B64
:1004700002209968FFF7B4FF1620FFF76FFF08BD51
:10048000A000001008B5044B01205968FFF7A8FF31
:100490000E20FFF763FF08BDA000001008B5044B55
:1004A00000201968FFF79CFF0D20FFF757FF08BDDC
:1004B000A000001038B50D1C041CFFF74DFF054AC5
:1004C000A400A318A05819692A1C00F0BBF9FFF773
:1004D00041FF38BD6C21000038B50D1C041CFFF72E
:1004E0003BFF054AA400A318A05819692A1C00F074
:1004F000D7F9FFF72FFF38BD6C210000F0B5604E33
:100500008400A35983B0013B071C162B00D9A3E03C
:100510005C4A9B009B585C4D9F465C496319896807
:100520001A6A65591B6964311160281C191C0193F2
:1005300000F0ACF9524E012812D1381C0021FFF70F
:1005400019FF281C019900F0D3F9381C0121FFF78D
:10055000C3FF0023A3514E4B5A6C01325A648DE005
:100560004C4B0022E2500E2374E04849631989681D
:100570001A6A643111606059196900F087F9454BB6
:10058000E258A1590E3988401043E05041E03F49FC
:10059000631989681A6A323111606059196900F06B
:1005A00075F9002803D13A4B9A6C01329A64344BA6
:1005B000BF001722FA5061E00021FFF7DBFE7B1934
:1005C00030331A781F231A40012393401A1C324BF0
:1005D0005A6035E02D49631989681A6A64311160DF
:1005E00060591969002200F047F9022332E02749D7
:1005F000631989681A6A64311160264A6059A158E2
:10060000A259023AD1400A1C01210A40196900F09E
:1006100033F9A35901331DE01C49631989681A6A2B
:100620006431116060591969012200F025F90B232A
:1006300010E00021FFF79EFE381C0021FFF73AFF73
:1006400063191969605900F053F9381C0121FFF74B
:1006500043FF0023A35111E0381C0021FFF78AFE5D
:10066000094ABC00A318A058196900F041F9381CC8
:100670000121FFF731FF024B0022E25003B0F0BD31
:10068000B0000010102100006C21000000000140AB
:1006900018000010A0000010FCE100E070B500257B
:1006A000064E01243368AC401C4203D0281CFFF7DF
:1006B00025FF34600135042DF2D170BD00000140EA
:1006C000F8B500240025012D25D0154E331C10331C
:1006D0003059195900F0FEF800281CD0114AAF001B
:1006E000BB58002B10D1281C0021FFF7F5FE0E4A45
:1006F00020369268335932321A60281C0121FFF7E4
:1007000039FE084A0D23BB50054A131C10331059FB
:10071000195900F0EDF801350434042DD3D1F8BD9A
:100720006C210000B00000100000014010B5002056
:10073000032100F0CFF8002816D00C4C6368002B82
:100740000ED101200021FFF7C7FE094B01209A6856
:100750001C3332321A600121FFF70CFE0D23636057
:100760000020032100F0C4F810BDC046B000001006
:100770000000014008B5002808D001200521012211
:1007800000F060F801200521002207E0012005218A
:10079000002200F057F801200521012200F06CF83A
:1007A00008BD08B5002808D000200721012200F06C
:1007B00049F800200721002207E00020072100223D
:1007C00000F040F800200721012200F055F808BD94
:1007D00008B5002808D002200021012200F032F8DC
:1007E00002200021002207E002200021002200F068
:1007F00029F802200021012200F03EF808BD10B5C2
:10080000041C01202040FFF7E3FF02202040FFF7F7
:10081000C8FF04202040FFF7ADFF10BD08B5084A0F
:10082000002393601365A03213600020FFF7D0FF10
:100830000020FFF7B6FF0020FFF79CFF08BDC04671
:100840000040044010B50B4B8000002A08D0C2586D
:1008500080231B020124D0588C40211C014307E057
:10086000C25880231B02D05801248C40A043011C95
:10087000D15010BDA0210000034B8000C3580420BC
:100880008A408840C2507047A0210000034B80007E
:10089000C35804228A40D058C8407047A0210000A5
:1008A00010B50A4B8000002A07D0C258084B01241B
:1008B000D0588C40211C014306E0C258044B01244F
:1008C000D0588C40A043011CD15010BDA021000085
:1008D00010800000044B8000C258044BD058012304
:1008E000C84018407047C046A02100001880000092
:1008F000044B8000C25801238B40191C024BD1507D
:100900007047C046A02100001C80000010B5802365
:10091000DB055A68D2B2282A46D0282A0DD8102AD8
:1009200027D0102A03D8082A00D090E014E0182A13
:100930002DD0202A00D08AE081E0482A7FD0482AA2
:1009400005D8302A30D0402A00D080E04DE0502A2F
:1009500052D0582A7BD165E03F4A002111601168CE
:100960003E48405C01319860116028219961012363
:100970000BE0394A0021916011683848405C013130
:1009800098601160282199610223536063E0324A24
:10099000516801295BD111683048405C0131986091
:1009A00004231160536052E02B4B2D4A19681268E2
:1009B000914209D21968294A505C8022D20501313E
:1009C00090601960042208E0264A1268002A06D0C6
:1009D0008022D2052021116003225A6037E00522CF
:1009E0005A608023DB05102204E01E4A1268012AA7
:1009F00015D004221A602AE0174A1B4891689C68A7
:100A0000E4B2445401319160164990680968884203
:100A100003D204215160196019E0052151600422BC
:100A20009A6114E00C4A104891689C68E4B24454FE
:100A3000013191600521516010221A6009E0802384
:100A4000DB0508229A61044B05225A6003E08023EB
:100A5000DB0508229A6110BD68000010FC0400103C
:100A600004050010EC040010F004001008B5054A5D
:100A70008000831899698058FFF708FF01235840C8
:100A8000C0B208BDB021000038B5134C0025E8B253
:100A9000FFF7ECFF2378012B0AD0002B04D0022BA8
:100AA0000AD0042B12D10BE0431E984120700DE0B8
:100AB000002807D0022308E0002803D0032304E025
:100AC000002801D1002300E0042323700135013404
:100AD000062DDCD138BDC0460805001070B51B4B93
:100AE0001B4A186800248300D218111C07230E68C3
:100AF000012535409D402C432031013BF7D207238F
:100B00000025116820328907C90F99400D43013B28
:100B1000F7D201238340181C00F0C6F8201C00F017
:100B2000C3F8281C00F0C0F8012009210122FFF7BA
:100B3000A3FE012009210022FFF79EFE034B07219F
:100B40001A6801320A401A6070BDC0467C0000106D
:100B50001005001008B501F063F9AA28FBD101F0D7
:100B60005FF9552802D100F025FDF4E7A528F2D160
:100B7000552001F025F9EEE708B500F0B9F8FFF7C8
:100B80004DFE084800F06EF9074B91229A6710223B
:100B9000DA641A665A660720FFF731FEFFF7DAFFBC
:100BA000F9E7C04640420F000040044010B51C4B1E
:100BB0001C68002C07D1012004210022FFF75CFEF5
:100BC000184B1C6018E0184B164C1A68174B9A42C9
:100BD00007D9012004210022FFF74EFE00232360E5
:100BE0000AE02268124B012004219A4201D8002217
:100BF00000E00122FFF740FE0B4B1A68094B520838
:100C00001968521809491A608A4201D900221A60EB
:100C1000034B1A68002A02D01A68013A1A6010BD04
:100C20001C0600108000001010060010C05D0000BF
:100C3000DF2E000038B5074C042523682B4208D06E
:100C4000054B1B68A361054B1B68E361FFF7AEFF13
:100C5000256038BD00800140180600101406001001
:100C600000B5064B0121DA690A4200D0196202235D
:100C70001A4201D0014A136200BDC0460000044080
:100C800000B5084B1222D9680A40022AF9D19860AF
:100C9000044BDB68D906FBD4024BDA685107FBD55D
:100CA000986800BD0000044008B5FFF7E9FF08BDE3
:100CB000024B01221860024B5A6070472006001058
:100CC0008400001008B5084B5A68002A05D0074A6E
:100CD00012681A6000225A6002E01A6801321A6033
:100CE000FFF7D2FE08BDC0468400001020060010A9
:100CF00008B50C4B6421186801F05AF90A4A904271
:100D00000FD80A4B1040013809495860086A104052
:100D1000C022120602430A6200229A6007221A6069
:100D200008BDFEE714000010FFFFFF0010E000E028
:100D300000ED00E038B5044D01242B68234202D0B9
:100D4000FFF7CCFE2C6038BD00C0004010B5234B2F
:100D50009A681207520F032A1AD15A699E21D2B2F9
:100D6000101C084003D01E490A601B6834E0D107FC
:100D700032D51C4A11681C681B4BE4B25C5401312B
:100D80001160802311681B01994225D1106023E076
:100D9000022A0ED1134A11681868134BC0B2585476
:100DA00001311160802311681B01994214D1002385
:100DB00006E0062A06D10A4A802311685B000B432D
:100DC000136009E0012A07D158692021074B01402F
:100DD00001D01A7000E0197010BDC04600800040BC
:100DE000240E00108C0000102406001000000010DB
:100DF00010B507E0054B5A699406FBD50278013916
:100E00001A6001300029F5D110BDC04600800040B5
:100E1000034B58681B68C01A431E98417047C04670
:100E20008C00001000B50C4B59681A689142FAD03A
:100E30000A4A062151605A680949885C5A68013299
:100E40005A60596880221201914201D100225A60F1
:100E5000024B07225A6000BD8C0000100080004049
:100E60002406001070B5264A01231370254A00217C
:100E700011605160244980229203CA67234A0725E2
:100E80001168061CA94311601168214C19431160B7
:100E900004321168A94311601168194311601D499A
:100EA0008022C86F52010243CA671B4A1360832322
:100EB000E3601168194B1A4A9B6F1068584301F0A0
:100EC00077F8311C000901F073F8030A6360C0B2BF
:100ED00003232060E360A56063690D4B5A696023BA
:100EE0001340602BF9D100E01B68094B5A69D10708
:100EF000FAD40C49802292030A6005225A6070BD20
:100F0000000000108C00001004E100E0A440044048
:100F10000080004004800440988004400080044029
:100F20001400001000E100E0704700B5002301E06C
:100F3000C04601338342FBDB00BD08B5C000FFF7AC
:100F4000F4FF08BD38B5051C002404E0FA20400178
:100F5000FFF7EBFF0134AC42F8DB38BD08B5094BB5
:100F600001211A6881400132081C1A60824207DBA5
:100F700000221A60044B1868421C1A60FFF73FFCFD
:100F800008BDC046940000100400001008B5031C02
:100F90000F2100111940FFF779FC08BD08B5031CAB
:100FA0000F2213400A1C511E8A410011191CFFF721
:100FB00063FC08BD08B5031C0A1C0F210011194071
:100FC000FFF740FC08BD4B4201384118181C08408F
:100FD0007047000010B5084C084B09482360094BC6
:100FE0008021C018084BC900C01AFFF7ECFF074B5F
:100FF000002260601A6010BD08000010B20E0010E0
:1010000018000010272200002A0E0010980000107F
:10101000014B18727047C0460800001000B5043834
:1010200003680133FBD000BD70B50C4C60235B42FC
:101030000125637000260A4BA570E57026715B7868
:10104000802000026371A060FFF7E8FF054BE060BD
:101050005A685E60044B22611D7070BD2C0E00103A
:10106000700E001098000010AE0E001010B5134B5B
:101070005878598801280DD01A1C0832022814D03B
:101080005B68C91803E010780132187001338B4295
:10109000F9D112E058680022083303E01C880233BB
:1010A000145202328A42F9DB07E05868002302E05A
:1010B00010CA1C5004338B42FADB10BD700E0010B6
:1010C000704708B5804708BD00B50A4B562252420A
:1010D0001A70094A1278A02A02D102225A7005E039
:1010E00001225A70054A126812789A70044B012244
:1010F0001A7000BD2C0E0010B10E0010680E00100A
:10110000AE0E001008B5054B054A598811705A6893
:10111000044B1A60FFF7D8FF08BDC046700E0010E0
:10112000B10E0010680E0010054B064A5978117078
:101130009978054A1170DA78044B1A707047C046E6
:10114000700E00106C0E0010AD0E0010B30E0010EB
:1011500008B5024B5878FFF75BFF08BD700E001012
:1011600010B5094B09480A4C1B783F2203702378BD
:10117000084943701A40023000F09AFE00232370A1
:10118000054B01221A7010BD290E00102C0E001004
:10119000B40E0010B80E0010AE0E001038B5051CCD
:1011A0000C1C00F028FE002801DC002403E0281CB1
:1011B000211C00F00FFE201C38BD38B5041C0D1C8E
:1011C0001220FFF7CBFE201C291CFFF7E7FF0028A9
:1011D000F6D038BD08B5034B5878002801D0FFF78A
:1011E000B1FE08BD700E001008B5044B586800F041
:1011F0004FFE002000F0E4FD08BDC046700E001058
:1012000010B5041C002905D0FFF78EFE9620C00003
:10121000FFF798FE201CFFF754FF10BD08B5C00073
:10122000FFF783FE08BD08B509200021FFF7B6FED1
:1012300008200021FFF7B2FE09200121FFF7BAFEC6
:1012400008200121FFF7B6FE10200121FFF7B2FEB2
:1012500000210620FFF7AEFE6420FFF7DFFF01212B
:101260000920FFF79BFE6420FFF7D8FF092000212B
:10127000FFF794FE08BD000008B51C4B9B78DA060A
:1012800018D509200021FFF795FE08200021FFF75F
:1012900091FE10200021FFF78DFE09200021FFF7AD
:1012A0007DFE08200021FFF779FE10200021FFF7C6
:1012B00075FE13E05BB2002B0EDA01210820FFF768
:1012C0006DFE6420FFF7AAFF08200021FFF766FEED
:1012D0006420FFF7A3FF01E0FFF7A5FF044A5623B0
:1012E0005B421370034B01221A7008BD700E001090
:1012F0002C0E0010AE0E001070B5051C0021082049
:10130000FFF74CFE00240026802129401020FFF723
:1013100045FE114B6400187AFFF780FF0620E4B207
:10132000FFF734FE002801D001231C4301210820CF
:10133000FFF734FE084B0136187AFFF76FFFF6B25D
:1013400008200021FFF72AFE082E02D06D00EDB222
:10135000DAE7201C70BDC0460800001038B5051C37
:101360000024285DFFF7C8FF024BE0540134042C31
:10137000F7D138BD2C0E001010B5054C201C013CD7
:10138000FFF7ECFF227801231A40024B1A7010BDC0
:10139000710E0010AE0E0010F0B5284B83B05A78D5
:1013A00001921B789A0707D5254B40221A70254ACF
:1013B00000231370244A1370002428E0204F38784B
:1013C000FFF79AFF204E3078FFF796FF1D4D2878E3
:1013D000FFF792FF194A13199878FFF78DFF1B4BFF
:1013E0008822E0543B7813420DD02A780132D2B2E1
:1013F0002A70002A02D132780132327008229343D7
:101400000F4A137002E0082213433B700134019A23
:10141000E3B29342D2D3094A13785A0705D501980B
:10142000064B02301818FFF799FF044B03B01A78E7
:1014300001231A40064B1A70F0BDC046700E001012
:101440006C0E0010AD0E0010B30E00102C0E00102C
:10145000AE0E001008B5114B1B78272B02D8FFF7F2
:101460009BFF19E02B2B02D1FFF706FF14E02A2B7C
:1014700002D1FFF759FE0FE0282B01D0292B02D112
:10148000FFF77AFF08E02C2B02D1FFF761FE03E0A3
:101490002E2B01D1FFF79EFE08BDC046700E001036
:1014A00010B50C1C00F084FC201C10BD08B5FFF723
:1014B000F7FF08BD10B5174B59885A783C2903DD52
:1014C0005868FFF7F3FF24E0012A0BD0022A13D05B
:1014D0005A68002303E09C5C0F481C5401338B4284
:1014E000F9DB12E05A68002303E09C5A0A481C52B8
:1014F00002338B42F9DB08E05A68002303E09C5872
:1015000005481C5004338B42F9DB03483C21FFF7AC
:10151000C7FF10BD700E00102C0E001010B5204B30
:10152000204A1B7813701F2B02D9FFF793FF26E088
:101530000F2B02D900F004FC21E0013BDBB20C2BA5
:101540001DD8194A9B009B589F46FFF7B3FF16E032
:10155000FFF78CFD13E0124B59885868FFF750FED7
:101560000DE0FFF7ADFD0AE0FFF7CCFD07E0FFF768
:101570005BFD04E0FFF7F4FD01E0FFF735FE0B4CE7
:101580002378002B0BD007483C21FFF789FF00236D
:101590002370074B1B78002B01D0FFF795FD10BD82
:1015A000700E00102C0E0010E0210000AE0E001096
:1015B000B10E001010B590B0FFF70CFD01AC201C6F
:1015C0003C21FFF7FAFD00280BDB2378012B08D123
:1015D000694605313B22044800F06AFCFFF79EFF94
:1015E000ECE710B010BDC046700E001042780378D2
:1015F0001202101C184370470170091241707047A5
:1016000008B5011C0920FFF7C9FC08BD70B5041C12
:101610000E1C002515E008200021FFF7BFFC01216A
:1016200021400620FFF7BAFC0120FFF786FC0820C6
:101630000121FFF7B3FC0120FFF77FFC01356408AF
:10164000EDB2B542E7D370BD08B50821FFF7DEFF64
:1016500008BD08B50421FFF7D9FF08BD10B5041C6B
:101660000020FFF7F6FFE0B2FFF7EEFF2004000EC8
:101670002402FFF7E9FF200EFFF7E6FF0820002114
:10168000FFF78CFC10BD000070B50B4D061C2879CF
:101690008024A40300012043FFF7E0FF0748FFF781
:1016A000DDFFE878AB780002184300010443201CFA
:1016B0003043FFF7D3FF70BD700E0010900188001B
:1016C00008B50020FFF7CAFF08BD08B5FFF7F8FF0F
:1016D000FFF7F6FF08BD000008B50348FFF7BEFF9F
:1016E000FFF7EEFF08BDC0460002040070B5041C01
:1016F0000E1C002516E0E30702D50620012101E0BB
:1017000006200021FFF74AFC01210820FFF746FCD4
:101710000120FFF712FC08200021FFF73FFC0135F4
:101720006408EDB2B542E6D370BD38B5082000219B
:10173000FFF734FC0025002408200121FFF72EFCD0
:101740000120FFF7FAFB06206408FFF71FFC0028C2
:1017500003D080235B421C43E4B208200021013502
:10176000FFF71CFCEDB20120FFF7E7FB082DE3D1EA
:10177000201C38BDF0B54A4A87B005900392494C09
:1017800001E0019BE41822780292002A00D185E052
:101790003F231A4001926A4608320023D35601348F
:1017A000002B2EDA261C002727E0357880212940DF
:1017B0000920FFF7F3FB402129401020FFF7EEFB43
:1017C000102129400820FFF7E9FB0120FFF7ADFBBE
:1017D000082129400920FFF7E1FB042129401020BE
:1017E000FFF7DCFB012129400820FFF7D7FB012090
:1017F000FFF79BFB01370136FFB2019B9F42D4D319
:10180000BFE70020FFF7FCFE002700220092012521
:10181000049700263AE0002E04D123780125049392
:1018200001340027049910202940FFF7B7FB019BE2
:10183000009A013B9A4204D1029B40201840FFF7D6
:10184000DFFE08200021FFF7A9FB0120FFF76DFB59
:10185000059A002A05D00620FFF798FB002800D043
:101860002F43013608200121F6B2FFF797FB082E1F
:1018700004D1039B00261F70013303930120FFF75F
:1018800054FB009B6D000133EDB200936A46137860
:10189000019A9342BFD3039B1F7074E707B0F0BD5A
:1018A0002C0E0010710E0010F8B5041C0F1C161C35
:1018B000002516E0E30702D50620012101E00620FD
:1018C0000021FFF76BFB01210820FFF767FB0120D8
:1018D000FFF733FB08200021FFF760FB01356408A8
:1018E000EDB27B1E9D42E5DBE30702D50620012118
:1018F00001E006200021FFF751FB08200121FFF73E
:101900004DFB002E02D0301CFFF71CFB0120FFF71F
:1019100014FB08200021FFF741FBF8BDF0B50F4C88
:1019200083B0637967780193A37900250093073426
:101930000FE0201CFFF75AFE0421061C009A0198B4
:10194000FFF7B2FFB0B21021FFF7D0FE013502342D
:10195000EDB2BD42EDD303B0F0BDC046700E001035
:1019600010B50C1C0421FFF79FFF201C1021FFF76E
:10197000BDFE10BD10B50C1CE02109010143002281
:101980000020FFF7EDFFDC21C901214300200022E8
:10199000FFF7E6FF10BD000010B5074CF8212079D5
:1019A000FFF7E8FFE078F721FFF7E4FFA078F621E2
:1019B000FFF7E0FF10BDC046700E001008B500280C
:1019C00002D00620012101E006200021FFF7F2FAF3
:1019D00008BD0000F0B583B0FFF7DEFF1D4B1E4EC3
:1019E0005B78002701932FE009200421FFF77EFE9A
:1019F00000200821FFF77AFE0020FFF7DFFF002418
:101A0000082508200121FFF7C9FA0120FFF795FA00
:101A100006206408FFF7BAFA002803D080235B424F
:101A20001C43E4B208200021013DFFF7B7FAEDB2F4
:101A30000120FFF782FA002DE3D101200137FFF7E3
:101A4000BDFFFFB234700136019B9F42CCD303B07F
:101A5000F0BDC046700E00102C0E001008B5002915
:101A600001D0002100E00121FFF7A4FA08BD38B53C
:101A70000120FFF7EEFD0020FFF7E6FD0820002122
:101A8000FFF78CFA01210620FFF7E8FF0120FFF79E
:101A900054FAFFF74AFE051CFFF747FEECB20002BE
:101AA000002104430620FFF7D9FF0120FFF745FA84
:101AB000FFF706FEA0B238BD70B51E4B00259E781C
:101AC000FFF7FEFDFFF708FE0620FFF7DDFD1A48D1
:101AD000FFF7C4FDFFF7F4FD184C28E01848FFF7A6
:101AE000BDFDFFF7F2FDFFF7C2FF011C201CFFF751
:101AF00083FD1448FFF7B2FDFFF7E7FD1248FFF73B
:101B0000ADFDFFF7E2FDFFF7B2FF011CA01CFFF7E0
:101B100073FD0E48FFF7A2FDFFF7D7FDFFF7A7FF04
:101B2000011C201DFFF768FD01350634EDB2B542FA
:101B3000D4D370BD700E0010477820002C0E00101A
:101B4000960BBA00B6DBBA00D6D3BA00B60BBA0011
:101B5000F8B5324B5E799F78002E0CD1FFF7B0FDBF
:101B6000FFF7BAFD2E48FFF779FD2E48FFF776FD07
:101B70000720FFF789FD2C4C002532E02B48FFF7AA
:101B80006DFD201CFFF732FD80239B0300011843ED
:101B9000FFF764FDA01CFFF729FD254B000118434A
:101BA000FFF75CFD201DFFF721FD224B00011843CC
:101BB000FFF754FD2048FFF751FDFFF786FD1F4852
:101BC000FFF74CFDFFF781FD1D48FFF747FDFFF7CD
:101BD0007CFD1C48FFF742FDFFF777FD0135063419
:101BE000EDB2BD42CAD3022E16D1FFF76EFD1648E4
:101BF000FFF734FDFFF769FDFFF76EFD1348FFF7B0
:101C00002DFD1348FFF72AFDFFF75AFDFFF72FFFC1
:101C10000304F1D4FFF760FDF8BDC046700E00105C
:101C20001A0024000A3B8800770E00100003EB0026
:101C30000100200002002000B60BBB00B6DBBB0099
:101C4000B6EBBB00B61BBB0061E7A800003B800001
:101C5000203C8800F0B5384B83B05E789D78033324
:101C6000364F019363E0019B08211C780920214035
:101C7000FFF794F9042121401020FFF78FF902218A
:101C800021400620FFF78AF9012121400820FFF7B3
:101C900085F9802121400920FFF7E0FE4021214005
:101CA0001020FFF7DBFE202121400620FFF7D6FEA3
:101CB000102121400820FFF7D1FE1F4B1B78152B68
:101CC0001ED10920FFF762F9002801D0082400E0A6
:101CD00000241020FFF75AF9002801D004231C43E8
:101CE0000620FFF753F9002801D002231C430820E7
:101CF000FFF74CF9002801D001231C433C70013749
:101D0000002D09D0281CC82D03D9C838FFF71AF9AF
:101D100005E0FFF712F902E00120FFF706F9019B49
:101D2000012001330193FFF708F9013EF6B2002EBE
:101D300099D103B0F0BDC046700E00102C0E0010FB
:101D400008B5194B1B78122B02D1FFF7E7FD23E0F2
:101D5000102B02D1FFF720FE1EE0112B02D1FFF75E
:101D600039FE19E0142B01D0152B02D1FFF772FFB9
:101D700012E0162B02D1FFF7EBFE0DE0172B02D17C
:101D8000FFF79AFE08E0182B01D1002002E0192B82
:101D900002D10120FFF7EEFC034B1A7801231A4011
:101DA000024B1A7008BDC046700E0010AE0E001037
:101DB00010B50C1C002901D0FFF71AF8201C10BD2B
:101DC00000B583B001AB18700121181CFFF7F0FFBC
:101DD00003B000BD70B5061C0D1C002801D1002504
:101DE00007E0002403E0FFF71DF830550134AC4252
:101DF000F9DB281C70BD08B5FFF70AF808BD10B55F
:101E000082B0FFF7F8FF002802D10120404205E030
:101E100001AC201C0121FFF7DDFF207802B010BDCE
:101E200008B5FFF7ECFF0028FBDB08BD08B5FA207A
:101E30008000FFF787F808BD08B5FFF7C1FF002055
:101E400008BD08B50F231840092800DD27303030C1
:101E5000FFF7F2FF08BD10B50A21041C00F0F6F8E8
:101E6000FFF7EFFF201C0A2100F046F9081CFFF7DE
:101E7000E8FF0A20FFF7E0FF10BD10B5041C02E0E8
:101E80000134FFF7D9FF20780028F9D110BD0000F8
:101E900010B50648FFF7F1FF0024201C0134FFF7BE
:101EA000DAFFFFF7C3FF3C2CF7D110BD142200006E
:101EB000F0B585B0032A09D8002A05D00023CC5CF0
:101EC000C45401339342FAD105B0F0BD8218031C0B
:101ED000032403E00D7801311D70013303252342F3
:101EE000F8D10D403DD1D41A22E00D68403C1D6070
:101EF0004D685D608D689D60CD68DD600D691D6118
:101F00004D695D618D699D61CD69DD610D6A1D62FF
:101F10004D6A5D628D6A9D62CD6ADD620D6B1D63E7
:101F20004D6B5D638D6B9D63CD6B4031DD634033E5
:101F30003F2CDADCD41A0AE00D68103C1D604D68B5
:101F40005D608D689D60CD681031DD6010330F2CB1
:101F5000F2DCD41A02E020C9043C20C3032CFADCD2
:101F600023E0EF006C42029704270E597D1BED0021
:101F70000095B446D51A0C190FE0266867460196FD
:101F8000029E0431F7400397009E019F043DB74035
:101F9000039E3E43019F40C3BC460434032DECDC4A
:101FA00003E00C7801311C7001339342F9D38BE7C5
:101FB000002934D00123002210B488422CD30124FC
:101FC0002407A14204D2814202D209011B01F8E791
:101FD000E400A14204D2814202D249005B00F8E74A
:101FE000884201D3401A1A434C08A04202D3001B76
:101FF0005C0822438C08A04202D3001B9C082243A9
:10200000CC08A04202D3001BDC082243002803D0E6
:102010001B0901D00909E3E7101C10BC7047002818
:1020200001D00020C04307B4024802A1401802902A
:1020300003BDC046D90000000029F0D003B5FFF76A
:10204000B9FF0EBC4243891A1847C046002941D047
:1020500010B4041C4C40A44601230022002900D5E2
:102060004942002800D5404288422CD3012424074D
:10207000A14204D2814202D209011B01F8E7E40027
:10208000A14204D2814202D249005B00F8E78842B3
:1020900001D3401A1A434C08A04202D3001B5C082B
:1020A00022438C08A04202D3001B9C082243CC0888
:1020B000A04202D3001BDC082243002803D01B09E6
:1020C00001D00909E3E7101C6446002C00D540420A
:1020D00010BC7047002806D003DB0020C043400836
:1020E00001E08020000607B4024802A140180290D7
:1020F00003BDC046190000000029EBD003B5FFF76F
:10210000A7FF0EBC4243891A1847C0467047C04615
:10211000D4050000EE050000EE050000EE0500000D
:10212000EE050000EE050000EE050000EE050000E3
:10213000EE050000180600003206000058060000F8
:102140001A0500006A0500006A0500006A05000023
:102150006A0500006A0500006A0500006A050000C3
:102160006A0500008E050000B805000003000000AD
:102170000000000003000000030000000500000054
:1021800003000000020000000400000018000140ED
:102190001C00014020000140240001400D0E1617D4
:1021A00000000050000001500000025000000350E9
:1021B000010000000100000000000000000000001D
:1021C00000000000000000000800000009000000FE
:1021D00002000000060000000800000009000000E6
:1021E0006E1500007E1500007E15000050150000E1
:1021F0004A15000056150000681500007E15000005
:102200007E150000621500007E1500007A150000A2
:102210007415000048656C6C6F20576F726C640A0F
:072220000025303278200098
:10222700010000000700000000000008002000086F
:0822370005000000006CDC0250
:0400000300000311E5
:00000001FF
