:1000000000FF0020F9010000ED010000EF010000F9
:10001000F1010000F3010000F50100000000000004
:100020000000000000000000000000003D02000091
:100030003D020000000000003D0200003D02000003
:100040003D0200003D0200003D0200003D020000B4
:100050003D0200003D0200003D0200003D020000A4
:100060003D0200003D0200003D0200003D02000094
:100070003D0200003D0200003D0200003D02000084
:100080003D0200003D0200003D0200003D02000074
:100090003D0200003D0200003D0200003D02000064
:1000A0003D020000F91D00000D1E0000211E000091
:1000B0003D0200003D0200003D020000233B000025
:1000C0003D0200003D020000273B00002B3B0000EA
:1000D0003D0200003D0200003D0200003D02000024
:1000E0003D0200003D0200003D0200003D02000014
:1000F0003D0200003D0200003D0200003D02000004
:10010000032A70B424D941EA00050346AD070C4622
:1001100011D00578431C0C788218A54206D01BE04C
:1001200013F8015B11F8014FA54215D19342F7D1A5
:10013000002070BC7047214618460434043306681A
:100140000D68AE4204D1043A032AF4D82146184679
:10015000002ADED11046ECE7281BEAE7194B1A4AC1
:10016000196810B591420ED15868013290420AD1F7
:100170009C680132944206D1D968144800241C605E
:1001800081604B689847012169204FF4804400F05A
:1001900061FD2168626801F1604303F5803CBCF5B4
:1001A000003F0DD2A2420BDBB2F5801F08DA6920B6
:1001B00000F06AFD20B9054844F2040284609047CB
:1001C00010BD00BF3801FF1F000FAA5500ED00E071
:1001D000044A054B511C1A604A1C59609A60D86049
:1001E000704700BF000FAA553801FF1FFEE7FEE76A
:1001F000FEE7FEE7FEE7000008B5FFF7AFFF0A4A9B
:100200000A4B03E052F8041B43F8041B08488342DE
:10021000F8D3084B02E0002243F8042B06498B4236
:10022000F9D300F00CF8FEE7243C00000000FF1FAB
:100230003801FF1F3801FF1FA0400020FEE708B56E
:1002400001F0FAFD00F0A6F8FEE70000024B0022E4
:100250001A705A70704700BF4801FF1F70470000B6
:10026000023808B5032818D8DFE800F00F080204A8
:10027000022200E00122094B1A7008BD0B780BB175
:10028000012B0AD1054A137008BD02F014F90528A4
:1002900003D1BDE8084000F0BDB808BD4801FF1F0C
:1002A00003F01DBC0378C3F341131BB1012B05D12F
:1002B00003F0F0BB1846194602F0CEB870470000B4
:1002C00008B502F039F8144B5A78012A14D110B944
:1002D0009878421C00E000229A709B780E4A042B0A
:1002E00019D900219170517002F035F8FFF7AEFF77
:1002F000BDE8084000F012B8012802D19A78013216
:1003000000E000229A709878034A042803D900215B
:1003100001239170537008BD4801FF1F1FB50C4A9F
:100320000C490D480D4B00920191029003930C492A
:1003300040226B460B4801F0C6FF01E0FFF7C0FF0B
:1003400009484378002BF9D001F0F8FF05B000BD53
:10035000A5020000A1020000610200005D02000091
:100360004B01FF1F0000FF1F4801FF1F10B50024B5
:100370002046002100F076FC20460021013400F0E8
:1003800061FC052CF4D1024A00231360536010BDB8
:1003900040C0664208B501F0B5FD01F00FFE00F067
:1003A000C1F800F079FCFFF751FF0F4B01221A60F2
:1003B000FFF7B4FF002001F021FE62B6FFF780FFD7
:1003C0000A49087801280AD102F075F8052804D1F5
:1003D00000F0C0F800F090F8F0E70F2000E00E20E9
:1003E00000F0C8F8EAE700BF10B066424801FF1FFE
:1003F000024B00F00F0003EBC00070478C01FF1FA1
:1004000010B50C46FFF7F4FF0023048043804360DF
:1004100010BD000008B500F057FC3F2816DD032092
:10042000FFF7E6FF008803B2012B0FD00320012164
:10043000FFF7E6FF03200649402201F0D3FF28B171
:1004400003200021BDE80840FFF7DABF08BD00BF68
:100450000C02FF1F70B5164604460D46FFF7C8FF95
:10046000042E0FD0062E0DD00223032C03804680CD
:1004700045600FD10848294600F018FCBDE87040DF
:10048000FFF7C8BF032C05D120460021BDE870400E
:10049000FFF7B6BF70BD00BF0C02FF1F37B50546A2
:1004A0000C46002002A901F8010D012002F005F818
:1004B0009DF80730082BF4D00E4B402CA8BF4024E9
:1004C00005F1400255F8041B954243F8041BF9D18D
:1004D00001200146FFF794FF01200649A2B201F076
:1004E00047FF20B101200021FFF78AFF00242046AA
:1004F0003EBD00BF4C02FF1F08B500F031FCAA282A
:10050000FBD100F02DFC552806D1FFF72FFF00F09E
:100510006DFB00F01FF8F0E7A528EED1552000F0A4
:1005200008FCEAE7012108B540F2E31000F08AFB7D
:1005300040F2E3100021BDE8084000F09DBB000040
:10054000034B0146186040F2E31000F095BB00BF7A
:100550008C02FF1F0020FFF7F3BF0120FFF7F0BF61
:10056000034B186880F001001860FFF7E9BF00BF77
:100570008C02FF1F01218140054B5A6801328A42DB
:100580005A6003DB00205860FFF7EABF704700BFE6
:100590008C02FF1F10B5002302E0CC5CC454013371
:1005A0009342FAD110BD034601E003F8011B12F19A
:1005B000FF32FAD2704701F0CEBE00230DE000BF3B
:1005C00000BF00BF00BF00BF00BF00BF00BF00BF33
:1005D00000BF00BF00BF00BF01338342EFDB7047A5
:1005E00038B50546002404E04FF4FA50FFF7E5FF64
:1005F0000134AC42F8DB38BD08B5FFF7E9FD72B64F
:100600004FF4FA70FFF7ECFF054A0648D36803F48D
:10061000E06141EA0003D360BFF34F8FFEE700BF04
:1006200000ED00E00400FA050346002083E8060020
:100630009860D860704700BF002AF0B40346846811
:1006400041DD056891F800C0601C05F804C05C68D5
:10065000DD68A042B4BF04460024561EA54206F041
:1006600001062ED0012090422ED0E6B11D680E5C0E
:1006700004EB000C2E555C68DD68A445B4BF6446ED
:100680000024A5421DD0022090420CD11CE08F5DB9
:100690001E6877555E68DD68B442A8BF0024A54295
:1006A0000FD0904210D0461C0F5C1868651C07558F
:1006B0005C68DF68A542A8BF00256C1C701CAF42B7
:1006C000E5D1002001E000209C60F0BC704700BF35
:1006D0000346DA688068801A44BF5B68C0187047B8
:1006E00004300DC8D31A48BF1B18C01A704700BF8A
:1006F000002A70B40346C46835DD806884424FF038
:1007000000000ED0D5071ED41868651C065D0120B8
:100710000E705C689E68A542B4BF2C460024B442AB
:1007200011D1DC6070BC70479E68B442F9D01E687D
:10073000365D0E545C689E68A542B4BF2C4600240A
:100740000130B442EDD01E68651C16F804C001F8F3
:1007500000C05C680130A542B4BF2C460024651C73
:100760009042E1D1DDE70020DBE700BF2DE9F00793
:10077000B2F10008034684683EDD31F8025B90E880
:100780008010C268A01C3D536045B4BF04460024DD
:1007900008F1FF35944205F001052BD001204045BA
:1007A0002BD0C5B131F8025BA01C3D536045B4BFEE
:1007B0000446002494421DD0022040450BD11CE089
:1007C0004988E145B4BF4C460024B953A91C944262
:1007D00010D0404511D0A61C0D466645A8BF002686
:1007E00035F802AB964206F1020927F804A000F1A1
:1007F0000200E5D1002001E000209C60BDE8F00788
:10080000704700BF4218501E49420840704710B55B
:100810000C4600F077FA204610BD0000084A094B4C
:1008200010B50948094C0A4920609818401A4FF43D
:100830008061FFF7E7FF074B002260601A6010BD80
:100840003801FF1F243C0000422F00203000FF1F12
:100850000000FF1F9402FF1F054B1A68904205DB42
:100860005B689842B4BF00200120704701207047A8
:100870003000FF1F50F8043D0133FBD070470000EB
:1008800038B50D4B0D4C93F801C0F32565704FF44E
:1008900080100125A570E570257184F805C0A06061
:1008A000FFF7E8FFE0600648064B4168002221613F
:1008B00042601D7038BD00BF00270020BC2600200C
:1008C0009402FF1F3E2F0020FFF7A1BF10B5174B6A
:1008D000598858683C295B7803DDBDE81040FFF774
:1008E000F3BF012B10D0022B05D116E01C5C104A7F
:1008F0009C54013300E000238B42F7DB10E01C5ACC
:100900000B4AD452023300E000238B42F7DB07E0AE
:100910001C58074A9C50043300E000238B42F7DB4D
:1009200003483C21BDE81040FFF771BF00270020BD
:10093000BC26002010B5114B5A78598858680833E6
:10094000012A0BD0022A4FF0000204D113E013F861
:10095000014B145401328A42F9DB10BD002203E03E
:1009600033F8024B145202328A42F9DB10BD53F8BD
:10097000044B145004328A42F9DB10BD00270020DA
:1009800010B5064B5C682046FFF766FF20B1204695
:10099000BDE8104000F018BC10BD00BF00270020CB
:1009A000034843880BB100F033BC00F037BC00BFF4
:1009B00000270020F8B50D4E70887468C71CBF1062
:1009C00004D12046BDE8F84000F0E6BB00252046F3
:1009D000FFF742FF18B12046B16800F0D3FB0135A4
:1009E00004340436BD42F2DBF8BD00BF002700200E
:1009F00008B5804708BD000038B50D460446FFF72E
:100A0000ACFD2DB1FFF7D7FD044B9868FFF7F4FD5F
:100A10002046BDE83840FFF7EBBF00BF00270020AD
:100A200010B50A4A0A491478881C0C70094C94F8CD
:100A300000C081F801C00CF03F020749FFF7AAFD92
:100A4000064B0020012220701A7010BDB92600202C
:100A5000BC260020442F0020452F00203E2F0020E0
:100A600008B5044B586800F067FB0020BDE808405B
:100A700000F05FB90027002009480A4B0278AA213C
:100A8000A02A197002D102225A7005E0064A0120FC
:100A90001168587008789870044B012119707047DC
:100AA000412F0020BC260020F82600203E2F0020E9
:100AB0000448054A4188054B117042681A60FFF7E7
:100AC000DBBF00BF00270020412F0020F8260020B8
:100AD00010B50748448800F03BFD2146054800F06A
:100AE00057FD04482146BDE8104000F00BB900BF97
:100AF000002700203C27002010B5244B24491A78F9
:100B00000F2A0A7002D900F0E3FA2DE0013A0D2A0B
:100B10002AD8DFE802F021291E0A070D1B12291529
:100B200029272418FFF7D2FE1EE0FFF703FF1BE082
:100B300058685988FFF760FF16E0FFF721FF13E0C0
:100B4000FFF738FF10E0FFF72BFF0DE0FFF7B0FFD6
:100B50000AE0FFF7BDFF07E0FFF792FE04E0FFF7B2
:100B60005FFF01E0FFF77CFF0A4C237863B13C2173
:100B70000748FFF74CFE084900220878227018B198
:100B8000BDE81040FFF778BF10BD00BF0027002070
:100B9000BC2600203E2F0020412F002038B50546FE
:100BA0000C4600F08BF8002804DD2846214600F0B2
:100BB00091F800E00024204638BD0000014B0122DE
:100BC0001A7270479402FF1F38B505460C46284636
:100BD0002146FFF7E3FF28B90348037A002BF6D03C
:100BE0004FF0FF3038BD00BF9402FF1F30B5134BEC
:100BF000002291B01A72FFF711FE3C2101A8FFF705
:100C0000E3FF002817DB9DF80400012813D10C4AEC
:100C10000DF105030DF13D0518685968144603C42C
:100C20000833AB422246F7D119889A782180A27006
:100C3000FFF762FFE1E711B030BD00BF9402FF1F74
:100C400000270020C205024BD00D43F8201070474A
:100C500000406642C205024BD00D43F82010704799
:100C600000206642C005C30D9A0002F1844000F5E1
:100C7000CC03196070470000C205024BD00D43F849
:100C80002010704700806642C105024BC80D53F822
:100C9000200070470060664203484FF4005200F1A4
:100CA0001001FFF7C1BC00BFA002FF1F03460248AE
:100CB0000A461946FFF7C0BCA002FF1F0148FFF714
:100CC00007BD00BFA002FF1F0148FFF709BD00BF1D
:100CD000A002FF1F70B50E46054670B1002409E062
:100CE000FFF7ECFF0028FBD02919321B0448FFF75F
:100CF000FFFC2418B442F3DB00E00446204670BD3C
:100D0000A002FF1F70B506460D4681B100200446C3
:100D100004E03019291BFFF7C1FB2418AC42F8DBB3
:100D2000402803D130190021FFF7B8FB254628469B
:100D300070BD07B502AB03F8040D18460121FFF79B
:100D4000E1FF0EBD07B5FFF7B9FF30B101A80121E2
:100D5000FFF7C0FF9DF8040001E04FF0FF300EBD2B
:100D600008B5FFF7EFFF0028FBDB08BD003118BF17
:100D70000121FFF781BF003118BF0121FFF762BFDA
:100D80002DE9F04F85B00390494B4A480193B0F8E4
:100D90000090494E01E07F193E4696F800A0BAF156
:100DA000000F00F08280771C1AF0800F0AF03F0BD2
:100DB0002CD0002527E016F8014F032004F0800115
:100DC000FFF7D4FF022004F04001FFF7CFFF04F04B
:100DD00020010120FFF7CAFF4846FFF7EEFB032082
:100DE00004F00801FFF7C2FF022004F00401FFF73E
:100DF000BDFF012004F00201FFF7B8FF4846FFF7EE
:100E0000DCFB0135EDB25D45D5D1C4E700240320FC
:100E10000021FFF7ABFF4FF001082646029425465C
:100E20003CE02DB917F8011B4FF0010802912E4646
:100E30000BF1FF32944206D11AF0400F03D0032089
:100E40000121FFF793FF0299022008EA0101FFF751
:100E50008DFF01200021FFF789FF4846FFF7ADFB1A
:100E6000039B33B10420FFF70FFF10B148EA0606D9
:100E7000F6B201200146FFF779FF681CC5B24FEAC0
:100E80004802082D5FFA82F804D1019D05F8016B34
:100E9000019500254846FFF790FB01345FFA84FC7A
:100EA000DC45BED3019B1E7076E705B0BDE8F08F30
:100EB000BC2600203800FF1F012700202DE9F84F35
:100EC000804B8246B3F800807F4D804E04E00BF1EA
:100ED000FF30C6B201364E443378002B00F0EF806D
:100EE0001A0606F1010903F03F0733D54FB996F80A
:100EF0000180B278734948EA02280336A1F80080DD
:100F0000EAE74FF0000B16F8014F002004F0200133
:100F1000FFF731FF072004F01001FFF72CFF03203B
:100F200004F00801FFF727FF022004F00401FFF797
:100F300022FF012004F00201FFF71DFF042004F04E
:100F40000101FFF718FF0BF101035FFA83FBBB45BB
:100F5000D9D1BCE713F0400302D1B3461E46ABE043
:100F6000002440E016F801BF03200BF00801FFF752
:100F7000FDFE02200BF00401FFF7F8FE01200BF04C
:100F80000201FFF7F3FE04200BF00101FFF7EEFE74
:100F9000BAF1000F22D00320FFF776FE002814BF1D
:100FA0004FF0080B4FF0000B0220FFF76DFE18B159
:100FB0004BF004005FFA80FB0120FFF765FE18B1DB
:100FC0004BF002015FFA81FB0420FFF75DFE18B1D0
:100FD0004BF001025FFA82FB05F801BB4046FFF7C8
:100FE000ECFA0134E4B2BC42BCD109EB040673E76D
:100FF0001BF8014F002004F02001FFF7B7FE072087
:1010000004F01001FFF7B2FE032004F00801FFF71F
:10101000ADFE022004F00401FFF7A8FE012004F059
:101020000201FFF7A3FE042004F00101FFF79EFE7A
:10103000BAF1000F3BD00620FFF726FE002814BFB0
:10104000802400240520FFF71FFE10B144F0400368
:10105000DCB20020FFF718FE10B144F02000C4B24B
:101060000720FFF711FE10B144F01001CCB20320AD
:10107000FFF70AFE10B144F00802D4B20220FFF7D5
:1010800003FE18B144F0040C5FFA8CF40120FFF762
:10109000FBFD18B144F0020E5FFA8EF40420FFF756
:1010A000F3FD10B144F00104E4B205F8014B4046F1
:1010B000FFF783FA0136F6B2BE4299D10BE7BDE8DD
:1010C000F88F00BF3800FF1FBC260020012700203A
:1010D00010B50F4C0820FFF74DFA2378182B01D1DB
:1010E000002002E0192B03D10120FFF749FE08E0A0
:1010F0001A2B01D1002002E01B2B02D10120FFF7A7
:10110000DDFE2078034B00F001021A7010BD00BF15
:10111000002700203E2F002008B5FFF70AFE002020
:1011200008BD10B5044601E0FFF7F6FF14F8010B07
:101130000028F9D110BD000038B50A48FFF7F1FFCB
:1011400002250948FFF7EDFF202420460134E4B2D0
:10115000FFF7E2FF522CF8D1013DADB2002DF0D1E6
:1011600038BD00BF0E3C00001B3C00000023044AB9
:101170004FF0FF3199500433B3F5805FF7D17047DA
:101180008C30002040F6FC7200EA0203014A9950BC
:10119000704700BF8C300020B0F5804F10B501467D
:1011A00009DBB0F5801F06DA054B02201C68054AF2
:1011B0004FF48053A047BDE81040FFF7D7BF00BFF2
:1011C000883000208C3000200205130D10B5014638
:1011D000D3B9B0F5804F13DBB0F5801F10DA20F0E3
:1011E0007F4222F47E032BB1B0F5004F08DC83046C
:1011F000980C28B9054C0022246801201346A0470A
:10120000BDE81040FFF7B2BF10BD00BF883000201E
:10121000014B00221A6070478830002010B5064943
:10122000064C21F0010120464FF40072FFF7B2F99D
:10123000034B01341C6010BD45120000B022FF1F9B
:10124000883000202DE9F04372B671B6414F424E0E
:1012500041F250553D6040F6A827376021F47E5496
:101260003E4E4FF0804C4FF0010824F07F04346074
:10127000CCF80080DCF80080DFF8E4C00128CCF86E
:10128000008028D1AA214FF0550030234FF080096B
:1012900029804FF030083880A5F8009029803880E8
:1012A00023802388A4F80480238823882188238826
:1012B00001F040029BB203F0400090423DD09B06FB
:1012C000F4D52188238801F0400203F04000801A01
:1012D00018BF012032E002282FD1581C4310316082
:1012E000002027E041F250574FF0AA0932F9025B83
:1012F00040F6A828A7F800904FF05509A8F80090EC
:101300004FF0A008A7F800800D8005F080040D883C
:101310000D88ADB205F08007A74209D0AD06F7D51C
:101320000D8805F08005A54202D03160012005E05E
:10133000013002319842D5DB316000204FF080410E
:1013400002230B600A68CCF8002062B661B6BDE8E3
:10135000F08300BF9440002090400020984000207F
:101360008C400020013810B50F2811D8DFE800F0BC
:101370002B1A10101010101110101010101010084F
:1013800040F29C0EC1F6FF7EDEF824100120884753
:1013900010BD40F29C0CC1F6FF7CDCF8243000202C
:1013A000984710BD42F2B042C1F6FF72012340F2ED
:1013B0009C041370C1F6FF74A46A02F58B7002F5E9
:1013C0008C71A04710BD42F2B044C1F6FF742146B3
:1013D000102301F8043B0020224600F0C5FC002841
:1013E000D6D104F58270211D2278FFF7BFF90028BD
:1013F000CED1D4F80C210121C4F8102184F81411A5
:1014000010BD00BF42F2B041C1F6FF7101F582701C
:101410004FF4803201F58E71FFF706B970B50546BD
:10142000FFF7F0FF2B7B012B4FF440531EBFC4F29C
:1014300003034FF6FF72C3F8002566D04FF4405304
:10144000C4F20303186840F29C0440F080061E605A
:10145000D3F80021C1F6FF7422F08001C3F8001117
:10146000D3F82406092120F47E0626F4F832C3F8C6
:101470002426608994F804C0667961F3491060817C
:1014800007224CF0010EA36862F3440E6FF343068B
:10149000667184F804E062F3912361681E0C6FF3B7
:1014A00010316FF38206A3606160A6726868E27A09
:1014B00094F80CC0060A41F26533C0F2000360F3F1
:1014C000840266F3040CE27284F80CC0E362297BA8
:1014D0002B89012921D02360606980474FF44A722B
:1014E000C4F24E2201251560E1690020884742F2CE
:1014F000383342F2B04C0020C2F20003C1F6FF7C48
:1015000083F894528CF8140170BD0020C4F20303D8
:10151000CFF6FF70C3F8000590E71D042560DBE7F8
:1015200038B542F23834C2F2000494F8940201282B
:1015300001D0002038BD40F29C05C1F6FF75296A34
:101540008847A8698047002384F89432002038BD7A
:1015500038B50146044610220C48FEF7D1FD08B903
:10156000002038BDE368094D20686168A2680FC596
:1015700063783BB1FFF7D4FFA5F11000FFF74EFFF2
:10158000002038BDFFF7CCFF002038BDD02500205B
:10159000F8B5104E04460746A1F1100E42F2B045D0
:1015A0000FCE20600120C1F6FF756160A260E3608C
:1015B00007F8100B724605F582703946FFF798F868
:1015C00095F81421002360806260A36085F81431CF
:1015D0001846F8BDD0250020CA07F8B50C460546C8
:1015E00012D540F23C01C1F6FF7140010818826833
:1015F00092F801C00CF01F0343F0A0015170C368C2
:10160000DB6A0BB102209847A30712D540F23C03D6
:101610006801C1F6FF731B189868427802F01F0139
:1016200041F0600C80F801C0DA68D36A0BB1012088
:10163000984760071AD540F23C066F01C1F6FF7665
:10164000F219936893F809C05FEA8C6109D593F8A1
:1016500009C00CF0DF005872D168CB6A0BB10820CA
:101660009847F619B3685A7E920616D4230713D505
:1016700040F23C0CC1F6FF7C6D01AC44DCF8080084
:10168000427802F01F0141F0C0034370DCF80C20E7
:10169000D36A0BB104209847F8BD587E00F0DF01F3
:1016A0005976F368DB6A002BE0D010209847DDE71D
:1016B00040F23C03C1F6FF732DE9F00344011959D0
:1016C0001A19002940F03C81D168CF888868C7F397
:1016D000041500F47F360F2D8CBF4FF0FF35002529
:1016E000B6F5003F05D0C0F387203F2888BF4FF0F4
:1016F000FF35B1F80AC04E68CCF344170F2F88BFEE
:101700004FF0FF350869C6F3043716790F2F88BFED
:101710004FF0FF35B0F5803F34BF28464FF0FF3023
:101720000A2E00F20981002E18BF022655790A2DD3
:1017300000F20681002D18BF0225002840F000812C
:1017400091F800C097684FF6C07187F814C0D2F8BE
:101750000C80976898F8019087F81590D2F80CC023
:1017600097689CF8028087F81080D2F80C909768F0
:1017700099F803C087F811C0D768D2F808C0D7F825
:10178000048097F80590C8F30438C9F3420747EA84
:10179000C8098CF82090D768D2F808C097F80B8059
:1017A00097F80C90C8F38208C9F3040747EA481970
:1017B0008CF83190D768D2F808C097F80C8097F869
:1017C0000D9008F0E00809F01F0747EA08098CF8B7
:1017D0003090D2F80C80976898F810C087F82CC029
:1017E000D2F80C90976899F8118087F82D80D2F87C
:1017F0000CC097689CF8129087F82890D2F80C805B
:10180000976898F813C087F829C0D2F80C909768A9
:10181000D9F80880C8F3872C87F834C0D2F80C9028
:101820009768B9F80480C8F3431C87F808C0D2F859
:101830000C90976899F80680C8F3810C87F818C057
:10184000D2F80C90976899F80480C8F3430C87F895
:1018500000C0D2F80C909768B9F808804FEA881C4D
:101860000CEA0109A7F82690D768D2F808C0B97A1F
:10187000B7F80680C1F30017C1F38009BF0147EA3A
:10188000C917C8F3041847EA0807C1F3C00147EABB
:1018900041118CF824109168177981F8397091689A
:1018A00092F805C081F838C0D76891687F89C7F37E
:1018B000441C81F801C0D768916897F804C0CCF344
:1018C000000746EA870646F0100C81F809C0D76881
:1018D0009179BE7941F0100CC6F340074CEA8701BC
:1018E000976845EA01067E769168012581F83C50AB
:1018F000916891F83C209507FBD51D192E7F012793
:1019000006F01F0297404FF4614C72B23546CEF29A
:10191000000C5609002A4CF8267014DB4FF4614C79
:10192000CEF2000C02EB0C01802281F80023012191
:101930001951BDE8F003704700264FF0FF30F5E67F
:101940004FF0FF30F5E74EF6FC4205F00F05CEF202
:10195000000205EB020C80218CF81810E7E700BFAD
:1019600040F23C034001C1F6FF731A581918012ACE
:101970002DE9F00118BF4FF0FF3073D10F7F4FF406
:10198000614507F01F06B2407CB267098E680024EB
:10199000CEF2000520371C5045F8272086F83C4041
:1019A0008A6892F83C3013F00203FAD153728A68C5
:1019B00053768B68187846071FBF187840F0800070
:1019C00018708B6800205870CB680861886119799D
:1019D000012601F0FE0566F344051D719C881F89F0
:1019E00060F3481460F309071F81220A9E6860F3C0
:1019F00043029C805A715F6860F39126310C60F35A
:101A0000103701F0F3083D0C60F304189E6005F0F8
:101A1000FD0483F80A805A8960F383045F601D7BAC
:101A20009C71D3F800C04FF01008DF8860F34912B2
:101A30005C7B196968F30405160A60F31F0C60F3F8
:101A4000081760F3840660F3471568F3040460F335
:101A50001F015A81C3F800C0DF80DE721D735C7302
:101A60001961D862BDE8F001704700BF40F23C0345
:101A70004001C1F6FF731A581B18012A10D1012921
:101A800011D89B6829B1597E002041F021025A7675
:101A9000704793F809C008464CF02101597270470D
:101AA0004FF0FF3070474FF0FF30704740F23C037B
:101AB0004001C1F6FF731A581B18012A10D10129E1
:101AC00011D89B6829B1597E002041F030025A7626
:101AD000704793F809C008464CF0300159727047BE
:101AE0004FF0FF3070474FF0FF3070472DE9F003A3
:101AF00040F23C044501C1F6FF7460599DF818603E
:101B000001280FD100290CBF4FF0FF300020002A20
:101B100008BF4FF0FF302BB14EB91F78013FFFB225
:101B20000F2F0BD94FF0FF30BDE8F0037047012EA7
:101B3000F8D11F78013FFFB2032FF3D80028F1D16D
:101B4000641921616261A36193F900C0002E3ED146
:101B5000BCF1000F7ADDA468A589ED0476D41CF0F1
:101B6000010F064605461DD1A68901251680E78985
:101B700002260F80A78917F4805F13D025E0B4F800
:101B80000C8018F4805F20D1B4F80C805FFA89F5DE
:101B900022F80780B4F80E8021F80780A78917F48F
:101BA000805F12D1B4F80C80013522F80680EDB2C6
:101BB0006FB2B4F80E80BC4506F1020721F806802A
:101BC00005F1010907F10206D9D11D70ACE7BCF19E
:101BD000000F3BDDA468A58BED0437D41CF0010F8A
:101BE000064605461DD1A68B01251680E78B0226E9
:101BF0000F80A78B17F4805F13D0E6E7B4F81C8042
:101C000018F4805FE1D1B4F81C805FFA89F522F8FE
:101C10000780B4F81E8021F80780A78B17F4805F37
:101C2000D3D1B4F81C90013522F80690EDB26FB212
:101C3000B4F81E80BC4506F1020721F8068005F1C4
:101C4000010907F10206D9D11D706DE705461D7027
:101C50006AE700BF0020FFF72BBD00BF0020FFF7A1
:101C60007FBE00BF01460020FFF700BF01460020F5
:101C7000FFF71CBF70B506460D46144682B00093B0
:101C8000002031462A462346FFF730FF02B070BDE0
:101C90000120FFF70DBD00BF0120FFF761BE00BFAF
:101CA00001460120FFF7E2BE01460120FFF7FEBE1C
:101CB00070B506460D46144682B0009301203146A9
:101CC0002A462346FFF712FF02B070BD0220FFF73D
:101CD000EFBC00BF0220FFF743BE00BF0146022059
:101CE000FFF7C4BE01460220FFF7E0BE70B506460E
:101CF0000D46144682B00093022031462A46234600
:101D0000FFF7F4FE02B070BD40F23C034001C1F6A3
:101D1000FF731A581B18012A16D149B1012910D195
:101D20009B68002093F800C04CF080011970704748
:101D30009B6808465A7A02F0DB0C4CF0200159727D
:101D400070474FF0FF3070474FF0FF30704700BFD3
:101D500001460020FFF7D8BF01460120FFF7D4BF9E
:101D600001460220FFF7D0BF40F23C034001C1F61C
:101D7000FF7370B41C581B18012C18BF4FF0FF30B4
:101D800029D11678002E32D098688589ADB215F425
:101D900080532ED116F0010F1FD0C48905F00F0C0F
:101DA00001334CEA04059E4221F8025B11DD84896F
:101DB000A4B214F4805F04F00F050AD1C489013382
:101DC00045EA040C21F802CB8589ADB215F4805F99
:101DD000E3D01370002070BC7047C38905F00F0575
:101DE0001D43A642234621F8025BEDDCF1E73346B2
:101DF000EFE70023EDE700BF4FF48053C4F2030385
:101E0000996F002001F00F01FFF7E6BB4FF48053FC
:101E1000C4F20303D96F012001F00F01FFF7DCBB0F
:101E20004FF48053C4F20303D3F88010022001F072
:101E30000F01FFF7D1BB00BF2A4B2B492B4AC3F838
:101E4000001CC3F8002C00221A72294B82210220A8
:101E50001A7418751976832019775C2183F820008D
:101E600083F8282083F83010187840F002021A70A6
:101E70001F4B18798107FBD500220120232183F80D
:101E8000342083F8380083F83C101A7842F0100CA4
:101E900083F800C0164B1979CA06FBD593F800C029
:101EA0004CF040001870124908780B7900F0E002FD
:101EB00003F0E0039342F6D10E4A40F2FF3C136078
:101EC0004FF08042D2F8000181058B0D634507D0A9
:101ED000094B0A49D960D2F8000100219880D960E5
:101EE000704700BF0010014051E5CC1AAE1A33E52F
:101EF00000000140E025002000E0024054E5CC1A3B
:101F000000BF7047244B002210B51A6022480368B6
:101F1000002BFBD1214A224801210360116053604C
:101F2000C2F880301F4A072414723B2413731474C0
:101F3000042482F82440022482F828401A4C82F8B3
:101F40002C102360016019480368002BFBD0124A53
:101F500001241460FFF7D4FFFFF7D2FFFFF7D0FF93
:101F6000FFF7CEFFFFF7CCFFFFF7CAFFFFF7C8FF71
:101F7000FFF7C6FFFFF7C4FFFFF7C2FF0C4B0D4989
:101F80001C6000200C4BC1F80005A0224FF000415E
:101F900083F81F23196010BD00006C4204006C42DE
:101FA00080006C420060034000036C4280026C427F
:101FB00000066C420030034000E100E00D4838B5F7
:101FC00041F2300484810C4C0025102141F63F720F
:101FD000457401740280294625706570201D7822A1
:101FE000FEF7E1FA012384F87C5084F87D5084F8F0
:101FF0007E3038BD00500240E4250020012816D86C
:102000000E4A92F87E30A3B1131893F87C10012980
:1020100011D0012308B90A4900E00A491018012229
:102020000B6041F8043C80F87C20002070470120C0
:102030007047022070470220704700BFE42500204F
:1020400084014A4284094A4238B5214B1A68012A60
:102050001AD100241C6012E00C2505FB0432D18942
:1020600002F10C05481C918983B29942D38104D1B5
:1020700093685068984700226A800134A4B2154BD7
:102080001878A042E8D838BD134B196801291DD132
:1020900000241C6016E00C2505FB0432B2F84A103F
:1020A000B2F848004B1C1FFA83FC604502F148055A
:1020B000A2F84AC004D1536C106C984700226A8081
:1020C0000134A4B2034B5878A042E4D838BD00BF15
:1020D00000024A42E4250020000A4A42062810D0A5
:1020E00007281BD005281FD192F803C0ACF10703C5
:1020F000584240EB0300C1B95178022918BF0020B3
:10210000704792F803C0ACF10703584240EB03005C
:1021100059B95278032A18BF00207047D178B1F11D
:10212000090018BF012070470120704738B50D46DF
:10213000044601F067F80B2D20D8DFE805F0061FF4
:102140001B091B0B0B0B0B1F1B17D0F1010005E02C
:10215000012807E0042804D1D4F1010038BF002091
:1021600038BD052814BF0020012038BD062807D13E
:1021700000F0A8FF003018BF012038BD012038BD95
:10218000002038BD10B5052888B00C461FD858B9B6
:1021900005A800F081FB9DF815309DF81600E3704E
:1021A00060709DF814300FE001A900F073FDFF2866
:1021B00002D1002020700CE09DF808209DF8091045
:1021C000BDF80630A270E170A3800120F2E7002084
:1021D000087008B010BD10B50C460A286FD8DFE8AB
:1021E00000F0066E6E6E6E2437565C6E65000868F1
:1021F0000B89003018BF01201BB14968002908BFB6
:102200000020E268002A5CD01368002B14BF03464C
:1022100000239068002855D05068002852D0D2681A
:10222000002A14BF1846002010BD0878C968FFF7BF
:10223000A9FF012808D1217831B1E06890F802C0E7
:102240001CF1000018BF01202389002B32D139E096
:102250000878C968FFF796FF01282BD122782AB1A8
:10226000E068817811F1FF3018BF0120238963B144
:10227000E1688A88B3FBF2F102FB113C1FFA8CFE85
:10228000BEF1000F18BF002014E0184612E00878D5
:102290004968BDE81040FFF775BF08784968FFF747
:1022A00071FF6378012B88BF002010BD0878896812
:1022B000FFF768FF6268002A08BF002010BD0120F8
:1022C00010BD104610BD2DE9FF4104468DE8030006
:1022D0000D46FF20002190461F46ADF808200393CD
:1022E000FFF724FF10F1FF3618BF012669460020D2
:1022F000FFF771FF01281CBF46F00206F6B234B1A9
:1023000020462946424600F015FD012802D046F03D
:1023100008060DE066B901F0FDF901F0ABF800F038
:102320005BF900F04DFB384600F0E8FE01F016FACC
:10233000304604B0BDE8F08101F06CBBFF20032102
:1023400008B5FFF7F3FE012803D100F0E7FE0020F7
:1023500008BD012008BDFF20042108B5FFF7E6FEF7
:10236000012803D100F0E3FE002008BD012008BDD4
:10237000F0B587B001910F4604A9039105211646D7
:10238000ADF8082005468DF80000FFF7CFFE10F1EC
:10239000FF3418BF012469460520FFF71CFF012800
:1023A000039818BF44F00204037818BFE4B2012B6D
:1023B00006D10520294604AAFFF790FE012802D085
:1023C00044F004040BE054B925B93846314600F016
:1023D00015F904E028463946324600F01FFB204636
:1023E00007B0F0BDF0B587B001910F4604A9039185
:1023F00006211646ADF8082005468DF80000FFF7C7
:1024000095FE10F1FF3418BF012469460620FFF73E
:10241000E2FE0128039818BF44F00204037818BFB5
:10242000E4B2012B06D10620294604AAFFF756FE86
:10243000012802D044F004040BE054B925B9384611
:10244000314600F0FBF804E028463946324600F0F9
:102450001FFB204607B0F0BD7FB50E4602AB8DF8DE
:1024600001100821019305468DF80000FFF75EFE7C
:1024700010F1FF3418BF012469460820FFF7ABFEB6
:10248000012803D044F00204E4B211E07CB935B96C
:1024900016B900F0E1F80BE000F0E8F908E0284692
:1024A00016B900F0ABFB03E000F0D0FB00E00446FF
:1024B000204604B070BD00F0A5BE70B586B004AB78
:1024C00002910D460A21039306468DF80400FFF79A
:1024D0002DFE10F1FF3418BF012401A90A20FFF7D7
:1024E0007AFE012803D044F00204E4B20AE044B9C1
:1024F00016B900F0CBF902E0304600F0BFFB2870BF
:1025000000E00446204606B070BD000007480849B8
:10251000002207230A604370064B827042600281EA
:102520004281C27001221A60704700BF64260020F9
:10253000B82884423829844270B51E4D28896B8999
:102540002C46C61AB6B2E6B12D78AE420BD200F0D8
:1025500065FF012801D1E07004E0E178012918BF8E
:102560000121E17035462946606801F0E3F962898E
:1025700063681148A9185D190022618165600260D5
:1025800070BDE878012803D10523AB700B4B0FE039
:1025900000F044FF024640B9084907236B70086009
:1025A0006989BDE8704000F005BE0122024BEA7067
:1025B0001E6070BD64260020A8288442B82884428A
:1025C00038B5044C0546002120460C22FDF7EBFFF0
:1025D000257038BD6426002010B5074C0021082264
:1025E00004F10C00FDF7DFFFFFF790FF2078BDE856
:1025F000104001F04FB900BF6426002008B50C4B15
:1026000008225A700022586019815A8141B1187805
:10261000DA70884201D90121D970FFF78DFF03E0FC
:102620000122DA70034B196003490120086008BDDC
:1026300064260020A8288442B8288442044B002243
:1026400019810821597058605A81024B1A607047ED
:10265000642600202829844208B5002001F046F9AC
:10266000012001F043F9094B01211960084B4FF09B
:10267000090258785A70082806D159890020042286
:10268000BDE8084000F096BD08BD00BFA424844208
:1026900064260020012870B5064663D003D30228C3
:1026A00040F0D680B4E06B4C6378082B0BD1658981
:1026B000FFF72CFF002001F019F900202946052220
:1026C00000F078FD03E0092B01D1FFF71FFF624BFB
:1026D000B3F8486006F07F06082E3CD15D4D3146C8
:1026E00005F10C0001F05EF9608A10B96E700423E8
:1026F00005E02A7B02F08001CBB213B10223AB705C
:1027000006E056490322AA700B60554B0120186061
:10271000207BC0F34113012B06D0022B04D03BB920
:10272000504800F035FE09E04E4800F03BFD05E062
:10273000FFF792FF00204B4900F052FD638A002B07
:1027400079D1444A5178092975D0444901200B6058
:10275000434B18606FE0FFF77FFF0020414900F016
:102760003FFD68E03B4D6C78082C2C4648D1AB7897
:10277000032B2AD1384BB3F8482012F07F041ED027
:102780006868214601F00EF969896A682B7804EBC4
:10279000010C1FFA8CF11019A342698168600BD1FA
:1027A0002A89C1EB020E1FFA8EF0984243D207230A
:1027B0006B700020324628E00421A9703BE0274AD4
:1027C0000423AB701460106135E0052B01D0022B9F
:1027D00016D12148B0F8485015F07F050BD161891A
:1027E0000322284600F0E6FCA178022921D12846E0
:1027F00001F07CF81DE0FFF72FFF0020618903E066
:10280000FFF72AFF69890020062200F0D3FC12E0BE
:10281000104CA378022B03D1BDE87040FFF78CBEAB
:10282000033BDAB2012A0AD800206189032200F0B2
:10283000C1FCFFF76BFE0C490020086070BDFFF77C
:102840000BFF618900200622BDE8704000F0B2BC99
:1028500070BD00BF6426002000210440A8288442E7
:10286000B8288442702600202829844208B5054BE8
:102870000021196008220448FDF795FEBDE80840D4
:10288000FFF744BEA424844270260020014B5878F0
:10289000704700BF64260020034B024603CB106044
:1028A000516018689060704764260020014B002238
:1028B0001A607047242984420E4A0F49136810B5E4
:1028C0000C220C18013802FB00335B6814F8014C31
:1028D0001888896820F480421004020C1A800720AE
:1028E00001EB0413002258719A719A609A81DA817F
:1028F000DA7110BD9C400020782600202DE9F041BF
:102900002A4905460E1816F8017C8B683F01DB1931
:10291000B3F80C80DE89C6EB080292B2884622B377
:102920005C88A24205D2D879012801D00124DC714B
:10293000144628469968224601F018F81C48D8F831
:1029400008100368CF19013D0C2101FB0535BA6859
:10295000A6196968FE8114190A88BC6022F4806097
:1029600003041A0C0A80BDE8F08193F807C0BCF19B
:10297000010F05D1FFF7A0FF28463146032210E0E2
:102980000B4907255D710B68451E0C2101FB0535C0
:102990006968B1F800C02CF480431B041B0C0B8049
:1029A0003146BDE8F04100F005BC00BF78260020AC
:1029B0009C400020014B18739960704778260020D6
:1029C00038B5154CFF2105222046FDF7ECFD217B93
:1029D000A268002306E012F8105C601900F8013CC0
:1029E0000133DBB210328B42F5D100250FE00A49EA
:1029F00000228868072300EB051043718271826012
:102A00008281C281C27100F053FF691CCDB2227B6A
:102A1000AA42ECD838BD00BF7826002038B504465D
:102A20001948031913F8015C8368082003EB0513A8
:102A3000587199600120002198719A81D981134DB4
:102A400042B1D9715988914288BFD8712046FFF7A9
:102A500055FF0CE0D8712868631E0C2101FB0302AE
:102A60005268108820F480610B04180C10802B68C9
:102A7000013C0C2000FB0434636819888AB242F4DC
:102A8000804CA3F800C038BD782600209C40002070
:102A900030B50E4C251815F8015CA368013803EB1E
:102AA00005139A8108225A719960094A0021D98137
:102AB0000221997113680C2101FB003253681988B7
:102AC00088B240F480421A8030BD00BF78260020D2
:102AD0009C4000202DE9F047DFF81C81044608EBFC
:102AE000000212F8011CD8F808304FEA01194B44D3
:102AF0005A79082A76D19A79012A03D1BDE8F0479C
:102B0000FFF7FCBE022A6DD1461E0C257543394ED7
:102B100040F2FF173268012818BF7F2751194A6811
:102B2000B3F80EA0B2F800C017EA0C074FD09968AE
:102B30003A4600F053FFD8F808304B44D8899968DA
:102B40003A181FFA82F85A88C819BA42A3F80E80B8
:102B5000986028D19989C8EB010C1FFA8CFE964524
:102B600015D232680721597155196A68B2F800E028
:102B70002EF4804001040B0C1380108820F4806137
:102B80000B04180C10804146204601221BE03068DF
:102B900045196868B0F800C02CF480610A04130C71
:102BA0000380BDE8F087326855196A68B2F800E022
:102BB0002EF4806001040B0C20461380FFF77CFE8E
:102BC000204641460322BDE8F04700F0F3BA1188E1
:102BD00021F4806319040B0C1380FFF76DFE20466F
:102BE0005146EFE7FFF768FE2046BDE8F04700F0EA
:102BF0008DBE00BF9C4000207826002030B5114DCE
:102C0000411E2B680C25694359580F4AB1F800C082
:102C100014181FFA8CF314F8014C43F4007C9368E9
:102C2000A1F800C003EB041359794FF009020829F9
:102C30005A7105D1D9890422BDE8304000F0BABAF2
:102C400030BD00BF9C4000207826002010B504460F
:102C5000FFF732FE204600F059FE013C0C220648E8
:102C6000544303681A59B2F800C02CF400710804E8
:102C7000030C138010BD00BF9C40002004490B18BA
:102C800013F8012C886800EB02135879704700BFD5
:102C90007826002010B5094B181810F8010CFF28F1
:102CA0000AD09B6803EB001303F1100253F8044BA6
:102CB000934241F8044BF9D110BD00BF78260020A3
:102CC000044B1A7B824203D99B680001185C704751
:102CD000FF20704778260020014B187B704700BF0B
:102CE00078260020074A013813680C2101FB0032C6
:102CF0005268B2F800C02CF400710804030C138071
:102D0000704700BF9C40002010B5094B19681A7924
:102D1000002306E0013301EBC30414F8084C84429D
:102D200004D0DCB29442F5D3002010BD012010BDC8
:102D3000882600202DE9F04F9E4C002693B00746D0
:102D40000D46084631460A92A660E6602660267463
:102D500066746682FDF727FCDDF828903A7B4FEA1F
:102D60001910C3B20E932271BB6862B173B12360B4
:102D700006E003EBC601486801364178032907D114
:102D8000F0B29042F5D34FF0010A03E09A4601E019
:102D90004FF0000AD7F80080B8F1000F2CD098F857
:102DA0000020C4F80880122A28D198F80160012E6A
:102DB00024D198F80760102E06D001D8082E02E022
:102DC000202E01D0402E19D198F80E00FFF79CFF5D
:102DD000012813D198F80F00FFF796FF01280DD1B5
:102DE00098F81000FFF790FF012807D198F811809C
:102DF000B8F1010F02D103E0464601E00026B046DB
:102E00007F68002F00F00B813B78E760092B40F0D2
:102E1000FF807978022940F0FB80B8790293FFF7B0
:102E200073FF0128029B40F0F380F97901F0400024
:102E3000C2B2002A00F0EE805E4AC1F3401097F85B
:102E400002B0F97850743A7907F1090C0027CDF8EF
:102E500040B004960F911192AB4605930697CDF8BA
:102E60000CA06646BEE096F80090B9F1090F40F05C
:102E7000D38096F801A0BAF1040F40F0CD80237CF6
:102E800096F802E00793DDF81CC0E64540F0C480E8
:102E90003179307A0891FFF737FF012840F0BC8084
:102EA000089868B106F1090202E092F800904A44DD
:102EB00092F801A0BAF1050FF7D1931B98B201E087
:102EC00000224846638A59464FF0000C019673E091
:102ED0000E9EB74268D21678072E65D15678052E19
:102EE00062D192F803E00EF00306012ECDF82CE03B
:102EF0005AD992F802A0CAF303065FFA86FB8DF84E
:102F000030600BF10F0606F00F06042E4CD80BF1C3
:102F1000FF3E4FF0010606FA0EF643EA06094B455E
:102F200042D092F804E092F805904EEA09290AF09E
:102F30000F0EBEF1010F09D14FEA495E4FEA5E5E06
:102F4000BEF1000F02D0BEF5807F0CDDBBF1010F9A
:102F50002AD04FEA495E4FEA5E5EBEF1000F23D0F1
:102F6000BEF1400F20DC9DF830E0DDF82CB0CAF354
:102F7000C01A81F800E081F804A0CBF3010EC9F378
:102F80000A0A43EA060B073001370CF1010681F803
:102F900001E0A1F802A01FFA8BF380B20732FFB262
:102FA0005FFA86FC103107E0DDF80CA0049E638216
:102FB00035E000BF88260020089E8B46B44587D1A7
:102FC0000599DDF818C0019EDDF81C9042180CF13F
:102FD00001016382361809F1010390B2CAB205906B
:102FE00023740692DDF818E0DDF844A0D6457FF49E
:102FF0003AAF0F981099059B41EA0022C2EB030CEF
:10300000DCF10000DDF80CA0049E40EB0C0908E0A8
:10301000002704E0174602E0DDF80CA0049E4FF004
:103020000009BAF1010F0ED1B8F1010F0BD1B9F1BE
:10303000000F08D03046FFF7C3FA38462946FFF79D
:10304000B9FC48460CE0284600210A9AFDF7ABFA85
:103050000020A060E06020602071207460746082B5
:1030600013B0BDE8F08F00BF024B9A68026013787E
:103070000B80704788260020044AD3680360DA7802
:10308000987840EA02230B80704700BF8826002012
:1030900070B50B4C2368257900240CE01E7896420D
:1030A00006D15A6802605868037801200B8070BD11
:1030B00001340833E4B2AC42F0D1002070BD00BF4F
:1030C00088260020014B587C704700BF88260020CE
:1030D000024B5A7858701A70704700BF9C26002027
:1030E000014B1878704700BF9C26002008B5024BA2
:1030F000DB6803B1984708BD9C260020064B0022E0
:1031000001681A75426859609A608168C268012036
:10311000D9601A61FFF7DCBF9C260020002008B5AB
:1031200000F082FC0220BDE80840FFF7D1BF08B5DF
:1031300000F04CFB012000F077FC0020BDE80840C7
:10314000FFF7C6BF07B5074B0020074A1860918FED
:103150004805430D02A921F8023D0220FFF7C6FFF2
:103160000EBD00BF102884420021044008B5FFF7BF
:10317000B7FFFFF7ADFF084B002108481960084B67
:103180000160012205201A6043F80C1C43F82C1C36
:10319000BDE80840FFF7AABF1428844210248442E7
:1031A0003428844208B5024B5B6803B1984708BDD8
:1031B0009C26002070B504460E46154600F02EF9F8
:1031C000012803D1BDE8704000F02EB9034B9B6885
:1031D0001BB1204631462A46984770BD9C260020E8
:1031E000074B70B51D6904460E4645B108B102286B
:1031F00005D10720FFF76CFF20463146A84770BD78
:103200009C260020014B5878704700BF9C26002068
:1032100007B5124800220260FFF7F4FF431E052B9A
:103220001BD8DFE803F01103030303110620FFF7A7
:103230004FFF0B480B4A012300210360C16013605C
:103240000420FFF753FF08E004218DF804008DF8F7
:10325000051002206944FFF7C3FF0EBD1428844205
:10326000282884421024844213B5FFF7CBFFA8B16D
:1032700002280AD9032811D1094C237D73B90420EF
:10328000FFF726FF0120207508E001218DF80400DA
:103290008DF80510022001A9FFF7A2FF1CBD00BF99
:1032A0009C26002007B51B4800220260FFF7AAFFFA
:1032B000431E042B2CD8DFE803F0222222030B004C
:1032C000154A1368D9B28DF8071009B305200EE02E
:1032D000114B1968C8B28DF8070018B105228DF896
:1032E00004200EE0FFF778F9FFF76AFB0420FFF7F0
:1032F000EFFE03200DF10701FFF7F8FE08E08DF85F
:10330000040003208DF8050001A90220FFF768FFE3
:103310000EBD00BF0028844224288442194B13B5F7
:1033200000241C60FFF76EFF0138052828D8DFE86D
:1033300000F01E142703030300F048FAFFF74CF9CE
:10334000FFF73EFB00F00AFA0F4900240C7503203A
:10335000FFF7BEFE2046214606E00B4A0320147507
:10336000FFF7B6FE00200146FFF7C0FE08E001208F
:103370008DF8040001A902208DF80540FFF730FF09
:103380001CBD00BF0C2884429C260020FFF764B9B6
:1033900013B543780446072B37D00C2B35D0062BBA
:1033A00036D1428800230093ADF80630130A022B71
:1033B00009D0032B0DD0012B26D168460DF1060153
:1033C000FFF752FE0DE068460DF10601FFF754FECF
:1033D00007E068460DF10601D2B2FFF759FE012859
:1033E0000FD1E188BDF806300B488B4288BFADF89D
:1033F000061001220270BDF806100098FFF7FEF8D3
:1034000008E028B1032805D12046FFF7CBFE01E0F4
:10341000FFF7BCFF1CBD00BFB4260020014B18788D
:10342000704700BFB4260020014B00221A7070477D
:10343000B4260020420900F01F0101208840024B01
:1034400043F82200704700BF00E100E0002806DAE0
:10345000064900F00F004318C0221A76704704494D
:10346000C022431883F80023704700BFFCEC00E043
:1034700000E100E008B52220FFF7E8FF2220FFF777
:10348000D9FF2320FFF7E2FF2320BDE80840FFF724
:10349000D1BF000070B5FFF71FFC002506461EE0F7
:1034A000104C2078FFF70CFC2278511CCBB2B342B1
:1034B000237001D3002323700B49431E0A680C219B
:1034C00001FB03214B681A8802F48841B1F5884F4B
:1034D00003D1BDE87040FFF7FDBA0135EDB2B5424A
:1034E000DED170BDB52600209C4000205D48F8B5B7
:1034F0000368002B00F0A5805B4A116829B9A0E0A1
:103500005A480368002B00F0A180564A1168002930
:1035100000F0A28054480368002B00F09D80544CBA
:103520002168012904D1FFF79FFE0020206007E0F9
:10353000012005E04D4B1A68002A00F0DE800220D1
:10354000BDE8F840FFF7A6B84A49086888B9A7E07F
:10355000494B1A686AB9A8E04849086848B9A9E01F
:10356000474B1A682AB9AAE046490868002800F0C3
:10357000AB80454B1A68002A00F0AB803D490868D3
:10358000002800F0A680BDE8F840FFF7C7BE3A4B20
:103590001A68002A00F0A280BDE8F840FFF7D2BD0B
:1035A00036490868002800F09E80BDE8F840FFF723
:1035B00079BE334B1A68002A00F09A80BDE8F840C3
:1035C000FFF726BE2F490868002800F09680BDE866
:1035D000F840FFF7CBBD2D4B1A6822B12C49086883
:1035E00008B1FFF763F900223270F8BDFFF774FBF2
:1035F0000025074622E0274C6078FFF761FB6178E1
:103600004B1C5FFA83FCBC4584F801C003D3002344
:103610000122637032702049431E0A680C2101FBAD
:1036200003214B681A8802F40851B1F5085F03D1F1
:10363000BDE8F840FFF756BB0135EDB2BD42DAD127
:10364000F8BD164B186800287FF45AAF0E490A6877
:10365000002A7FF479AF23E0104B186800287FF42C
:1036600069AFF8BD2829844238298442B8288442A9
:10367000042884422C288442302884422028844212
:1036800034288442282884420C28844224298442F5
:1036900034298442B52600209C400020A82884427A
:1036A00016490A68002A7FF453AF154B18680028A2
:1036B0007FF452AF13490A68002A7FF451AF124BCE
:1036C000186800287FF450AF104E3278012A8DD14F
:1036D00081E70A48016800297FF459AF084A136856
:1036E000002B7FF45DAF0748016800297FF461AFCC
:1036F000054A1368002B7FF465AFF8BD102884429B
:103700000028844214288442082884422C01FF1F88
:1037100000BF704738B50D490D4B0E4801240025F8
:103720001D605C600C600460FFF7F2FFFFF7F0FFC4
:10373000FFF7EEFF084B6FF001021D6043F80C4CE1
:1037400043F8104C43F8042C9D6038BD0483664256
:10375000004366421C2484421024844214481549C4
:1037600000230B600360C0F88030134802885104C6
:103770004B0C0380828851044B0C838002895104D6
:103780004B0C0381828951044B0C8381028A5104C2
:103790000A4A4B0C012103821160094842F8041CBB
:1037A000084B42F8101C5160074A01601A607047CC
:1037B000BC2884421C2484424C210440302884428A
:1037C000382984429C400020CC3B000070B52D4A33
:1037D0002D4E0023136042F8043C42F8103C536025
:1037E00042F8083CC2F88830C2F80831326856689E
:1037F000348824F4804001040D0C358015692C8830
:1038000024F4804001040C0C2C80D469B4F800C06E
:103810002CF480400104080C2080906AB0F800C0AD
:103820002CF480410904090C0180516BB1F800C0EF
:103830002CF480421204120C0A80144A136032885D
:1038400022F400531A04130C33802A8822F4005304
:103850001A04130C2B80228822F400531A04130C30
:103860002380B0F800C02CF4005213041A0C02801C
:10387000088820F400531A04054B100C012208801C
:103880001A6070BD302884429C4000203429844254
:103890001C248442054B00F07F00B3F824C00CF4D4
:1038A000007140EA01029A84704700BF0021044081
:1038B00010B504780C23611E59430B4A43785258C3
:1038C0005903148804F4606C04796FEA4C4341EAAC
:1038D00004316FEA534C41EA0C03418803F47E4CF7
:1038E0004CEA0103138010BDCC3B0000012218B943
:1038F000044B1A601860704703480260002202609F
:10390000704700BFBC2884423C298442411E0848BD
:103910000C2202FB01035B6818886FEA40426FEAE1
:10392000524CA3F800C019884804420C1A80704712
:10393000CC3B000030B50A46034609E01D780A4C2E
:10394000023A84F860505D7892B284F86150023394
:10395000012AF3D84B08CA0704D510F81300024B0C
:1039600083F8600030BD00BF002104400C4B30B52F
:1039700001380C2404FB0030144680680B4606E036
:103980001D78023C05705D78A4B245700233012CAD
:10399000F6D85308D20744BF11F81330037030BD76
:1039A000CC3B000030B50A46034609E00A4C023A17
:1039B00094F8605092B21D7094F861405C700233CC
:1039C000012AF3D84B08C90704D5034A92F86010BE
:1039D00000F8131030BD00BF002104400C4B30B57F
:1039E00001380C2404FB0030144680680B4606E0C6
:1039F0000578023C1D704578A4B25D700233012C3D
:103A0000F6D85308D20744BF027801F8132030BD1E
:103A1000CC3B0000034B1A68A2F10101484240EB85
:103A20000100704700636642044B1860044B08B9FC
:103A30001860704701221A60704700BF1424844246
:103A4000048366420120704738B5C2884378082A4B
:103A500028BF0822202B02D0212B16D10CE043884E
:103A60009BB984888CB90A4D20462946FEF7BAFCDA
:103A70002868FDF7A3F809E0418831B9848824B9A2
:103A800020460349FEF774FC00E00224204638BDBE
:103A90003001FF1FC38837B50446D3B1FEF70BFDD5
:103AA000011FC8B2012808D800200DF10701FEF758
:103AB00004FD9DF80720072A01D0042500E0002519
:103AC000FFF7C0FF012803D045F00105EDB204E087
:103AD0001DB92046FFF7B8FF054628463EBDF8B59C
:103AE0000E4615460746B8B1FFF7ACFF10F1FF349C
:103AF00018BF0124012F01D0032F03D1402E01D87C
:103B0000062D02D944F0020409E03CB9384631469A
:103B10002A46FCF79FFC02E0044600E00124204610
:103B2000F8BDFEF791BAFFF7B5BCFFF7DFBC1A038B
:103B30003000300030003000300030003000300005
:103B4000300030003000310018035300650072006F
:103B5000690061006C002D0050006F00720074005D
:103B60001003460075006A00690074007300750058
:103B70000403090409024300020100C032090400E1
:103B800000010202010005240010010524010001CA
:103B9000042402020524060001070582030800FF31
:103BA00009040100020A00000007050302400000AA
:103BB000070581024000001201000202000040FFE0
:103BC00026124900010102030100000028210440DF
:103BD0004C210440642104402C2104405021044025
:103BE0006821044030210440542104406C210440E9
:103BF00034210440582104407021044038210440FD
:103C00005C2104407421044025303278200048654E
:103C10006C6C6F20576F726C640A0048656C6C6F37
:043C2000203A000046
:103C2400B73B0000743B00001000FF1F04000000BD
:103C340000000000703B000001000000603B000039
:103C440002000000483B0000030000002E3B00007F
:103C5400000000080020000801000000000000002F
:103C640000000000007002409C00FF1F00000000E4
:103C74000000000000000000190000000000000027
:103C84000000000000710240CC00FF1F0000000093
:103C940000000000000000001A0000000000000006
:103CA4000000000000720240FC00FF1F0000000042
:103CB40000000000000000001B00000000000000E5
:103CC40002000000000000001010000000000000CE
:103CD400551C00005D1C0000651C0000511D000007
:103CE4006D1C0000751C00000000000000000000B6
:103CF400020000000000000010100000000000009E
:103D0400911C0000991C0000A11C0000591D00001A
:103D1400A91C0000B11C000000000000000000000D
:103D2400020000000000000010100000000000006D
:103D3400CD1C0000D51C0000DD1C0000611D00002E
:103D4400E51C0000ED1C0000000000000100000064
:083D54008025000008000000BA
:0400000300000100F8
:00000001FF
