:100000000010001011030000FD02000001030000B9
:1000100000000000000000000000000000000000E0
:1000200000000000000000000000000005030000C8
:10003000000000000000000009030000851000001F
:100040000D0300000D0300000D0300000D03000070
:100050000D0300000D0300000D0300000D03000060
:100060000D0300000D0300000D0300000D03000050
:100070000D030000E9040000C50400004D0A000063
:10008000B11000002D0700000D030000B10F0000AB
:10009000DD0F0000C9100000A10400007D04000075
:1000A0000D0300000D0300000D0300000D03000010
:1000B0009D0700000D0300000D0300004D08000027
:1000C00010B5214A8E24A300D15820208143D1505D
:1000D00000231362C0460133C0460133C82BF9D157
:1000E00019480121002202644164426441640121F3
:1000F000436C154A0B42FBD023248E239460990055
:1001000054588020844354500120141CE3680E4A44
:1001100001210342FAD00324002014675167141C04
:10012000506751670120636F074A01210342FAD0EB
:100130000648802491679423105198249C20D15024
:100140001151115010BDC04600800440FFFF010056
:10015000FFFFFFFFFFFFFFFFFFFFFFFFFFFFFFFFAF
:10016000FFFFFFFFFFFFFFFFFFFFFFFFFFFFFFFF9F
:10017000FFFFFFFFFFFFFFFFFFFFFFFFFFFFFFFF8F
:10018000FFFFFFFFFFFFFFFFFFFFFFFFFFFFFFFF7F
:10019000FFFFFFFFFFFFFFFFFFFFFFFFFFFFFFFF6F
:1001A000FFFFFFFFFFFFFFFFFFFFFFFFFFFFFFFF5F
:1001B000FFFFFFFFFFFFFFFFFFFFFFFFFFFFFFFF4F
:1001C000FFFFFFFFFFFFFFFFFFFFFFFFFFFFFFFF3F
:1001D000FFFFFFFFFFFFFFFFFFFFFFFFFFFFFFFF2F
:1001E000FFFFFFFFFFFFFFFFFFFFFFFFFFFFFFFF1F
:1001F000FFFFFFFFFFFFFFFFFFFFFFFFFFFFFFFF0F
:10020000FFFFFFFFFFFFFFFFFFFFFFFFFFFFFFFFFE
:10021000FFFFFFFFFFFFFFFFFFFFFFFFFFFFFFFFEE
:10022000FFFFFFFFFFFFFFFFFFFFFFFFFFFFFFFFDE
:10023000FFFFFFFFFFFFFFFFFFFFFFFFFFFFFFFFCE
:10024000FFFFFFFFFFFFFFFFFFFFFFFFFFFFFFFFBE
:10025000FFFFFFFFFFFFFFFFFFFFFFFFFFFFFFFFAE
:10026000FFFFFFFFFFFFFFFFFFFFFFFFFFFFFFFF9E
:10027000FFFFFFFFFFFFFFFFFFFFFFFFFFFFFFFF8E
:10028000FFFFFFFFFFFFFFFFFFFFFFFFFFFFFFFF7E
:10029000FFFFFFFFFFFFFFFFFFFFFFFFFFFFFFFF6E
:1002A000FFFFFFFFFFFFFFFFFFFFFFFFFFFFFFFF5E
:1002B000FFFFFFFFFFFFFFFFFFFFFFFFFFFFFFFF4E
:1002C000FFFFFFFFFFFFFFFFFFFFFFFFFFFFFFFF3E
:1002D000FFFFFFFFFFFFFFFFFFFFFFFFFFFFFFFF2E
:1002E000FFFFFFFFFFFFFFFFFFFFFFFFFFFFFFFF1E
:1002F000FFFFFFFFFFFFFFFFFFFFFFFF00B5FEE770
:1003000000B5FEE700B5FEE700B5FEE700B5FEE785
:1003100010B5204B20498B421CD2DC4360181F4A89
:100320008446644601202040147801321C70013359
:100330008B420FD2002805D010780132187001339B
:100340008B4207D214781C705078023258700233F6
:100350008B42F7D3124B134A934215D2DC43A018B9
:1003600084460021012064461970013320409342E5
:100370000AD2002803D019700133934204D21970B5
:10038000597002339342FAD3FFF79AFE00F0B0FDA2
:10039000FEE7C046000000101C0000106C280000A2
:1003A0001C0000104409001008B5C3010B4A1B18BB
:1003B000581C5B009B184100895CD8781A790002B0
:1003C000120410435A7908431106084300F050FE06
:1003D000034B1A6901321A6108BDC046CC000010F7
:1003E0001C000010F8B557464646C0B4214C8500A5
:1003F0002B195A69002A18D0012A20D0C9B28C467C
:100400001D498A46C1010F187F00BE18B0464146FB
:10041000514466460E70596B013202315A618A426C
:1004200018D00CBC90469A46F8BDC7013E18124D34
:10043000CCB270000122445559625A61F1E7C701FC
:100440003E180D4C7500CAB228195963022142703A
:100450005961E6E700225A6151467B5C002B05D0CA
:100460005246BB5C012BDCD12B51DAE7FFF79CFF36
:10047000D7E7C0461C000010CC00001008B5064AA3
:100480000320D168FFF7AEFFC0214B008020034955
:100490000204CA5008BDC046AC00001000E100E0F4
:1004A00008B5064A02209168FFF79CFFC0214B0067
:1004B00080200349C203CA5008BDC046AC000010EA
:1004C00000E100E008B5064A01205168FFF78AFF05
:1004D000C0214B0080200349C201CA5008BDC0465C
:1004E000AC00001000E100E008B5064A00201168E9
:1004F000FFF778FFC0214B00802003498201CA50DA
:1005000008BDC046AC00001000E100E008B50A1CC0
:1005100072B6044B8100C858CB18196900F034FA40
:1005200062B608BD5C26000008B50A1C72B6044B12
:100530008100C858CB18196900F054FA62B608BD9A
:100540005C260000F8B557464646C0B4704D84009E
:100550006359061C172B1BD972B66E4B71005F696D
:100560008A190120904087435F615A695A6162B6D7
:10057000694BE058E318196900F05CFA301C01215E
:100580000026FFF7D1FF66510CBC90469A46F8BD95
:10059000624A980083589F4672B65E4B720090196B
:1005A00001225969171C8740B9435961586958613C
:1005B00062B6594B1F21F71830373878802708402A
:1005C00082405749101C7A008850D2E7524F514A56
:1005D000E3199068196A643008600022E0591969CB
:1005E000022600F0EBF96651CEE74B49494A6618FE
:1005F0009368376A4B4864333B602758625901233C
:10060000023AD7403A1C60581A40316900F0D6F9D6
:10061000665901366651B7E73F4F3E4AE319906885
:10062000196A643008600122E05919690B2600F04C
:10063000C5F96651A8E772B6364B71005A698F1931
:100640000120B84082435A615F695F6162B6002150
:10065000301CFFF75BFF304B8BE72F4A2D4FA31861
:10066000B868196AA2581B6964300860101C191C0C
:1006700090469A4600F0ACF901282FD0294E002070
:100680000E27A05167517FE7234B224AE618906856
:10069000316A64300860E058316900F099F9214B03
:1006A000E25867590E3FB8401043E050615901319C
:1006B000615169E7184E1748A7198368396A3233C0
:1006C0000B60A059396900F083F9002803D1164F57
:1006D000BA6C0132BA641726665155E772B67200D9
:1006E000796993199840814379617B697B6162B62E
:1006F0004046514600F09EF9301C01210026FFF7CC
:1007000013FF6651084D6C6C01346C643CE7C046C5
:10071000BC000010000001405C260000FC25000029
:1007200000E100E0AC0000101C00001038B51A4CCD
:10073000012523682B420FD1174C0225206828423F
:1007400013D1154C04252168294217D1124C0825D4
:1007500022682A421BD138BD0020FFF7F3FE256036
:100760000D4C022520682842EBD00120FFF7EAFE5D
:100770002560094C042521682942E7D00220FFF7B3
:10078000E1FE2560044C082522682A42E3D00320BC
:10079000FFF7D8FE2560DEE700000140F0B55F46B8
:1007A00056464D464446F0B42349244A83B00027B8
:1007B00000250126002489469346012C1DD020489F
:1007C0004B465B594159181C98468A4600F024F95B
:1007D000002809D01B49A20050580192002811D0CE
:1007E0004046514600F026F9032E06D903B03CBC22
:1007F00090469946A246AB46F0BD01340136043519
:100800000337DAE7201C0021FFF78EFE0E494B5913
:10081000594688683230186072B601204B69B8407A
:1008200083434B614A691043486162B6054B0199A5
:100830000D20C850D4E7C0465C26000000000140EF
:100840006C260000BC0000107C26000010B50020C3
:10085000032100F0E1F8002807D00F4C6368002B5B
:1008600004D00020032100F0E5F810BD0120002194
:10087000FFF75AFE094B0A4A99683231116072B685
:10088000586908229043586159690A435A6162B60F
:100890000D206060E5E7C046BC000010000001408C
:1008A0001C00014008B500280AD1012005210022C2
:1008B00000F06AF801200521012200F07FF808BD50
:1008C00001200521012200F05FF80120052100220E
:1008D00000F074F8F3E7C04608B500280AD10020FC
:1008E0000721002200F050F800200721012200F02B
:1008F00065F808BD00200721012200F045F800201E
:100900000721002200F05AF8F3E7C04608B5002896
:100910000AD102200021002200F036F80220002136
:10092000012200F04BF808BD02200021012200F056
:100930002BF802200021002200F040F8F3E7C04627
:1009400010B5041C01202040FFF7E0FF02202040EA
:10095000FFF7C2FF04202040FFF7A4FF10BDC046F0
:1009600008B5084B0022A0219A6000201A655A5051
:10097000FFF7CCFF0020FFF7AFFF0020FFF792FF4B
:1009800008BDC0460040044010B580000A4B002A54
:1009900008D1C25880231B02D05801248C40A043A8
:1009A000D05010BDC25880231B020124D0588C4067
:1009B000211C0143D150F4E790260000034B800036
:1009C000C35804208A408840C250704790260000D7
:1009D000034A8000835804228A40D058C840704798
:1009E0009026000010B58000094B002A07D1C2589C
:1009F000084B0124D0588C40A043D05010BDC258A1
:100A0000044B0124D0588C40211C0143D150F5E700
:100A10009026000010800000044B8000C258044B58
:100A2000D0580123C84018407047C04690260000A7
:100A300018800000034B8000C258034B01208840FF
:100A4000D0507047902600001C80000010B5802117
:100A5000C8054368083BDBB2502B16D8474A9B00B9
:100A60009C58A746464A8023DB0591689868C4B223
:100A7000444844540131444C916090682168884254
:100A800000D369E00421516019608024E105082247
:100A90008A6110BD3A4A8023DB0591689868C4B228
:100AA00038484454013191600524102108205460D5
:100AB00019609861EDE7324C002121602168334BC9
:100AC0008022585CD30501319860216001202821E3
:100AD00099616060DDE72A4B0021996019682B4A13
:100AE0008020545CC20594600131282002241960E2
:100AF00090615C60CDE7224B5C68012CC5D1196820
:100B0000224A8024505CE20501310424906019607F
:100B10005C60BAE780231A49D8050824052284615D
:100B20004A60B6E7184C2068012821D08021CC0506
:100B300004202060A9E7124B154918680A68904202
:100B4000DDD31148016800290BD08020C205202187
:100B5000032411605C6098E70524546004229A61C4
:100B600093E7052280215A601024CB051C608CE796
:100B70008022D3050421996187E7C046A0260000A2
:100B80006C000010FC040010F804001008050010B0
:100B90001005001008B5054982005318505899698E
:100BA000FFF716FF01235840C0B208BDE42700003C
:100BB00010B50020FFF7EEFF724C2378012B00D117
:100BC0007BE0002B3DD1431E984120700120FFF7B0
:100BD000E1FF6378012B43D0002B00D0ACE0431E33
:100BE000984160700220FFF7D5FFA378012B41D018
:100BF000002B00D091E0431E9841A0700320FFF726
:100C0000C9FFE378012B3FD0002B00D076E0431ED4
:100C10009841E0700420FFF7BDFF2379012B3DD000
:100C2000002B5DD1431E984120710520FFF7B2FFD4
:100C30006379012B3CD0002B44D1431E9841607155
:100C400010BD022B00D186E0042BBFD1002836D086
:100C5000042323700120FFF79DFF6378012BBBD194
:100C6000002875D0022363700220FFF793FFA3785A
:100C7000012BBDD100285CD00223A3700320FFF715
:100C800089FFE378012BBFD1002843D00223E37012
:100C90000420FFF77FFF2379012BC1D100282AD040
:100CA000022323710520FFF775FF6379012BC2D161
:100CB000002812D002236371C2E7002850D100231C
:100CC0002370C7E7022B06D0042BB9D1002804D02B
:100CD00004236371B4E7002845D100236371AFE7B3
:100CE000022B06D0042BA0D1002804D004232371AA
:100CF000D8E700283AD100232371D3E7022B07D08D
:100D0000042B00D086E7002804D00423E370BFE75B
:100D100000282ED10023E370BAE7022B07D0042B62
:100D200000D06BE7002804D00423A370A6E70028B6
:100D300022D10023A370A1E7022B07D0042B00D0FF
:100D400050E7002804D0042363708DE7002816D1F3
:100D50000023637088E70028B1D00323237079E76C
:100D60000223237076E70323637169E7032323716A
:100D700098E70323E3708BE70323A3707EE7032345
:100D8000637071E714050010F0B55F4656464D4696
:100D90004446F0B4484E494D306883B08400071C87
:100DA00063590837BA00011C9A46103153598C0018
:100DB0009946635901249B46574623405A012740D0
:100DC0004B46011C23401831FF0117439B018A0049
:100DD000011C1F43203153598A009C46515923401E
:100DE0001B011F430B1C2340DA00031C283317434D
:100DF0009A005359009323409A001743B846071CA2
:100E00003037BB005A59171C274001927B004246DD
:100E10001A439046021C383297007F595B460225E0
:100E20004A462B402A405B08520892015B0113435B
:100E3000994653462B405B084A46DB0113439B46C9
:100E400063462B405A08130129405A461A434B085F
:100E5000D9000A439146009A2A40530899004A460D
:100E6000019B0A43211C2B4081401A43081C9246D7
:100E70003C4000F0C3F840463D40204300F0BEF83F
:100E800057466808384300F0B9F8012009210122CB
:100E9000FFF794FD012009210022FFF78FFD336841
:100EA00007220133134003B033603CBC904699469F
:100EB000A246AB46F0BDC046800000101C050010E5
:100EC00008B50020FFF73CFD08BDC04608B501F09D
:100ED00009FAAA28FBD101F005FA552805D0A52862
:100EE000F5D1552001F0B8F9F1E700F0D5FCEEE7B7
:100EF00008B500F09BF8FFF733FDE121480200F050
:100F000037F9064B102291209867DA641A665A6600
:100F10000720FFF715FDFFF7D9FFF9E70040044070
:100F200070B51E4C2668002E24D01D4E1D4B326815
:100F30009A4229D81C4D1D4B2A68012004219A424F
:100F400013D90122FFF73AFD2A6830684608911943
:100F5000144A2960914201D900232B602568002D95
:100F600002D02268013A226070BD0022FFF726FD00
:100F70002A68EAE7002201200421FFF71FFD0A4D3D
:100F800000222E60064EE0E7012000220421FFF738
:100F900015FD054D002028600022D6E72806001028
:100FA0001C060010C05D000084000010DF2E000051
:100FB00038B5074C042523682B4208D0054B064959
:100FC0001A68A2610868E061FFF7AAFF256038BDD2
:100FD00000800140240600102006001000B5064ADB
:100FE0000121D3690B4200D011620222134201D0C9
:100FF000014B1A6200BDC0460000044010B50A4C07
:101000001221E368084A0B40022BFAD190601021AC
:10101000D0680842FCD104490422CC681442FCD0B8
:1010200001498B6810BDC0460000044008B50C4B58
:101030006421186801F032FA0A4A90420FD80A4B2C
:101040001040013809495860086A1040C022120651
:1010500002430A620020072298601A6008BDFEE77A
:1010600018000010FFFFFF0010E000E000ED00E0BE
:101070000249034B012208605A6070472C06001099
:101080008800001008B5084B5A68002A05D1186876
:1010900001301860FFF78CFD08BD044A002011687C
:1010A00019605860F6E7C046880000102C06001052
:1010B00038B5044C012523682B4202D0FFF764FEAB
:1010C000256038BD00C0004010B5244A9068030771
:1010D0005B0F032B06D0022B1AD0062B2CD0012B32
:1010E00031D010BD5169CBB29E21194020D1D80713
:1010F000F7D51B4B186814681A4AE4B2145401302F
:10110000186080241868A2009042EAD11960E8E7CC
:10111000134B1C681068134AC1B2115501341C608E
:101120008020196882009142DBD100241C60D8E73E
:101130000D4C23601368D4E70B4A802011684300EC
:101140000B431360CDE754692022224002D1074BA4
:101150001A70C6E7054A1370C3E7C0460080004016
:101160009000001030060010300800100000001041
:1011700070B5284D0122284C2A70061C80210020C1
:10118000264D20608B03606080202B50244BA421CF
:101190005C580725AC435C505C5814435C50A82154
:1011A0005C58AC435C505C5814435C501D4B802130
:1011B0001C584901214319501B4C98201A50832177
:1011C0001A4AE16019589B6F1068584301F066F99C
:1011D000311C000901F062F90323010AC0B2616009
:1011E0002060E360A5606369602166690E4B0E4074
:1011F000602EFAD15A69D10704D501211A685869BD
:101200000842FBD18026054C074BB503052125601C
:10121000596070BD000000109000001000E100E077
:10122000004004400080044000800040180000108E
:1012300030B500290AD0064A0025202453692342EC
:10124000FCD0435D013513608D42F7D130BDC046FF
:1012500000800040034948680B68C01A431E98414B
:101260007047C0469000001000B50C4B59681A68D2
:101270009142FBD00A49062048605A680949885CB7
:10128000596880220131596059689200914201D118
:1012900000225A60024B0721596000BD90000010E7
:1012A00000800040300600107047C04600B500289E
:1012B0000EDDFA2200215201C046C0460223C0467C
:1012C0000133C04601339342F9D101318142F3D158
:1012D00000BDC04600B5002811DD421E01231A40A2
:1012E000C04683420BD0002A03D0C046022383426B
:1012F00005D0C0460133C04601338342F9D100BD59
:1013000008B5084B01211A68814001321A609142E8
:1013100007DC00201860044B1868421C1A60FFF7B5
:101320000FFB08BD980000100400001008B5031C56
:101330000F2100111940FFF74BFB08BD08B5031C36
:101340000F2213400A1C511E8A410011191CFFF77D
:1013500035FB08BD08B5031C0A1C0F2100111940FC
:10136000FFF712FB08BDC04600B50E4960220123FD
:1013700050420D4A8B70CB700B71487050788023AF
:101380001B0248718B60043B1868421CFBD0074865
:10139000CB60436800220B61054B0121426019704C
:1013A00000BDC046380800107C0800109C000010EA
:1013B000DA08001070B53A494A7848884B68012A23
:1013C00048D0022A1FD000281CD00A7AC018DC435B
:1013D0001A70241801250A1C01332C40093283425B
:1013E00010D0002C06D016780A1C1E7001330A3269
:1013F000834207D016781E7051780232597002333A
:101400008342F7D170BD0028FCD0013880080E1C43
:101410000D1C820008360C35AD183268AC1B043C3C
:1014200004C30A1C60070C32C00FAA42EAD000288D
:1014300005D0126804C30A1C1032AA42E2D0111C63
:1014400001C91E1C01C654680A1D5C60331DAA42F6
:10145000F5D1D7E70028D5D0013845089C1C680095
:101460002018C61A023E75082E1C16400A891A80DA
:101470000A1C231C0A328442C4D0002E06D01588D0
:1014800002330A1C25800C328342BBD014881C8096
:1014900051880432598004338342F7D1B2E7C04601
:1014A0007C08001008B5804708BDC04610B5094B40
:1014B000094C0A481A78217802703F2241700A408C
:1014C0000230074900F06AFF064B0020012220701D
:1014D0001A7010BD35080010E00800103808001020
:1014E000E4080010DA08001038B5051C0C1C00F0E8
:1014F000E3FE002805DD281C211C00F0B7FE201C9F
:1015000038BD0024FBE7C04670B5074E051C0C1C17
:10151000281C211CFFF7E8FF002804D1337B002B97
:10152000F6D00120404270BD9C000010F8B557462F
:101530004646C0B4174B18485988002924D0174B89
:101540004D1E6F089E689C46BA46831C7F00DD19BD
:10155000BF07041C321C002F0CD0321C1C1C203274
:101560000233068022802032AB4207D09C1C1A80B6
:101570002032A31C22802032AB42F7D153462036C2
:101580005A01B6186746BE6000F05EFE0CBC90467D
:101590009A46F8BD7C080010B80800109C000010A6
:1015A00010B50C1C00F050FE201C10BD70B53D4A5B
:1015B0005188546852783C2900DD6CE0012A47D0FC
:1015C000022A23D0002900D169E03748E543237877
:1015D00009196A18151C01260370631C3540421C4A
:1015E0008B420FD0002D05D01C78013314700132CE
:1015F0008B4207D01E7816705C780233547002322A
:101600008B42F7D13C21FFF7CBFF70BD002946D0BC
:101610004A1E91088E00231D9E19351B043D224849
:101620006A072168D50F021C02C2B342EAD0002D1E
:1016300003D002CB02C2B342E4D0191C20C9141C4F
:1016400020C45B6853600B1D221DB342F5D1D9E75E
:10165000002924D04E1E71084D00A31C5D192E1BBD
:10166000023E710810480E1C218816400180821C21
:10167000AB42C7D0002E05D01E880233168002323E
:10168000AB42BFD0198811805C8804335480043287
:10169000AB42F7D1B6E7201CFFF782FFB5E702485F
:1016A000B0E7C0467C0800103808001008B5044BAD
:1016B000586800F05DFE002000F0CEFD08BDC04679
:1016C0007C08001038B50D1C041CFFF7F9FB002D39
:1016D00005D0FFF7E9FD9620C000FFF7E7FD201CCD
:1016E000FFF7E0FE38BDC046F0B5474680B41F4E58
:1016F00070887468033083109846002B32D000271E
:1017000008361B4DDB071CD52968A14202DC6A683C
:10171000A24203DC3168201C00F0EAFD0137B84525
:1017200019DD286804340436A04202DC6968A1424D
:1017300003DC3168201C00F0DBFD01370436043483
:10174000E2E72F68A74209DD3168201C00F0D0FDD8
:101750000127B845F2DC04BC9046F0BD6B68A3429B
:10176000F2DDF5E7201C00F0CBFDF4E77C0800106B
:101770000800001008B505484388002B02D100F08E
:10178000BDFD08BD00F0B8FDFBE7C0467C080010B9
:1017900008B5064B5868064B1A68904203DB5B6835
:1017A000984200DA08BD00F0A5FDFBE77C080010B8
:1017B0000800001070B5324A324C137823700F2B9A
:1017C00022D80E2B04D9304D2E78002E04D170BDB6
:1017D0002E49980043589F462D4E3C21201CFFF770
:1017E000DFFE337800212970002BF0D056204242D2
:1017F0002270A02B0BD0274A0120116860700E7850
:10180000A67001242C70E2E700F0F2FCDBE7022373
:101810006370F6E7FFF7AEFFD5E7FFF747FED2E7C5
:10182000FFF744FFCFE7FFF75FFFCCE7FFF7B0FF1D
:10183000C9E79578164E52681649562043423570CE
:101840000A602370A02D18D0012363701578A5704D
:101850000D4D01202870C0E750685188FFF732FF16
:10186000B1E7FFF7A3FEAEE7FFF7A4FDABE7FFF795
:101870005DFEA8E7FFF778FDA5E702226270E7E7C3
:101880007C08001038080010DA0800101428000046
:10189000DD0800107408001070B514491448154D87
:1018A000154E164C08607019154E0519154CA81BDD
:1018B00090B0154B002220406D461A7348601A60A4
:1018C00001AC124E053509E02278012A0CD1291C01
:1018D0003B22301C00F062FDFFF76CFF201C3C2116
:1018E000FFF712FE0028EFDA10B070BD08000010FC
:1018F000DE0800101C0000106C280000FF03000030
:101900003608001000FCFFFF9C0000107C0800104F
:10191000F0B55F4656464D464446F0B4D14A87B0CE
:10192000D14F03900492D14B38781C880190002845
:1019300000D1C2E07A1C9246019A3F252A40914686
:101940006A46043200215156002900DAD4E0092009
:101950000021FFF7F3FC4B46002B00D1C1E1013B16
:101960000199029340220298002711400126BB46AC
:10197000B84600250191304200D079E14B460593ED
:101980004FE07000029AC3B29946974258D0414640
:1019900031401020FFF7D2FC08200021FFF7CEFCD9
:1019A000201CFFF797FC039800285FD10135082021
:1019B0000121EDB2FFF7C2FC082D68D0201CFFF713
:1019C00089FC059A7E1C96426EDA4F46002D3FD167
:1019D000524612780120904602229146029A002334
:1019E000824401279B46964238D041463940102018
:1019F000FFF7A4FC08200021FFF7A0FC201CFFF744
:101A000069FC039B002B5FD1013508200121EDB259
:101A1000FFF794FC082D68D0201CFFF75BFC771CB7
:101A20004E46002DADD15246127801269046022234
:101A30009146029A0023B2449B4601269742A6D1C2
:101A400001990029A3D009200121FFF777FC9EE727
:101A50007900029ACBB299469642C6D101980028E5
:101A6000C3D009200121FFF769FCBEE70620FFF77C
:101A70005DFC00289AD05B461E430135F6B2082073
:101A80000121EDB2B346FFF759FC082D96D1049D14
:101A90005A462A70201C01350495FFF71BFC059A55
:101AA0007E1C0025964290DB049F594639705746AC
:101AB00038780190002800D03CE707B03CBC904645
:101AC0009946A246AB46F0BD0620FFF72FFC002842
:101AD0009AD05B461F430135FFB208200121EDB2C9
:101AE000BB46FFF72BFC082D96D1049D5946297063
:101AF0000135049500258FE74B46002BD7D00422F3
:101B000093464A460120013A024001927E788021A4
:101B100031400920FFF712FC402131401020FFF72F
:101B20000DFC202131400820FFF708FC201CFFF7A6
:101B3000D1FB0823191C314009209846FFF7FEFB12
:101B4000594631401020FFF7F9FB022131400820AF
:101B5000FFF7F4FB0126201CFFF7BCFB4E457DD2AE
:101B60000198002828D053465E7880213140092012
:101B7000FFF7E4FB402131401020FFF7DFFB20217D
:101B800031400820FFF7DAFB201CFFF7A3FB41469A
:101B900031400920FFF7D2FB594631401020FFF7B2
:101BA000CDFB022131400820FFF7C8FB0226201C94
:101BB000FFF790FB4E4551D2BB195D78802129403B
:101BC0000920FFF7BBFB402129401020FFF7B6FB9F
:101BD000202129400820FFF7B1FB201CFFF77AFBEA
:101BE0000822111C294009209046FFF7A7FB5946FF
:101BF00029401020FFF7A2FB022129400820FFF70F
:101C00009DFB0136201CFFF765FBB9194D7880213B
:101C100029400920FFF792FB402129401020FFF7BF
:101C20008DFB202129400820FFF788FB201CFFF7AF
:101C300051FB414629400920FFF780FB59462940C6
:101C40001020FFF77BFB022129400820FFF776FBDD
:101C50000136201CFFF73EFB4E45ADD3CA44574624
:101C600026E7C046380800107D0800101400001058
:101C700052461278029D904601229244AB4528D0EC
:101C8000414631401020FFF759FB00210820FFF7A3
:101C900055FB201CFFF71EFB039900290FD10820DC
:101CA0000121FFF74BFB0127201C0125FFF712FB49
:101CB0004F4500DBF8E64A4602260592B1E60620CB
:101CC000FFF734FB0028EAD05B461E43F6B2B3466A
:101CD000E5E7019F002FD3D009200121FFF72EFB5C
:101CE000CEE700239B46049F59463970DFE6C04685
:101CF00008B54B1E9941FFF72DFB08BDF0B55F46B7
:101D000056464D464446F0B4BA4C87B002902188FE
:101D1000B9480423B94E019103909A460123082241
:101D20009B463378904602229146002B00D182E0F8
:101D3000771C04975DB23F271F40002D00DA5FE15A
:101D40005A0600D580E0002F70D0002505E00198EC
:101D50000135FFF7BFFABD4265D2721954782021D0
:101D600021401920FFF7EAFA102121401A20FFF73D
:101D7000E5FA414621400920FFF7E0FA51462140AB
:101D80001020FFF7DBFA494621400820FFF7D6FA7A
:101D9000594621400620FFF7D1FA02990029D6D0F2
:101DA0000A20FFF7C3FA00284CD080240B20FFF74D
:101DB000BDFA002801D040231C431920FFF7B6FAD2
:101DC000002801D0202004431A20FFF7AFFA002892
:101DD00001D010210C430920FFF7A8FA002801D0F8
:101DE000082214431020FFF7A1FA002801D0042391
:101DF0001C430820FFF79AFA002802D0022004436F
:101E0000E4B20620FFF792FA002802D001210C4329
:101E1000E4B2039A01351470019801320392FFF77E
:101E200059FABD4299D3049DEE190496049E337865
:101E3000002B00D07CE707B03CBC90469946A246F8
:101E4000AB46F0BD0024B1E7002FEFD074784146D7
:101E50000122214009207D1E1540FFF76FFA5146EF
:101E600021401020FFF76AFA494621400820FFF779
:101E700065FA594621400620FFF760FA02990029C9
:101E800000D068E101980124FFF724FABC4200D396
:101E9000AAE0002D42D0B578414629400920FFF73D
:101EA0004DFA514629401020FFF748FA494629408B
:101EB0000820FFF743FA594629400620FFF73EFA6B
:101EC000029D002D00D069E101980134FFF702FA6C
:101ED000BC4223D388E00198651CFFF7FBF9701919
:101EE0004478414621400920FFF728FA5146214015
:101EF0001020FFF723FA494621400820FFF71EFA79
:101F0000594621400620FFF719FA029C002C42D1C5
:101F100001986C1CFFF7DEF9BC4265D233195D787D
:101F2000414629400920FFF709FA5146294010206F
:101F3000FFF704FA494629400820FFF7FFF9594600
:101F400029400620FFF7FAF9029D002DC3D0092091
:101F5000FFF7ECF9002800D1EDE008251020FFF78D
:101F6000E5F9002802D004200543EDB20820FFF770
:101F7000DDF9002802D002210D43EDB20620FFF763
:101F8000D5F9002802D001221543EDB2039B1D7044
:101F9000013303939FE70920FFF7C8F9002800D118
:101FA000C7E008241020FFF7C1F9002802D004235D
:101FB0001C43E4B20820FFF7B9F9002802D002223E
:101FC0001443E4B20620FFF7B1F9002802D0012142
:101FD0000C43E4B203980470013003906C1C019828
:101FE000FFF778F9BC4299D3049DEE190496049E3C
:101FF0001DE7C04614000010380800107D080010CE
:10200000002F00D199E001237A1E1A4005927478BE
:10201000202121401920FFF76BFE102121401A20BA
:10202000FFF766FE414621400920FFF761FE514659
:1020300021401020FFF75CFE494621400820FFF7B1
:1020400057FE594621400620FFF752FE0125012F79
:1020500000D8E8E6059C002C23D0049B20215D7865
:1020600019202940FFF744FE102129401A20FFF7CC
:102070003FFE414629400920FFF73AFE51462940DC
:102080001020FFF735FE494629400820FFF730FEB3
:102090005946294006200225FFF72AFEAF4200D804
:1020A000C1E670194478202121401920FFF720FE55
:1020B000102121401A20FFF71BFE41462140092034
:1020C000FFF716FE514621401020FFF711FE49464A
:1020D00021400820FFF70CFE59462140062001351B
:1020E000FFF706FE73195C78202121401920FFF7C5
:1020F000FFFD102121401A20FFF7FAFD4146214043
:102100000920FFF7F5FD514621401020FFF7F0FDB3
:10211000494621400820FFF7EBFD594621400620A3
:102120000135FFF7E5FDAF42BBD8049DEE190496DB
:102130007CE6002436E7002510E7049A2B48171C9C
:1021400001377C1C117804943D782E020E430680E2
:102150000196049E6BE60920FFF7E8F8002840D1BD
:1021600000241020FFF7E2F8002802D004231C43CB
:10217000E4B20820FFF7DAF8002802D00222144364
:10218000E4B20620FFF7D2F8002802D001210C4368
:10219000E4B2039804700130039073E60920FFF75E
:1021A000C5F800281FD100251020FFF7BFF8002830
:1021B00002D004231D43EDB20820FFF7B7F8002832
:1021C00002D002221543EDB20620FFF7AFF8002837
:1021D00002D001210D43EDB2039805700130039048
:1021E00072E60824BDE70825DEE7C04614000010AB
:1021F00010B50820FFF784F8114C2378182B0FD066
:10220000192B12D01A2B15D01B2B04D001200D4AEC
:102210000340137010BD0120FFF770FD2378F5E730
:102220000020FFF775FB2378F0E70120FFF770FB34
:102230002378EBE70020FFF761FD2378E6E7C0464F
:102240007C080010DA08001010B50C1C002901D021
:10225000FEF7EEFF201C10BD00B583B001AB187077
:102260000121181CFFF7F0FF03B000BDF8B5051CF5
:102270000E1C00281ED000291ADD4F1E01231F400E
:10228000FEF7F2FF01242870012E11DD002F05D08A
:10229000FEF7EAFF02246870A64209DDFEF7E4FFBC
:1022A0002855FEF7E1FF013428550134A642F5DC3C
:1022B000301CF8BD0026FBE708B5FEF7CBFF08BDD4
:1022C00010B582B0FFF7F8FF002803D1012040428B
:1022D00002B010BD01AC201C0121FFF7C7FF207820
:1022E000F6E7C04608B5FFF7EBFF0028FBDB08BDAB
:1022F0007047C0467047C0467047C0467047C046EA
:102300007047C04608B5FA208000FEF7CFFF08BD31
:1023100008B5FFF7A1FF002008BDC04608B50F2390
:102320001840092800DD27303030FFF7F1FF08BDE5
:1023300010B50A21041C00F0FFF8FFF7EFFF201C86
:102340000A2100F04FF9081CFFF7E8FF0A20FFF709
:10235000DFFF10BD10B5041C0078002805D0013443
:10236000FFF7D6FF20780028F9D1002010BDC04625
:1023700010B50948FFF7EEFF0024201C0134FFF7D9
:10238000D7FFFFF7BFFF201C0134FFF7D1FFFFF796
:10239000B9FF3C2CF1D110BD50280000F0B585B03C
:1023A000032A09D8002A05D00023CC5CC454013389
:1023B0009342FAD105B0F0BD8218031C032403E058
:1023C0000D7801311D70013303252342F8D10D40F2
:1023D0003DD1D41A22E00D68403C1D604D685D601F
:1023E0008D689D60CD68DD600D691D614D695D6121
:1023F0008D699D61CD69DD610D6A1D624D6A5D6209
:102400008D6A9D62CD6ADD620D6B1D634D6B5D63F0
:102410008D6B9D63CD6B4031DD6340333F2CDADC47
:10242000D41A0AE00D68103C1D604D685D608D682F
:102430009D60CD681031DD6010330F2CF2DCD41AB2
:1024400002E020C9043C20C3032CFADC23E0EF00A7
:102450006C42029704270E597D1BED000095B4468F
:10246000D51A0C190FE0266867460196029E0431C2
:10247000F7400397009E019F043DB740039E3E43F3
:10248000019F40C3BC460434032DECDC03E00C7810
:1024900001311C7001339342F9D38BE7002934D00A
:1024A0000123002210B488422CD301242407A14226
:1024B00004D2814202D209011B01F8E7E400A142E3
:1024C00004D2814202D249005B00F8E7884201D37E
:1024D000401A1A434C08A04202D3001B5C08224356
:1024E0008C08A04202D3001B9C082243CC08A042C7
:1024F00002D3001BDC082243002803D01B0901D0B3
:102500000909E3E7101C10BC7047002801D0002027
:10251000C04307B4024802A14018029003BDC04660
:10252000D90000000029F0D003B5FFF7B9FF0EBCB9
:102530004243891A1847C046002941D010B4041CF0
:102540004C40A44601230022002900D5494200281E
:1025500000D5404288422CD301242407A14204D252
:10256000814202D209011B01F8E7E400A14204D232
:10257000814202D249005B00F8E7884201D3401A49
:102580001A434C08A04202D3001B5C0822438C086B
:10259000A04202D3001B9C082243CC08A04202D3D5
:1025A000001BDC082243002803D01B0901D00909C5
:1025B000E3E7101C6446002C00D5404210BC704775
:1025C000002806D003DB0020C043400801E0802043
:1025D000000607B4024802A14018029003BDC0469D
:1025E000190000000029EBD003B5FFF7A7FF0EBCD0
:1025F0004243891A1847C0467047C0465805000034
:10260000CC050000EA050000EA050000EA0500002C
:10261000EA050000EA050000EA050000EA050000FE
:10262000EA05000018060000360600005805000004
:102630005A06000088060000880600008806000090
:102640008806000088060000880600008806000052
:1026500088060000B4060000980500000300000092
:10266000000000000300000003000000050000005F
:1026700003000000020000000400000018000140F8
:102680001C00014020000140240001400D0E1617DF
:1026900000000050000001500000025000000350F4
:1026A000B60A00008A0A00008A0A00008A0A0000AE
:1026B0008A0A00008A0A00008A0A00008A0A0000CA
:1026C000D60A00008A0A00008A0A00008A0A00006E
:1026D0008A0A00008A0A00008A0A00008A0A0000AA
:1026E000F60A00008A0A00008A0A00008A0A00002E
:1026F0008A0A00008A0A00008A0A00008A0A00008A
:10270000140B00008A0A00008A0A00008A0A0000EE
:102710008A0A00008A0A00008A0A00008A0A000069
:10272000360B00008A0A00008A0A00008A0A0000AC
:102730008A0A00008A0A00008A0A00008A0A000049
:10274000360B00008A0A00008A0A00008A0A00008C
:102750008A0A00008A0A00008A0A00008A0A000029
:102760008A0A00008A0A00008A0A00008A0A000019
:102770008A0A00008A0A00008A0A00008A0A000009
:10278000240B00008A0A00008A0A00008A0A00005E
:102790008A0A00008A0A00008A0A00008A0A0000E9
:1027A000140B00008A0A00008A0A00008A0A00004E
:1027B0008A0A00008A0A00008A0A00008A0A0000C9
:1027C000640A00008A0A00008A0A00008A0A0000DF
:1027D0008A0A00008A0A00008A0A00008A0A0000A9
:1027E000940A000001000000010000000000000049
:1027F00000000000000000000000000008000000D1
:1028000009000000020000000600000008000000AF
:1028100009000000C617000074180000C617000069
:102820006E180000681800006218000058180000B8
:10283000321800002C180000C617000026180000EF
:10284000C6170000201800001A1800001418000015
:1028500048656C6C6F20576F726C640A0000000052
:0C28600025303278200000000A00000043
:10286C000100000007000000000000080020000824
:0C287C000500000001000000006CDC0200
:0400000300000311E5
:00000001FF
