:020000040800F2
:10000000005000200D010008A5010008A70100080C
:10001000A9010008AB010008AD01000800000000C4
:10002000000000000000000000000000AF01000818
:10003000B101000800000000B3010008B50100088C
:100040005901000859010008590100085901000828
:100050005901000859010008590100085901000818
:100060005901000859010008590100085901000808
:1000700059010008590100085901000859010008F8
:1000800059010008590100085901000859010008E8
:10009000B70100085901000859010008590100087A
:1000A00059010008590100085901000859010008C8
:1000B00059010008590100085901000859010008B8
:1000C00059010008590100085901000859010008A8
:1000D00059010008BD010008590100085901000834
:1000E00059010008590100085901000800000000EA
:1000F0000000000000000000000000000000000000
:0C01000000000000000000005FF808F1A3
:10010C00002100F004B80C4B5B58435004310B48F1
:10011C000B4B42189A42FFF4F6AF0A4A00F003B8B0
:10012C00002342F8043B084B9A42FFF4F9AF02F06B
:10013C00ADF900F02CF87047A02700080000002053
:10014C00C4010020C40100209C200020FFF7FEBF4A
:10015C0008B500F04FFA00F045FF00F09DFA00F0F2
:10016C008FFABDE8084002F075B908B500F09EFFA3
:10017C00AA28FBD100F09AFF552802D100F0ECFE22
:10018C00F4E7A528F2D1552000F079FFEEE708B589
:10019C00FFF7DEFFFFF7E9FF7047FEE7FEE7FEE73C
:1001AC00FEE7704770477047704700F07FB800005B
:1001BC0008B5094840F2255101F0C1F908B100F029
:1001CC00F5FA0548082101F0B4F920B10248BDE860
:1001DC00084001F0AAB908BD00380140014B0022CB
:1001EC001A607047D0010020F8B507460E4611B9C9
:1001FC008C2000F09DFC144D2C680CBB012002F0EF
:10020C0037F830281DD0402EB4BF34464024A6B257
:10021C003846C021324601F0B5FF0120314602F0CC
:10022C00D1F8286803192B6014B92A68511C29606D
:10023C00012002F026F824B98C2000F079FC00E0B3
:10024C0000242046F8BD00BFD001002010B50320CB
:10025C00094901F085FF81B2074800F0CDFE00F09E
:10026C00D9FE3F28054C04DD032002F01CF80023C6
:10027C0000E00123237010BD05120020C4010020F2
:10028C00084810B50368052B0BD1074C217841B1F8
:10029C0000F0C0FE3F2804DD032002F004F8002229
:1002AC00227010BDC8010020C4010020164A38B5C8
:1002BC001468164B1C80164C1D88208800EA05011A
:1002CC0011F4007F1D4608D0124B4FF6FF50106002
:1002DC0019784A1C1A70FFF7D3FFB5F800C02388B1
:1002EC0003EA0C02120401D501F018FA28882288BE
:1002FC0002EA00014B0506D5034A07494FF6FF30C9
:10030C0010604B68984738BD445C00404612002092
:10031C0098200020C50100208C0000200348837A1F
:10032C0013B1034905220A60704700BF74200020F6
:10033C00C8010020014B04221A607047C80100203C
:10034C0070470000212808B507D1134A11680878B6
:10035C0000F07F03212B1AD10FE0202817D10E4B70
:10036C0019680E4B0A780E4902F07F0CBCF1210F74
:10037C0018BF002308700BB90BE00A4B064900208C
:10038C000A685082936100209847002008BD022023
:10039C0008BD022008BD00BF942000200504000801
:1003AC00C6010020ED030008084B1A68117801F013
:1003BC007F03212B06D1022806D0222814BF02204D
:1003CC0000207047022070470020704794200020C6
:1003DC0021B901288CBF02200020704702207047F1
:1003EC0020B9034908220B681A82704701487047EC
:1003FC00942000205400002020B9034908220B68E7
:10040C001A82704701487047942000205400002045
:10041C0005490B68DB78042B04D8044A02EBC301B2
:10042C0001F024BC00207047942000205C000020C8
:10043C00014901F01BBC00BF7C000020014901F008
:10044C0015BC00BF8400002010B5064C2378202B6F
:10045C0007D100F061F90449086800F065FD00203F
:10046C00207010BDC60100205400002010B5344A85
:10047C00344C92F807C02068002480F809C08472BC
:10048C00C472204601F0A4FE20464FF4007101F026
:10049C00A9FE1021204601F0B3FE4021204601F0B8
:1004AC005DFF8021204601F047FF204601F00DFF43
:1004BC002549204691F8641001F094FF204601F084
:1004CC00F2FE0120214601F08DFE0120C02101F039
:1004DC0033FF0120202101F093FE0120214601F081
:1004EC00ABFE02204FF4C06101F07CFE02204FF401
:1004FC00807101F021FF0220214601F09DFE0220B7
:10050C00202101F07DFE0320214601F06BFE03202B
:10051C004FF4887101F022FF0320402101F062FFAB
:10052C0003204FF4405101F087FE0320214601F0D7
:10053C0067FE204601F0B0FD044B01221A6010BD8D
:10054C00802600089420002054000020C8010020C0
:10055C0010B500F053F9064900240868847200F0C5
:10056C000BF801F0EDFD00F0BDF8024B1C6010BD66
:10057C0094200020C801002008B5012000F09EFA4C
:10058C00064B0120064A18600649002018601060CE
:10059C004FF4E0520A801A6008BD00BF405C004076
:1005AC00445C00409820002038B50648064D0024D5
:1005BC00012129600460204600F080FA03232B609F
:1005CC00204638BD445C0040405C004010B5002320
:1005DC000CE0040F092C01D8303400E037340C70D7
:1005EC00013300244C700001DBB202319342F0D194
:1005FC0010BD000010B500F021F91F4C206000F078
:10060C00FBFD4FF4803000F017FE00F0EDFE1B4BAD
:10061C00012818702AD1102000F058FD022000F09B
:10062C004BFD002000F048FE002000F059FE4FF476
:10063C00806000F04BFE21684FF4803011B14FF414
:10064C00801101E04FF4E01100F012FE012000F0E7
:10065C001BFE392000F0B4FE0028FAD0022000F076
:10066C0019FE00F021FE0828FBD100E0FEE7BDE8F2
:10067C00104000F0FBB900BFCC0100204812002054
:10068C00002008B500F036FE4FF400000121BDE853
:10069C00084000F089BE000013B500214FF0006047
:1006AC0001F030F84FF4C06000F0EEFF002401219F
:1006BC00142201A88DF804208DF805108DF8071070
:1006CC008DF8064000F0EAFF25208DF8040001A803
:1006DC008DF8054000F0E2FF014B5C601CBD00BFD3
:1006EC00CC0100200A494FF4165008B508600C23C1
:1006FC0000208880C880088188814B8101F03EFFF2
:10070C00044840F225510122BDE8084000F0F4BE37
:10071C004C1A00200038014008B5224B1A79012AE6
:10072C0006D002D3022A38D106E01F4A002106E087
:10073C001D4A4FF4405102E01B4A4FF40051D18046
:10074C005A79012A06D002D3022A26D106E0164A8B
:10075C00002106E0144A4FF4806102E0124A4FF483
:10076C00C06111819A79072A02D0082A15D102E0BA
:10077C000D4A002104E00C4A118909B14FF4805153
:10078C00918009491A6800200C2388810A60002096
:10079C004B8101F0F3FE012008BDFFF7A3FF002001
:1007AC0008BD00BF540000204C1A002038B50F4B78
:1007BC000F4C9B79072B06D10E48A56800F0B5FEAF
:1007CC0000F07F0005E0082B05D10A48A56800F071
:1007DC00ACFE09494855A268501CB0F5006FA060EA
:1007EC0002D1034B0021996038BD00BF540000209A
:1007FC00CC0100200038014049120020094A0A4966
:10080C0010B50B6814685068C0180AD00822074944
:10081C00FFF7DCFE064920460422BDE81040FFF736
:10082C00D5BE10BDECF7FF1FE8F7FF1F020000203C
:10083C0012000020192000F0C5BB0000024B1A6901
:10084C0053F82200704700BFE400002003480269FF
:10085C0000EB82035869998C00F0E1BEE4000020A3
:10086C007FB53D20012100F093FD19494FF08062C6
:10087C0000204A6003251024ADF8080002A9154891
:10088C008DF80A508DF80B4000F078FE20211148AD
:10089C0000F0C3FE4FF4007303A90F48ADF80C3001
:1008AC004FF480768DF80E508DF80F4000F066FEF8
:1008BC0001A90A48ADF804608DF806508DF8074080
:1008CC0000F05CFE0548314600F0A7FE7FBD00BF7E
:1008DC0000000140000C01400014014000080140E0
:1008EC00F0B5012087B0014600F052FD224B4FF0CD
:1008FC0080625A607C20012100F04AFD10240325FF
:10090C00002601A91D48ADF804608DF806508DF83D
:10091C00074000F033FE02A919484027ADF80860E3
:10092C008DF80A508DF80B4000F028FE03A91548ED
:10093C00ADF80C708DF80E508DF80F4000F01EFEC7
:10094C003946104800F069FE0DEB04010E48ADF875
:10095C0010608DF812508DF8134000F00FFE0B480C
:10096C0005A9ADF814608DF816508DF8174000F0FD
:10097C0005FE07B0F0BD00BF0000014000080140BB
:10098C00000C01400010014000140140001801400F
:10099C0030B53C2085B0012100F0FAFC0324002284
:1009AC00102501A91048ADF804208DF806408DF8EB
:1009BC00075000F0E3FD18211420ADF80C108DF851
:1009CC000F0003A909488DF80E4000F0D7FD402315
:1009DC00074802A9ADF808308DF80A408DF80B5085
:1009EC0000F0CCFD05B030BD000C014000140140FE
:1009FC000010014030B5012085B00146174C00F0C5
:100A0C00C7FC4FF0806262603C20012100F0C0FC0A
:100A1C004EF2002103251024ADF80410104801A952
:100A2C008DF806508DF8074000F0A8FD0020ADF8B9
:100A3C00080002A90B488DF80A508DF80B4000F005
:100A4C009DFD4023084803A9ADF80C308DF80E50DD
:100A5C008DF80F4000F092FD05B030BD0000014054
:100A6C0000080140000C01400010014008B5114B7A
:100A7C001B69022B09D0032B0AD0012B02D0FFF7E4
:100A8C00EFFE07E0FFF784FF04E0FFF729FF01E02A
:100A9C00FFF7B0FFFFF7CEFE50B107484068020DDC
:100AAC001105B1F1006F03D1BDE8084000F086B923
:100ABC0008BD00BFE40000200030000803460948D0
:100ACC00026900EB8201486D496E48B1032A89B274
:100ADC0001D11BB900E00BB100F0A1BD00F09DBD30
:100AEC00704700BFE400002007B5FFF75DFD032150
:100AFC0010204FF4C8528DF806108DF8070001A98C
:100B0C000448ADF8042000F039FD024B0022DA60F5
:100B1C000EBD00BF000801407047002305E000BF78
:100B2C0000BF00BF00BF00BF01338342F7DB70473B
:100B3C00C000FFF7F2BF38B50546002404E04FF4BF
:100B4C00FA50FFF7EAFF0134AC42F8DB38BD03463C
:100B5C0080E8060000209860D860704770B50346A6
:100B6C00846800200BE01D680E5C2E555D68013416
:100B7C00AC42A8BF0024DD68AC4204D001309042E6
:100B8C00F1DB9C6070BD002070BD0346DA688068A4
:100B9C00801A44BF5B68C018704710B50446FFF755
:100BAC00F4FF6368181A10BD30B50346C468002002
:100BBC000BE09D68AC420AD01D682D5D01340D54CC
:100BCC005D680130AC42A8BF00249042F1DBDC60D0
:100BDC0030BD4218501E49420840704710B50C46B3
:100BEC0000F036FA204610BD084A094B10B50948EA
:100BFC00094C0A4920609818401A4FF48061FFF79D
:100C0C00E8FF074B002260601A6010BDC401002091
:100C1C00A0270008000000085C0100200000002054
:100C2C00E4010020054B1A68904205DB5B68984292
:100C3C00B4BF002001207047012070475C010020E8
:100C4C0050F8043D0133FBD07047000038B50C4B15
:100C5C000C4C93F801C0A3250B4865700125A570B9
:100C6C00E570257184F805C0A060FFF7E9FFE0602E
:100C7C000648074B41680022216142601D7038BD57
:100C8C00A41A0020601A002000000208E4010020D1
:100C9C001A1F0020FFF7A2BF10B5174B59885868D0
:100CAC003C295B7803DDBDE81040FFF7F3BF012B57
:100CBC0010D0022B05D116E01C5C104A9C54013359
:100CCC0000E000238B42F7DB10E01C5A0B4AD45295
:100CDC00023300E000238B42F7DB07E01C58074A85
:100CEC009C50043300E000238B42F7DB03483C218B
:100CFC00BDE81040FFF772BFA41A0020601A002054
:100D0C0010B5114B5A78598858680833012A0BD002
:100D1C00022A4FF0000204D113E013F8014B1454D3
:100D2C0001328A42F9DB10BD002203E033F8024B9A
:100D3C00145202328A42F9DB10BD53F8044B1450A2
:100D4C0004328A42F9DB10BDA41A002010B5064B00
:100D5C005C682046FFF766FF20B12046BDE81040D6
:100D6C0000F028BA10BD00BFA41A00200348438825
:100D7C000BB100F0C3B900F0B5B900BFA41A002044
:100D8C00F8B50D4E70887468C71CBF1004D120468E
:100D9C00BDE8F840FFF7C0BE00252046FFF742FF34
:100DAC0018B12046B16800F0D9F901350434043685
:100DBC00BD42F2DBF8BD00BFA41A002008B5804785
:100DCC0008BD38B50D460446FFF740FD2DB1FFF7C1
:100DDC008BFE4FF49660FFF7AEFE2046BDE8384020
:100DEC00FFF7ECBF09480A4B0278AA21A02A197018
:100DFC0002D102225A7005E0064A0120116858708F
:100E0C0008789870044B0121197070471C1F002042
:100E1C00601A00209C1A00201A1F00200448054A62
:100E2C004188054B117042681A60FFF7DBBF00BFA9
:100E3C00A41A00201C1F00209C1A002010B5054C81
:100E4C000022A36802E08352203302328A42FADB8A
:100E5C00A36010BDE401002010B5064B06485C8869
:100E6C002146FFF7EBFF04482146BDE8104000F097
:100E7C00EFB800BFA41A0020E01A002010B51E4BDA
:100E8C001E491878421E08700D2A24D8DFE802F09B
:100E9C0021231E0A070D1B12231523232318FFF7EA
:100EAC00FBFE18E0FFF72CFF15E058685988FFF798
:100EBC0088FF10E0FFF74AFF0DE0FFF761FF0AE043
:100ECC00FFF754FF07E0FFF7A9FF04E0FFF7C4FFAB
:100EDC0001E0FFF7BBFE0A4C237863B13C210748C5
:100EEC00FFF77CFE07480021027821701AB1BDE89B
:100EFC001040FFF777BF10BDA41A0020601A002025
:100F0C001A1F00201C1F002038B505460C4600F0A7
:100F1C007BF8002804DD2846214600F081F800E02B
:100F2C000024204638BD0000014B01221A73704783
:100F3C00E401002038B505460C4628462146FFF74B
:100F4C00E3FF28B90348037B002BF6D04FF0FF30AA
:100F5C0038BD00BFE401002030B5134B002291B026
:100F6C001A73FFF741FE3C2101A8FFF7E3FF0028AD
:100F7C0017DB9DF80400012813D10C4A0DF1050371
:100F8C000DF13D0518685968144603C40833AB428B
:100F9C002246F7D119889A782180A270FFF76EFF4C
:100FAC00E1E711B030BD00BFE4010020A41A00201D
:100FBC000111034B01F0070053F82000704700BFEC
:100FCC00D826000810B50446FFF7F2FF04F00F0412
:100FDC00012212FA04F483681C420CBF0020012089
:100FEC0010BD000003484FF4805200F11001FFF7D0
:100FFC00AEBD00BFF4010020034602480A46194664
:10100C00FFF7ACBDF40100200148FFF7BEBD00BFE7
:10101C00F40100200148FFF7C0BD00BFF40100201F
:10102C0070B50E46054670B1002409E0FFF7ECFFE1
:10103C000028FBD02919321B0448FFF7B5FD2418F2
:10104C00B442F3DB00E00446204670BDF4010020FE
:10105C0070B506460D4681B10020044604E03019F7
:10106C00291BFFF7C1F82418AC42F8DB402803D148
:10107C0030190021FFF7B8F82546284670BD07B592
:10108C0002AB03F8040D18460121FFF7E1FF0EBD7A
:10109C0007B5FFF7B9FF30B101A80121FFF7C0FF79
:1010AC009DF8040001E04FF0FF300EBD08B5FFF7CE
:1010BC00EFFF0028FBDB08BD034B1A6802F0380178
:1010CC0040EA01021A60704700200240044B196884
:1010DC0021F010021A60196840EA01021A60704788
:1010EC0000200240024B0348034A58605A60704784
:1010FC000020024023016745AB89EFCD024B1869F4
:10110C0040F080021A61704700200240094BDA68F7
:10111C00D2070AD4D868400709D4DB6803F0100161
:10112C0000290CBF042003207047012070470220C7
:10113C00704700BF0020024010B50446FFF7E6FFE1
:10114C0002E0FFF7E3FF013C012803D1002CF8D1AA
:10115C00052010BD002C08BF052010BD73B5002361
:10116C0004464FF400500E460193FFF7E5FF0428A8
:10117C001CD10F4D296941F00100286126804FF4E4
:10118C000050FFF7D9FF042808D102340194019ACA
:10119C00360C16804FF40050FFF7CEFF052805D013
:1011AC002A6941F6FE7102EA01032B617CBD00BF86
:1011BC000020024038B505464FF43020FFF7BCFF45
:1011CC00042815D10B4C226942F0020121616561A2
:1011DC00206940F0400323614FF43020FFF7ACFF4F
:1011EC00052805D0226941F6FD7102EA010323614D
:1011FC0038BD00BF002002400D4B1A6842F00100C0
:10120C00186059680B4A01EA020058601A6822F00B
:10121C00847C2CF480311960186820F480221A60C8
:10122C0059684FF41F0221F4FE0058609A60704711
:10123C00001002400000FFF80C4BB0F5803F19681D
:10124C0021F480321A60196821F480221A6003D0CC
:10125C00B0F5802F09D104E01A6842F48030186090
:10126C007047186840F4A0211960704700100240C4
:10127C00044B5A6822F47C1C40EA0C0040EA010240
:10128C005A60704700100240014B1860704700BF55
:10129C0060004242034B5A6822F0030140EA01020B
:1012AC005A60704700100240024B586800F00C0066
:1012BC00704700BF00100240034B5A6822F0F00147
:1012CC0040EA01025A60704700100240034B5A6812
:1012DC0022F4E06140EA01025A60704700100240BB
:1012EC00034B5A6822F4605141EAC0025A607047BD
:1012FC0000100240014B1860704700BFD8004242FA
:10130C001F4B10B55A6802F00C02042A01D0082AAF
:10131C0002D01C4B03600FE05C68596804F4701237
:10132C00940CA21CC90302D55B689B0301D5164B18
:10133C0000E0144B5A430260114A546804F0F00365
:10134C001909124B0468595C34FA01F14160546874
:10135C0004F4E064240A1C5D31FA04F484605468DB
:10136C0004F46054E40A1C5DE140C160526802F46C
:10137C00404C03EB9C331A7CB1FBF2F1016110BDC4
:10138C000010024000127A0000093D0068010020A4
:10139C00044B9A6909B1104301E022EA00009861FC
:1013AC00704700BF00100240044BDA6909B11043CA
:1013BC0001E022EA0000D861704700BF0010024033
:1013CC004309012B074A01D1136803E0022B0CBF20
:1013DC00136A536A00F01F0133FA01F000F00100A8
:1013EC00704700BF0010024007B500230193312065
:1013FC00FFF7E6FF019B5A1C01920199B1F5A06F12
:10140C0001D00028F3D03120FFF7DAFF003018BFED
:10141C0001200EBD30B5B0F810E00D462EF4405250
:10142C001304CA881B0C13430382B0F80CC087B09A
:10143C002CF4B05E2EF00C02B1F804C013040A892F
:10144C00498942EA0C0E4EEA01021FFA82FC1B0C7F
:10145C004CEA03038381B0F814E0B5F80CC02EF409
:10146C0040710A04130C43EA0C010446818201A862
:10147C00FFF746FF194BA0899C420CBF049B039BB2
:10148C0002B2002A4FF019012A6801FB03F101DABC
:10149C00520000E092006423B1FBF2F1B1FBF3F2D5
:1014AC001201B4F80CC0100903FB10110FFA8CF0E8
:1014BC00002806DAC9003231B1FBF3F303F007035D
:1014CC0005E009013231B1FBF3F000F00F0343EA00
:1014DC00020EA4F808E007B030BD00BF0038014090
:1014EC00838919B19BB243F4005303E023F40052F7
:1014FC0011040B0C83817047CBB210B55B0901242E
:10150C0001F01F0114FA01F1A34201D10C3004E0E7
:10151C00022B01D1103000E0143003680AB11943DA
:10152C0001E023EA0101016010BD8188C805C00DEE
:10153C007047038819420CBF00200120704710B57A
:10154C00CCB20122640901F01F039A40012C01D195
:10155C00838903E0022C0CBF038A838A9BB2008828
:10156C00134082B243B1080A012313FA00F111426D
:10157C000CBF0020012010BD184610BDF0B5CE7870
:10158C00F30606F00F0248BF8B780E8848BF1A434B
:10159C0016F0FF0F1DD00468002301279F4007EAB7
:1015AC000605BD4211D19F004FF00F0C0CFA07FC41
:1015BC0012FA07F724EA0C043C43CF78282F01D108
:1015CC00456102E0482F08BF05610133082BE4D1C7
:1015DC0004600E88FF2E1FD94468002303F1080510
:1015EC000127AF4007EA0605BD4211D19F004FF01D
:1015FC000F0C0CFA07FC12FA07F724EA0C043C4314
:10160C00CF78282F01D1456102E0482F08BF056132
:10161C000133082BE2D14460F0BD01617047416198
:10162C00704700000028174B30B500F44014B4BFCD
:10163C00DB695B68B4F5401F82B207D1114C23F013
:10164C007063656825F07065656010E0C40206D5AE
:10165C0000F470252C0C032515FA04F403E0440D5A
:10166C00240112FA04F423EA040343F0706319B161
:10167C00410D09018A40134300280248B4BFC361DD
:10168C00436030BD0000014040F0BE61024B41F4AC
:10169C002020D860704700BF00ED00E0C37810B583
:1016AC000BB3164A90F800C0D168CB4303F4E06446
:1016BC00230A4178C3F104020F24914034FA03F257
:1016CC00847802EA040343EA01020D4B12010CEB8D
:1016DC00030181F800230378012203F01F0059094C
:1016EC0012FA00F306E00278012302F01F00834097
:1016FC0051092031024840F8213010BD00ED00E0C6
:10170C0000E100E021F0604C2CF07F02024B42EA39
:10171C0000019960704700BF00ED00E073B5002335
:10172C00ADF80630A4E01A88564C02F00F02227075
:10173C00002A6FD1544C554E22683280358805F002
:10174C00300C534DA5F800C031884BF6BF7C01F42A
:10175C0040503080226802EA0C0181F4005080F085
:10176C00200242F4004C4CF0800121601888C30622
:10177C0008D4216848F60F7001EA0003236000F0DA
:10178C00AFFC1EE02368ADF80630BDF8062010054E
:10179C0008D5226840F68F7102EA0100206000F043
:1017AC0001FB0EE0BDF806300FFA83FCBCF1000F14
:1017BC005EDA226840F68F7102EA0100206000F0C8
:1017CC0087FA2368B6F800E04BF6BF7C0EF4805124
:1017DC0088B203EA0C0308B183F48053318801F416
:1017EC00005082B20AB183F40053298801F0100032
:1017FC0082B20AB183F01003298801F0200082B272
:10180C000AB183F02003234943EA01001E4B82B244
:10181C001A6035E0900000F1804303F5B843196875
:10182C00ADF80610BDF806C00FFA8CF000280ADAE5
:10183C00196840F68F7E01EA0E0017491860531E96
:10184C0051F823209047BDF80620110610D52178B9
:10185C0048F60F7C8A0002F1804E0EF5B8431868EA
:10186C00013900EA0C020D481A6050F821309847F3
:10187C000B48036899B20B4B0A0419803FF553AF20
:10188C007CBD00BF70200020005C00406020002068
:10189C00622000208080FFFF1C0000203800002008
:1018AC00445C00404612002010B5064C18B9236861
:1018BC0001221A8210BD044A11680868804720680A
:1018CC000A3010BD942000209020002010B5064C4A
:1018DC0018B9236801221A8210BD044A116888685D
:1018EC00804720680C3010BD9420002090200020F0
:1018FC0008B5274B18B91B6802221A8208BD254867
:10190C00002202801A680346117811F07F0116D16B
:10191C0092F809C090F800E01CF0200F14BF4EF0B4
:10192C00020E2EF0020E80F800E000781CF0400F42
:10193C0014BF40F0010020F0010018701FE00129D5
:10194C0024D0022921D1537903F00F0C4FEA8C02D9
:10195C0002F1804113F0800F01F5B8431B6803D0EE
:10196C0003F03001102903E003F44052B2F5805F1C
:10197C0005D190F800C04CF0010E80F800E006494B
:10198C000B6818698047034808BD002008BD00BFDC
:10199C00942000206420002090200020244A2DE96F
:1019AC00F84314689046238A267A224FABB9042E4A
:1019BC0013D12149087801280BD1204A1068204AFC
:1019CC001FFA80FC62445000302203603A800B7096
:1019DC0028E010233B80072624E0A58AA269AB42AD
:1019EC008CBF022604269D4228BF1D4628469047E0
:1019FC008146002000F0C6FC2A460146484600F00D
:101A0C00C1FB2946002000F0DDFC218AB4F812C08D
:101A1C000C484B1B302265444FF440513A802382D2
:101A2C0065820180D8F800000672BDE8F88300BF1B
:101A3C00942000206220002004120020505C004002
:101A4C00023000206020002010B50B4B0B481B68A7
:101A5C004178DA7891420AD3997841B99C8844B993
:101A6C009A72074B186842689047204610BD0220B6
:101A7C0010BD022010BD00BF94200020E00000200B
:101A8C009020002038B5104A104C106821688369EA
:101A9C004879C978984723689A7A8AB180B91979B4
:101AAC0071B99D7875B90A480168CA68904723686E
:101ABC00D87893F805C0187383F80BC0284638BD46
:101ACC00022038BD022038BD6C200020942000205C
:101ADC009020002010B5344B1B68187810F07F0054
:101AEC0004D1597A21F020025A7210BD022856D125
:101AFC005A88002A56D11979002953D15A7922F0E3
:101B0C0080004FEA800404F1804C284C0CF5B8415D
:101B1C000968247812F0800F14BF01F0300101F431
:101B2C004051A0423BD2002939D09B7A002B38D0AF
:101B3C0012F0800F4FEA800202F1804E0EF5B8448D
:101B4C0023680CD003F03001102922D1C4B22046F6
:101B5C0000F0DEFB2046302100F052FB19E003F4CC
:101B6C00405CBCF5805F14D128B9114B93F82C1054
:101B7C0000F038FC01E000F0B8FB23684BF68F7CDA
:101B8C0003EA0C0E8EF4405141F4004242F0800006
:101B9C00206008490A6850698047002010BD022067
:101BAC0010BD022010BD00BF94200020E0000020DA
:101BBC008C0000209020002010B5204B19684A7929
:101BCC0022F080034FEA830404F1804C1C4C0CF58A
:101BDC00B8400068247812F0800F14BF00F0300079
:101BEC0000F44050A34225D24C881CBB10B3897A18
:101BFC0011B34FEA830E12F0800F0EF1804202F502
:101C0C00B843196806D048F6BF7C01EA0C0080F096
:101C1C00100204E04BF68F72114081F48052094996
:101C2C0042F4004040F0800208681A6083699847CB
:101C3C00002010BD022010BD022010BD94200020F9
:101C4C00E00000209020002008B506490B680649EA
:101C5C00587A40F0200208685A72C36998470020ED
:101C6C0008BD00BF9420002090200020064B1A686D
:101C7C00538A28B9B1F804C0C3EB0C011182704728
:101C8C000868C018704700BF9420002008B50C49A4
:101C9C00002091F82C1000F0A5FB0A480368187A74
:101CAC00082806D1084A4FF48051084B11801022A5
:101CBC001A80A0F10900D0F1000C4CEB000008BD1B
:101CCC008C00002094200020602000206220002046
:101CDC00F8B52E4D2C68237A022B50D0042B4ED005
:101CEC00032B01D0052B44D1A369228AABB1A2B13D
:101CFC00A68A964228BF164630469847228A07463F
:101D0C00608A911B331821826382002000F04AFB09
:101D1C0032460146384600F04AFA238A5BB11C4A27
:101D2C0000204FF4405C0146A2F800C000F04AFBD2
:101D3C00184930200880238AA08A984202D82B6840
:101D4C00032202E01BB12B6805221A720EE02A68EE
:101D5C000621114811720168104A1FFA81FC0CEB24
:101D6C000200420013600B4B302119802B681B7A48
:101D7C0006E0072B03D10A4A1168C868804708237C
:101D8C0028680372BDE8F840FFF780BF942000205C
:101D9C006020002062200020505C004002300020B7
:101DAC006C20002073B58C4E8C4C3568AAB211197E
:101DBC008B4C480026680568337A092B16D01FFA1D
:101DCC0085FE0EF1005C0CF540535D002A783270F4
:101DDC0069787170A88800F037FB708028892668B4
:101DEC0000F032FBB0802368A889D88022680125D6
:101DFC00D08815725578002862D1117811F07F03C4
:101E0C002ED1092D02D1FFF71FFE3BE0052D0DD180
:101E1C0092F90330002B4FDB907800284CD191883D
:101E2C00002949D1927A002A35D045E0032D0CD1F6
:101E3C0092F803C0BCF1010F25D193881BBB507ADB
:101E4C00830620D5FFF700FF1CE0012D1BD1D178B4
:101E5C00012918D19388B3B9527A900613D50AE0A8
:101E6C00012B04D10B2D0ED1FFF70CFE0AE0022B37
:101E7C0009D1012D02D1FFF72DFE03E0032D02D174
:101E8C00FFF79AFE38B1574B1868416928468847C6
:101E9C0003280FD080B9504B534918681FFA80FCA7
:101EAC000CEB0102514953000020302218600A80CB
:101EBC00062302E0092300E0082322681372D3E012
:101ECC00062D13D1117849067BD19278454B012A06
:101EDC0002D11868C3696BE0022A02D11B681B6A25
:101EEC0066E0032A6DD11A68536A61E0002D40D177
:101EFC005188002965D1536823F47F40B0F5003F29
:101F0C005FD1107810F07F0304D19188002900F084
:101F1C00B08056E0012B0DD1324B18688369507993
:101F2C00984700284DD12E4801688A7A002A40F043
:101F3C00A08046E0022B44D153792D4903F00F0CBD
:101F4C004FEA8C0E0EF1804000F5B842126891F801
:101F5C0000E013F0800F14BF02F0300202F4405284
:101F6C00F4452ED213F0700F2BD1002A40F0818053
:101F7C0027E0082D03D113785A067CD021E00A2DD6
:101F8C001FD1107800F07F0101291AD1937AC3B1C7
:101F9C005188B1B9536823F47F40B0F5803F10D11C
:101FAC00104B1868836950799847002865D008E071
:101FBC003BB1226800215182936100209847002098
:101FCC0018E0084920680A68407813699847032884
:101FDC0010D1034B1B6813E0505C00400430002010
:101FEC00942000206C200020023000206220002071
:101FFC00E000002023684FF6FF7C1A8A624501D16D
:10200C00092203E0022800D012B908221A722BE030
:10201C0093F90000002820DAD988019101988242B6
:10202C00174802D9019A1A8210E08A420ED201682E
:10203C0091F82C108A4201D2002105E092FBF1F4B8
:10204C0001FB142212B901210E4A1170016891F89A
:10205C002C009882FFF7A2FC06E003221A720A4BAE
:10206C004FF4405EA3F800E002B0BDE87040FFF70B
:10207C000DBE064B9DE7064B9BE7064B99E700BF51
:10208C006C2000200412002060200020FD180008A5
:10209C00B5180008D918000870B50F4B1D7800232F
:1020AC0012E0D9B28A0002F1804606F5B8421668F1
:1020BC0041F4004440F60F7144F0800406EA010C30
:1020CC0044EA0C0111600133AB42EAD3034B40F0FC
:1020DC008000186070BD00BFE00000204C5C004028
:1020EC0010B5134C23681A7A022A01D0042A04D1A1
:1020FC00FFF754FC23681B7A13E0062A10D15A7898
:10210C00052A09D11878420606D1D878FFF7C4FF02
:10211C00084A1368196A8847074B1968886880470A
:10212C00082322681372BDE81040FFF7AFBD00BF53
:10213C0094200020902000206C200020704700008C
:10214C00044A002010600449044A4FF406430B80F3
:10215C0013607047445C004098200020405C0040B5
:10216C0070B500F07F0528460E4600F05BF904467A
:10217C00284600F017F922460146304600F017F8C1
:10218C00204670BD01F10053013203F5405110B5EA
:10219C004900520807E0447810F8023B013A43EA40
:1021AC00042C21F804CC0431002AF4D110BD01F127
:1021BC000053013203F540514900520804E051F834
:1021CC00043B013A20F8023C0230002AF7D1704758
:1021DC004FF6F871024A00EA01031360704700BF22
:1021EC00505C0040820002F1804000F5B84003686A
:1021FC0048F68F1C03EA0C0242EA010303607047A5
:10220C00830003F1804000F5B840026848F6BF73C4
:10221C0001F0100C13401FFA8CF20AB183F010037A
:10222C0001F0200291B209B183F0200343F4004184
:10223C0041F0800303607047830003F1804000F598
:10224C00B84002684BF68F7301F4805C13401FFAA0
:10225C008CF20AB183F4805301F4005291B209B1AB
:10226C0083F4005343F4004141F080030360704752
:10227C00830003F1804202F5B841086800F0300099
:10228C007047820002F1804000F5B840016848F6C2
:10229C00BF7301EA030C8CF0300242F4004141F0B0
:1022AC00800303607047820002F1804000F5B84063
:1022BC0001684BF68F7301EA030C8CF4405242F424
:1022CC00004141F0800303607047810001F18040C0
:1022DC0000F5B840036840F60F6C03EA0C0242F4B8
:1022EC00004141F0800303607047810001F18040A0
:1022FC0000F5B8400368590409D5026840F60F711F
:10230C0002EA010343F4404C4CF080020260704737
:10231C00810001F1804000F5B84003685B0609D5E7
:10232C00026840F60F7102EA010343F4004C4CF0D2
:10233C00C002026070470000074A13689AB202EBB1
:10234C00C00303F1005C0CF540524FF6FE705300D5
:10235C0001EA00021A607047505C0040074B1A6893
:10236C0093B203EBC00C06480CEB00024FF6FE7068
:10237C00520001EA00031360704700BF505C00403C
:10238C000430002006490B681FFA83FC0CEBC002DA
:10239C0002F1005101F5405043001888704700BF0E
:1023AC00505C004005490A6805491FFA82FC0CEB99
:1023BC00C003581842001088704700BF505C0040A2
:1023CC0004300020054B1A681FFA82FC044A0CEBFF
:1023DC00C003981842001160704700BF505C004069
:1023EC00023000200D4B1A681FFA82FC0CEBC00364
:1023FC000B481A1852003E2908D94B09C90601D1BD
:10240C00591E8BB2980240F4004304E04B08C807F5
:10241C0048BF01339B021360704700BF505C004003
:10242C0006300020064B1A6891B201EBC00C05482F
:10243C000CEB00035A0011688805800D704700BF33
:10244C00505C004006300020C3B2000A40EA032072
:10245C00704700000749084A022008B5116008724D
:10246C00064B07480749084A1860116003689847EB
:10247C0008BD00BF74200020942000206C20002098
:10248C008C000020BC00002090200020384B82B033
:10249C001A6842F0010018605968364A01EA0200D5
:1024AC0058601A6822F0847C2CF48031196018680A
:1024BC0020F480221A6059684FF41F0221F4FE00A8
:1024CC00002158609A6000910191186840F48032A4
:1024DC001A60274B186800F400310191009A501CC7
:1024EC000090019919B9009AB2F5A06FF1D1186852
:1024FC0010F4003118BF01210191019B012B34D143
:10250C001D4B1A6842F010001860196821F0030284
:10251C001A60186840F002011960154B5A685A602D
:10252C0058685860596841F480625A60586820F4C1
:10253C007C1159605A6842F4E8105860196841F0EF
:10254C0080721A600A4B19688A01FBD5586820F012
:10255C00030159605A6842F002005860044A5368FB
:10256C0003F00C0CBCF1080FF8D102B0704700BF9F
:10257C00001002400000FFF800200240F7B5244E86
:10258C000F4606EB8005D5F88810D5F89030044638
:10259C0041EA030040F001000121FEF7F9FE2CB9DD
:1025AC00D5F898000121FEF7F3FE08E00820012180
:1025BC00FFF738F8D5F898000121FEF7F5FE15481D
:1025CC0006EB4405B5F8A0C000EB840403211823E6
:1025DC008DF80610206B01A98DF80730ADF804C0FA
:1025EC00FEF7CCFF0422B5F8A4500DEB0201A06B52
:1025FC008DF80720ADF80450FEF7C0FF206C39466B
:10260C00FEF708FF206C0121FEF76AFFFEBD00BF3C
:10261C00F82600087C0100203203530054004D00C2
:10262C0033003200200056006900720074007500FF
:10263C0061006C00200043004F004D002000500052
:10264C006F00720074002000200026035300540019
:10265C004D006900630072006F0065006C0065003E
:10266C006300740072006F006E00690063007300F9
:10267C000403090409024300020100C032090400EA
:10268C0000010202010005240010010524010001D3
:10269C00042402020524060001070582030800FF3A
:1026AC0009040100020A00000007050302400000B3
:1026BC00070581024000001201000202000040FFE9
:1026CC00261249000201020301000000000801402B
:1026DC00000C0140001001400014014000180140A2
:1026EC00001C0140002001400020014010000000AF
:1026FC0010000000100000001000000040008000DE
:10270C00000100020400000010000000080000009E
:10271C0040000000400000002000000020000000ED
:10272C002000000001000020000201000200000156
:10273C00004000100000020001000400040003002F
:10274C000300030000000D00090000000100080058
:10275C000E000C000100002000020100020000012C
:10276C0000400010060028001700060007001700A4
:10277C0028002800040000002000000004000000D5
:10278C0020000000004000000000020000022000B9
:04279C0000044000F5
:1027A0001A03530054004D00330032003100300052
:1027B00000000000000000000000000049210008A7
:1027C0004921000859020008492100084921000850
:1027D0004921000849210008E901000849210008B1
:1027E0004921000849210008492100084921000821
:1027F0004921000800C20100000008007C260008F2
:1028000004000000562600082600000024260008C8
:1028100032000000000000201A000000802600089E
:1028200043000000C3260008120000005D050008F8
:1028300079040008550400084D03000851030008FE
:10284000B5030008DD030008490400083D04000842
:102850001D0400080000000040000000492100089D
:1028600029030008492100084921000849210008DE
:1028700049210008492100084921000841030008B6
:102880000401000000000000010000000000000042
:102890000100000002000000000801400014014097
:1028A000001001400008014000010000100000007D
:1028B000400000000020000000080140001401401A
:1028C000001001400008014000010000100000005D
:1028D00040000000008000000000000000140140E3
:1028E0000000000000080140000000000800000097
:1028F00000000000004000000C0100000000000883
:102900000020000805000000000000000102030490
:10291000010203040607080902040608001001402A
:10292000001001400010014000100140000801406B
:1029300000100140000C0140001801400018014047
:10294000001401400014014000140140000801403F
:10295000001401400008014000140140003801400B
:0429600000440040EF
:040000050800010CE2
:00000001FF
