:020000040800F2
:10300000005000200D310008A5310008A73100084C
:10301000A9310008AB310008AD3100080000000004
:10302000000000000000000000000000AF310008B8
:10303000B131000800000000B3310008B5310008CC
:103040005931000859310008593100085931000838
:103050005931000859310008593100085931000828
:103060005931000859310008593100085931000818
:103070005931000859310008593100085931000808
:1030800059310008593100085931000859310008F8
:10309000B73100085931000859310008593100088A
:1030A00059310008593100085931000859310008D8
:1030B00059310008593100085931000859310008C8
:1030C00059310008593100085931000859310008B8
:1030D00059310008BD310008593100085931000844
:1030E000593100085931000859310008000000002A
:1030F00000000000000000000000000000000000D0
:0C31000000000000000000005FF808F173
:10310C00002100F004B80C4B5B58435004310B48C1
:10311C000B4B42189A42FFF4F6AF0A4A00F003B880
:10312C00002342F8043B084B9A42FFF4F9AF03F03A
:10313C001BF900F02CF87047C8660008000000204E
:10314C00C8010020C8010020A8200020FFF7FEBF06
:10315C0008B500F04FFA01F01BF900F09DFA00F0F1
:10316C008FFABDE8084003F0E3B808B501F074F934
:10317C00AA28FBD101F070F9552802D101F090F882
:10318C00F4E7A528F2D1552001F04FF9EEE708B588
:10319C00FFF7DEFFFFF7E9FF7047FEE7FEE7FEE70C
:1031AC00FEE7704770477047704700F07FB800002B
:1031BC0008B5094840F2255102F02FF908B100F08A
:1031CC00F5FA0548082102F022F920B10248BDE8C1
:1031DC00084002F018B908BD00380140014B00222C
:1031EC001A607047D4010020F8B507460E4611B995
:1031FC008C2000F0A2FC144D2C680CBB012002F0BA
:10320C00A5FF30281DD0402EB4BF34464024A6B2B2
:10321C003846C021324602F023FF0120314603F02C
:10322C003FF8286803192B6014B92A68511C2960CF
:10323C00012002F094FF24B98C2000F07EFC00E009
:10324C0000242046F8BD00BFD401002010B5032097
:10325C00094902F0F3FE81B2074801F0A3F801F02E
:10326C00AFF83F28054C04DD032002F08AFF002351
:10327C0000E00123237010BD11120020C8010020B2
:10328C00084810B50368052B0BD1074C217841B1C8
:10329C0001F096F83F2804DD032002F072FF0022B3
:1032AC00227010BDCC010020C8010020164A38B590
:1032BC001468164B1C80164C1D88208800EA0501EA
:1032CC0011F4007F1D4608D0124B4FF6FF501060D2
:1032DC0019784A1C1A70FFF7D3FFB5F800C0238881
:1032EC0003EA0C02120401D502F086F92888228820
:1032FC0002EA00014B0506D5034A07494FF6FF3099
:10330C0010604B68984738BD445C00405212002056
:10331C00A4200020C90100208C0000200348837ADF
:10332C0013B1034905220A60704700BF80200020BA
:10333C00CC010020014B04221A607047CC01002004
:10334C0070470000212808B507D1134A1168087886
:10335C0000F07F03212B1AD10FE0202817D10E4B40
:10336C0019680E4B0A780E4902F07F0CBCF1210F44
:10337C0018BF002308700BB90BE00A4B064900205C
:10338C000A685082936100209847002008BD0220F3
:10339C0008BD022008BD00BFA02000200534000895
:1033AC00CA010020ED330008084B1A68117801F0AF
:1033BC007F03212B06D1022806D0222814BF02201D
:1033CC00002070470220704700207047A02000208A
:1033DC0021B901288CBF02200020704702207047C1
:1033EC0020B9034908220B681A82704701487047BC
:1033FC00A02000205400002020B9034908220B68AB
:10340C001A82704701487047A02000205400002009
:10341C0005490B68DB78042B04D8044A02EBC30182
:10342C0002F092BB00207047A02000205C0000201E
:10343C00014902F089BB00BF7C000020014902F069
:10344C0083BB00BF8400002010B5064C2378202BD2
:10345C0007D100F061F90449086800F009FF002069
:10346C00207010BDCA0100205400002010B5344A51
:10347C00344C92F807C02068002480F809C084728C
:10348C00C472204602F012FE20464FF4007102F086
:10349C0017FE1021204602F021FE4021204602F0AA
:1034AC00CBFE8021204602F0B5FE204602F07BFECA
:1034BC002549204691F8641002F002FF204602F0E4
:1034CC0060FE0120214602F0FBFD0120C02102F02C
:1034DC00A1FE0120202102F001FE0120214602F074
:1034EC0019FE02204FF4C06102F0EAFD02204FF4F5
:1034FC00807102F08FFE0220214602F00BFE0220AA
:10350C00202102F0EBFD0320214602F0D9FD03201F
:10351C004FF4887102F090FE0320402102F0D0FE9F
:10352C0003204FF4405102F0F5FD0320214602F038
:10353C00D5FD204602F01EFD044B01221A6010BD81
:10354C005C650008A020002054000020CC01002065
:10355C0010B500F053F9064900240868847200F095
:10356C000BF802F05BFD00F0BDF8024B1C6010BDC7
:10357C00A0200020CC01002008B5012000F09AFA10
:10358C00064B0120064A186006490020186010609E
:10359C004FF4E0520A801A6008BD00BF405C004046
:1035AC00445C0040A420002038B50648064D002499
:1035BC00012129600460204600F07CFA03232B6073
:1035CC00204638BD445C0040405C004010B50023F0
:1035DC000CE0040F092C01D8303400E037340C70A7
:1035EC00013300244C700001DBB202319342F0D164
:1035FC0010BD000010B500F01DF91F4C206001F04B
:10360C0069FD4FF4803001F085FD01F05BFE1B4B32
:10361C00012818702AD1102001F0C6FC022001F0FC
:10362C00B9FC002001F0B6FD002001F0C7FD4FF4FD
:10363C00806001F0B9FD21684FF4803011B14FF476
:10364C00801101E04FF4E01101F080FD012001F048
:10365C0089FD392001F022FE0028FAD0022001F069
:10366C0087FD01F08FFD0828FBD100E0FEE7BDE8E7
:10367C00104000F00DBA00BFD00100205412002001
:10368C00002008B501F0A4FD4FF400000121BDE8B5
:10369C00084001F0F7BD000013B54FF440514FF056
:1036AC00006001F09DFF4FF4C06001F05BFF00244F
:1036BC000121142201A88DF804208DF805108DF835
:1036CC0007108DF8064001F057FF25208DF80400F7
:1036DC0001A88DF8054001F04FFF014B5C601CBD4B
:1036EC00D00100200A494FF4165008B508600C238D
:1036FC0000208880C880088188814B8102F0ACFE54
:10370C00044840F225510122BDE8084001F062BE98
:10371C00581A00200038014008B5224B1A79012AAA
:10372C0006D002D3022A38D106E01F4A002106E057
:10373C001D4A4FF4405102E01B4A4FF40051D18016
:10374C005A79012A06D002D3022A26D106E0164A5B
:10375C00002106E0144A4FF4806102E0124A4FF453
:10376C00C06111819A79072A02D0082A15D102E08A
:10377C000D4A002104E00C4A118909B14FF4805123
:10378C00918009491A6800200C2388810A60002066
:10379C004B8102F061FE012008BDFFF7A3FF002062
:1037AC0008BD00BF54000020581A002038B50F4B3C
:1037BC000F4C9B79072B06D10E48A56801F023FE10
:1037CC0000F07F0005E0082B05D10A48A56801F040
:1037DC001AFE09494855A268501CB0F5006FA0604C
:1037EC0002D1034B0021996038BD00BF540000206A
:1037FC00D00100200038014055120020094A0A4926
:10380C0010B50B6814685068C0180AD00822074914
:10381C00FFF7DCFE064920460422BDE81040FFF706
:10382C00D5BE10BDECF7FF1FE8F7FF1F020000200C
:10383C0012000020024B1A6953F82200704700BF97
:10384C00E40000200348026900EB82035869998C5C
:10385C0001F051BEE40000200348026900EB820332
:10386C005869998C01F049BEE4000020064A0121F8
:10387C0013680133136011FA00F21A4201D0FFF7FA
:10388C00E1BFFFF7E9BF00BFE80100207FB53D2095
:10389C00012101F0EBFC17494FF0806200204A60D7
:1038AC0003251024ADF8080002A913488DF80A501E
:1038BC008DF80B4001F0D0FD4FF4007303A90F48B5
:1038CC00ADF80C304FF480768DF80E508DF80F401B
:1038DC0001F0C2FD01A90A48ADF804608DF806504C
:1038EC008DF8074001F0B8FD0548314601F003FEA4
:1038FC007FBD00BF00000140000C014000140140DE
:10390C0000080140F0B5012087B0014601F0AEFC83
:10391C00224B4FF080625A607C20012101F0A6FC02
:10392C0010240325002601A91D48ADF804608DF86C
:10393C0006508DF8074001F08FFD02A91948402769
:10394C00ADF808608DF80A508DF80B4001F084FD3D
:10395C0003A91548ADF80C708DF80E508DF80F407A
:10396C0001F07AFD3946104801F0C5FD0DEB04015C
:10397C000E48ADF810608DF812508DF8134001F020
:10398C006BFD0B4805A9ADF814608DF816508DF839
:10399C00174001F061FD07B0F0BD00BF0000014011
:1039AC0000080140000C01400010014000140140CF
:1039BC000018014030B53C2085B0012101F056FCC7
:1039CC0003240022102501A91048ADF804208DF81D
:1039DC0006408DF8075001F03FFD18211420ADF87A
:1039EC000C108DF80F0003A909488DF80E4001F05A
:1039FC0033FD4023074802A9ADF808308DF80A4082
:103A0C008DF80B5001F028FD05B030BD000C0140C5
:103A1C00001401400010014030B5012085B0014672
:103A2C00174C01F023FC4FF0806262603C200121B6
:103A3C0001F01CFC4EF2002103251024ADF80410FB
:103A4C00104801A98DF806508DF8074001F004FDCF
:103A5C000020ADF8080002A90B488DF80A508DF82B
:103A6C000B4001F0F9FC4023084803A9ADF80C30D9
:103A7C008DF80E508DF80F4001F0EEFC05B030BD06
:103A8C000000014000080140000C01400010014002
:103A9C00074B1B69022B07D0032B07D0012B01D03E
:103AAC00FFF7F4BEFFF786BFFFF72CBFFFF7B4BFDD
:103ABC00E400002003460948026900EB8201486DCE
:103ACC00496E48B1032A89B201D11BB900E00BB190
:103ADC0001F013BD01F00FBD704700BFE4000020E2
:103AEC0007B5FFF761FD032110204FF4C8528DF884
:103AFC0006108DF8070001A90448ADF8042001F068
:103B0C00ABFC024B0022DA600EBD00BF0008014086
:103B1C0010B5002302E0CC5CC45401339342FAD1BB
:103B2C0010BD7047002305E000BF00BF00BF00BF01
:103B3C0000BF01338342F7DB7047C000FFF7F2BFD1
:103B4C0038B50546002404E04FF4FA50FFF7EAFFBD
:103B5C000134AC42F8DB38BD034680E80600002097
:103B6C009860D860704770B50346846800200BE0FD
:103B7C001D680E5C2E555D680134AC42A8BF002454
:103B8C00DD68AC4204D001309042F1DB9C6070BD2A
:103B9C00002070BD0346DA688068801A44BF5B68F9
:103BAC00C018704710B50446FFF7F4FF6368181A85
:103BBC0010BD30B50346C46800200BE09D68AC42D4
:103BCC000AD01D682D5D01340D545D680130AC4286
:103BDC00A8BF00249042F1DBDC6030BD4218501EBF
:103BEC0049420840704710B50C4600F007FC2046CF
:103BFC0010BD0000084A094B10B50948094C0A4988
:103C0C0020609818401A4FF48061FFF7E7FF074BCC
:103C1C00002260601A6010BDC8010020C866000850
:103C2C00003000085C01002000000020F0010020A2
:103C3C00054B1A68904205DB5B689842B4BF0020C4
:103C4C0001207047012070475C010020C000FFF785
:103C5C0069BF0000F8B5002106464B2000F079FB47
:103C6C0008250024114F472006F0800100F071FB5D
:103C7C00387A6400FFF7EAFF4F20E4B200F078FBDB
:103C8C0008B144F0010401214B2000F062FB013D1E
:103C9C00387AFFF7DBFF76004B200021EDB2F6B24D
:103CAC0000F057FB002DDDD12046F8BD5C01002053
:103CBC0038B505460024285DFFF7CCFF024B18559C
:103CCC000134042CF7D138BD6C1A002008B54920FA
:103CDC00002100F03EFB4B20002100F03AFB492074
:103CEC00012100F013FB4B20012100F00FFB4720BA
:103CFC00012100F00BFB00214F2000F007FB64209A
:103D0C00FFF7A4FF0121492000F023FB6420FFF7FB
:103D1C009DFF49200021BDE8084000F01ABB0000BF
:103D2C00014B1872704700BF5C01002050F8043D35
:103D3C000133FBD07047000070B50B4B0B4C59781E
:103D4C00A3250B48657000260125A570E57026712A
:103D5C006171A060FFF7EAFFE0600648064B42681D
:103D6C001D702261466070BDB01A00206C1A0020D4
:103D7C0000000208F0010020261F0020FFF733BFCF
:103D8C0010B5174B598858683C295B7803DDBDE8A2
:103D9C001040FFF7F3BF012B10D0022B05D116E01A
:103DAC001C5C104A9C54013300E000238B42F7DB6F
:103DBC0010E01C5A0B4AD452023300E000238B4211
:103DCC00F7DB07E01C58074A9C50043300E0002343
:103DDC008B42F7DB03483C21BDE81040FFF703BFE3
:103DEC00B01A00206C1A002010B5114B5A78598863
:103DFC0058680833012A0BD0022A4FF0000204D174
:103E0C0013E013F8014B145401328A42F9DB10BD54
:103E1C00002203E033F8024B145202328A42F9DBDF
:103E2C0010BD53F8044B145004328A42F9DB10BD18
:103E3C00B01A002010B5064B5C682046FFF7F8FE60
:103E4C0020B12046BDE8104001F022B910BD00BFE2
:103E5C00B01A0020034843880BB101F0BDB801F043
:103E6C00AFB800BFB01A0020F8B50D4E708874685A
:103E7C00C71CBF1004D12046BDE8F840FFF751BE67
:103E8C0000252046FFF7D4FE18B12046B16801F09A
:103E9C00D3F8013504340436BD42F2DBF8BD00BF63
:103EAC00B01A002008B5804708BD38B50D46044649
:103EBC00FFF7D2FC2DB1FFF713FE4FF49660FFF71E
:103ECC003FFE2046BDE83840FFF7ECBF10B50A4A6C
:103EDC000A491478881C0C70094C94F800C081F8BD
:103EEC0001C00CF03F020749FFF712FE064B002001
:103EFC00012220701A7010BD681A00206C1A002064
:103F0C002A1F00202B1F0020261F002008B5044B61
:103F1C00586800F0FDFF0020BDE8084000F085BAAD
:103F2C00B01A0020024B587808B1FFF709BE704751
:103F3C00B01A002009480A4B0278AA21A02A19704D
:103F4C0002D102225A7005E0064A0120116858700D
:103F5C0008789870044B012119707047281F0020B5
:103F6C006C1A0020A81A0020261F00200448054ABD
:103F7C004188054B117042681A60FFF7DBBF00BF28
:103F8C00B01A0020281F0020A81A002010B5054CDC
:103F9C000022A36802E08352203302328A42FADB09
:103FAC00A36010BDF001002010B5064B06485C88DC
:103FBC002146FFF7EBFF04482146BDE8104000F016
:103FCC001DBA00BFB01A0020EC1A002010B51C4B13
:103FDC009B7813F0100418D04920002100F096F9BA
:103FEC004B20002100F092F94720002100F08EF9BF
:103FFC004920002100F0ADF94B20002100F0A9F977
:10400C004720002100F0A5F912E01B060ED5012176
:10401C004B2000F09EF96420FFF718FE4B20214640
:10402C0000F097F96420FFF711FE01E0FFF74EFE58
:10403C00044B0548AA2101221970027010BD00BF63
:10404C00B01A00206C1A0020261F002008B5054865
:10405C00FFF72EFE0449054B087800F001021A7098
:10406C0008BD00BFB11A0020B01A0020261F002086
:10407C00054806494378064A0B708178054B117048
:10408C00C2781A70704700BFB01A0020AC1A00201A
:10409C00251F0020291F0020014B5878FFF740BE38
:1040AC00B01A00202DE9F047274B1A7893F80190AD
:1040BC0012F0020F984607D0244B254C25480021BE
:1040CC0040221A7021700170DFF894A0002424E0C3
:1040DC001E4D204E28781E4FFFF7BCFD3078FFF7A1
:1040EC00B9FD3878FFF7B6FD1AF8010FFFF7B2FDEE
:1040FC002B78194913F0880F08550AD039784A1CC7
:10410C00D0B2387010B93278501C307023F00803DC
:10411C0001E043F008032B7001345FFA84FCCC45BA
:10412C00D6D398F800305A0706D5074909F1020989
:10413C0001EB0900FFF7BCFD98F80030074A03F0CB
:10414C0001001070BDE8F087B01A0020AC1A0020F6
:10415C00251F0020291F00206C1A0020261F00207C
:10416C00B11A00200E4B1B78272B01D8FFF79ABFF2
:10417C002B2B01D1FFF72ABF2A2B01D1FFF778BFD8
:10418C00282B01D0292B01D1FFF760BF2C2B01D19B
:10419C00FFF782BF2E2B01D1FFF7C4BE704700BFC3
:1041AC00B01A002010B5264B26491A781F2A0A701F
:1041BC0002D9FFF7D7FF32E00F2A02D900F020FE18
:1041CC002DE0013A0D2A2AD8DFE802F021291E0A37
:1041DC00070D1B12291529272418FFF7D1FD1EE006
:1041EC00FFF702FE1BE058685988FFF75EFE16E0E9
:1041FC00FFF720FE13E0FFF737FE10E0FFF72AFE73
:10420C000DE0FFF7B3FE0AE0FFF7CEFE07E0FFF785
:10421C0093FD04E0FFF75AFE01E0FFF777FE0A4C2E
:10422C00237863B13C210748FFF7DDFC07490022E6
:10423C000878227018B1BDE81040FFF77BBE10BDA6
:10424C00B01A00206C1A0020261F0020281F002006
:10425C0038B505460C4600F0ADF8002804DD2846BC
:10426C00214600F0B3F800E00024204638BD0000E1
:10427C00014B01221A737047F001002038B5054636
:10428C000C4628462146FFF7E3FF28B90348037B79
:10429C00002BF6D04FF0FF3038BD00BFF0010020EE
:1042AC0030B5134B002291B01A73FFF7A3FC3C21DD
:1042BC0001A8FFF7E3FF002817DB9DF80400012895
:1042CC0013D10C4A0DF105030DF13D051868596821
:1042DC00144603C40833AB422246F7D119889A78A6
:1042EC002180A270FFF75EFFE1E711B030BD00BF87
:1042FC00F0010020B01A00200111034B01F007005F
:10430C0053F82000704700BFB465000838B5044668
:10431C000D46FFF7F1FF04F007039A000F2111FA85
:10432C0002F3002D14BF0325042504F00F0495405F
:10433C00072C6FEA030305DD416803EA010215430C
:10434C00456038BD026803EA020C45EA0C050560BD
:10435C0038BD38B504460D4604F00F04FFF7CCFF0A
:10436C00012313FA04F40DB1046138BD446138BD66
:10437C0010B50446FFF7C0FF04F00F04012212FA37
:10438C0004F483681C420CBF0020012010BD000007
:10439C0003484FF4805200F11001FFF7DDBB00BF62
:1043AC0000020020034602480A461946FFF7DBBB11
:1043BC00000200200148FFF7EDBB00BF0002002007
:1043CC000148FFF7EFBB00BF0002002070B50E469E
:1043DC00054670B1002409E0FFF7ECFF0028FBD084
:1043EC002919321B0448FFF7E4FB2418B442F3DB11
:1043FC0000E00446204670BD0002002070B5064661
:10440C000D4681B10020044604E03019291BFEF74B
:10441C00EBFE2418AC42F8DB402803D13019002104
:10442C00FEF7E2FE2546284670BD07B502AB03F841
:10443C00040D18460121FFF7E1FF0EBD07B5FFF78C
:10444C00B9FF30B101A80121FFF7C0FF9DF80400AE
:10445C0001E04FF0FF300EBD08B5FFF7EFFF00286D
:10446C00FBDB08BD0111034B01F0070053F82000E2
:10447C00704700BFD46500084278037843EA0220F5
:10448C007047017009124170704738B54B200021FC
:10449C00FFF75FFF082500244B200121FFF759FF90
:1044AC000120FFF74AFB4F206408FFF761FF10B1B2
:1044BC0064F07F04E4B24B200021013DFFF749FF7B
:1044CC00EDB20120FFF739FB002DE5D1204638BDB8
:1044DC0009B1002100E00121FFF718BF003118BF1E
:1044EC000121FFF713BF70B504460E46002514E0FA
:1044FC004F2014F0010118BF0121FFF72AFF012101
:10450C004B20FFF726FF0120FFF717FB4B20002164
:10451C00FFF71FFF01356408EDB2B542E8D170BD5D
:10452C00F8B504460D461746002611E001B10121ED
:10453C00FFF70FFF01214B20FFF70BFF0120FFF7C7
:10454C00FCFA4B200021FFF704FF01366408F6B299
:10455C006B1E4F209E4204F00101E7DB01B10121EB
:10456C00FFF7F7FE4B200121FFF7F3FE17B138469A
:10457C00FFF7E6FA0120FFF7E0FA4B200021BDE837
:10458C00F840FFF7E6BE01464F2001B10121FFF7CD
:10459C00BDBE10B50C460421FFF7C2FF204610210A
:1045AC00BDE81040FFF79FBF10B50C4640F46061AA
:1045BC0000200246FFF7EDFF002044F4DC410246E8
:1045CC00BDE81040FFF7E5BF10B5074CF821207986
:1045DC00FFF7EAFFE078F721FFF7E6FFA078F62176
:1045EC00BDE81040FFF7E0BFB01A00202DE9F843FA
:1045FC000E4D002495F801806F79AE79073510E0E7
:10460C002846FFF739FF0421814632463846FFF72A
:10461C0087FF1FFA89F01021FFF765FF013402357F
:10462C00E4B24445ECD1BDE8F88300BFB01A0020D9
:10463C00F8B5FFF7C9FF1A4B00255F782CE009206D
:10464C000421FFF750FF00200821FFF74CFF00204A
:10465C00FFF799FF082600244B200121FFF779FE74
:10466C000120FFF76AFA4F206408FFF781FE10B1B2
:10467C0064F07F04E4B24B200021013EFFF769FE99
:10468C00F6B20120FFF759FA002EE5D10120FFF711
:10469C007AFF04482C540135E9B2B942CFD3F8BDA6
:1046AC00B01A00206C1A00202DE9F843354BDFF8C6
:1046BC00D8805E789D78DF1C99465FE017F8014B37
:1046CC00492004F00801FFF744FE472004F00401E0
:1046DC00FFF73FFE4F2004F00201FFF73AFE4B209C
:1046EC0004F00101FFF735FE492004F08001FFF7CB
:1046FC00EFFE472004F04001FFF7EAFE4F2004F0E4
:10470C002001FFF7E5FE4B2004F01001FFF7E0FE5F
:10471C0099F8000015281DD14920FFF729FE002823
:10472C0014BF082400244720FFF722FE10B144F0E8
:10473C000404E4B24F20FFF71BFE10B144F0020159
:10474C00CCB24B20FFF714FE10B144F00102D4B2EE
:10475C0008F8014B55B1C82D04D9A5F1C800FFF7D5
:10476C00EFF906E02846FFF7E8F902E00120FFF731
:10477C00D9F90120FFF7E1F9013EF6B2002E9DD1E7
:10478C00BDE8F883B01A00206C1A00202DE9F04F18
:10479C00554B87B005904720B3F800A0FFF762FE99
:1047AC0004464F20FFF75EFE504A04900192504F92
:1047BC0001E0B044474697F800B0BBF1000F00F0A1
:1047CC0090800BF03F001BF0800F07F10108029066
:1047DC0039D0002633E017F8015F4FF4007215F062
:1047EC00800F14BF226162614FF0800115F0400F01
:1047FC0014BF216161614FF4006015F0200F14BFEC
:10480C00206160615046FFF78DF915F0080F4FF4E9
:10481C00007314BF236163614FF0800215F0040F25
:10482C0014BF226162614FF4006115F0020F14BFD6
:10483C00216161615046FFF775F90136F6B2029BB2
:10484C009E42C8D1B5E74FF40075656100254FF065
:10485C0001092F4603952E463BE02EB918F8017B33
:10486C004FF00109039737460298431E9D4205D12C
:10487C001BF0400F1CBF4FF40073236103984FF0E3
:10488C00800319EA000F4FF4006214BF23616361C7
:10489C0050466261FFF746F9059931B1049A916867
:1048AC000B0444BF49EA0707FFB20136F6B24FF4D6
:1048BC0000604FEA4903082E20615FFA83F904D1A6
:1048CC000199002601F8017B01915046FFF72AF966
:1048DC000135029A5FFA85FC9445BED3019B1F708B
:1048EC0068E707B0BDE8F08F680100206C1A002063
:1048FC00B11A00202DE9F74F01904720FFF7B2FDC8
:10490C00864D0446B5F80090854E864F04E00BF1B9
:10491C00FF30C7B2013757443B78002B00F0FB80C7
:10492C001A0607F1010A03F03F0834D5B8F1000F5D
:10493C0008D17A78B978794B42EA01290337A3F880
:10494C000090E9E74FF0000B17F8015F102005F01D
:10495C002001FFF7C3FD1B2005F01001FFF7BEFD82
:10496C00492005F00801FFF7B9FD472005F00401C7
:10497C00FFF7B4FD4B2005F00201FFF7AFFD4F2010
:10498C0005F00101FFF7AAFD0BF101005FFA80FBB6
:10499C00C345D9D1BBE713F0400302D1BB461F4638
:1049AC00B6E0002545E017F801CF4FF400701CF07D
:1049BC00080F14BF206160614FF080021CF0040FDF
:1049CC0014BF226162614FF400611CF0020F14BF2E
:1049DC00216161614F200CF00101FFF7BAFC019BD2
:1049EC0013B34920FFF7C4FC002814BF4FF0080B89
:1049FC004FF0000B4720FFF7BBFC18B14BF0040342
:104A0C005FFA83FB4B20FFF7B3FC18B14BF00201AC
:104A1C005FFA81FB4F20FFF7ABFC18B14BF00102A2
:104A2C005FFA82FB06F801BB4846FFF77BF80135BD
:104A3C00EDB24545B7D10AEB05076DE71BF8015FF1
:104A4C00102005F02001FFF784FC1B2005F010015D
:104A5C00FFF77FFC15F0080F4FF4007214BF2261B2
:104A6C0062614FF0800115F0040F14BF2161616188
:104A7C004FF4006315F0020F14BF2361636105F05E
:104A8C0001014F20FFF765FC019800283BD0252041
:104A9C00FFF76EFC002814BF802500252420FFF7AB
:104AAC0067FC18B145F0400E5FFA8EF51020FFF749
:104ABC005FFC18B145F0200C5FFA8CF51B20FFF75A
:104ACC0057FC10B145F01005EDB24920FFF750FC32
:104ADC0010B145F00800C5B24720FFF749FC10B1F2
:104AEC0045F00403DDB24B20FFF742FC10B145F05A
:104AFC000201CDB24F20FFF73BFC10B145F0010293
:104B0C00D5B206F8015B4846FFF70CF80137FFB247
:104B1C00474593D1FFE6BDE8FE8F00BF680100203A
:104B2C006C1A0020B11A002070B505460E46002400
:104B3C0015E04B200021FFF70CFC05F001014F2084
:104B4C00FFF707FC0120FEF7F8FF4B200121FFF7D0
:104B5C0000FC0120FEF7F1FF01346D08E4B2B44211
:104B6C00E7D170BD0421FFF7DFBF0821FFF7DCBFE1
:104B7C0010B504460020FFF7F5FFE0B2FFF7F5FF94
:104B8C00C4F30720FFF7F1FFC4F30740FFF7EDFF75
:104B9C004B200021BDE81040FFF7DBBB0020FFF7E6
:104BAC00E7BF08B5FFF7FAFFBDE80840FFF7F6BF0F
:104BBC0008B50348FFF7DCFFBDE80840FFF7EEBF80
:104BCC000002040070B5114D00242A79064662F3E8
:104BDC0007046FF30F246FF317446FF31F64210165
:104BEC0041F40010FFF7C4FF0948FFF7C1FFA87894
:104BFC00EB7860F3070463F30F2446EA041444F4DF
:104C0C000010BDE87040FFF7B3BF00BFB01A002022
:104C1C009001880010B50120FFF7A4FF0020FFF7DA
:104C2C00A4FF4B200021FFF794FB01214F20FFF73D
:104C3C004FFC0120FEF781FFFFF727FC002460F3F7
:104C4C000704FFF722FC002160F30F244F20FFF72D
:104C5C003FFCA4B20120FEF770FFFFF79FFF204638
:104C6C0010BD0000F8B5344B5E799F7866B9FFF73C
:104C7C0095FFFFF79DFF3148FFF77AFF3048FFF7AC
:104C8C0077FF0720FFF79EFF2E4C002535E02E48BE
:104C9C00FFF76EFF2046FFF7EFFB000140F400101A
:104CAC00FFF766FFA01CFFF7E7FB030143F40012BC
:104CBC0042F00100FFF75CFF201DFFF7DDFB010157
:104CCC0041F4001040F00200FFF752FF1F48FFF7BD
:104CDC004FFFFFF766FF1E48FFF74AFFFFF761FF24
:104CEC001C48FFF745FFFFF75CFF1B48FFF740FF31
:104CFC00FFF757FF01350634EDB2BD42C7D3022E84
:104D0C0018D1FFF74EFF1548FFF732FFFFF749FFA9
:104D1C00FFF74EFF1248FFF72BFF1248FFF728FF53
:104D2C00FFF73CFFFFF776FF0104F1D4BDE8F84034
:104D3C00FFF73EBFF8BD00BFB01A00201A002400D8
:104D4C000A3B8800B71A00200003EB00B60BBB002F
:104D5C00B6DBBB00B6EBBB00B61BBB0061E7A80023
:104D6C00003B8000203C880070B51E4B1E4C9E788A
:104D7C00FFF714FFFFF71CFF0620FFF723FF1B486C
:104D8C00FFF7F6FE0025FFF709FF28E01848FFF7AC
:104D9C00EFFEFFF706FFFFF73DFF01462046FFF74A
:104DAC0070FB1448FFF7E4FEFFF7FBFE1248FFF719
:104DBC00DFFEFFF7F6FEFFF72DFF0146A01CFFF705
:104DCC0060FB0E48FFF7D4FEFFF7EBFEFFF722FF68
:104DDC000146201DFFF755FB01350634EDB2B542F7
:104DEC00D4D370BDB01A00206C1A00204778200074
:104DFC00960BBA00B6DBBA00D6D3BA00B60BBA0023
:104E0C0010B51F4C0820FEF731FD2378122B02D170
:104E1C00FFF7ECFB2DE0102B02D1FFF7D5FB28E0C0
:104E2C00112B02D1FFF704FC23E0142B01D0152B1E
:104E3C0002D1FFF739FC1CE0162B02D1FFF712FF51
:104E4C0017E0172B02D1FFF78FFF12E0182B01D1BF
:104E5C00002002E0192B03D10120FFF797FC08E09A
:104E6C001A2B01D1002002E01B2B02D10120FFF7ED
:104E7C0041FD2078034B00F001021A7010BD00BFF9
:104E8C00B01A0020261F002008B5FFF7CEFA00202C
:104E9C0008BD10B5044601E0FFF7F6FF14F8010B4E
:104EAC000028F9D110BD00F00F000928C8BF273029
:104EBC003030FFF7E9BF10B504460011FFF7F3FFE0
:104ECC002046BDE81040FFF7EEBF10B504460012B7
:104EDC00FFF7F1FF2046BDE81040FFF7ECBF10B51F
:104EEC0004460014FFF7F1FF2046BDE81040FFF721
:104EFC00ECBF000010B50C46FFF7CBFF2046FFF7C8
:104F0C00EEFF0248BDE81040FFF7C3BFAD660008D6
:104F1C0038B51548FFF7BDFF10251448FFF7B9FF4A
:104F2C00202420460134E4B2FFF7AEFF522CF8D116
:104F3C00013D0F48ADB2FFF7ACFF002DEDD10D498F
:104F4C000D4A0E4B8A18D11A0D48FFF7D3FF0D49A5
:104F5C000D480968FFF7CEFF0C4B0D481968BDE8EA
:104F6C003840FFF7C7BF00BFA2660008AF66000855
:104F7C00AD660008C8660008C801002000000020CB
:104F8C00B76600085C010020C066000860010020C4
:104F9C00BB660008034B1A6802F0380140EA0102B4
:104FAC001A60704700200240044B196821F010026F
:104FBC001A60196840EA01021A607047002002402A
:104FCC00024B0348034A58605A6070470020024065
:104FDC0023016745AB89EFCD024B186940F0800285
:104FEC001A61704700200240094BDA68D2070AD4D4
:104FFC00D868400709D4DB6803F0100100290CBF06
:10500C00042003207047012070470220704700BF26
:10501C000020024010B50446FFF7E6FF02E0FFF760
:10502C00E3FF013C012803D1002CF8D1052010BD71
:10503C00002C08BF052010BD73B5002304464FF4A7
:10504C0000500E460193FFF7E5FF04281CD10F4DCD
:10505C00296941F00100286126804FF40050FFF7C8
:10506C00D9FF042808D102340194019A360C168019
:10507C004FF40050FFF7CEFF052805D02A6941F602
:10508C00FE7102EA01032B617CBD00BF00200240CF
:10509C0038B505464FF43020FFF7BCFF042815D176
:1050AC000B4C226942F0020121616561206940F0DC
:1050BC00400323614FF43020FFF7ACFF052805D0E7
:1050CC00226941F6FD7102EA0103236138BD00BF7C
:1050DC00002002400D4B1A6842F00100186059681C
:1050EC000B4A01EA020058601A6822F0847C2CF406
:1050FC0080311960186820F480221A6059684FF4C6
:10510C001F0221F4FE0058609A60704700100240A4
:10511C000000FFF80C4BB0F5803F196821F4803289
:10512C001A60196821F480221A6003D0B0F5802F20
:10513C0009D104E01A6842F480301860704718688E
:10514C0040F4A0211960704700100240044B5A68CB
:10515C0022F47C1C40EA0C0040EA01025A607047C1
:10516C0000100240014B1860704700BF60004242C3
:10517C00034B5A6822F0030140EA01025A6070475F
:10518C0000100240024B586800F00C00704700BF42
:10519C0000100240034B5A6822F0F00140EA010271
:1051AC005A60704700100240034B5A6822F4E061C9
:1051BC0040EA01025A60704700100240034B5A68E3
:1051CC0022F4605141EAC0025A607047001002405C
:1051DC00014B1860704700BFD80042421F4B10B5FE
:1051EC005A6802F00C02042A01D0082A02D01C4B87
:1051FC0003600FE05C68596804F47012940CA21CF4
:10520C00C90302D55B689B0301D5164B00E0144B18
:10521C005A430260114A546804F0F0031909124B06
:10522C000468595C34FA01F14160546804F4E06498
:10523C00240A1C5D31FA04F48460546804F460544C
:10524C00E40A1C5DE140C160526802F4404C03EB7F
:10525C009C331A7CB1FBF2F1016110BD00100240CD
:10526C0000127A0000093D006A010020044B9A6983
:10527C0009B1104301E022EA00009861704700BFB9
:10528C0000100240044BDA6909B1104301E022EA34
:10529C000000D861704700BF001002404309012B89
:1052AC00074A01D1136803E0022B0CBF136A536A3F
:1052BC0000F01F0133FA01F000F00100704700BF4D
:1052CC000010024007B5002301933120FFF7E6FFE1
:1052DC00019B5A1C01920199B1F5A06F01D00028D5
:1052EC00F3D03120FFF7DAFF003018BF01200EBDDC
:1052FC0030B5B0F810E00D462EF440521304CA88B5
:10530C001B0C13430382B0F80CC087B02CF4B05EB6
:10531C002EF00C02B1F804C013040A89498942EA40
:10532C000C0E4EEA01021FFA82FC1B0C4CEA030322
:10533C008381B0F814E0B5F80CC02EF440710A0467
:10534C00130C43EA0C010446818201A8FFF746FFC7
:10535C00194BA0899C420CBF049B039B02B2002AF0
:10536C004FF019012A6801FB03F101DA520000E049
:10537C0092006423B1FBF2F1B1FBF3F21201B4F829
:10538C000CC0100903FB10110FFA8CF0002806DA80
:10539C00C9003231B1FBF3F303F0070305E0090157
:1053AC003231B1FBF3F000F00F0343EA020EA4F824
:1053BC0008E007B030BD00BF00380140838919B147
:1053CC009BB243F4005303E023F4005211040B0C82
:1053DC0083817047CBB210B55B09012401F01F012A
:1053EC0014FA01F1A34201D10C3004E0022B01D1DB
:1053FC00103000E0143003680AB1194301E023EACD
:10540C000101016010BD8188C805C00D704703887B
:10541C0019420CBF00200120704710B5CCB20122FC
:10542C00640901F01F039A40012C01D1838903E028
:10543C00022C0CBF038A838A9BB20088134082B271
:10544C0043B1080A012313FA00F111420CBF0020EA
:10545C00012010BD184610BDF0B5CE78F30606F04D
:10546C000F0248BF8B780E8848BF1A4316F0FF0F07
:10547C001DD00468002301279F4007EA0605BD42A2
:10548C0011D19F004FF00F0C0CFA07FC12FA07F722
:10549C0024EA0C043C43CF78282F01D1456102E06B
:1054AC00482F08BF05610133082BE4D104600E8836
:1054BC00FF2E1FD94468002303F108050127AF40D4
:1054CC0007EA0605BD4211D19F004FF00F0C0CFAF4
:1054DC0007FC12FA07F724EA0C043C43CF78282F78
:1054EC0001D1456102E0482F08BF05610133082B4B
:1054FC00E2D14460F0BD016170474161704700002A
:10550C000028174B30B500F44014B4BFDB695B685E
:10551C00B4F5401F82B207D1114C23F0706365685B
:10552C0025F07065656010E0C40206D500F47025A6
:10553C002C0C032515FA04F403E0440D240112FA93
:10554C0004F423EA040343F0706319B1410D09011B
:10555C008A40134300280248B4BFC361436030BD86
:10556C000000014040F0BE61024B41F42020D860A5
:10557C00704700BF00ED00E0C37810B50BB3164ABE
:10558C0090F800C0D168CB4303F4E064230A41785F
:10559C00C3F104020F24914034FA03F2847802EA36
:1055AC00040343EA01020D4B12010CEB030181F8D9
:1055BC0000230378012203F01F00590912FA00F3AB
:1055CC0006E00278012302F01F00834051092031CC
:1055DC00024840F8213010BD00ED00E000E100E091
:1055EC0021F0604C2CF07F02024B42EA00019960E2
:1055FC00704700BF00ED00E073B50023ADF8063036
:10560C00A4E01A88564C02F00F022270002A6FD1C7
:10561C00544C554E22683280358805F0300C534D71
:10562C00A5F800C031884BF6BF7C01F440503080A7
:10563C00226802EA0C0181F4005080F0200242F44E
:10564C00004C4CF0800121601888C30608D42168F6
:10565C0048F60F7001EA0003236000F0AFFC1EE077
:10566C002368ADF80630BDF80620100508D5226871
:10567C0040F68F7102EA0100206000F001FB0EE0A1
:10568C00BDF806300FFA83FCBCF1000F5EDA22681D
:10569C0040F68F7102EA0100206000F087FA23685F
:1056AC00B6F800E04BF6BF7C0EF4805188B203EAEA
:1056BC000C0308B183F48053318801F4005082B29A
:1056CC000AB183F40053298801F0100082B20AB1A8
:1056DC0083F01003298801F0200082B20AB183F014
:1056EC002003234943EA01001E4B82B21A6035E0C5
:1056FC00900000F1804303F5B8431968ADF806102B
:10570C00BDF806C00FFA8CF000280ADA196840F6CA
:10571C008F7E01EA0E0017491860531E51F82320A2
:10572C009047BDF80620110610D5217848F60F7C5D
:10573C008A0002F1804E0EF5B8431868013900EA70
:10574C000C020D481A6050F8213098470B4803683A
:10575C0099B20B4B0A0419803FF553AF7CBD00BFC7
:10576C007C200020005C00406C2000206E2000207B
:10577C008080FFFF1C00002038000020445C0040AB
:10578C005212002010B5064C18B9236801221A8257
:10579C0010BD044A11680868804720680A3010BDA3
:1057AC00A02000209C20002010B5064C18B92368BE
:1057BC0001221A8210BD044A11688868804720684B
:1057CC000C3010BDA02000209C20002008B5274BD9
:1057DC0018B91B6802221A8208BD254800220280D3
:1057EC001A680346117811F07F0116D192F809C09E
:1057FC0090F800E01CF0200F14BF4EF0020E2EF0BB
:10580C00020E80F800E000781CF0400F14BF40F04E
:10581C00010020F0010018701FE0012924D002299A
:10582C0021D1537903F00F0C4FEA8C0202F1804125
:10583C0013F0800F01F5B8431B6803D003F030015F
:10584C00102903E003F44052B2F5805F05D190F8C3
:10585C0000C04CF0010E80F800E006490B68186996
:10586C008047034808BD002008BD00BFA0200020D1
:10587C00702000209C200020244A2DE9F843146855
:10588C009046238A267A224FABB9042E13D1214994
:10589C00087801280BD1204A1068204A1FFA80FC96
:1058AC0062445000302203603A800B7028E01023D1
:1058BC003B80072624E0A58AA269AB428CBF022656
:1058CC0004269D4228BF1D4628469047814600204D
:1058DC0000F0C6FC2A460146484600F0C1FB2946AA
:1058EC00002000F0DDFC218AB4F812C00C484B1BE0
:1058FC00302265444FF440513A8023826582018006
:10590C00D8F800000672BDE8F88300BFA020002084
:10591C006E20002010120020505C0040023000204D
:10592C006C20002010B50B4B0B481B684178DA78C3
:10593C0091420AD3997841B99C8844B99A72074B21
:10594C00186842689047204610BD022010BD022006
:10595C0010BD00BFA0200020E00000209C200020F3
:10596C0038B5104A104C1068216883694879C97899
:10597C00984723689A7A8AB180B9197971B99D7858
:10598C0075B90A480168CA6890472368D87893F8B3
:10599C0005C0187383F80BC0284638BD022038BDEB
:1059AC00022038BD78200020A02000209C20002060
:1059BC0010B5344B1B68187810F07F0004D1597A5D
:1059CC0021F020025A7210BD022856D15A88002AA2
:1059DC0056D11979002953D15A7922F080004FEA17
:1059EC00800404F1804C284C0CF5B84109682478EB
:1059FC0012F0800F14BF01F0300101F44051A042AD
:105A0C003BD2002939D09B7A002B38D012F0800F72
:105A1C004FEA800202F1804E0EF5B84423680CD098
:105A2C0003F03001102922D1C4B2204600F0DEFB75
:105A3C002046302100F052FB19E003F4405CBCF529
:105A4C00805F14D128B9114B93F82C1000F038FC5E
:105A5C0001E000F0B8FB23684BF68F7C03EA0C0ED8
:105A6C008EF4405141F4004242F08000206008491D
:105A7C000A6850698047002010BD022010BD02202A
:105A8C0010BD00BFA0200020E00000208C000020F2
:105A9C009C20002010B5204B19684A7922F0800315
:105AAC004FEA830404F1804C1C4C0CF5B8400068A0
:105ABC00247812F0800F14BF00F0300000F4405036
:105ACC00A34225D24C881CBB10B3897A11B34FEA80
:105ADC00830E12F0800F0EF1804202F5B843196864
:105AEC0006D048F6BF7C01EA0C0080F0100204E0FE
:105AFC004BF68F72114081F48052094942F40040F8
:105B0C0040F0800208681A6083699847002010BD35
:105B1C00022010BD022010BDA0200020E0000020BB
:105B2C009C20002008B506490B680649587A40F0BD
:105B3C00200208685A72C3699847002008BD00BF4C
:105B4C00A02000209C200020064B1A68538A28B9FC
:105B5C00B1F804C0C3EB0C01118270470868C0187F
:105B6C00704700BFA020002008B50C49002091F818
:105B7C002C1000F0A5FB0A480368187A082806D1F7
:105B8C00084A4FF48051084B118010221A80A0F162
:105B9C000900D0F1000C4CEB000008BD8C0000207B
:105BAC00A02000206C2000206E200020F8B52E4D87
:105BBC002C68237A022B50D0042B4ED0032B01D00F
:105BCC00052B44D1A369228AABB1A2B1A68A964215
:105BDC0028BF164630469847228A0746608A911B92
:105BEC00331821826382002000F04AFB32460146C2
:105BFC00384600F04AFA238A5BB11C4A00204FF465
:105C0C00405C0146A2F800C000F04AFB1849302065
:105C1C000880238AA08A984202D82B68032202E0CB
:105C2C001BB12B6805221A720EE02A680621114856
:105C3C0011720168104A1FFA81FC0CEB0200420041
:105C4C0013600B4B302119802B681B7A06E0072B55
:105C5C0003D10A4A1168C868804708232868037270
:105C6C00BDE8F840FFF780BFA02000206C2000208A
:105C7C006E200020505C0040023000207820002074
:105C8C0073B58C4E8C4C3568AAB211198B4C4800EC
:105C9C0026680568337A092B16D01FFA85FE0EF19B
:105CAC00005C0CF540535D002A7832706978717095
:105CBC00A88800F037FB70802889266800F032FB3A
:105CCC00B0802368A889D88022680125D0881572F5
:105CDC005578002862D1117811F07F032ED1092D4F
:105CEC0002D1FFF71FFE3BE0052D0DD192F90330D9
:105CFC00002B4FDB907800284CD19188002949D19A
:105D0C00927A002A35D045E0032D0CD192F803C0CD
:105D1C00BCF1010F25D193881BBB507A830620D58B
:105D2C00FFF700FF1CE0012D1BD1D178012918D100
:105D3C009388B3B9527A900613D50AE0012B04D19B
:105D4C000B2D0ED1FFF70CFE0AE0022B09D1012D11
:105D5C0002D1FFF72DFE03E0032D02D1FFF79AFECF
:105D6C0038B1574B186841692846884703280FD02B
:105D7C0080B9504B534918681FFA80FC0CEB010298
:105D8C00514953000020302218600A80062302E09B
:105D9C00092300E0082322681372D3E0062D13D1E7
:105DAC00117849067BD19278454B012A02D11868AB
:105DBC00C3696BE0022A02D11B681B6A66E0032AE6
:105DCC006DD11A68536A61E0002D40D151880029C9
:105DDC0065D1536823F47F40B0F5003F5FD1107854
:105DEC0010F07F0304D19188002900F0B08056E0B8
:105DFC00012B0DD1324B18688369507998470028D4
:105E0C004DD12E4801688A7A002A40F0A08046E0E5
:105E1C00022B44D153792D4903F00F0C4FEA8C0E11
:105E2C000EF1804000F5B842126891F800E013F0D2
:105E3C00800F14BF02F0300202F44052F4452ED20F
:105E4C0013F0700F2BD1002A40F0818027E0082D31
:105E5C0003D113785A067CD021E00A2D1FD110787B
:105E6C0000F07F0101291AD1937AC3B15188B1B9DD
:105E7C00536823F47F40B0F5803F10D1104B186865
:105E8C00836950799847002865D008E03BB12268B7
:105E9C0000215182936100209847002018E00849A6
:105EAC0020680A68407813699847032810D1034B7F
:105EBC001B6813E0505C004004300020A020002040
:105ECC0078200020023000206E200020E00000200E
:105EDC0023684FF6FF7C1A8A624501D1092203E040
:105EEC00022800D012B908221A722BE093F9000094
:105EFC00002820DAD988019101988242174802D9EA
:105F0C00019A1A8210E08A420ED2016891F82C1084
:105F1C008A4201D2002105E092FBF1F401FB14222C
:105F2C0012B901210E4A1170016891F82C00988267
:105F3C00FFF7A2FC06E003221A720A4B4FF4405EF4
:105F4C00A3F800E002B0BDE87040FFF70DBE064BB1
:105F5C009DE7064B9BE7064B99E700BF7820002096
:105F6C00101200206C200020D9570008915700080F
:105F7C00B557000870B50F4B1D78002312E0D9B24D
:105F8C008A0002F1804606F5B842166841F40044D6
:105F9C0040F60F7144F0800406EA010C44EA0C014F
:105FAC0011600133AB42EAD3034B40F08000186020
:105FBC0070BD00BFE00000204C5C004010B5134CDD
:105FCC0023681A7A022A01D0042A04D1FFF754FC60
:105FDC0023681B7A13E0062A10D15A78052A09D1B6
:105FEC001878420606D1D878FFF7C4FF084A136820
:105FFC00196A8847074B1968886880470823226804
:10600C001372BDE81040FFF7AFBD00BFA020002009
:10601C009C2000207820002070470000044A0020BB
:10602C0010600449044A4FF406430B801360704718
:10603C00445C0040A4200020405C004070B500F09F
:10604C007F0528460E4600F05BF90446284600F012
:10605C0017F922460146304600F017F8204670BD6D
:10606C0001F10053013203F5405110B549005208BB
:10607C0007E0447810F8023B013A43EA042C21F87B
:10608C0004CC0431002AF4D110BD01F100530132CB
:10609C0003F540514900520804E051F8043B013A21
:1060AC0020F8023C0230002AF7D170474FF6F87105
:1060BC00024A00EA01031360704700BF505C0040C5
:1060CC00820002F1804000F5B840036848F68F1C4E
:1060DC0003EA0C0242EA010303607047830003F1F8
:1060EC00804000F5B840026848F6BF7301F0100C10
:1060FC0013401FFA8CF20AB183F0100301F0200256
:10610C0091B209B183F0200343F4004141F08003C4
:10611C0003607047830003F1804000F5B8400268CB
:10612C004BF68F7301F4805C13401FFA8CF20AB1AA
:10613C0083F4805301F4005291B209B183F40053FB
:10614C0043F4004141F0800303607047830003F186
:10615C00804202F5B841086800F0300070478200B8
:10616C0002F1804000F5B840016848F6BF7301EABF
:10617C00030C8CF0300242F4004141F080030360C8
:10618C007047820002F1804000F5B84001684BF680
:10619C008F7301EA030C8CF4405242F4004141F03D
:1061AC00800303607047810001F1804000F5B84026
:1061BC00036840F60F6C03EA0C0242F4004141F014
:1061CC00800303607047810001F1804000F5B84006
:1061DC000368590409D5026840F60F7102EA0103FD
:1061EC0043F4404C4CF0800202607047810001F196
:1061FC00804000F5B84003685B0609D5026840F69C
:10620C000F7102EA010343F4004C4CF0C00202602F
:10621C0070470000074A13689AB202EBC00303F1FF
:10622C00005C0CF540524FF6FE70530001EA000280
:10623C001A607047505C0040074B1A6893B203EB2E
:10624C00C00C06480CEB00024FF6FE70520001EA3F
:10625C0000031360704700BF505C00400430002006
:10626C0006490B681FFA83FC0CEBC00202F10051CB
:10627C0001F5405043001888704700BF505C004047
:10628C0005490A6805491FFA82FC0CEBC003581833
:10629C0042001088704700BF505C00400430002062
:1062AC00054B1A681FFA82FC044A0CEBC0039818C1
:1062BC0042001160704700BF505C0040023000206B
:1062CC000D4B1A681FFA82FC0CEBC0030B481A1812
:1062DC0052003E2908D94B09C90601D1591E8BB26F
:1062EC00980240F4004304E04B08C80748BF013350
:1062FC009B021360704700BF505C004006300020CA
:10630C00064B1A6891B201EBC00C05480CEB00036C
:10631C005A0011688805800D704700BF505C004022
:10632C0006300020C3B2000A40EA03207047000088
:10633C000749084A022008B511600872064B074845
:10634C000749084A186011600368984708BD00BFE8
:10635C0080200020A0200020782000208C0000202D
:10636C00BC0000209C200020384B82B01A6842F000
:10637C00010018605968364A01EA020058601A6830
:10638C0022F0847C2CF480311960186820F480226F
:10639C001A6059684FF41F0221F4FE000021586066
:1063AC009A6000910191186840F480321A60274B72
:1063BC00186800F400310191009A501C009001996A
:1063CC0019B9009AB2F5A06FF1D1186810F4003128
:1063DC0018BF01210191019B012B34D11D4B1A686F
:1063EC0042F010001860196821F003021A60186856
:1063FC0040F002011960154B5A685A605868586091
:10640C00596841F480625A60586820F47C115960D4
:10641C005A6842F4E8105860196841F080721A60AA
:10642C000A4B19688A01FBD5586820F003015960A2
:10643C005A6842F002005860044A536803F00C0C8E
:10644C00BCF1080FF8D102B0704700BF0010024039
:10645C000000FFF800200240F7B5244E0F4606EB73
:10646C008005D5F88810D5F89030044641EA030031
:10647C0040F001000121FEF7F9FE2CB9D5F8980087
:10648C000121FEF7F3FE08E008200121FFF738F8A0
:10649C00D5F898000121FEF7F5FE154806EB4405EA
:1064AC00B5F8A0C000EB8404032118238DF8061066
:1064BC00206B01A98DF80730ADF804C0FEF7CCFFB6
:1064CC000422B5F8A4500DEB0201A06B8DF8072047
:1064DC00ADF80450FEF7C0FF206C3946FEF708FFFC
:1064EC00206C0121FEF76AFFFEBD00BFF4650008B9
:1064FC00800100203203530054004D003300320061
:10650C0020005600690072007400750061006C0078
:10651C00200043004F004D00200050006F0072001F
:10652C007400200020002603530054004D00690025
:10653C00630072006F0065006C00650063007400FE
:10654C0072006F006E00690063007300040309049D
:10655C0009024300020100C03209040000010202DA
:10656C00010005240010010524010001042402028D
:10657C000524060001070582030800FF0904010039
:10658C00020A000000070503024000000705810213
:10659C004000001201000202000040FF26124900D8
:1065AC00020102030100000000080140000C014040
:1065BC00001001400014014000180140001C014073
:1065CC00002001400020014000080140000C014067
:1065DC00001001400014014000180140001C014053
:1065EC0000200140002001401000000010000000BD
:1065FC0010000000100000004000800000010002AC
:10660C000400000010000000080000004000000022
:10661C0040000000200000002000000020000000CE
:10662C0001000020000201000200000100400010E7
:10663C00000002000100040004000300030003003A
:10664C0000000D0009000000010008000E000C0005
:10665C0001000020000201000200000100400010B7
:10666C000600280017000600070017002800280065
:10667C0004000000200000000400000020000000C6
:10668C000040000000000200000220000004400056
:10669C0025303278200048656C6C6F20576F726C17
:1066AC00640A0048656C6C6F203A00726F6D5F6510
:0C66BC006E643D00746F703D0000000033
:1066C8001A03530054004D003300320031003000EB
:1066D8000000000000000000000000002560000825
:1066E8002560000859320008256000082560000868
:1066F8002560000825600008E931000825600008C9
:10670800256000082560000825600008256000084D
:106718002560000800C20100000008005865000854
:10672800040000003265000826000000006500082B
:1067380032000000000000201A0000005C6500081C
:10674800430000009F650008120000005D35000846
:1067580079340008553400084D33000851330008D7
:10676800B5330008DD330008493400083D3400081B
:106778001D340008000000004000000025600008EB
:1067880029330008256000082560000825600008F6
:1067980025600008256000082560000841330008CE
:1067A80004010000000000000100000000000000DB
:1067B8000100000002000000000801400014014030
:1067C8000010014000080140000100001000000016
:1067D80040000000002000000008014000140140B3
:1067E80000100140000801400001000010000000F6
:1067F800400000000080000000000000001401407C
:10680800000000000008014000000000080000002F
:1068180000000000004000000C010000000000081B
:10682800002000080500000001000000000001022F
:10683800030401020304060708090204060800000D
:1068480000100140001001400010014000100140FC
:106858000008014000100140000C014000180140F0
:1068680000180140001401400014014000140140C8
:1068780000080140001401400008014000140140D4
:0868880000380140004400400B
:040000050800310CB2
:00000001FF
