:020000040800F2
:1030000000500020B5C40008715100087551000837
:10301000795100087D51000881510008B1C40008B1
:10302000B1C40008B1C40008B1C40008B1C40008AC
:10303000B1C40008B1C40008B1C40008A137000839
:10304000B1C40008B1C40008B1C40008B1C400088C
:10305000B1C40008B1C40008A9320008A3320008B6
:103060009D3200089732000891320008F1310008C3
:103070000132000811320008213200083132000804
:103080004132000851320008B1C40008B1C4000840
:10309000C53F0008B1C40008B1C40008FD320008F3
:1030A000513800086138000871380008B13800084C
:1030B000AD390008A13900089539000835360008F7
:1030C000B934000829360008C5340008B1C4000826
:1030D000B1C40008C93B0008D53B0008E13B00082B
:1030E000F5320008B1C40008B1C4000840F6F82366
:1030F000C2F200031A780AB901201870704700BFA5
:1031000040F20000C2F2000008B503682BB140F2A3
:103110000003C0F2000303B1984708BD03689A6832
:1031200022F4602241EA02029A607047044B10B513
:1031300004461868A047034B1868A04710BD00BF9D
:103140001400002018000020002330B51A461C4649
:103150001D46072ADCBF01FA03FC45EA0C0501FA0B
:1031600003FC013203330A2A44EA0C04F1D1036858
:10317000DD601C6130BD10B50446007900F0C4FA72
:103180002079BDE8104000F0A5BA01EBC000800036
:1031900000F18440704738B505680321083528469A
:1031A000FFF7F3FF022104462846FFF7EEFF012355
:1031B00023602368002BFCD1013303600368002BDC
:1031C000FCD138BD4A1E9200012111FA02F20368B7
:1031D0005A60704750F8313070B505460C4633B12F
:1031E000984728462146BDE87040FFF7EBBF70BD09
:1031F000024B01211868FFF7EDBF00BF1C00002043
:10320000024B02211868FFF7E5BF00BF1C00002039
:10321000024B03211868FFF7DDBF00BF1C00002030
:10322000024B04211868FFF7D5BF00BF1C00002027
:10323000024B05211868FFF7CDBF00BF1C0000201E
:10324000024B06211868FFF7C5BF00BF1C00002015
:10325000024B07211868FFF7BDBF00BF1C0000200C
:10326000024B586100BF00BF704700BF000401401F
:10327000064B10B553F83030044633B1984701205F
:10328000A040BDE81040FFF7EBBF10BD600000207C
:103290000420FFF7EDBF0320FFF7EABF0220FFF78E
:1032A000E7BF0120FFF7E4BF0020FFF7E1BF000008
:1032B0002DE9F0470D4B0E4E8A46D3F8148006EBED
:1032C000C006044600250AE00127A74017EA080FB8
:1032D00003D033680BB198473D4301340836544559
:1032E000F2D92846BDE8F047FFF7BABF0004014015
:1032F000600000200A200F21FFF7DABF0520092116
:10330000FFF7D6BF034B1A6822F0070240EA020219
:103310001A60704700200240014B01221A6070477A
:103320001000444201F0070C70B54FEA8C0C0F25D9
:10333000092A14BF1646082605FA0CF506FA0CFCF5
:103340000368C80853F82040082A24EA05054CEA17
:10335000050443F8204007D1012010FA01F1DA6892
:1033600022EA0101D96070BD092A05D1012010FAB5
:1033700001F1DA681143D96070BD042010B500F086
:10338000C3F90420BDE8104000F0A4B910B504460C
:10339000007900F0B9F92079BDE8104000F09AB941
:1033A00010B50748FFF7F2FF0648FFF7EFFF0648A2
:1033B000FFF7ECFF0548BDE81040FFF7E7BF00BF8F
:1033C000E0000020E8000020F0000020F8000020CD
:1033D00000284FEA011106DA064B00F00F00C9B2CF
:1033E000C31819767047044BC9B2C31883F8001389
:1033F000704700BFFCEC00E000E100E021F060411C
:1034000021F07F01014B01439960704700ED00E01E
:1034100010B5FFF7F3FF002460B20F210134FFF76E
:10342000D7FF2B2CF8D14FF0FF300F21BDE8104013
:10343000FFF7CEBF03681961704703681A6812F47A
:10344000985FFBD11A6842F480721A607047036873
:103450001A6812F4985FFBD11A6842F400721A607D
:103460001A6812F4985FFBD1704703685A6841EA02
:1034700002025A60704703685A6822EA01025A60E1
:10348000704703681A6822F480621A607047036804
:1034900010B59A69044602F47062826100225A6192
:1034A0009A61FFF7D4FF20464FF4E061FFF7E3FF96
:1034B0004FF0FF33637310BD0148FFF7E8BF00BF53
:1034C000080100200148FFF7E2BF00BF24010020EF
:1034D000026870B5536905699269524AAE781268FC
:1034E00013F0010F044606F00106426112D04FF0BE
:1034F0000003EB804FF48061FFF7B7FF26B123682C
:103500001A6842F480621A602A88236846EA4202F6
:103510001A61002313F0020F1DD0AB8876B1012B86
:1035200018D12046FFF7ADFFE3892046012B02D9D1
:10353000FFF783FF0EE0FFF78AFF0BE0012B09D0B6
:10354000EB88AA682046D15C0133EB80FFF772FF5D
:10355000334600E0002303F08402802A1AD1E68972
:10356000AEB1EB88AA682046D15C0133EB80FFF74F
:1035700061FFEA88AB889A4207D120464FF4806108
:10358000FFF779FFE389013BE381002302E000F0CC
:1035900081FB334603F08402842A19D1E68966B19F
:1035A0002046FFF74AFF23685A6912F0010FFBD04B
:1035B00023690C33236100230AE02046FFF747FF0D
:1035C00020464FF40071FFF756FF02236373334622
:1035D00013F0400F25D02268EB881169AA68D154F6
:1035E000AA8801339BB2511E8B42EB800CD120463E
:1035F000FFF747FFE3892046022BBDE8704001D961
:10360000FFF71BBFFFF723BF93420AD1E389013BBA
:103610009BB2E38113B90233637370BD23690C332A
:10362000236170BDD80B00200148FFF751BF00BFD8
:10363000240100200148FFF74BBF00BF0801002014
:10364000054B10B5054C5A6854F8200022EA0002D8
:103650000A435A6010BD00BF00100240B4C6000803
:10366000022838B50C46154602D1B1F5803F04D08A
:1036700011487521114A00F057FB114B45EA04042B
:103680005C601A6842F480321A600D4B196811F4BC
:10369000003FFAD042F080721A60094B1A6812F0AB
:1036A000007FFAD002225A60054B5B6803F00C03DE
:1036B000082BF9D138BD00BF34C6000843C6000846
:1036C0000010024001EBC0039B0003F184431A6029
:1036D000704700000A4B0B4A13F8101003EB40032D
:1036E00070B552F821505C78284621460122FFF738
:1036F000E9FF284621460022BDE87040FFF7E2BFFF
:1037000080C60008C8C60008054B064A13F810100A
:1037100003EB400352F8210059780122FFF7D2BF92
:1037200080C6000828C60008054B1A680AB9054A71
:103730001A60034A1368181810601846704700BFD3
:10374000FC0A0020B00E0020002070474FF4005308
:103750004B6000207047012070474FF0FF307047EA
:1037600000230B700120704702F026BB70B50C4699
:103770001646002503E0605DFFF7F6FF0135B54210
:10378000F9D3304670BD0000014B07221A60704724
:1037900010E000E0014B5860FFF7F6BF10E000E0DA
:1037A00008B5044B1A6801321A60034B1B6803B159
:1037B000984708BDD80B0020000B00204FEA510CA1
:1037C00001F00101C1F10101C90030B5C9B2FF2406
:1037D0008C40134313FA01F100680CF0010C18300F
:1037E00050F82C5025EA04040C4340F82C4030BD1E
:1037F00041790368002201291A60DA6098BF1A62D1
:1038000070470000074B10B504461868A047064BE8
:103810001868A047054B1868A047054B1868A047D3
:1038200010BD00BF880100208C0100209001002005
:1038300094010020023138B550F821301546046853
:1038400023B19847236923EA0505256138BD0000A7
:10385000024B072118688022FFF7ECBF8801002087
:10386000024B002118680122FFF7E4BF8801002005
:10387000F8B50E4B1E6856F8084BE36827691F40E1
:1038800017F0400F04D0B36913B19847402500E00A
:10389000002517F0200F04D0736913B1984745F045
:1038A0002005236923EA05052561F8BD880100206C
:1038B000F8B5164B1D6855F8086BF36837691F405B
:1038C00017F0100F04D02B6913B19847102400E0B3
:1038D000002417F0080F04D0EB6813B1984744F0A8
:1038E000080417F0040F04D0AB6813B1984744F0F4
:1038F000040417F0020F04D06B6813B1984744F02A
:103900000204336923EA04043461F8BD880100200D
:103910002DE9F041054655F8087B8046FB683E6975
:103920001E4016F0400F04D0AB6913B198474024F5
:1039300000E0002416F0100F04D02B6913B1984753
:1039400044F0100416F0080F04D0EB6813B1984748
:1039500044F0080416F0040F04D0AB6813B1984784
:1039600044F0040416F0020F04D06B6813B19847BA
:1039700044F0020416F0010F05D0D8F8083013B156
:10398000984744F001043B6923EA04043C61BDE824
:10399000F0810000014B1868FFF7BABF94010020C6
:1039A000014B1868FFF7B4BF90010020014B186865
:1039B000FFF7AEBF8C01002010B504460079FFF779
:1039C000A3FE2079BDE81040FFF784BE01EBC000E4
:1039D000800000F18440704708B500680C30FFF7A4
:1039E000F5FF0023036008BD38B50D4604460235D7
:1039F000FFF7F2FF002344F8253038BD08B5006812
:103A0000013920308900FFF7E1FF0123036008BD81
:103A10004B1EDBB2032B70B504460D46164604D987
:103A20001C48AD211C4A00F07FF96379022B04D1B8
:103A30001848B021194A00F077F96379022B27D092
:103A4000012E10D002D3022E22D115E020462946A5
:103A5000FFF7CAFF2068691E20308900FFF7B6FF14
:103A60000023036070BD20462946FFF7B5FF2046BE
:103A700029466022082303E020462946102200231D
:103A8000FFF79CFE20462946BDE87040FFF7B6BF11
:103A900070BD00BFD0C60008E3C60008FFC600081E
:103AA00019234B439200B3FBF2F36421B3FBF1FC07
:103AB0004FEA0C1C4FEA1C1201FB12331B0132337C
:103AC000B3FBF1F101F00F01036841EA0C0189B287
:103AD000996070470368DA6812F4005F03D01A68CF
:103AE00012F0400FF7D0DA6822F40052DA6043682F
:103AF0009A88DA8070470000054B10B504461868B4
:103B0000A047044B1868A047034B1868A04710BD96
:103B1000E4010020E8010020EC010020036810B55A
:103B2000002002E00C5C01305C601C6814F0800F27
:103B300001D09042F6D310BD7FB5064600240A227C
:103B4000B1FBF2F302FB131230320DF804206D4684
:103B500001341946002BF2D12D190BE015F8013C68
:103B60008DF80C30304603A90122FFF7D7FF00285B
:103B7000F8D0013D013CF1D27FBD43680268D9888D
:103B800050689A8801F1010C944504D0B3F808C03C
:103B90008C450AD14AB91968515C1989914201D101
:103BA000002201E0013292B29A80D9881A68C0B22C
:103BB0008854DA881989914201D1002201E001324A
:103BC00092B2DA8070470000014B1868FFF7D5BF4A
:103BD000E4010020014B1868FFF7CFBFE801002087
:103BE000014B1868FFF7C9BFEC01002043684FF094
:103BF00000029A80DA804FF03F021A8100F10C0235
:103C00001A6010B5044690F84C00FFF77DFD94F85B
:103C10004D305AB2002A08DB012103F01F0311FACC
:103C200003F30249521141F8223010BD00E100E0D7
:103C3000002808DB4211012300F01F0013FA00F0F6
:103C4000014B43F82200704700E100E013B5044641
:103C50008DF80410204601A90122FFF75FFF00281C
:103C6000F8D01CBD70B506460D46002403E0304672
:103C70000134FFF7EBFF295D0029F8D170BD03681F
:103C800019B14FF480721A6170474FF480725A6113
:103C900070470000F8B5114B08211C68032220462C
:103CA000FFF740FB00252E460127B6F5007F02D125
:103CB0004FF0FF3702E0002E08BF0127B5F5007F67
:103CC00001D1F6190025B542204601D2012100E0BC
:103CD0000021FFF7D4FF0135E7E700BF1CC600084D
:103CE0000D4B4FF0FF32C3F8802010B5C3F884208D
:103CF0000A48FFF787FD0A48FFF718FA0948FFF757
:103D0000FBFE1320FFF794FF1420FFF791FF62B62C
:103D1000BDE81040FFF7BEBF00E100E0F13700084A
:103D2000B53D0008D53A00081C4B2DE9F0411C4C6C
:103D300006460D461868022117460B22FFF7F2FAD5
:103D40002068FFF753FF4FF4165220681549FFF71C
:103D5000A7FE20681449FFF785FF20683946FFF762
:103D600081FF20681149FFF77DFF20683146FFF78A
:103D700079FF20680E49FFF775FF20682946FFF795
:103D8000DBFE20680A21FFF761FF20680D21FFF7A5
:103D90005DFFBDE8F041FFF7A3BF00BF1CC60008F0
:103DA000E801002000A24A0418C700082EC7000836
:103DB0002FC70008036800225B0103F1844303F569
:103DC00080731A6070470000044B1A6892B242F088
:103DD0000C021A60024B03221A607047405C0040DC
:103DE000300B0020054B4FF6FB72196801EA020206
:103DF0001A604FF43F421A60704700BF405C0040B9
:103E0000072818BF204B10B51F4C18BF1870237817
:103E1000052B35D8DFE803F003070B101823FFF755
:103E2000E1FF062306E0FFF7DDFF042302E00223A3
:103E300063700133237010BD6378013BDBB26370A4
:103E40006378FBB9042218E0104B1A6892B242F072
:103E500010021A6005232370DB18637010BD6378AD
:103E6000013BDBB26370637863B9084A4FF6EF73C6
:103E7000116801EA030313600622034B1A7010BD98
:103E80000623237010BD00BFDC0B0020405C004007
:103E9000064B01221A60064A00200649186010608D
:103EA0004FF4E0520A801A60704700BF405C004047
:103EB000445C0040D40C0020044B01221A60044AE8
:103EC0000020106003221A60704700BF405C004071
:103ED000445C0040014B1868704700BF440B002051
:103EE000034B1868052814BF00200120704700BF4D
:103EF000300B0020024B1868003818BF01207047B3
:103F0000300B0020144B70B51A680C46914288BFE4
:103F10001C68124B124A19680023521804E012F868
:103F200001CC00F803C001330132A342F7D10A4BA0
:103F30000A4D1A686118121B1A601E6829604EB972
:103F40000320402101F0DCF803204FF4405101F040
:103F500035F82E60204670BD440B0020340B002045
:103F6000E00B0020134B10B51B680C460BB100246E
:103F70001DE03F2901D93F2400E0C1B1C021A2B218
:103F800000F0D0FF0C4B1A680C4B92B2D3185B00B8
:103F90001C60084B1A68A2181A60094B48F6BF72D9
:103FA000196801EA020282F030021A601B6820469A
:103FB00010BD00BF480B0020505C00400A300020BC
:103FC000045C0040344B354A196810B589B2118041
:103FD00033491288098801EA020212F4806F05D081
:103FE0004FF6FF321A602F4B5B6898472B4B1A88AD
:103FF0002B4B1B8803EA020212F4005F03D0264A0F
:104000004DF6FF711160254A1288134013F4805F4A
:1040100006D0214B4EF6FF721A600020FFF7F0FE2B
:104020001E4B1F4A1B88128802EA030313F4006F19
:1040300005D0FFF7C9FE184B4FF2FF721A60174BFD
:104040001A88174B1B8803EA020212F4007F07D07C
:10405000114A4FF6FF511160134A11680131116086
:104060000E4A1288134013F4807F06D00A4B4FF695
:10407000FF621A600720FFF7C3FE084B084A1B883F
:10408000128802EA030313F4004F03D0BDE8104086
:1040900000F08ABE10BD00BF445C00402C0B002025
:1040A000D40C0020E0020020280B002007B51423C8
:1040B0008DF80430143B8DF805308DF8063001A8DA
:1040C00001338DF8073000F0D5F90EBD036819B142
:1040D0004FF480421A6170474FF480425A61704732
:1040E0000A4B10B51C680E2120460722FFF71AF96B
:1040F000074B2046DA69002142F40002DA61FFF73B
:10410000E5FFBDE8104000F033BE00BF1CC600084C
:1041100000100240024B18460138FDD800F0E0B90B
:104120007F4F1200014B00221A607047480B00209D
:104130007047000020B9034B4FF008021B681A8239
:1041400001487047D00C00209C0300207047704746
:1041500008B50C4B1A68137803F07F03212B0ED19E
:10416000202801D021280AD1074B4FF000011870F8
:10417000064B5182936100209847002008BD022021
:1041800008BD00BFD00C0020410B002035410008C5
:10419000154B1B681A7802F07F02212A21D10228D0
:1041A0001DD022281DD1D878104B00F003001870C4
:1041B0000F4B1B78032B12D8DFE803F00802080826
:1041C00010F001000A4B08D1022204E010F00100B7
:1041D000074B02D103221A70704701221A70002087
:1041E00070470220704700BFD00C0020380B002021
:1041F000400B002019B9012801D808467047022059
:1042000070470000034B1B689B7A13B1024B0522D9
:104210001A607047D00C0020300B0020014B0422A4
:104220001A607047300B0020054B1B68DB78022BAF
:1042300001D900207047034901EBC30100F068BABF
:10424000D00C002084030020014900F061BA00BFB7
:1042500070030020014900F05BBA00BF7C0300201E
:1042600038B53D4B6FF03F021B6800245A723B4A41
:104270009C723B4B1460186848F68F1100EA0101EC
:1042800041F400711960186848F6BF7100EA010135
:1042900081F0100119601168324B89B2CB184025AA
:1042A0005B001D60136880229BB203F1005303F58D
:1042B00040535B001A60204600F0A4FE2A4B2046C3
:1042C0001B6893F82C1000F01BFF204600F08CFEBA
:1042D00002204FF4C06100F04EFE02204FF48071C6
:1042E00000F0C0FE0220202100F052FE02202146F4
:1042F00000F064FE0320214600F03DFE03204FF451
:10430000887100F0C1FE0320294600F0F9FE032069
:104310004FF4405100F052FE0120214600F02BFEE8
:104320000120C02100F09EFE0120202100F030FE7F
:104330000120214600F042FE0C4B01221A6020466B
:1043400000F0F4F90A4B1C600A4B1C600A4B1D601C
:104350000A4B1C6038BD00BFD00C0020505C0040F0
:10436000005C004004300020A80C0020300B00202E
:104370004C0B00203C0B002078030020480B002051
:10438000094B10B51B6800249C72FFF781FD074B99
:10439000074A1C604FF43F431380064A1360FFF73F
:1043A00085FE054B1C6010BDD00C0020445C004015
:1043B000D40C0020405C0040300B002013B50320DB
:1043C00000F0BEFE264C4FF400512060032000F0A8
:1043D000F5FD244B1A78022A38D101321A7023686D
:1043E000934233D9013201A84FF4887100F0B1FD36
:1043F0009DF805209DF80430452A01D0002303E0F4
:10440000312B14BF002301239DF80620412A18BF39
:1044100000239DF80720462A18D1BBB1124B4FF05C
:10442000C24443F0010C6FF0060E104B184685464F
:104430004FF001006146224604B402B401B401B455
:1044400001B401B401B401B4F6467047044B084806
:104450001A684FF4887192B200F07BFD1CBD00BF5A
:10446000440B0020400B00201541000800080020EC
:10447000E00B0020184B30B5DB684478DB4303F4D5
:10448000E0631B0AC3F1040214FA02F20F24DC40B9
:10449000817803780C40144303F0030C4FEACC0CF2
:1044A0002401FF2004FA0CF400FA0CF00B4A9908DE
:1044B000C03152F8215025EA000C04EA000040EA1D
:1044C0000C0042F821005909012003F01F0310FAE3
:1044D00003F342F8213030BD00ED00E000E100E0E0
:1044E000024A034BDA6000BFFDE700BF0400FA0593
:1044F00000ED00E010B5074C20B922684FF0010133
:10450000118210BD044B1B681B68984720680A3055
:1045100010BD00BFD00C0020CC0C002010B50A4B01
:104520000A491B684978DA7891420AD3997841B9E7
:104530009C8834B99A72064B1B685B689847204682
:1045400010BD022010BD00BFD00C00206C03002065
:10455000CC0C002010B5074C20B922684FF00101A7
:10456000118210BD044B1B689B68984720680C3073
:1045700010BD00BFD00C0020CC0C002038B50E4C74
:104580000E4B22681B6850799B69D1789847236845
:104590009A7A7AB170B91A7962B99D7855B9084B8F
:1045A0001B68DB689847236828465A79DA72DA78FC
:1045B0001A7338BD022038BDD00C0020A80C002092
:1045C000CC0C002008B50246244B20B91B684FF0E4
:1045D000020119823FE0224A4FF000011B6811805E
:1045E000197811F07F0112D15B7A13F0200F03D0FC
:1045F000117841F00201117013F0400F184B1A7836
:1046000014BF22F0010242F001021A701EE00129DB
:1046100021D0022901D000221DE0597901F00F03B9
:104620009B0003F1804303F5B84311F0800F1B6832
:1046300003D003F03003102B03E003F44053B3F531
:10464000805F03D1137843F001031370054B1B689F
:104650001B699847024A104608BD00BFD00C0020D5
:10466000A00C0020CC0C002010B51D4B1D4C186870
:1046700094F800C0417921F08002930003F1804357
:1046800003F5B8431B6811F0800F14BF03F030032B
:1046900003F44053624521D24488FCB9F3B1837AD4
:1046A000E3B1930003F1804311F0800F03F5B843A9
:1046B000196806D048F6BF7201EA020282F01002C1
:1046C00005E04BF68F7201EA020282F480521A6012
:1046D000054B1B689B699847002010BD022010BD48
:1046E000D00C00206C030020CC0C002008B5064B39
:1046F0001B685A7A42F020025A72044B1B68DB692D
:104700009847002008BD00BFD00C0020CC0C002032
:10471000054B1A68538A18B98988CB1A13827047D7
:1047200008681818704700BFD00C002030B50E4B39
:104730001C78002310E05FFA83FC4FEA8C0202F140
:10474000804202F5B842156848F68F7105EA01010A
:1047500041EA0C0111600133A342ECD3034B40F05A
:104760008000186030BD00BF6C0300204C5C00402E
:104770007047000008B50C4B002093F82C1000F097
:10478000BFFC0A4B1B68187A082807D1084B4FF466
:1047900080521A80074B4FF010021A80092814BF6C
:1047A0000020012008BD00BFE0020020D00C002046
:1047B000D60C0020D80C002070B52E4B1C68237A34
:1047C000032B01D0052B46D1A369228AABB1A2B13C
:1047D000A58A954228BF154628469847238A06464B
:1047E0005B1B2382638A0020EB18638200F06CFC61
:1047F0002A460146304600F0ACFB238A5BB11E4BD3
:104800004FF4405200201A80014600F06BFC1B4B15
:104810004FF030021A80238AA28A9A4203D8154B9D
:1048200003221B6803E0134A1BB1136805221A72A6
:104830000DE0126806211172114A1168114A89B2FD
:104840008A18520013600D4B4FF030021A80094B4A
:104850001B681B7A06E0072B03D10B4B1B68DB6838
:1048600098470823034A12681372BDE87040FFF7A7
:1048700081BF00BFD00C0020D60C0020D80C002037
:10488000505C004002300020A80C0020F8B5244BFA
:104890001C68238A267AC3B9042E16D121482249DE
:1048A0000278012A0CD1214A037012681FFA82FC97
:1048B0001F4A6244520013604FF030020A802AE01F
:1048C0004FF010030B80072625E0A58AAB4294BF6A
:1048D000042602269D4228BF1D462846A369984704
:1048E0000746002000F0E2FB2A460146384600F069
:1048F00019FB2946002000F0F5FB238A4FF0300217
:104900005B1B2382638AED18074B65821A80094B73
:104910004FF440521A80024B1B681E72F8BD00BF54
:10492000D00C0020500B0020D80C0020505C004020
:1049300002300020D60C002010B5144B1B681A7AE8
:10494000022A01D0042A05D1FFF7A0FF0F4B1B68F4
:104950001B7A14E0062A11D15A78052A0AD11A784E
:1049600012F07F0F06D1D878FFF7E0FE084B1B68E6
:104970001B6A9847074B1B689B6898470823034AA4
:1049800012681372BDE81040FFF7F4BED00C00208F
:10499000CC0C0020A80C002010B5304B1B681878F8
:1049A00010F07F0004D15A7A22F020025A7210BD12
:1049B000022851D15A88002A4ED11A79002A4BD1A7
:1049C0005A7922F08000840004F1804404F5B84450
:1049D0002168234C12F0800F94F800C014BF01F03E
:1049E000300101F44051604536D2002934D09B7A21
:1049F000002B31D0840004F1804404F5B84412F057
:104A0000800F23680CD003F03003102B1ED1C4B2EA
:104A1000204600F015FB2046302100F0B9FA15E0E1
:104A200003F44053B3F5805F10D128B90D4B93F8D0
:104A30002C1000F065FB01E000F0F0FA22684BF664
:104A40008F7302EA030383F440532360064B1B6811
:104A50005B699847002010BD022010BDD00C0020DB
:104A60006C030020E0020020CC0C00208C4BF7B53A
:104A70001A688C4E8C4B92B2D31835685B001F6855
:104A80002B7A092B1AD0BFB207F1005707F5405710
:104A90007F003C4614F8013B2B707B780A376B7023
:104AA000B4F8030000F05CFB6880B4F807003568D8
:104AB00000F056FBA88033687F88DF80794C0123A3
:104AC00022681372D3885578002B62D1137813F0C3
:104AD0007F032ED1092D02D1FFF720FD3BE0052DEC
:104AE0000DD192F90330002B4EDB9378002B4BD184
:104AF0009388002B48D1937A002B37D044E0032DC4
:104B00000BD1D378012B27D193882BBB537A13F089
:104B1000200F21D0FFF7EAFD1DE0012D1CD1D37835
:104B2000012B19D19388BBB9537A13F0200F13D0FE
:104B30000AE0012B04D10B2D0ED1FFF71FFD0AE077
:104B4000022B09D1012D02D1FFF726FF03E0032D2F
:104B500002D1FFF789FD48B1544B28461B685B69B9
:104B60009847032801D109230FE068B94C4B4FF057
:104B700030011A684E4B92B2D3185B0000221A60C3
:104B80004C4B1980062300E00823464A1268137232
:104B9000E0E0062D18D1137813F07F0F40F09480D9
:104BA0009378012B03D1414B1B68DB696CE0022B2E
:104BB00003D13E4B1B681B6A66E0032B40F08480E8
:104BC0003A4B1B685B6A5FE0002D3BD1518800299E
:104BD0007AD1536823F47F43B3F5003F74D113783F
:104BE00013F07F0303D19388002B6DD128E0012BB4
:104BF0000BD12E4B50791B689B699847002863D1D5
:104C000023689B7A002B5FD01AE0022B5CD153798A
:104C1000294803F00F018A0002F1804202F5B842F0
:104C20001268007813F0800F14BF02F0300202F413
:104C30004052814248D213F0700F45D1002A43D030
:104C40001E4B22E0082D05D1137813F07F0F3BD1C6
:104C50001B4B1AE00A2D37D1137803F07F03012B89
:104C600032D1937A002B2FD0518869BB536823F43B
:104C70007F43B3F5803F27D10C4B50791B689B696C
:104C8000984708BB0F4B00E0F3B1064A4FF0000114
:104C90001268002051829361984700201FE000BFF6
:104CA000505C0040D00C002004300020A80C0020F4
:104CB00002300020D80C00206C030020C5450008FD
:104CC000F544000855450008254B264C1B68226812
:104CD0001B6950789847032801D1236806E0214BCF
:104CE0004FF6FF711B681A8A8A4201D1092203E03C
:104CF000022800D012B908221A722BE093F9001092
:104D0000002921DAD98801910198824202D9019AB9
:104D10001A8211E08A420FD21149096891F82C10C9
:104D20008A4201D2002105E092FBF1F001FB102242
:104D300012B901210C4A1170094A126892F82C200C
:104D40009A82FFF7A3FD05E003221A72074B4FF486
:104D500040521A8003B0BDE8F040FFF70BBD00BF22
:104D6000A80C0020D00C0020500B0020D60C0020F6
:104D700008B5074A074B0849136002221A72074B0D
:104D8000074A1360074A1B681160984708BD00BFB7
:104D9000D00C0020B00C002048030020E0020020CE
:104DA000A80C0020CC0C002038B59FE047F6FF711E
:104DB00019601388534903F00F030B70002B69D15E
:104DC000514C524D2368216803F440532B80504BC3
:104DD00001F03001198021684BF68F7301EA03035B
:104DE00083F400532360216848F6BF7301EA03038C
:104DF00083F020032360138813F0100F04D023687E
:104E00009BB213F0800F08D0226848F60F7302EAB5
:104E100003032360FFF790FD16E013F4006F08D042
:104E2000226840F68F7302EA03032360FFF71EFE39
:104E30000AE013F4004F59D0226840F68F7302EA5B
:104E400003032360FFF7B8FC22684BF68F7302EA76
:104E500003032A8812F4805F18BF83F4805312F48E
:104E6000005F294A18BF83F400531360126848F6A4
:104E7000BF7302EA0303264A128812F0100F18BF0C
:104E800083F0100312F0200F1F4A18BF83F0200395
:104E9000136038BD9B0003F1804303F5B8431C68E1
:104EA000A4B214F4004F0BD0186840F68F7200EAD9
:104EB00002021A600A78174B013A53F822309847D9
:104EC00014F0800F12D00F4948F60F720B789B0038
:104ED00003F1804303F5B843186800EA02021A6040
:104EE0000A780D4B013A53F8223098470B4B0C4A85
:104EF000196889B21180118809B20029FFF656AFEE
:104F000038BD00BFAC0C0020005C0040D60C002077
:104F1000D80C00202C03002010030020445C00402B
:104F20002C0B002001F10051013201F5405110B568
:104F300049005208002309E0C41810F803C064783F
:104F4000013A4CEA042C21F813C00233002AF3D1B1
:104F500010BD01F10051013201F5405149005208E4
:104F6000002305E031F813C0013A20F803C00233F2
:104F7000002AF7D17047800000F1804000F5B8406A
:104F8000026848F68F1302EA03030B43036070477D
:104F9000800000F1804000F5B840026848F6BF7319
:104FA00002EA030311F0100F18BF83F0100311F091
:104FB000200F18BF83F0200303607047800000F1CA
:104FC000804000F5B84002684BF68F7302EA030395
:104FD00011F4805F18BF83F4805311F4005F18BF91
:104FE00083F4005303607047800000F1804000F5B7
:104FF000B84002684BF68F7302EA030383F4405310
:1050000003607047800000F1804000F5B8400268FE
:1050100048F68F6302EA030303607047800000F1E3
:10502000804000F5B840036813F4804F07D0026851
:1050300048F68F7302EA030343F48043036070472A
:10504000800000F1804000F5B840036813F0400F85
:1050500007D0026848F68F7302EA030343F0400367
:1050600003607047074B4FF6FE721B6801EA0202AD
:105070009BB203EBC00303F1005303F540535B0005
:105080001A607047505C0040064B074A1B689BB291
:1050900003EBC0039A184FF6FE73520001EA0303B4
:1050A00013607047505C004004300020054B1B68C3
:1050B0009BB203EBC00303F1005303F540535B00C5
:1050C00018887047505C0040044B054A1B689BB22F
:1050D00003EBC0039A18520010887047505C0040E0
:1050E00004300020044B054A1B689BB203EBC0034D
:1050F0009A18520011607047505C00400230002046
:105100000D4B1A680D4B92B2D31803EBC0035B0032
:105110003E2909D94A0911F01F0F01D1013A92B273
:10512000920242F4004205E04A0811F0010F18BF54
:10513000013292021A607047505C00400630002035
:10514000054B064A1B689BB203EBC0039A1852003A
:1051500010688005800D7047505C004006300020CC
:10516000C3B2000A40EA03207047000000000000BC
:10517000012007E0022005E0032003E0042001E015
:105180000520FFE70D4A0121116072B60C4A00218B
:105190001160074902B4084902B486B005498E4639
:1051A000704700BFAFF30080AFF30080AFF3008023
:1051B00000000061F9FFFFFFE13C000814ED00E092
:1051C00010E000E0AFF30080AFF30080AFF30080A9
:1051D00070B505460E46002403E02B6828461B6880
:1051E0009847315D01340029F7D170BDF8B5044608
:1051F0000D461746002606E02368A95D1B68204679
:1052000098470136013F002FF6D1F8BD10B5FEF7E3
:1052100083F80220FEF776F84FF4E01202204FF4F4
:105220008031FEF71DFA00200146FEF709FA012041
:105230004FF48061FEF704FA02200021FEF700FA25
:1052400000210D48FEF7E4F80C48FEF7A3FAFEF73C
:10525000A7F8FEF792F84FF400410420FEF7F0F9AA
:105260000748FDF763FF0748FEF7CCFAFEF738FF63
:10527000BDE8104000F004B9003000083F190100FB
:1052800095520008D352000801EBC000800000F1E5
:105290008440704770B50446FDF76DFF20464FF41B
:1052A0006021FDF73BFF2668142108363046FFF7E2
:1052B000EBFF0125002105603046FFF7E5FF0560A3
:1052C0002046FDF768FF20460521BDE87040FDF748
:1052D0003BBF70B506460468FEF76EFB35680021DB
:1052E0002846FFF7D1FF00238022036022607F3A27
:1052F000A2622361E3607379626113B193422DD19D
:1053000002E04FF4004363644FF6FF73EB62002248
:10531000012303F0010CCCF1010C4FEACC0C5FFA35
:105320008CFCFF2404FA0CF44FF0680E0EFA0CFC0F
:1053300005F1340148F6FF708850581005F1180146
:1053400000F0010051F82060013326EA040444EA29
:105350000C040432052B41F82040DAD12846002104
:10536000FFF792FF0123036070BD00003B4B3C49F7
:105370001A6808683B4B10B558605861586258630A
:1053800039483A4900683A4C5866586709682468B1
:105390001A6099601A6199611A6299621A63996335
:1053A0001A6499641A6599651A6699661A67996705
:1053B000C3F88020C3F89020C3F8A020C3F884402D
:1053C000C3F89440C3F8A440C3F8B020C3F8C02089
:1053D000C3F8D020C3F8E020C3F8F020254AC3F872
:1053E00008111268C3F81811C3F80021C3F810217E
:1053F000C3F82021C3F83021C3F84021C3F850215D
:10540000C3F86021C3F87021C3F88021C3F890214C
:10541000C3F8A021C3F8B021C3F8C021C3F8D0213C
:10542000C3F8E021C3F8F0211349144AC3F8B4408B
:10543000C3F80401C3F8140109681268C3F86411C1
:10544000C3F87411C3F88411C3F89411C3F800228F
:10545000C3F81022C3F8202210BD00BF1CC60008EC
:105460008C010020A40300209001002014000020E3
:105470008801002020C600089401002024C60008EE
:10548000034B5A6822F0E06242F080625A60704733
:1054900000000140014B0360704700BFF8C70008DF
:1054A000F8B504461F460D461646FFF7F3FF044BBA
:1054B00065602360069B2672E36067722046F8BD34
:1054C00010C8000813B544688DF80410204601A9DF
:1054D0000122FEF723FB0028F8D01CBD13B50D4BAD
:1054E000092200930C4B0D4C19680D480A23FFF755
:1054F000D7FF0C4B00941968022203230A48FFF7D8
:10550000CFFF0A4B009419681A221B230848FFF7A3
:10551000C7FF1CBD00A24A04E4010020005125027F
:10552000540B0020E8010020640B0020EC01002057
:10553000740B002030B5042985B004460D4604D90B
:105540000C482D210C4AFEF7EFFB0C4B20461B6844
:1055500000930B4B1B6801930A4B1B6802930A4B89
:105560001B68039304AB03EB850555F8143C2360DB
:1055700005B030BD20C80008E1C600088801002041
:105580008C010020900100209401002010B5012121
:105590000848FFF7CFFF02210748FFF7CBFF0321A1
:1055A0000648FFF7C7FF06480421BDE81040FFF793
:1055B000C1BF00BF840B0020880B00208C0B002093
:1055C000900B002010B50446FFF764FF014B204606
:1055D000236010BD48C8000807B502AA02F8041DE0
:1055E000036811469B68012298470EBD2DE9F845D6
:1055F0000C469046FEF77EFCF8B1FEF771FCE0B178
:10560000B4B9BDE8F885DAF800702E46454514D2E5
:10561000DFF82CA0DAF80030DB1B312B0DD8601935
:10562000C5EB0801FEF79EFC2D18AE42EBD102E05F
:10563000034B00261F683546E8E7BDE8F88500BF44
:10564000D80B002038B5044608460D4602F028FE67
:10565000236802469B6820462946984738BD0000CB
:105660000148FFF7AFBF00BF940B0020FEE700002A
:10567000232870B538D808291BD8DFE801F02105A8
:10568000080B0E1108141700002407221AE000244A
:10569000042217E00024224614E00024092211E02D
:1056A000002408220EE001240B220BE001240F222B
:1056B00008E00E480E4A4721BDE87040FEF734BBB3
:1056C000002403220B4B010103EB00150835CE1813
:1056D000C8582979FDF726FE706828B169792246F5
:1056E000BDE87040FEF794B970BD00BF58C800080F
:1056F000E1C60008A40300200B4B1A6802221A60BE
:105700000A4B1B6813F0010FFAD1094B42221860B3
:10571000043B1A60054B1B6813F00103FAD1024ADF
:1057200001201360704700BF102002400C2002408F
:105730001420024013B58BB201930B0C0093114B54
:1057400001241A681C60104B1B6813F0010FFAD17A
:10575000009B9BB243800C4B1B6813F0010FFAD1E6
:10576000019B9BB20380084B1B6813F0010FFAD119
:10577000044B22F001021A600068401A18BF012091
:105780001CBD00BF102002400C200240014B8022B3
:105790001A60704710200240024B034A1A60034A05
:1057A0001A6070470420024023016745AB89EFCDA2
:1057B0000048704750CB0008082000F03FB80000B8
:1057C000064B07491A68096801328A421A6003DBEE
:1057D00000221A60FFF7F0BF704700BF980B00204F
:1057E000E405002010B5FEF767FB0B20002100F058
:1057F0005BF80C20002100F057F80B20002100F08E
:1058000007F80C200021BDE8104000F001B80000AE
:10581000094B021153F8223011F0FF0F00F00F0076
:105820001B6804D0012212FA00F0186170470122AF
:1058300012FA00F05861704774C800080211012183
:1058400000F00F0011FA00F0034B53F822301B68F0
:10585000DA685040D860704774C80008002305E03B
:1058600000BF00BF00BF00BF00BF01338342F7DBB2
:105870007047C000FFF7F2BF38B50546002404E0CA
:105880004FF47A70FFF7F5FF0134AC42F8DB38BD16
:10589000002305E011F803C0013A00F803C001330A
:1058A000002AF7D1704700002F2803461FDC082983
:1058B0001DD8DFE801F00705090B0D0F09111300D2
:1058C00007220CE003220AE0042208E0002206E09E
:1058D000092204E0082202E00B2200E00F22044922
:1058E000181151F8200003F00F01FDF71BBD7047A0
:1058F00074C8000801384B42411803EA01007047A0
:1059000008B5094A094B0A481A600A4A0A4B801826
:10591000C01A4FF48061FFF7EDFF084B00221860BA
:10592000074B1A6008BD00BF00300008EC050020DE
:10593000F80A002068CB000800000020E8050020DD
:10594000A00B0020064B1B68984201DA012070472B
:10595000044B1B689842B4BF00200120704700BF71
:10596000EC050020E805002050F8043DB3F1FF3FAE
:10597000FAD0704770B50C4C6FF05C0363700B4B42
:105980000B485B78012500266371A570E5702671D0
:10599000A060FFF7E9FF074BE0601A681E60064B46
:1059A00022611D7070BD00BFE00C0020240D00209E
:1059B000000001089C0B0020620D002030B5184B40
:1059C0005A789878012A0DD0022A1AD05A680023F2
:1059D00004E01349C918097A99540133D9B28142B4
:1059E000F7D330BD5C681A46002107E01589C3EB88
:1059F000020C02312CF80450C9B202328142F5D3B4
:105A000030BD5C681A46002107E09568C3EB020CC4
:105A100004314CF80450C9B204328142F5D330BD90
:105A2000240D002008B5804708BD00000A4B6FF028
:105A300055021A70094A1278A02A02D19E3A5A7069
:105A400005E001225A70064A126812789A70054BD6
:105A500001221A70704700BFE00C0020640D002086
:105A60001C0D0020620D0020044B054A598811705E
:105A70005A68044B1A60FFF7D9BF00BF240D0020FD
:105A8000640D00201C0D002038B505460C4600F0C2
:105A90009CF9002801DC002403E02846214600F0A0
:105AA00096F9204638BD38B505460C46FFF788FE06
:105AB00028462146FFF7E8FF0028F7D038BD10B58B
:105AC0000C4600F04FF9204610BDFFF7F8BF00006C
:105AD00010B51A4B59885A783C2904DD5868BDE83E
:105AE0001040FFF7F2BF012A0DD0022A5A6816D0E3
:105AF000002305E013F802C0114803F800C0013389
:105B00008B42F7DB13E05A68002305E033F802C04C
:105B10000B4823F800C002338B42F7DB07E0002379
:105B200003E09C5806481C5004338B42F9DB0448C0
:105B30003C21BDE81040FFF7C2BF00BF240D00208C
:105B4000E00C002010B5044B586800F071F90020FB
:105B5000BDE8104000F030B9240D002010B5044617
:105B600029B1FFF73FFE4FF49660FFF785FE204610
:105B7000BDE81040FFF756BF30B50F4B91B05A68E3
:105B80005C880E4B1B689A4201D0FEF7A9F80B4BBC
:105B90001A6801323B2C1A600CDD3C2503E03C2CDA
:105BA000B4BF25463C2568462946641BFFF77BFFAA
:105BB000002CF4DC11B030BD240D0020A00B00201F
:105BC0002DE9F84503310026044692464FEAA10824
:105BD000054637460DE02846FFF7B4FE38B1C4EB62
:105BE0000A0328465959FFF7A5FD00B101370435CE
:105BF00001364645EFDB3846BDE8F8852DE9F0452E
:105C0000154A91B054885568302C09DC134E28464B
:105C1000214608323768FFF7D3FFC019306017E01C
:105C20003C2CB4BF26463C2631460C4F6846FFF755
:105C30003AFF284631466A46D7F80080FFF7C0FF92
:105C4000A41B4044002CEA46386001DDAD19E7E7AB
:105C500011B0BDE8F08500BF240D00209C0B002092
:105C6000034B5B880BB1FFF791BDFFF795BD00BFFC
:105C7000240D002010B5064B5C682046FFF762FE3D
:105C800020B12046BDE81040FFF736BD10BD00BF73
:105C9000240D002010B5204B204A1B781370013BC7
:105CA0000D2B28D8DFE803F02227270A070D1C1345
:105CB00027161F252719FFF70BFF1CE0FFF77EFEB5
:105CC00019E0154B58685988FFF748FF13E0FFF7B4
:105CD000D1FF10E0FFF792FF0DE0FFF7C1FF0AE0F0
:105CE000FFF7C2FE07E0FFF747FF04E0FFF742FEC1
:105CF00001E0FFF727FF0A4C237863B107483C21F6
:105D0000FFF7DDFE00232370064B1B781BB1BDE8B7
:105D10001040FFF78BBE10BD240D0020E00C0020CA
:105D2000620D0020640D002000B591B0FFF740FD2A
:105D3000FFF7E6FD3C2101A8FFF7B5FE00280CDBCC
:105D40009DF80430012B08D10DF105013B220448D8
:105D5000FFF79EFDFFF79EFFECE711B000BD00BF0F
:105D6000240D00202DE9F84507468846FEF7C2F8C5
:105D7000E8B1FEF7B5F8D0B1CFB10E4B00251E68E3
:105D800007E03819C4EB0801FEF7ECF82418A54227
:105D900001D12C4602E0DAF800602546444506D2DF
:105DA000DFF810A0DAF800309B1B312BE9D9BDE8F1
:105DB000F88500BFD80B002007B502AB03F8040D2F
:105DC00018460121FFF7CEFF0EBDFEF783B870B570
:105DD0000E46054608B904460CE0002408E0FFF72B
:105DE000F4FF0028FBD02819311BFEF78BF824188C
:105DF000B442F4D3204670BD07B5FFF7E6FF08B9FB
:105E0000013805E001A80121FFF7E1FF9DF804003A
:105E10000EBD08B5FFF7F0FF002805DAFFF7D0FC4C
:105E20002820FFF71BFDF5E708BD0000000000007B
:105E300070B5234802F03EF81FA3D3E900232148A0
:105E400001F02EFF0025204B20481B682024996874
:105E500001F018FA1C4B1868826891680139002912
:105E6000916011DA9669B1420ADB12681470186801
:105E70008268136819780A2903D0013313600AE095
:105E8000214603F0DDFE06E0126814701B689B6873
:105E90001A6801321A600134522CDBD10A4B0135E9
:105EA0001B680A209968ADB201F056F9102DCAD1CD
:105EB00070BD00BFAFF30080182D4454FB21094092
:105EC00088C8000894C80008F0050020A0C8000891
:105ED000FFF79CB908B5FFF79CFFAA28FBD1FFF795
:105EE00098FF5528F7D1FFF71FFFF4E7082000219E
:105EF000FFF7BEBB08B5FFF7F9FFFFF7EBFFFCE7C5
:105F000081F0004102E000BF83F0004330B54FEA6A
:105F100041044FEA430594EA050F08BF90EA020FD7
:105F20001FBF54EA000C55EA020C7FEA645C7FEA6A
:105F3000655C00F0E2804FEA5454D4EB5555B8BF8D
:105F40006D420CDD2C4480EA020281EA030382EAFE
:105F5000000083EA010180EA020281EA0303362D90
:105F600088BF30BD11F0004F4FEA01314FF4801C63
:105F70004CEA113102D0404261EB410113F0004F75
:105F80004FEA03334CEA133302D0524263EB43032C
:105F900094EA050F00F0A780A4F10104D5F1200ECA
:105FA0000DDB02FA0EFC22FA05F2801841F1000125
:105FB00003FA0EF2801843FA05F359410EE0A5F1F9
:105FC00020050EF1200E012A03FA0EFC28BF4CF02A
:105FD000020C43FA05F3C01851EBE37101F00045E0
:105FE00007D54FF0000EDCF1000C7EEB00006EEBED
:105FF0000101B1F5801F1BD3B1F5001F0CD3490877
:106000005FEA30004FEA3C0C04F101044FEA4452CD
:1060100012F5800F80F09A80BCF1004F08BF5FEA54
:10602000500C50F1000041EB045141EA050130BD34
:106030005FEA4C0C404141EB010111F4801FA4F1D7
:106040000104E9D191F0000F04BF01460020B1FA2C
:1060500081F308BF2033A3F10B03B3F120020CDA64
:106060000C3208DD02F1140CC2F10C0201FA0CF042
:1060700021FA02F10CE002F11402D8BFC2F1200CA7
:1060800001FA02F120FA0CFCDCBF41EA0C0190405D
:10609000E41AA2BF01EB0451294330BD6FEA0404A6
:1060A0001F3C1CDA0C340EDC04F11404C4F1200291
:1060B00020FA04F001FA02F340EA030021FA04F3A3
:1060C00045EA030130BDC4F10C04C4F1200220FAFA
:1060D00002F001FA04F340EA0300294630BD21FA38
:1060E00004F0294630BD94F0000F83F4801306BFFE
:1060F00081F480110134013D4EE77FEA645C18BFF2
:106100007FEA655C29D094EA050F08BF90EA020F88
:1061100005D054EA000C04BF1946104630BD91EA80
:10612000030F1EBF0021002030BD5FEA545C05D183
:106130004000494128BF41F0004130BD14F58004C2
:106140003CBF01F5801130BD01F0004545F0FE4136
:1061500041F470014FF0000030BD7FEA645C1ABF6B
:10616000194610467FEA655C1CBF0B46024650EAA2
:10617000013406BF52EA033591EA030F41F40021CE
:1061800030BD00BF90F0000F04BF0021704730B554
:106190004FF4806404F132044FF000054FF0000129
:1061A00050E700BF90F0000F04BF0021704730B5EA
:1061B0004FF4806404F1320410F0004548BF4042BF
:1061C0004FF000013EE700BF42004FEAE2014FEA14
:1061D00031014FEA02701FBF12F07F4393F07F4FEF
:1061E00081F06051704792F0000F14BF93F07F4F21
:1061F000704730B54FF4607401F0004521F0004164
:1062000020E700BF50EA010208BF704730B54FF0E9
:1062100000050AE050EA010208BF704730B511F0EE
:10622000004502D5404261EB41014FF4806404F126
:1062300032045FEA915C3FF4DCAE4FF003025FEAA8
:10624000DC0C18BF03325FEADC0C18BF033202EB30
:10625000DC02C2F1200300FA03FC20FA02F001FA8A
:1062600003FE40EA0E0021FA02F11444C1E600BF29
:1062700070B54FF0FF0C4CF4E06C1CEA11541DBFDC
:106280001CEA135594EA0C0F95EA0C0F00F0DEF8A7
:106290002C4481EA030621EA4C5123EA4C5350EA8C
:1062A000013518BF52EA033541F4801143F48013DD
:1062B00038D0A0FB02CE4FF00005E1FB02E506F06E
:1062C0000042E0FB03E54FF00006E1FB03569CF0C3
:1062D000000F18BF4EF0010EA4F1FF04B6F5007FC9
:1062E00064F5407404D25FEA4E0E6D4146EB06063B
:1062F00042EAC62141EA55514FEAC52040EA5E50C4
:106300004FEACE2EB4F1FD0C88BFBCF5E06F1ED86D
:10631000BEF1004F08BF5FEA500E50F1000041EBA4
:10632000045170BD06F0004646EA010140EA020051
:1063300081EA0301B4EB5C04C2BFD4EB0C0541EA73
:10634000045170BD41F480114FF0000E013C00F388
:10635000AB8014F1360FDEBF002001F0004170BDAC
:10636000C4F10004203C35DA0C341BDC04F11404C5
:10637000C4F1200500FA05F320FA04F001FA05F251
:1063800040EA020001F0004221F0004110EBD3701E
:1063900021FA04F642EB06015EEA430E08BF20EA4A
:1063A000D37070BDC4F10C04C4F1200500FA04F3ED
:1063B00020FA05F001FA04F240EA020001F000417F
:1063C00010EBD37041F100015EEA430E08BF20EAF2
:1063D000D37070BDC4F1200500FA05F24EEA020E3A
:1063E00020FA04F301FA05F243EA020321FA04F069
:1063F00001F0004121FA04F220EA020000EBD37020
:106400005EEA430E08BF20EAD37070BD94F0000F1F
:106410000FD101F00046400041EB010111F4801F53
:1064200008BF013CF7D041EA060195F0000F18BF04
:10643000704703F00046520043EB030313F4801F40
:1064400008BF013DF7D043EA0603704794EA0C0FFA
:106450000CEA135518BF95EA0C0F0CD050EA410610
:1064600018BF52EA4306D1D181EA030101F000418D
:106470004FF0000070BD50EA410606BF10461946B5
:1064800052EA430619D094EA0C0F02D150EA0136C1
:1064900013D195EA0C0F05D152EA03361CBF104602
:1064A00019460AD181EA030101F0004141F0FE41A1
:1064B00041F470014FF0000070BD41F0FE4141F425
:1064C000780170BD70B54FF0FF0C4CF4E06C1CEA25
:1064D00011541DBF1CEA135594EA0C0F95EA0C0FDA
:1064E00000F0A7F8A4EB050481EA030E52EA033595
:1064F0004FEA013100F088804FEA03334FF08055B6
:1065000045EA131343EA12634FEA022245EA1115E2
:1065100045EA10654FEA00260EF000419D4208BF93
:10652000964244F1FD0404F5407402D25B084FEA40
:106530003202B61A65EB03055B084FEA32024FF4EC
:1065400080104FF4002CB6EB020E75EB030E22BF49
:10655000B61A754640EA0C005B084FEA3202B6EB09
:10656000020E75EB030E22BFB61A754640EA5C00B8
:106570005B084FEA3202B6EB020E75EB030E22BF48
:10658000B61A754640EA9C005B084FEA3202B6EB49
:10659000020E75EB030E22BFB61A754640EADC0008
:1065A00055EA060E18D04FEA051545EA16754FEA6A
:1065B00006164FEAC30343EA52734FEAC2025FEA88
:1065C0001C1CC0D111F4801F0BD141EA00014FF017
:1065D00000004FF0004CB6E711F4801F04BF0143E8
:1065E0000020B4F1FD0C88BFBCF5E06F3FF6AFAE04
:1065F000B5EB030C04BFB6EB020C5FEA500C50F194
:10660000000041EB045170BD0EF0004E4EEA113116
:1066100014EB5C04C2BFD4EB0C0541EA045170BD1D
:1066200041F480114FF0000E013C90E645EA060E61
:106630008DE60CEA135594EA0C0F08BF95EA0C0F8F
:106640003FF43BAF94EA0C0F0AD150EA01347FF4D7
:1066500034AF95EA0C0F7FF425AF104619462CE7AE
:1066600095EA0C0F06D152EA03353FF4FDAE104611
:10667000194622E750EA410618BF52EA43067FF462
:10668000C5AE50EA41047FF40DAF52EA43057FF4F2
:10669000EBAE12E74FF0FF3C06E000BF4FF0010CFD
:1066A00002E000BF4FF0010C4DF804CD4FEA410C61
:1066B0007FEA6C5C4FEA430C18BF7FEA6C5C1BD02E
:1066C00001B050EA410C0CBF52EA430C91EA030FAF
:1066D00002BF90EA020F0020704710F1000F91EA0C
:1066E000030F58BF994208BF90422CBFD8176FEADA
:1066F000E37040F0010070474FEA410C7FEA6C5CA8
:1067000002D150EA013C07D14FEA430C7FEA6C5CAE
:10671000D6D152EA033CD3D05DF8040B704700BFDA
:106720008446104662468C461946634600E000BF28
:1067300001B5FFF7B7FF002848BF10F1000F01BDFA
:106740004DF808EDFFF7F4FF0CBF012000205DF8C5
:1067500008FB00BF4DF808EDFFF7EAFF34BF01204A
:1067600000205DF808FB00BF4DF808EDFFF7E0FFE3
:1067700094BF012000205DF808FB00BF4DF808ED34
:10678000FFF7CEFF94BF012000205DF808FB00BF9B
:106790004DF808EDFFF7C4FF34BF012000205DF87D
:1067A00008FB00BF4FEA410212F5001215D211D5C5
:1067B0006FF47873B3EB625212D94FEAC12343F0FE
:1067C000004343EA505311F0004F23FA02F018BF80
:1067D000404270474FF00000704750EA013005D149
:1067E00011F0004008BF6FF0004070474FF000000C
:1067F000704700BF4BB942B9002908BF002802D03A
:106800004FF0FF31084600F037B882B0EC462DE972
:10681000005000F005F8DDF804E002B00CBC704751
:10682000F8B514461D4606460F4600F0D9F900FBA0
:1068300005F5A0FB042304FB0154E318B61A67EB2B
:106840000307069BC3E90067F8BD00BFF8B514460F
:106850001D4606460F4600F011F800FB05F5A0FBAB
:10686000042304FB0154E318B61A67EB0307069BE5
:10687000C3E90067F8BD00BF704700BF00292DE9DC
:10688000F04F85B0C0F2C8800026002BC0F2BF8058
:106890008946144605469B46002B4AD18A4257D961
:1068A000B2FA82F353B1C3F1200001FA03F925FAD9
:1068B00000F812FA03F49D4048EA0909270C4846FB
:1068C00039461FFA84FB00F00BFB394682464846E6
:1068D00000F034FC2A0C0BFB0AF342EA01494B4559
:1068E00009D919EB04090AF1FF3A04D24B4584BFD8
:1068F0000AF1FF3AA144C3EB090939464846ADB253
:1069000000F0EEFA39468046484600F017FC0BFBD3
:1069100008FB45EA0145AB4507D92D1908F1FF38B9
:1069200003D2AB4588BF08F1FF3848EA0A48002780
:1069300003E08B4257D90027B84642463B4616B182
:10694000524263EB43031946104605B0BDE8F08F91
:1069500022B91146012000F0C3FA0446B4FA84F8C3
:10696000B8F1000F5ED1C4EB0908270C1FFA84F9B7
:10697000012102913946404600F0B2FA394682467A
:10698000404600F0DBFB4FEA154809FB0AF348EAF2
:10699000014B5B4509D91BEB040B0AF1FF3A04D20A
:1069A0005B4584BF0AF1FF3AA344C3EB0B0B3946A6
:1069B0005846ADB200F094FA39468046584600F089
:1069C000BDFB09FB08F945EA0145A94507D92D1981
:1069D00008F1FF3803D2A94588BF08F1FF3848EA1B
:1069E0000A48029FA9E7B3FA83F7002F68D18B42C8
:1069F0002CBF4FF000094FF0010982428CBF4C467A
:106A000049F00104002C96D04FF0010895E752425E
:106A100063EB4303F6433BE7404261EB41014FF038
:106A2000FF3632E704FA08F4C8F1200735FA07F315
:106A300029FA07FA270C09FA08FB3946504643EAB7
:106A40000B02029200F04CFA39461FFA84F9834691
:106A5000504600F073FB029809FB0BF2030C43EA6B
:106A600001439A4204D91B190BF1FF3BC0F0B180DE
:106A70009B1A39461846019300F032FA0199824672
:106A80000846394600F05AFBDDF808C009FB0AF356
:106A90001FFA8CF040EA0142934208D912190AF118
:106AA000FF3A04D2934284BF0AF1FF3A121905FA61
:106AB00008F54AEA0B4EC3EB0208CDF808E059E7A7
:106AC000C7F1200003FA07FAC24035FA00F342EAA0
:106AD0000A0B21FA00F801FA07F940464FEA1B4A6F
:106AE00043EA0901029151461FFA8BF2039200F02A
:106AF000F7F951468146404600F020FB039BDDF844
:106B000008C003FB09F24FEA1C4014FA07F340EAFD
:106B10000144A24204D914EB0B0409F1FF3952D30A
:106B2000A41A51462046019300F0DAF951468046F6
:106B3000204600F003FB0398DDF808C000FB08F2D4
:106B40001FFA8CF343EA0140019B824204D910EB07
:106B50000B0008F1FF3830D348EA09481FFA83FCDC
:106B60001B0C801A1FFA88FE4FEA184A0CFB0EF91C
:106B70000CFB0AFC03FB0EC103FB0AF201EB1941FB
:106B80008C4588BF02F5803202EB114E704510D360
:106B90001FFA89F905FA07F709EB014014BF002233
:106BA000012287422CBF002702F00107002F3FF48B
:106BB000C4AE08F1FF380027BFE6824284BF5844C4
:106BC00008F1FF38C8E7A24284BF09F1FF395C44ED
:106BD000A6E79A4284BF0BF1FF3B1B1948E700BFB1
:106BE0002DE9F04F0C4683B08046164689461F4675
:106BF00015468A46002B4BD18A425CD9B2FA82F301
:106C00005BB1C3F1200001FA03FA28FA00F216FA88
:106C100003F508FA03F842EA0A0A2E0C50463146F8
:106C2000AFB200F05DF931464FEA18448146504654
:106C300000F084FA07FB09F344EA014A534509D9F5
:106C40001AEB050A09F1FF3904D2534584BF09F153
:106C5000FF39AA44C3EB0A0A314650461FFA88F8A6
:106C600000F03EF931460446504600F067FA07FB53
:106C700004F748EA0148474506D9013C18EB0508E6
:106C800002D2474588BF013C44EA094400265CE043
:106C90008B4258D8B3FA83F6002E5BD18B422CBFBF
:106CA0000022012285428CBF154642F00105002DCD
:106CB00049D0012449E022B91146012000F010F921
:106CC0000546B5FA85F6002E40F0BA80641B2F0CFD
:106CD0001FFA85FA01263946204600F001F93946A7
:106CE0004FEA184B8146204600F028FA0AFB09F3C8
:106CF0004BEA014B5B4509D91BEB050B09F1FF3949
:106D000004D25B4584BF09F1FF39AB44C3EB0B0BE5
:106D1000394658461FFA88F800F0E2F8394604462A
:106D2000584600F00BFA0AFB04FA48EA0148C2454B
:106D300006D9013C18EB050802D2C24588BF013CC8
:106D400044EA094401E0002634463146204603B0B7
:106D5000BDE8F08FC6F12000B34032FA00F721FA07
:106D600000FB1F4314FA06F228FA00F158464FEAD6
:106D7000174A114300915146BBB2019300F0B0F89D
:106D80005146B5408146584600F0D8F9019C00981C
:106D900004FB09F34FEA104C4CEA014B5B4505D963
:106DA0001BEB070B09F1FF39C0F08E80C3EB0B0B17
:106DB0005146584600F094F851460446584600F0B3
:106DC000BDF90198009A00FB04F31FFA82FC4CEA1B
:106DD0000142934206D9013CD21903D2934201D910
:106DE000D219013C44EA0944A8B2D21A2D0C1FFA68
:106DF00084FC230C00FB0CF700FB03FE05FB0CE1FD
:106E000005FB03F501EB17418E4588BF05F580357D
:106E100005EB1145AA4210D3BFB208FA06F607EBFC
:106E2000014214BF4FF0000E4FF0010E96422CBFEE
:106E300000260EF00106002E87D0013C002684E7D4
:106E4000B540C6F1200124FA01F928FA01F22F0C0D
:106E5000B440394648462243009200F041F8394692
:106E60001FFA85FA8346484600F068F9009B1A0C21
:106E70000AFB0BF342EA0144A34203D964190BF164
:106E8000FF3B27D3E41A3946204600F029F839465B
:106E90008146204600F052F900980AFB09F31FFAD8
:106EA00080FC4CEA0144A34208D9641909F1FF3976
:106EB00004D2A34284BF09F1FF39641908FA06F825
:106EC000E41A49EA0B4606E75B4584BF09F1FF393E
:106ED000BB446BE7A34284BF0BF1FF3B6419D1E7CE
:106EE0004A1E08BF7047C0F02481884240F21681D4
:106EF000114200F01781B0FA80F3B1FA81F2A2EBEF
:106F00000303C3F11F0304A202EB03134FF00002BB
:106F10009F4600BFAFF30080B0EBC17F00BF42EBE4
:106F2000020228BFA0EBC170B0EB817F00BF42EB33
:106F3000020228BFA0EB8170B0EB417F00BF42EBA3
:106F4000020228BFA0EB4170B0EB017F00BF42EB13
:106F5000020228BFA0EB0170B0EBC16F00BF42EB93
:106F6000020228BFA0EBC160B0EB816F00BF42EB13
:106F7000020228BFA0EB8160B0EB416F00BF42EB83
:106F8000020228BFA0EB4160B0EB016F00BF42EBF3
:106F9000020228BFA0EB0160B0EBC15F00BF42EB73
:106FA000020228BFA0EBC150B0EB815F00BF42EBF3
:106FB000020228BFA0EB8150B0EB415F00BF42EB63
:106FC000020228BFA0EB4150B0EB015F00BF42EBD3
:106FD000020228BFA0EB0150B0EBC14F00BF42EB53
:106FE000020228BFA0EBC140B0EB814F00BF42EBD3
:106FF000020228BFA0EB8140B0EB414F00BF42EB43
:10700000020228BFA0EB4140B0EB014F00BF42EBB2
:10701000020228BFA0EB0140B0EBC13F00BF42EB32
:10702000020228BFA0EBC130B0EB813F00BF42EBB2
:10703000020228BFA0EB8130B0EB413F00BF42EB22
:10704000020228BFA0EB4130B0EB013F00BF42EB92
:10705000020228BFA0EB0130B0EBC12F00BF42EB12
:10706000020228BFA0EBC120B0EB812F00BF42EB92
:10707000020228BFA0EB8120B0EB412F00BF42EB02
:10708000020228BFA0EB4120B0EB012F00BF42EB72
:10709000020228BFA0EB0120B0EBC11F00BF42EBF2
:1070A000020228BFA0EBC110B0EB811F00BF42EB72
:1070B000020228BFA0EB8110B0EB411F00BF42EBE2
:1070C000020228BFA0EB4110B0EB011F00BF42EB52
:1070D000020228BFA0EB0110B0EBC10F00BF42EBD2
:1070E000020228BFA0EBC100B0EB810F00BF42EB52
:1070F000020228BFA0EB8100B0EB410F00BF42EBC2
:10710000020228BFA0EB4100B0EB010F00BF42EB31
:10711000020228BFA0EB0100104670470CBF0120FF
:1071200000207047B1FA81F2C2F11F0220FA02F08A
:10713000704708B14FF0FF30FFF79EBB0029F8D031
:107140002DE90340FFF7CCFEBDE8064002FB00F34B
:10715000A1EB0301704700BF70B540F2F055C2F2D9
:10716000000506460C46286808B18369E3B14CF671
:107170003013C0F600039C4208BF44680ED04CF6A2
:107180005013C0F600039C4208BF846806D04CF63A
:107190007013C0F600039C4208BFC4683146224603
:1071A000BDE8704000F002BE03F096FF2868DEE7FD
:1071B00010B5044682B008B18369E3B14CF63013D0
:1071C000C0F600039A4208BF62680ED04CF6501316
:1071D000C0F600039A4208BFA26806D04CF67013AE
:1071E000C0F600039A4208BFE268204602B0BDE83C
:1071F000104000F0DBBD0191009203F06DFF009A9A
:107200000199DBE730B587B004460846154604917E
:1072100001F046F804AB019301230293059003901B
:1072200014B1A369002B29D04CF63013C0F600032B
:107230009D4208BF65680ED04CF65013C0F600039F
:107240009D4208BFA56806D04CF67013C0F6000337
:107250009D4208BFE568AB892046294613F4005FCC
:1072600001BF43F40053AB816A6E22F4005301AABC
:1072700008BF6B6600F00EF807B030BD204603F083
:107280002BFFD1E740F2F0530A46C2F20003014659
:107290001868B7E72DE9F04F936885B090460C4623
:1072A0000390002B64D088891FFA80FA1AF0080F27
:1072B00000F0A0800B69002B00F09C801AF0020BFC
:1072C000D8F800501CBF4FF0000A574636D11AF0CC
:1072D000010A1DBFDC46D9465F46564652D126B349
:1072E00080B2A76810F4007F00F08F80BE42BB46DA
:1072F00080F0A78020683746B3465A46514600F0D2
:107300006FFCA2682368B146D71BA76037465B4471
:107310002360D8F80830C9EB0606CA44DF1BC8F85A
:1073200008702FB3A089002EDAD1D5F800A06E68BE
:107330000835D4E7D5F800A06F680835B7F5806F39
:1073400034BF3B464FF4806352460398002FF1D080
:10735000A66A216AB04700288244C0EB070740F3C1
:10736000EC80D8F80830181AC8F808000028E5D1D1
:10737000002005B0BDE8F08FD5F800904FF0000C6C
:107380006F680835002FF7D0BCF1000F00F0B58012
:107390006369BB4534BFDA46BA46A66820682269ED
:1073A0009E19904294BF00220122B245D4BF002210
:1073B00002F00102002A40F0AE809A45C0F28280BD
:1073C000A66A4A46CDF804C00398216AB047DDF8A2
:1073D00004C0061E40F3B180BBEB060B00F08680B4
:1073E000D8F80830B144BF1B9E1BC8F80860002EB7
:1073F000C8D1BDE70398214602F09EFC002840F06A
:10740000D480A0891FFA80FA58E72068B94623691A
:10741000984294BF00230123B7422CBF002303F0FE
:107420000103002B40F09D8063699E42C0F08C8078
:10743000A76A52460398216AB847071E7DDDB94600
:1074400067E710F4906F08BF20683FF456AF626999
:107450002169236802EB42095B1A09EBD97903F130
:10746000010CB4444FEA6909E1454A463CBFE14694
:107470004A4610F4806F00F083801146039802930F
:1074800000F0A2F8029B002800F099801A462169BA
:1074900002930190FEF7FCF9A289029BDDF804C07B
:1074A00022F4906242F08002A281C3EB09020CEB4D
:1074B00003003746B346A260C4F810C02060C4F889
:1074C00014901AE7524649465646CDF804C000F0DB
:1074D00087FBA2682368BBEB060BCAEB0202DDF850
:1074E00004C05344A26023607FF47AAF039821461E
:1074F00003F082FC08BBDC4672E748460A213A46A4
:1075000000F034FB00284BD000F1010B4FF0010CD0
:10751000C9EB0B0B3CE749463246CDF804C000F0FE
:107520005FFB2368214603989B19236003F064FCEA
:10753000DDF804C000283FF44FAFA3894FF0FF30BF
:1075400043F04003A38114E73246514600F048FB64
:10755000A26823683746921BB1469B19A26023603C
:10756000D7E651463A4600F03BFB23680398214694
:10757000DB19236003F040FC00283FF4CAAEDCE7CF
:107580000398029300F09EFC029B844600288CD155
:107590002169039803F024FE03990C230B60CCE7C8
:1075A00007F1010B4FF0010CF2E603990922A389C0
:1075B0004FF0FF3043F040030A60A381D9E6039AFD
:1075C0000C231360B9E700BF2DE9F04F01F10B0464
:1075D000162C83B006462FD8002310248C422CBFD3
:1075E000194643F00101002930D1304600F054FB28
:1075F000B4F5FC7F2ED24FEAD40E40F2E465C2F21D
:10760000000505EBCE02D368934200F006825A686B
:1076100003F10805D968304622F0030C9A686344E8
:107620005C688A6044F00104D1605C6000F036FB65
:10763000284603B0BDE8F08F24F00704E30F8C4226
:107640002CBF194643F001010029CED00C230025A0
:107650003360EDE75FEA542E04BF4FEAD40E4FEAE1
:10766000CE0040F0908040F2E465C2F20005281898
:10767000C368984206D10DE0002A80F26F81DB6872
:10768000984207D0596821F003010A1B0F2AF3DD45
:107690000EF1FF3E0EF1010E40F2E467C2F2000768
:1076A00007F108018B68994208BF7A6826D05A68AA
:1076B00022F0030CC4EB0C020F2A00F39481002A81
:1076C000C960896080F29980BCF5007F80F0658197
:1076D0004FEADC0C4FF0010A7A6807EBCC004FEA66
:1076E000AC0C0AFA0CFCD860D0F808804CEA020214
:1076F0007A60C3F80880C8F80C3083604FF0010C42
:107700004FEAAE030CFA03FC944500F2828012EAC1
:107710000C0F08D12EF0030E4FEA4C0C0EF1040EA4
:1077200012EA0C0FF8D007EBCE09F246C846D8F89B
:107730000C30984507D168E1002A80F27881DB6837
:10774000984500F06281586820F00300021B0F2A60
:10775000F2DD1D461F19D3F80CC044F0010E55F898
:10776000084F3046BA5042F00102C3F804E0CCF8AA
:107770000840C4F80CC08F60CF607A60B960F960CF
:1077800000F08CFA54E7BEF1040F9EBF4FEA941E3E
:107790000EF1380E4FEACE007FF665AFBEF1140F42
:1077A0009CBF0EF15B0E4FEACE007FF65CAFBEF1E0
:1077B000540F9EBF4FEA143E0EF16E0E4FEACE00FC
:1077C0007FF651AFBEF5AA7F9EBF4FEAD43E0EF1C1
:1077D000770E4FEACE007FF646AF40F254539E45F7
:1077E00095BF4FEA944E4FF47C700EF17C0E4FF033
:1077F0007E0E98BF4FEACE0035E703EB0C0203F193
:1078000008053046536843F00103536000F046FA20
:107810000EE7D7F80880D8F8043023F00309C4EB4A
:1078200009024C4594BF002301230F2AD8BF43F01F
:107830000103002B00F0A18040F6A43BD5F80824FA
:10784000C2F2000BDBF8003010331B19B2F1FF3F1E
:1078500006D003F57E631F3323F47E6323F01F03FA
:1078600019463046019300F007FD019BB0F1FF3F40
:10787000824600F0F48008EB0901814200F2EC80BE
:10788000DBF804209A185145CBF8042000F045811C
:10789000D5F8085440F2E460C2F20000B5F1FF3FB1
:1078A00008BFC0F808A403D05244511ACBF8041002
:1078B0001AF00705304617BFC5F108054FF480558B
:1078C000AA4405F5805553441B051B0DED1A2946A6
:1078D00000F0D2FCB0F1FF3F00F02C81CAEB0001B8
:1078E000491941F00101DBF8042040F6A433C7F840
:1078F00008A0C2F20003AA18B845CBF80420CAF8C1
:10790000041017D0B9F10F0F40F2DF80A9F10C017C
:10791000052521F0070108EB01000F29856045606E
:10792000D8F8040000F0010041EA0000C8F80400A3
:1079300000F2AC80D04640F6A433DBF82C10C2F243
:1079400000038A42DBF8301088BFDA6240F6A433C5
:10795000C2F200038A4288BF1A6382E05C189A6808
:10796000D9683046666803F108058A6046F001036D
:10797000D160636000F092F95AE608EB040342F02C
:10798000010244F001043046C8F8044008F108053B
:107990005A60BB6000F082F94AE64FEA5C22042A92
:1079A00054D9142A00F289805B324FEAC208A844F5
:1079B00040F2E467C2F20007D8F80800404503D15E
:1079C0006FE08068804504D0426822F0030294454D
:1079D000F7D3D0F80CC0C3F80CC098607A68C360C5
:1079E000CCF808308AE61F19304644F00104CF6015
:1079F0005C6003F10805BA5042F001028F607A60C2
:107A0000B960F96000F04AF912E60AF1010A1AF0C9
:107A1000030F5FD003F1080889E603F10802D36879
:107A20009A4208BF0EF1020E3FF436AEEFE51D4656
:107A30001918DA68304655F8083F4C68936044F0EE
:107A40000104DA604C6000F029F9F1E54FEA9C127C
:107A500038324FEAC208AAE7B8453FF411AFD7F869
:107A60000880D8F8042022F00302944294BF002337
:107A70000123121B0F2AD8BF43F00103002B3FF450
:107A80007CAF3046002500F009F9D1E508F1080186
:107A90003046019303F0A4FB019BD7F808805A6895
:107AA00049E74FF0010AD7F80480921084460AFA99
:107AB00002F248EA02027A608DE7542A24D84FEA9B
:107AC0001C326E324FEAC20871E70123D046CAF871
:107AD0000430C6E74A461EF0030F13460EF1FF3E80
:107AE00033D053F808299A42F5D07B684FEA4C0C02
:107AF0009C453FF68EAEBCF1000F3FF48AAE1CEA07
:107B0000030F27D0D6460EE6B2F5AA7F15D84FEA66
:107B1000DC3277324FEAC20849E70805000D002839
:107B20007FF4B6AED7F808804B4443F00103C8F8A1
:107B3000043000E701210025D5E640F2545082428E
:107B40000DD94FF47C787E2231E77B6823EA0C0361
:107B50007B60CBE74FEA4C0C0AF1040ACFE74FEA0F
:107B60009C427C324FEAC20821E700BF10F0030FAD
:107B7000C9B210B410D0002A2FD003788B422AD07B
:107B8000013A05E0002A28D00378013A8B4222D03E
:107B9000013010F0030FF5D1032A11D941EA012475
:107BA00044EA0444036884EA0303A3F1013C2CEA99
:107BB000030313F0803F03D1043A0430032AF1D8C1
:107BC0005AB103788B4206D0013A32B110F8013F26
:107BD000013A8B42F9D110BC70470020FBE700BF8F
:107BE00088428C4670B4054614460ED98B189842CC
:107BF0000BD242B1C2EB030C0146531E1CF803200A
:107C0000CA54013BFAD270BC70470F2A09D8002C25
:107C1000F9D000231CF80320EA540133A342F9D120
:107C2000F1E741EA000313F0030FF0D194460C464C
:107C300003462568ACF1100C1D6065685D60A568A1
:107C40009D60E5681034DD601033BCF10F0FF0D893
:107C5000103A4FEA121C0CF10105CCEB0C7C2D0103
:107C600002EB0C1601EB050C4519032E3446CED958
:107C700000235CF80320EA500433F21A032AF8D8F0
:107C8000043EB3085A1CC3EB83739200944406EB82
:107C90008304AD18BBE700BF704700BF704700BF4B
:107CA0000FB440F2F053C2F2000310B51C6882B06A
:107CB00024B1A36913B9204603F00EFA204605AC9F
:107CC000049A23468168019400F028FB02B0BDE8C5
:107CD000104004B0704700BF0EB410B5044683B026
:107CE00018B183690BB903F0F7F9204606AC059A81
:107CF00023468168019400F011FB03B0BDE81040F9
:107D000003B0704770B540F2F055C2F20005064668
:107D10000C46286810B18369002B2CD04CF6301328
:107D2000C0F600039C422ED04CF65013C0F6000360
:107D30009C4232D04CF67013C0F600039C4204BF44
:107D40002B68DC68A368013BA360002B06DB23687B
:107D50001E70236813F8010B236070BDA269934263
:107D600014DB23681E70236819780A2918D00133A0
:107D70000846236070BD03F0AFF94CF63013C0F62F
:107D800000039C42D0D12B685C68DBE72868314651
:107D90002246BDE8704001F053BF2B689C68D1E7D4
:107DA00028682246BDE8704001F04ABF70B50D4614
:107DB0001446064610B18369002B2FD04CF63013C1
:107DC000C0F600039C4208BF74680ED04CF65013F6
:107DD000C0F600039C4208BFB46806D04CF670138E
:107DE000C0F600039C4208BFF468A368013BA3608F
:107DF000002B06DB23681D70236813F8010B23603A
:107E000070BDA26993420CDB23681D70236819784A
:107E10000A290DD001330846236070BD03F05CF9D8
:107E2000CCE7304629462246BDE8704001F008BF45
:107E300030462246BDE8704001F002BF30B504462E
:107E400089B008460D4600F02BFA4CF6B8030195B0
:107E5000C0F6000303930290431C0793012304938D
:107E600001AB0593022306930CB1A369EBB140F279
:107E7000F0532046C2F200031B689B689A8912F4F3
:107E8000005F01BF42F400529A81596E21F4005202
:107E9000A16808BF5A6605AAFFF7FCF9002814BFBD
:107EA0004FF0FF300A2009B030BD204603F014F92E
:107EB000DDE700BF40F2F0530146C2F2000318684C
:107EC000BCE700BF2DE9F04F914683B007460E4650
:107ED000002900F03A81A1F1080809F10B04FFF72D
:107EE000DBFE162CD8F804100B4600F2A0801022FE
:107EF000002514464C4538BF45F00105002D40F0E3
:107F00002A8121F0030A9245A2BF4046554608F156
:107F1000080875DA40F2E46308EB0A00C2F20003D5
:107F2000D3F808E0864500F01A81D0F804C02CF0A0
:107F3000010B8344DBF804B01BF0010F7CD0AC468E
:107F4000284611F0010F40F09B8056F8081CC1EB49
:107F5000080BDBF8045025F00305002800F0DD8055
:107F6000704500F01F8105EB0A030CEB03059542F9
:107F7000B8BF1D46C0F2D28081685B46C068AAF1D6
:107F80000402242A8160C86053F8081FDBF80C0043
:107F90008160C86000F2D080132A9C4621D9314606
:107FA0000BF1100C51F8040BCBF8080070680E1D93
:107FB0001B2ACBF80C0014D94868311D0BF1180CA2
:107FC000CBF8100070680E1D242ACBF8140008D1DD
:107FD0004A680BF1200CCBF8182072680836CBF8F1
:107FE0001C20314698466246584651F8043B42F8F8
:107FF000043B7368CCF804304B685360DBF8043002
:10800000C4EB050CBCF10F0F26D8421903F0010395
:1080100043EA05054560536843F001035360384661
:108020004546FFF73BFE284603B0BDE8F08F24F03D
:1080300007042246E50F5DE72CF0030C0CEB0A0564
:108040009542FFF67EAF82680B46C168404608F154
:1080500008088A60D160D3E7011903F0010301EB3E
:108060000C0243EA04044CF0010344604B603846C0
:108070005368083143F00103536003F0B1F8CEE7D1
:1080800049463846FFF7A0FA0546002841D0D8F8FF
:108090000430A0F1080223F0010141448A4200F0BB
:1080A000D780AAF104023146242A78D8132A03463D
:1080B00021D9344654F8043B211D40F8043B031DEC
:1080C000D6F804C01B2AC5F804C014D9D4F804E0BB
:1080D0001C1D01F1040CC0F804E048680CF1040117
:1080E0005860231D242A06D1DCF8042062604A6807
:1080F00008315A60083308461A4650F8044B42F8D3
:10810000044B49685960436853603146384603F070
:1081100067F83846FFF7C2FD85E755449542AFDB67
:108120005B46DBF80C00AAF1040253F8081F242A6E
:108130008160C8607FF630AF184631469846FFF739
:108140004FFD5846DBF804305AE7114603B0BDE84E
:10815000F04FFFF739BA0C2300253B6063E7DEF8E8
:10816000045004F1100B25F0030C0CEB0A005845E9
:10817000B8BF7046FFF6E5AE08EB0402011B41F004
:1081800001019A6051603846D8F80410354601F074
:1081900001031C43C8F80440FFF780FD43E7FFF7E5
:1081A0001FFDB2E7554404F11001AC448C45B5DB2A
:1081B0005D46DBF80C00AAF1040255F8081F242ADA
:1081C0008160C8604CD8132A284624D931460BF167
:1081D000100051F804EBCBF808E0D6F804E00E1DCF
:1081E0001B2ACBF80CE016D9D1F804E0311D0BF1B5
:1081F0001800CBF810E0D6F804E00E1D242ACBF8C6
:1082000014E008D14A680BF12000CBF818207268FE
:108210000836CBF81C203146024651F804EB42F8F0
:1082200004EB76684660496851600BEB0402C4EBCE
:108230000C0141F001019A6051603846DBF80410EE
:1082400001F001031C43CBF80440FFF727FDEAE6E9
:108250005568404608F1080825F003055544CFE667
:10826000314628460093CDF804C0FFF7B9FCDDF88D
:1082700004C0009BD9E700BF38B540F6A864C2F23D
:1082800000040546084600232360FBF74DFAB0F1D1
:10829000FF3F00D038BD2368002BFBD02B6038BDDA
:1082A00020F0030110F00300C0F1000051F8043B7E
:1082B00000F1040C4FEACC0C6FF000021CBF22FA54
:1082C0000CF213434FF0010C4CEA0C2C4CEA0C4C12
:1082D000A3EB0C0222EA030212EACC1204BF51F80B
:1082E000043B0430F4D013F0FF0F1FBF013013F430
:1082F0007F4F013013F47F0F18BF0130704700BF6C
:10830000936810B5144613B95360184610BDFEF7B4
:10831000C1FF00236360A36010BD00BF2DE9F04FD3
:10832000ADF5AE6D83B00E4615469A46814603F014
:108330008DF800681D90B9F1000F04D0D9F81830FD
:10834000002B00F05A814CF63013C0F600039E4219
:1083500008BFD9F8046010D04CF65013C0F60003E3
:108360009E4208BFD9F8086007D04CF67013C0F6DB
:1083700000039E4208BFD9F80C60B6F80CC01FFA83
:108380008CF313F4005F09D14CF4005C726EA6F814
:108390000CC01FFA8CF322F40052726613F0080F1F
:1083A00001F001833269002A01F0FD8203F01A0313
:1083B0000A2B00F0E080002212921A9200231C92F5
:1083C0000DF59C641192043419920DF5A4621B936F
:1083D00004320DF59063283203331892079300237B
:1083E000CDF84C45CDF85035CDF854352B781A1EC4
:1083F00018BF0122252B0CBF002202F0010232B36C
:108400002F4617F8013F1A1E18BF0122252B0CBF5B
:10841000002202F00102002AF3D1B7EB050808BFE1
:108420003D4614D0C4F80480DDF85035DDF85425FD
:1084300001332560072B4244CDF85035CDF8542543
:1084400078DC083411983D46404411903B78002B6D
:108450007CD06B1C4FF0FF372B204FF0200C0021FD
:108460004FF000020F918DF87725CDF82CA06A7897
:108470000A915D1CA2F12003582B00F28682DFE8EE
:1084800013F0980284028402A4028402840284020B
:10849000840284028402AD02BA028402C102CA02CA
:1084A0008402E702F002F002F002F002F002F002B1
:1084B000F002F002F0028402840284028402840248
:1084C0008402840284028402840204032603840258
:1084D000260384028402840284026A0384028402E2
:1084E00081048402840284028402840214048402CB
:1084F00084022F048402840284028402840284029F
:1085000084028402840284024F0465042603260345
:1085100026037303650484028402790384028503BD
:108520009603AD030A048402CC038402F40384029C
:108530008402C0000DF5A862484631460C32FFF7B0
:10854000DFFE58B90DF59C6404347BE7DDF8543543
:10855000002B41F092810023CDF85035B38913F000
:10856000400F02D04FF0FF30119011985FB00DF521
:10857000806DBDE8F08FB6F90E30002BFFF61BAF13
:10858000376A2CF0020CD6F828E00DF58E64ADF8B1
:1085900088C40C34B6F80EC02A46534648462146D5
:1085A0001FADCDF89C740027CDF88C54CDF87C54C9
:1085B0004FF48065CDF8A4E4ADF88AC4CDF89054AA
:1085C000CDF89474CDF88454FFF7A8FE00281190DC
:1085D00009DB2146484602F00FFC1199B84218BF4A
:1085E0004FF0FF311191BDF8883413F0400FBCD02B
:1085F000B38943F04003B381B7E7484602F06CFD0E
:10860000A1E60A984CF6001CC0F6000C169210F079
:10861000200FCDF864C000F06E830B99CB1D23F0C2
:10862000070303F108020B92D3E900AB5AEA0B02ED
:108630000A9B0CBF00220122134240F06B860223EA
:108640004FF000018DF87715002FA2BFDDF828C08C
:108650002CF0800CCDF828C0002F18BF42F001028A
:10866000002A00F01E84012B00F0DE85022B00F0B2
:10867000C185189913914FEADA084FEADB0C48EAF2
:108680004B780AF00700E346C24630305AEA0B0244
:1086900001F8010DEFD1DDF828C013911CF0010F96
:1086A00040F08C861898401A10909DF87735109AF3
:1086B0001797BA42B8BF3A460C9213B10C9A0132DE
:1086C0000C920A9B0A9813F0020315931EBFDDF863
:1086D00030C00CF1020CCDF830C010F084001490C2
:1086E0004DD10F990C9A8F1A002F48DD102F4CF6A0
:1086F000BC08D8BFC0F6000830DDC0F600080DF594
:10870000A86B43464FF0100AA8460BF10C0B1D4610
:1087100002E0103F102F1EDDC4F804A0DDF8503534
:10872000DDF85425013325601032072BCDF8542590
:1087300004F10804CDF85035EBDD0DF59C64484696
:1087400031465A460434FFF7DBFD00287FF406AFBC
:10875000103F102FE0DC2B46454698466760DDF859
:108760005035C4F800805A1CDDF85435CDF850253A
:10877000DB19072ACDF8543500F38A8508349DF8B3
:1087800077359BB101236360DDF850350DF5AE629E
:1087900007322260DDF854250133CDF8503501321F
:1087A000072BCDF8542500F3B6840834159B9BB1F4
:1087B00002236360DDF850350DF5AE6204322260AD
:1087C000DDF854250133CDF850350232072BCDF8B2
:1087D000542500F3AF840834DDF850C0BCF1800F9D
:1087E00000F07683179B109A9F1A002F43DD102FFD
:1087F000DFF88C8B2EDD43460DF5A86BA8464FF0B5
:10880000100A0BF10C0B1D4602E0103F102F1EDD6D
:10881000C4F804A0DDF85035DDF854250133256097
:108820001032072BCDF8542504F10804CDF850354B
:10883000EBDD0DF59C64484631465A460434FFF79B
:108840005FFD00287FF48AAE103F102FE0DC2B463E
:10885000454698466760DDF85035DDF8542501330C
:10886000C4F80080D219072BCDF85425CDF8503527
:1088700000F342840834DDF828C01CF4807F40F007
:108880009D82109813996060DDF85035DDF854250D
:10889000013321601218072BCDF85035D8BF04F1F1
:1088A0000803CDF8542500F39B830A9911F0040FB7
:1088B00055D00F9ADDF830C0CCEB0207002F4EDD0B
:1088C000102F4CF6BC08D8BFC0F600082EDDC0F64D
:1088D00000080DF5A86A42461024A8460AF10C0AC1
:1088E000154602E0103F102F1DDD5C60DDF85025BD
:1088F000DDF8541501321D601031072ACDF85415EA
:1089000003F10803CDF85025ECDD484631465246C8
:10891000FFF7F6FC0DF59C63043300287FF41EAED0
:10892000103F102FE1DC2A46454690465F60DDF897
:108930005025C3F80080DDF854350132CDF85025BC
:10894000FB18072ACDF854350BDD0DF5A862484613
:1089500031460C32FFF7D4FC00287FF4FFADDDF880
:10896000543511980C9A0F998A42ACBF8018401860
:108970001190002B40F042830DF59C640023DDF83C
:108980002CA00434CDF8503530E51692002A3FF47F
:10899000DDAD0DF5A46001234FF0000C04300C9305
:1089A0008DF824258DF877C5139010930021179129
:1089B00087E69DF87735002B40F02B850B992B46E9
:1089C0008DF877C52A780B9153E50B990A9B43F0F4
:1089D00001030A932B462A780B914AE50B990B9ACF
:1089E00009680F91111D0F9B002BC0F280872A7818
:1089F0002B460B913DE50B992B468DF877052A7890
:108A00000B9136E50B990A9B43F004030A932B461E
:108A10002A780B912DE52B4613F8012B2A2A01F019
:108A2000CD80A2F13001092901F2378002350027FB
:108A300015F8012C07EB87072B46013501EB47079B
:108A4000A2F130010929F3D947EAE7771D4611E57C
:108A50000B992B460A9A42F080020A922A780B91CF
:108A600007E5A2F130014FF000082B4608EB88081B
:108A700013F8012B01EB4808A2F130011D4609292A
:108A8000F3D9CDF83C801D46F4E40A9B169243F0DE
:108A900010030A93DDF828C01CF0200F00F05D8160
:108AA0000B98C31D23F0070303F108010B91D3E9D1
:108AB00000ABBAF1000F7BF10002C0F29B845AEACE
:108AC0000B034FF001030CBF00220122BCE50A9802
:108AD000169210F0080F00F0ED840B99CB1D23F0D7
