:020000040800F2
:100000000050002089220008E1190008E5190008C5
:10001000E9190008ED190008F11900088522000807
:100020008522000885220008852200088522000814
:10003000852200088522000885220008790300082F
:1000400085220008852200088522000885220008F4
:1000500085220008852200088522000885220008E4
:100060008522000885220008852200087D010008FD
:100070008D0100089D010008AD010008BD010008C8
:10008000CD010008DD010008852200088522000856
:10009000090800088522000885220008852200083A
:1000A000F5030008050400081504000855040008BD
:1000B000510500084505000839050008852200089B
:1000C0008522000885220008852200088522000874
:1000D00085220008A9050008B5050008C10500082B
:1000E0008522000885220008852200080000000003
:1000F0000000000000000000000000000000000000
:1001000000000000000000000000000041524D000F
:10011000A302040543512D535441524D00000000E9
:1001200040F2E023C2F200031A780AB901201870E5
:10013000704700BF40F20000C2F2000008B503683B
:100140002BB140F20003C0F2000303B1984708BD91
:100150004A1E9200012111FA02F203685A607047A8
:1001600050F8313070B505460C4633B198472846F3
:100170002146BDE87040FFF7EBBF70BD024B012187
:100180001868FFF7EDBF00BF04000020024B0221FA
:100190001868FFF7E5BF00BF04000020024B0321F1
:1001A0001868FFF7DDBF00BF04000020024B0421E8
:1001B0001868FFF7D5BF00BF04000020024B0521DF
:1001C0001868FFF7CDBF00BF04000020024B0621D6
:1001D0001868FFF7C5BF00BF04000020024B0721CD
:1001E0001868FFF7BDBF00BF0400002001F0070C36
:1001F00070B54FEA8C0C0F25092A14BF1646082645
:1002000005FA0CF506FA0CFC0368C80853F8204000
:10021000082A24EA05054CEA050443F8204007D1E2
:10022000012010FA01F1DA6822EA0101D96070BDFB
:10023000092A05D1012010FA01F1DA681143D960C9
:1002400070BD042010B500F07BF80420BDE810401C
:1002500000F05CB810B50446007900F071F8207920
:10026000BDE8104000F052B810B50748FFF7F2FFA4
:100270000648FFF7EFFF0648FFF7ECFF0548BDE82B
:100280001040FFF7E7BF00BF4800002050000020EB
:10029000580000206000002000284FEA011106DA13
:1002A000064B00F00F00C9B2C31819767047044B13
:1002B000C9B2C31883F80013704700BFFCEC00E01C
:1002C00000E100E021F0604121F07F01014B01439A
:1002D0009960704700ED00E010B5FFF7F3FF0024D0
:1002E00060B20F210134FFF7D7FF2B2CF8D14FF06C
:1002F000FF300F21BDE81040FFF7CEBF01EBC00378
:100300009B0003F184431A60704700000A4B0B4ABC
:1003100013F8101003EB400370B552F821505C78CD
:10032000284621460122FFF7E9FF28462146002200
:10033000BDE87040FFF7E2BF70230008A423000867
:10034000054B064A13F8101003EB400352F8210046
:1003500059780122FFF7D2BF7023000864230008F8
:10036000014B07221A60704710E000E0014B586013
:10037000FFF7F6BF10E000E008B5044B1A68013241
:100380001A60034B1B6803B1984708BD4403002063
:10039000E402002041790368002201291A60DA6032
:1003A00098BF1A6270470000074B10B504461868E2
:1003B000A047064B1868A047054B1868A047054B97
:1003C0001868A04710BD00BFB8000020BC00002086
:1003D000C0000020C4000020023138B550F82130A0
:1003E0001546046823B19847236923EA050525616A
:1003F00038BD0000024B072118688022FFF7ECBFD0
:10040000B8000020024B002118680122FFF7E4BF6A
:10041000B8000020F8B50E4B1E6856F8084BE3688C
:1004200027691F4017F0400F04D0B36913B19847F4
:10043000402500E0002517F0200F04D0736913B1A8
:10044000984745F02005236923EA05052561F8BD95
:10045000B8000020F8B5164B1D6855F8086BF36816
:1004600037691F4017F0100F04D02B6913B198475C
:10047000102400E0002417F0080F04D0EB6813B13B
:10048000984744F0080417F0040F04D0AB6813B188
:10049000984744F0040417F0020F04D06B6813B1BE
:1004A000984744F00204336923EA04043461F8BD38
:1004B000B80000202DE9F041054655F8087B80463C
:1004C000FB683E691E4016F0400F04D0AB6913B1C3
:1004D0009847402400E0002416F0100F04D02B6948
:1004E00013B1984744F0100416F0080F04D0EB68DD
:1004F00013B1984744F0080416F0040F04D0AB6819
:1005000013B1984744F0040416F0020F04D06B684E
:1005100013B1984744F0020416F0010F05D0D8F843
:10052000083013B1984744F001043B6923EA0404FE
:100530003C61BDE8F0810000014B1868FFF7BABFCD
:10054000C4000020014B1868FFF7B4BFC0000020B2
:10055000014B1868FFF7AEBFBC000020436802687B
:10056000D98850689A8801F1010C944504D0B3F8F9
:1005700008C08C450AD14AB91968515C1989914261
:1005800001D1002201E0013292B29A80D9881A6822
:10059000C0B28854DA881989914201D1002201E061
:1005A000013292B2DA807047014B1868FFF7D6BF6C
:1005B00014010020014B1868FFF7D0BF180100207C
:1005C000014B1868FFF7CABF1C010020002808DB98
:1005D0004211012300F01F0013FA00F0014B43F811
:1005E0002200704700E100E0036811B140221A6167
:1005F000704740225A617047F8B5114B06211C68BC
:1006000003222046FFF7F2FD00252E460127B6F50E
:10061000007F02D14FF0FF3702E0002E08BF012714
:10062000B5F5007F01D1F6190025B542204601D26B
:10063000012100E00021FFF7D7FF0135E7E700BF08
:10064000602300080A4B4FF0FF32C3F8802010B53A
:10065000C3F884200748FFF7A7FE1320FFF7B6FF73
:100660001420FFF7B3FF62B6BDE81040FFF7C4BF28
:1006700000E100E095030008044B1A6892B242F0D2
:100680000C021A60024B03221A607047405C004063
:1006900014030020054B4FF6FB72196801EA0202B1
:1006A0001A604FF43F421A60704700BF405C004040
:1006B000072818BF204B10B51F4C18BF187023789F
:1006C000052B35D8DFE803F003070B101823FFF7DD
:1006D000E1FF062306E0FFF7DDFF042302E002232B
:1006E00063700133237010BD6378013BDBB263702C
:1006F0006378FBB9042218E0104B1A6892B242F0FA
:1007000010021A6005232370DB18637010BD637834
:10071000013BDBB26370637863B9084A4FF6EF734D
:10072000116801EA030313600622034B1A7010BD1F
:100730000623237010BD00BF48030020405C00402A
:10074000064B01221A60064A002006491860106014
:100750004FF4E0520A801A60704700BF405C0040CE
:10076000445C004080040020044B01221A60044ACB
:100770000020106003221A60704700BF405C0040F8
:10078000445C0040034B1868052814BF002001207A
:10079000704700BF14030020024B1868003818BFD0
:1007A0000120704714030020134B10B51B680C4642
:1007B0000BB100241DE03F2901D93F2400E0C1B165
:1007C000C021A2B200F0E6FF0C4B1A680C4B92B2AB
:1007D000D3185B001C60084B1A68A2181A60094BFA
:1007E00048F6BF72196801EA020282F030021A600C
:1007F0001B68204610BD00BF24030020505C004051
:100800000A300020045C0040344B354A196810B5AA
:1008100089B2118033491288098801EA020212F470
:10082000806F05D04FF6FF321A602F4B5B689847F8
:100830002B4B1A882B4B1B8803EA020212F4005F31
:1008400003D0264A4DF6FF711160254A12881340E5
:1008500013F4805F06D0214B4EF6FF721A60002021
:10086000FFF726FF1E4B1F4A1B88128802EA03036C
:1008700013F4006F05D0FFF7FFFE184B4FF2FF7225
:100880001A60174B1A88174B1B8803EA020212F4EE
:10089000007F07D0114A4FF6FF511160134A1168CB
:1008A000013111600E4A1288134013F4807F06D084
:1008B0000A4B4FF6FF621A600720FFF7F9FE084B5C
:1008C000084A1B88128802EA030313F4004F03D07E
:1008D000BDE8104000F0A0BE10BD00BF445C004069
:1008E0001003002080040020100200200C030020D0
:1008F00007B514238DF80430143B8DF805308DF8BE
:10090000063001A801338DF8073000F0F5F90EBD6F
:10091000036819B14FF480421A6170474FF4804266
:100920005A6170470A4B10B51C680E2120460722F9
:10093000FFF75CFC074B2046DA69002142F4000215
:10094000DA61FFF7E5FFBDE8104000F049BE00BFE7
:100950005C23000800100240014B00221A6070471F
:1009600024030020034B1868034B1B68C01AC0B255
:10097000704700BF2C0300202803002070470000B0
:1009800020B9034B4FF008021B681A8201487047D8
:100990007C040020CC0200207047704708B50C4B47
:1009A0001A68137803F07F03212B0ED1202801D081
:1009B00021280AD1074B4FF000011870064B5182D5
:1009C000936100209847002008BD022008BD00BFA9
:1009D0007C0400202103002081090008154B1B68BE
:1009E0001A7802F07F02212A21D102281DD0222864
:1009F0001DD1D878104B00F0030018700F4B1B78F6
:100A0000032B12D8DFE803F00802080810F00100F9
:100A10000A4B08D1022204E010F00100074B02D17A
:100A200003221A70704701221A70002070470220BA
:100A3000704700BF7C040020180300202003002022
:100A400019B9012801D808467047022070470000F4
:100A5000034B1B689B7A13B1024B05221A60704747
:100A60007C04002014030020014B04221A6070470C
:100A700014030020054B1B68DB78022B01D90020F2
:100A80007047034901EBC30100F07ABA7C040020EF
:100A9000B4020020014900F073BA00BFA002002098
:100AA000014900F06DBA00BFAC02002038B50C4619
:100AB0000546FFF757FF134BA04238BF04461B689B
:100AC000002206E01049C95C0133A95403F0FF037A
:100AD0000132A242F6D30B4A0C4D13602B7873B14E
:100AE000FFF740FFBF280AD80320402100F040FF55
:100AF00003204FF4405100F099FE00232B70204654
:100B000038BD00BF280300204C0300202203002032
:100B100038B53D4B6FF03F021B6800245A723B4AC8
:100B20009C723B4B1460186848F68F1100EA010173
:100B300041F400711960186848F6BF7100EA0101BC
:100B400081F0100119601168324B89B2CB18402531
:100B50005B001D60136880229BB203F1005303F514
:100B600040535B001A60204600F084FE2A4B20466A
:100B70001B6893F82C1000F0FBFE204600F06CFE82
:100B800002204FF4C06100F02EFE02204FF480716D
:100B900000F0A0FE0220202100F032FE02202146BB
:100BA00000F044FE0320214600F01DFE03204FF418
:100BB000887100F0A1FE0320294600F0D9FE032031
:100BC0004FF4405100F032FE0120214600F00BFEB0
:100BD0000120C02100F07EFE0120202100F010FE47
:100BE0000120214600F022FE0C4B01221A60204613
:100BF00000F0D4F90A4B1C600A4B1C600A4B1D60C4
:100C00000A4B1C6038BD00BF7C040020505C0040D3
:100C1000005C004004300020540400201403002035
:100C2000300300201C030020A80200202403002021
:100C3000094B10B51B6800249C72FFF781FD074B20
:100C4000074A1C604FF43F431380064A1360FFF7C6
:100C50004FFE054B1C6010BD7C040020445C00402E
:100C600080040020405C00401403002010B50320E5
:100C700090B000F09DFE4FF400510446032000F0B8
:100C8000D5FD224668464FF4887100F09AFD164B58
:100C900000221B680BE015491DF80200C8541449D6
:100CA0000133096803F0FF038B4202D00132A242F4
:100CB000F1D30D4A0F4C13600D4B12681B68D31A09
:100CC00003F0FF03BF2B0AD80320402100F050FEA1
:100CD00003204FF4405100F0A9FD002300E0012360
:100CE000237010B010BD00BF2C0300204C03002067
:100CF0002803002022030020184B30B5DB6844781D
:100D0000DB4303F4E0631B0AC3F1040214FA02F2AA
:100D10000F24DC40817803780C40144303F0030C6B
:100D20004FEACC0C2401FF2004FA0CF400FA0CF07A
:100D30000B4A9908C03152F8215025EA000C04EA08
:100D4000000040EA0C0042F821005909012003F09C
:100D50001F0310FA03F342F8213030BD00ED00E02C
:100D600000E100E010B5074C20B922684FF0010106
:100D7000118210BD044B1B681B68984720680A301D
:100D800010BD00BF7C0400207804002010B50A4B81
:100D90000A491B684978DA7891420AD3997841B9AF
:100DA0009C8834B99A72064B1B685B68984720464A
:100DB00010BD022010BD00BF7C0400209C0200205A
:100DC0007804002010B5074C20B922684FF00101CB
:100DD000118210BD044B1B689B68984720680C303B
:100DE00010BD00BF7C0400207804002038B50E4CF4
:100DF0000E4B22681B6850799B69D178984723680D
:100E00009A7A7AB170B91A7962B99D7855B9084B56
:100E10001B68DB689847236828465A79DA72DA78C3
:100E20001A7338BD022038BD7C0400205404002011
:100E30007804002008B50246244B20B91B684FF007
:100E4000020119823FE0224A4FF000011B68118025
:100E5000197811F07F0112D15B7A13F0200F03D0C3
:100E6000117841F00201117013F0400F184B1A78FD
:100E700014BF22F0010242F001021A701EE00129A3
:100E800021D0022901D000221DE0597901F00F0381
:100E90009B0003F1804303F5B84311F0800F1B68FA
:100EA00003D003F03003102B03E003F44053B3F5F9
:100EB000805F03D1137843F001031370054B1B6867
:100EC0001B699847024A104608BD00BF7C040020F9
:100ED0004C0400207804002010B51D4B1D4C1868F0
:100EE00094F800C0417921F08002930003F180431F
:100EF00003F5B8431B6811F0800F14BF03F03003F3
:100F000003F44053624521D24488FCB9F3B1837A9B
:100F1000E3B1930003F1804311F0800F03F5B84370
:100F2000196806D048F6BF7201EA020282F0100288
:100F300005E04BF68F7201EA020282F480521A60D9
:100F4000054B1B689B699847002010BD022010BD0F
:100F50007C0400209C0200207804002008B5064B89
:100F60001B685A7A42F020025A72044B1B68DB69F4
:100F70009847002008BD00BF7C04002078040020B2
:100F8000054B1A68538A18B98988CB1A138270479F
:100F900008681818704700BF7C04002030B50E4B5D
:100FA0001C78002310E05FFA83FC4FEA8C0202F108
:100FB000804202F5B842156848F68F7105EA0101D2
:100FC00041EA0C0111600133A342ECD3034B40F022
:100FD0008000186030BD00BF9C0200204C5C0040C7
:100FE0007047000008B50C4B002093F82C1000F05F
:100FF000BFFC0A4B1B68187A082807D1084B4FF42E
:1010000080521A80074B4FF010021A80092814BF33
:101010000020012008BD00BF100200207C04002039
:10102000820400208404002070B52E4B1C68237AB3
:10103000032B01D0052B46D1A369228AABB1A2B103
:10104000A58A954228BF154628469847238A064612
:101050005B1B2382638A0020EB18638200F06CFC28
:101060002A460146304600F0ACFB238A5BB11E4B9A
:101070004FF4405200201A80014600F06BFC1B4BDD
:101080004FF030021A80238AA28A9A4203D8154B65
:1010900003221B6803E0134A1BB1136805221A726E
:1010A0000DE0126806211172114A1168114A89B2C5
:1010B0008A18520013600D4B4FF030021A80094B12
:1010C0001B681B7A06E0072B03D10B4B1B68DB6800
:1010D00098470823034A12681372BDE87040FFF76F
:1010E00081BF00BF7C040020820400208404002013
:1010F000505C00400230002054040020F8B5244B1E
:101100001C68238A267AC3B9042E16D121482249A5
:101110000278012A0CD1214A037012681FFA82FC5E
:101120001F4A6244520013604FF030020A802AE0E6
:101130004FF010030B80072625E0A58AAB4294BF31
:10114000042602269D4228BF1D462846A3699847CB
:101150000746002000F0E2FB2A460146384600F030
:1011600019FB2946002000F0F5FB238A4FF03002DE
:101170005B1B2382638AED18074B65821A80094B3B
:101180004FF440521A80024B1B681E72F8BD00BF1C
:101190007C0400203403002084040020505C0040C4
:1011A000023000208204002010B5144B1B681A7A0C
:1011B000022A01D0042A05D1FFF7A0FF0F4B1B68BC
:1011C0001B7A14E0062A11D15A78052A0AD11A7816
:1011D00012F07F0F06D1D878FFF7E0FE084B1B68AE
:1011E0001B6A9847074B1B689B6898470823034A6C
:1011F00012681372BDE81040FFF7F4BE7C040020B3
:10120000780400205404002010B5304B1B68187877
:1012100010F07F0004D15A7A22F020025A7210BDD9
:10122000022851D15A88002A4ED11A79002A4BD16E
:101230005A7922F08000840004F1804404F5B84417
:101240002168234C12F0800F94F800C014BF01F005
:10125000300101F44051604536D2002934D09B7AE8
:10126000002B31D0840004F1804404F5B84412F01E
:10127000800F23680CD003F03003102B1ED1C4B2B2
:10128000204600F015FB2046302100F0B9FA15E0A9
:1012900003F44053B3F5805F10D128B90D4B93F898
:1012A0002C1000F065FB01E000F0F0FA22684BF62C
:1012B0008F7302EA030383F440532360064B1B68D9
:1012C0005B699847002010BD022010BD7C040020FF
:1012D0009C02002010020020780400208C4BF7B5FF
:1012E0001A688C4E8C4B92B2D31835685B001F681D
:1012F0002B7A092B1AD0BFB207F1005707F54057D8
:101300007F003C4614F8013B2B707B780A376B70EA
:10131000B4F8030000F05CFB6880B4F8070035689F
:1013200000F056FBA88033687F88DF80794C01236A
:1013300022681372D3885578002B62D1137813F08A
:101340007F032ED1092D02D1FFF720FD3BE0052DB3
:101350000DD192F90330002B4EDB9378002B4BD14B
:101360009388002B48D1937A002B37D044E0032D8B
:101370000BD1D378012B27D193882BBB537A13F051
:10138000200F21D0FFF7EAFD1DE0012D1CD1D378FD
:10139000012B19D19388BBB9537A13F0200F13D0C6
:1013A0000AE0012B04D10B2D0ED1FFF71FFD0AE03F
:1013B000022B09D1012D02D1FFF726FF03E0032DF7
:1013C00002D1FFF789FD48B1544B28461B685B6981
:1013D0009847032801D109230FE068B94C4B4FF01F
:1013E00030011A684E4B92B2D3185B0000221A608B
:1013F0004C4B1980062300E00823464A12681372FA
:10140000E0E0062D18D1137813F07F0F40F09480A0
:101410009378012B03D1414B1B68DB696CE0022BF5
:1014200003D13E4B1B681B6A66E0032B40F08480AF
:101430003A4B1B685B6A5FE0002D3BD15188002965
:101440007AD1536823F47F43B3F5003F74D1137806
:1014500013F07F0303D19388002B6DD128E0012B7B
:101460000BD12E4B50791B689B699847002863D19C
:1014700023689B7A002B5FD01AE0022B5CD1537952
:10148000294803F00F018A0002F1804202F5B842B8
:101490001268007813F0800F14BF02F0300202F4DB
:1014A0004052814248D213F0700F45D1002A43D0F8
:1014B0001E4B22E0082D05D1137813F07F0F3BD18E
:1014C0001B4B1AE00A2D37D1137803F07F03012B51
:1014D00032D1937A002B2FD0518869BB536823F403
:1014E0007F43B3F5803F27D10C4B50791B689B6934
:1014F000984708BB0F4B00E0F3B1064A4FF00001DC
:101500001268002051829361984700201FE000BFBD
:10151000505C00407C040020043000205404002073
:1015200002300020840400209C020020350E0008B8
:10153000650D0008C50D0008254B264C1B68226868
:101540001B6950789847032801D1236806E0214B96
:101550004FF6FF711B681A8A8A4201D1092203E003
:10156000022800D012B908221A722BE093F9001059
:10157000002921DAD98801910198824202D9019A81
:101580001A8211E08A420FD21149096891F82C1091
:101590008A4201D2002105E092FBF1F001FB10220A
:1015A00012B901210C4A1170094A126892F82C20D4
:1015B0009A82FFF7A3FD05E003221A72074B4FF44E
:1015C00040521A8003B0BDE8F040FFF70BBD00BFEA
:1015D000540400207C0400203403002082040020F6
:1015E00008B5074A074B0849136002221A72074BD5
:1015F000074A1360074A1B681160984708BD00BF7F
:101600007C0400205C0400207802002010020020EE
:10161000540400207804002038B59FE047F6FF719D
:1016200019601388534903F00F030B70002B69D125
:10163000514C524D2368216803F440532B80504B8A
:1016400001F03001198021684BF68F7301EA030322
:1016500083F400532360216848F6BF7301EA030353
:1016600083F020032360138813F0100F04D0236845
:101670009BB213F0800F08D0226848F60F7302EA7D
:1016800003032360FFF790FD16E013F4006F08D00A
:10169000226840F68F7302EA03032360FFF71EFE01
:1016A0000AE013F4004F59D0226840F68F7302EA23
:1016B00003032360FFF7B8FC22684BF68F7302EA3E
:1016C00003032A8812F4805F18BF83F4805312F456
:1016D000005F294A18BF83F400531360126848F66C
:1016E000BF7302EA0303264A128812F0100F18BFD4
:1016F00083F0100312F0200F1F4A18BF83F020035D
:10170000136038BD9B0003F1804303F5B8431C68A8
:10171000A4B214F4004F0BD0186840F68F7200EAA0
:1017200002021A600A78174B013A53F822309847A0
:1017300014F0800F12D00F4948F60F720B789B00FF
:1017400003F1804303F5B843186800EA02021A6007
:101750000A780D4B013A53F8223098470B4B0C4A4C
:10176000196889B21180118809B20029FFF656AFB5
:1017700038BD00BF58040020005C004082040020F7
:10178000840400205C02002040020020445C0040F1
:101790001003002001F10051013201F5405110B554
:1017A00049005208002309E0C41810F803C0647807
:1017B000013A4CEA042C21F813C00233002AF3D179
:1017C00010BD01F10051013201F5405149005208AC
:1017D000002305E031F813C0013A20F803C00233BA
:1017E000002AF7D17047800000F1804000F5B84032
:1017F000026848F68F1302EA03030B430360704745
:10180000800000F1804000F5B840026848F6BF73E0
:1018100002EA030311F0100F18BF83F0100311F058
:10182000200F18BF83F0200303607047800000F191
:10183000804000F5B84002684BF68F7302EA03035C
:1018400011F4805F18BF83F4805311F4005F18BF58
:1018500083F4005303607047800000F1804000F57E
:10186000B84002684BF68F7302EA030383F44053D7
:1018700003607047800000F1804000F5B8400268C6
:1018800048F68F6302EA030303607047800000F1AB
:10189000804000F5B840036813F4804F07D0026819
:1018A00048F68F7302EA030343F4804303607047F2
:1018B000800000F1804000F5B840036813F0400F4D
:1018C00007D0026848F68F7302EA030343F040032F
:1018D00003607047074B4FF6FE721B6801EA020275
:1018E0009BB203EBC00303F1005303F540535B00CD
:1018F0001A607047505C0040064B074A1B689BB259
:1019000003EBC0039A184FF6FE73520001EA03037B
:1019100013607047505C004004300020054B1B688A
:101920009BB203EBC00303F1005303F540535B008C
:1019300018887047505C0040044B054A1B689BB2F6
:1019400003EBC0039A18520010887047505C0040A7
:1019500004300020044B054A1B689BB203EBC00314
:101960009A18520011607047505C0040023000200D
:101970000D4B1A680D4B92B2D31803EBC0035B00FA
:101980003E2909D94A0911F01F0F01D1013A92B23B
:10199000920242F4004205E04A0811F0010F18BF1C
:1019A000013292021A607047505C004006300020FD
:1019B000054B064A1B689BB203EBC0039A18520002
:1019C00010688005800D7047505C00400630002094
:1019D000C3B2000A40EA0320704700000000000084
:1019E000012007E0022005E0032003E0042001E0DD
:1019F0000520FFE70D4A0121116072B60C4A002153
:101A00001160074902B4084902B486B005498E4600
:101A1000704700BFAFF30080AFF30080AFF30080EA
:101A200000000061F9FFFFFF4506000814ED00E02B
:101A300010E000E0AFF30080AFF30080AFF3008070
:101A40000E4B0F491A6842F001021A600D4A1068E5
:101A500000EA01011160196821F0847121F48031DC
:101A60001960196821F480211960136823F4FE03BA
:101A70001360054B00221A60704700BF001002403F
:101A80000000FFF80410024008100240134B1A68CF
:101A900042F001121A60114B1A6812F4003FFAD09A
:101AA0000F4A122111600F490A6842F4E81242F409
:101AB00080620A601A6842F080721A60074B1B68E5
:101AC00013F0407FFAD0074B1A6842F002021A6006
:101AD000044B1B6813F0080FFAD070470010024047
:101AE00000200240041002400B4B1A6802221A60C8
:101AF0000A4B1B6813F0010FFAD1094B4222186000
:101B0000043B1A60054B1B6813F00103FAD1024A2B
:101B100001201360704700BF102002400C200240DB
:101B20001420024013B58BB201930B0C0093114BA0
:101B300001241A681C60104B1B6813F0010FFAD1C6
:101B4000009B9BB243800C4B1B6813F0010FFAD132
:101B5000019B9BB20380084B1B6813F0010FFAD165
:101B6000044B22F001021A600068401A18BF0120DD
:101B70001CBD00BF102002400C200240014B8022FF
:101B80001A60704710200240024B034A1A60034A51
:101B90001A6070470420024023016745AB89EFCDEE
:101BA00010B5FFF74DFFFFF771FF4FF00060002108
:101BB000FEF792FBFEF758FBFEF743FB00F038F808
:101BC00040B10C4B1868030D1B05B3F1006F01D138
:101BD00000F060F90848FEF7C9FB2620002100F05C
:101BE0009BF82620012100F04BF8BDE81040FEF7DD
:101BF00099BE00BF043000083F190100004870473B
:101C00000C010008262000F051B80000064B0749DF
:101C10001A68096801328A421A6003DB00221A60DE
:101C2000FFF7F0BF704700BF38030020D402002048
:101C3000192000F015B810B5FEF796FD0B20002115
:101C400000F06AF80C20002100F066F80B2000215B
:101C500000F016F80C200021BDE8104000F010B88C
:101C6000064B021153F8223000F00F00012212FA45
:101C700000F01B689B681840704700BF6424000890
:101C8000094B021153F8223011F0FF0F00F00F0042
:101C90001B6804D0012212FA00F01861704701227B
:101CA00012FA00F058617047642400080211012103
:101CB00000F00F0011FA00F0034B53F822301B68BC
:101CC000DA685040D860704764240008002305E0BB
:101CD00000BF00BF00BF00BF00BF01338342F7DB7E
:101CE0007047C000FFF7F2BF38B50546002404E096
:101CF0004FF47A70FFF7F5FF0134AC42F8DB38BDE2
:101D0000002305E011F803C0013A00F803C00133D5
:101D1000002AF7D1704700002F2803461FDC08294E
:101D20001DD8DFE801F00705090B0D0F091113009D
:101D300007220CE003220AE0042208E0002206E069
:101D4000092204E0082202E00B2200E00F220449ED
:101D5000181151F8200003F00F01FEF747BA704741
:101D60006424000801384B42411803EA010070471F
:101D700008B5094A094B0A481A600A4A0A4B8018F2
:101D8000C01A4FF48061FFF7EDFF084B0022186086
:101D9000074B1A6008BD00BF00000008DC020020ED
:101DA000E0020020B824000800000020D802002033
:101DB00040030020064B1B68984201DA012070475F
:101DC000044B1B689842B4BF00200120704700BF3D
:101DD000DC020020D802002050F8043DB3F1FF3FA0
:101DE000FAD0704738B50C4C6FF05C0363700B4B46
:101DF0000B485B7801256371A570E5702571A060C3
:101E0000FFF7EAFF074BE0601A68226100221A60C0
:101E1000054B1D7038BD00BF8C040020D00400208D
:101E2000000002083C0300200E05002030B5184BCE
:101E30005A789878012A0DD0022A1AD05A680023BD
:101E400004E01349C918097A99540133D9B281427F
:101E5000F7D330BD5C681A46002107E01589C3EB53
:101E6000020C02312CF80450C9B202328142F5D37F
:101E700030BD5C681A46002107E09568C3EB020C90
:101E800004314CF80450C9B204328142F5D330BD5C
:101E9000D004002008B5804708BD00000A4B6FF051
:101EA00055021A70094A1278A02A02D19E3A5A7035
:101EB00005E001225A70064A126812789A70054BA2
:101EC00001221A70704700BF8C040020100500200A
:101ED000C80400200E050020044B054A59881170E3
:101EE0005A68044B1A60FFF7D9BF00BFD004002026
:101EF00010050020C804002038B505460C4600F047
:101F000085F9002801DC002403E02846214600F082
:101F10007FF9204638BD38B505460C46FFF776FEFA
:101F200028462146FFF7E8FF0028F7D038BD10B556
:101F30000C4600F041F9204610BDFFF7F8BF000045
:101F400010B51A4B59885A783C2904DD5868BDE809
:101F50001040FFF7F2BF012A0DD0022A5A6816D0AE
:101F6000002305E013F802C0114803F800C0013354
:101F70008B42F7DB13E05A68002305E033F802C018
:101F80000B4823F800C002338B42F7DB07E0002345
:101F900003E09C5806481C5004338B42F9DB04488C
:101FA0003C21BDE81040FFF7C2BF00BFD0040020B5
:101FB0008C04002010B5044629B1FFF73CFE4FF415
:101FC0009660FFF791FE2046BDE81040FFF762BF24
:101FD00030B50F4B91B05A685C880E4B1B689A4223
:101FE00001D0FEF72FFB0B4B1A6801323B2C1A6015
:101FF0000CDD3C2503E03C2CB4BF25463C2568465F
:102000002946641BFFF787FF002CF4DC11B030BDBC
:10201000D0040020400300202DE9F84503310026BC
:10202000044692464FEAA108054637460DE0284689
:10203000FFF7C0FE38B1C4EB0A0328465959FFF731
:1020400071FD00B10137043501364645EFDB3846F6
:10205000BDE8F8852DE9F045154A91B054885568DA
:10206000302C09DC134E2846214608323768FFF72A
:10207000D3FFC019306017E03C2CB4BF26463C2685
:1020800031460C4F6846FFF746FF284631466A4600
:10209000D7F80080FFF7C0FFA41B4044002CEA469D
:1020A000386001DDAD19E7E711B0BDE8F08500BF8C
:1020B000D00400203C030020034B5B880BB1FFF7EA
:1020C0005DBDFFF761BD00BFD004002010B5064B19
:1020D0005C682046FFF76EFE20B12046BDE8104048
:1020E000FFF702BD10BD00BFD004002010B51F4B8C
:1020F0001F4A1B781370013B0D2B25D8DFE803F036
:102100002224240A070D1C1324161F242419FFF768
:1021100017FF19E0FFF78AFE16E0144B586859883C
:10212000FFF748FF10E0FFF7D1FF0DE0FFF792FF48
:102130000AE0FFF7C1FF07E0FFF7CEFE04E0FFF77C
:1021400047FF01E0FFF74EFE0A4C237863B10848D1
:102150003C21FFF7ECFE00232370074B1B781BB1DB
:10216000BDE81040FFF79ABE10BD00BFD0040020AC
:102170008C0400200E0500201005002000B591B051
:10218000FFF73CFDFFF7F4FD3C2101A8FFF7C3FE7C
:1021900000280CDB9DF80430012B08D10DF105015E
:1021A0003B220448FFF7ACFDFFF7A0FFECE711B0BE
:1021B00000BD00BFD00400202DE9F8450746884641
:1021C000FEF7EAFAE8B1FEF7DDFAD0B1CFB10E4B77
:1021D00000251E6807E03819C4EB0801FEF7E4FA91
:1021E0002418A54201D12C4602E0DAF80060254609
:1021F000444506D2DFF810A0DAF800309B1B312BE3
:10220000E9D9BDE8F88500BF44030020FEF7AABB6A
:1022100070B50E46054608B904460CE0002408E0F7
:10222000FFF7F4FF0028FBD02819311BFEF73EFC16
:102230002418B442F4D3204670BD07B5FFF7E6FF7B
:1022400008B9013805E001A80121FFF7E1FF9DF879
:1022500004000EBD08B5FFF7F0FF0028FBDB08BD4A
:1022600008B5FFF7F7FFAA28FBD1FFF7F3FF5528C2
:10227000F7D1FFF783FFF4E708B5FFF791FCFFF70D
:10228000EFFFFCE7FEE7000001498D4601490847E2
:10229000005000209922000880B5194C194B21E00C
:1022A00058689968DD6888420CD0002205E08618DD
:1022B000D6E9008941E9028908328C460831AA42F0
:1022C000F5D101E000EB050C18696146002204E03D
:1022D0000026002741E90267083208318242F7D11F
:1022E0001433013C002CDBD100F010F820462146CD
:1022F0002246FFF7C1FF044B0BB1AFF30080FEE7AE
:1023000001000000982400080000000070B542F2AF
:10231000844642F28445C0F60006C0F60005761BEE
:10232000B61006D0002455F8243001349847A64250
:10233000F9D842F2844542F28846C0F60005C0F65C
:102340000006761B00F098F8B61006D0002455F869
:10235000243001349847A642F9D870BD48000020C7
:10236000580000201C1002401810024014100240B7
:10237000010201030104010501000109010A010F25
:10238000010E00110012010B000000010002010CFF
:10239000000E0200001C001B0015001602060204BD
:1023A00002020106101002400C10024032035300DA
:1023B00054004D00330032002000560069007200C6
:1023C0007400750061006C00200043004F004D0058
:1023D000200050006F0072007400200020000000F8
:1023E0002603530054004D006900630072006F0023
:1023F00065006C0065006300740072006F006E0081
:102400006900630073000000120100020200004036
:10241000830440570002010200010000090243004A
:10242000020100C03209040000010202010005247B
:1024300000011005240103010424020605240600FE
:1024400001070582034000FF09040100020A0000A1
:10245000000705030240000007058102400000005C
:102460000403090448000020500000205800002008
:102470006000002068000020F8B500BFF8BC08BC70
:102480009E46704735010008F8B500BFF8BC08BC8F
:102490009E4670472101000800000000B824000893
:0C24A00000000020E002000078030000B3
:0824AC00DCFDFF7F01000000D0
:1024B8000000000008000020000002401100000099
:1024C800000000000B000000000000000C000000ED
:1024D800000000000D000000000000000E000000D9
:1024E800000000000F0000000000000010000000C5
:1024F800000000001100000000080140000000007A
:10250800000C01400101000000100140020200001F
:1025180000140140030300000018014019040000E2
:10252800000400400D010000000000000000000051
:102538000000000000000000000000000000000093
:1025480000000000000800400E010000000000002C
:102558000000000000000000000000000000000073
:102568000000000000000000C8000020F00000206B
:102578007000002094000020002C01400B00000097
:102588000000000000000000000000000000000043
:102598000000000000000000000000000000000033
:1025A800000000400C0100000000000000000000D6
:1025B8000000000000000000000000000000000013
:1025C800000000002001002070010020C001002050
:1025D80000380140E802002020AA44000000000062
:1025E80000000000000000000000000000000000E3
:1025F80000000000000000000000000000000000D3
:1026080000000000000000000000000000000000C2
:102618000000000000000000000000000825000085
:1026280000440040F4020020105522000000000081
:102638000000000000000000000000000000000092
:102648000000000000000000000000000000000082
:102658000000000000000000000000000000000072
:102668000000000000000000000000000926000033
:102678000048004000030020105522000000000020
:102688000000000000000000000000000000000042
:102698000000000000000000000000000000000032
:1026A8000000000000000000000000000000000022
:1026B8000000000000000000000000000A270000E1
:1026C800310C0008110B0008990900089B09000843
:1026D8009D090008DD090008410A0008A10A000850
:1026E800950A0008750A0008000000004000000074
:1026F800590900087D090008E10F0008E10F0008EA
:10270800E10F0008E10F0008E10F0008E10F0008E1
:10271800E10F00086D0C0008E10F0008E10F000848
:10272800E10F0008E10F0008E10F0008510A000856
:10273800E10F0008E10F0008E10F0008E10F0008B1
:10274800E10F0008E10F0008690A00080401000011
:102758001C240008430000000001000008240008B1
:10276800120000006024000804000000E0230008B4
:1027780026000000AC2300083200000000C201005F
:1027880000000800400D03000020000800000008B9
:040000050800228944
:00000001FF
