:020000040800F2
:103000000050002025B90008414A0008454A000840
:10301000494A00084D4A0008514A000821B90008F1
:1030200021B9000821B9000821B9000821B9000818
:1030300021B9000821B9000821B90008D9330008D6
:1030400021B9000821B9000821B9000821B90008F8
:1030500021B9000821B9000821B9000821B90008E8
:1030600021B9000821B9000821B900087D31000804
:103070008D3100089D310008AD310008BD310008D8
:10308000CD310008DD31000821B9000821B9000860
:103090006D38000821B9000821B9000821B90008DD
:1030A000553400086534000875340008B53400084C
:1030B000B1350008A53500089935000821B9000888
:1030C00021B9000821B9000821B9000821B9000878
:1030D00021B9000809360008153600082136000815
:1030E00021B9000821B9000821B90008000000003A
:1030F00000000000000000000000000000000000D0
:1031000000000000000000000000000041524D00DF
:10311000A303040553544245452D4D494E49000033
:1031200040F2E873C2F200031A780AB9012018705D
:10313000704700BF40F20000C2F2000008B503680B
:103140002BB140F20003C0F2000303B1984708BD61
:103150004A1E9200012111FA02F203685A60704778
:1031600050F8313070B505460C4633B198472846C3
:103170002146BDE87040FFF7EBBF70BD024B012157
:103180001868FFF7EDBF00BF04000020024B0221CA
:103190001868FFF7E5BF00BF04000020024B0321C1
:1031A0001868FFF7DDBF00BF04000020024B0421B8
:1031B0001868FFF7D5BF00BF04000020024B0521AF
:1031C0001868FFF7CDBF00BF04000020024B0621A6
:1031D0001868FFF7C5BF00BF04000020024B07219D
:1031E0001868FFF7BDBF00BF0400002001F0070C06
:1031F00070B54FEA8C0C0F25092A14BF1646082615
:1032000005FA0CF506FA0CFC0368C80853F82040D0
:10321000082A24EA05054CEA050443F8204007D1B2
:10322000012010FA01F1DA6822EA0101D96070BDCB
:10323000092A05D1012010FA01F1DA681143D96099
:1032400070BD042010B500F07BF80420BDE81040EC
:1032500000F05CB810B50446007900F071F82079F0
:10326000BDE8104000F052B810B50748FFF7F2FF74
:103270000648FFF7EFFF0648FFF7ECFF0548BDE8FB
:103280001040FFF7E7BF00BF4800002050000020BB
:10329000580000206000002000284FEA011106DAE3
:1032A000064B00F00F00C9B2C31819767047044BE3
:1032B000C9B2C31883F80013704700BFFCEC00E0EC
:1032C00000E100E021F0604121F07F01014B01436A
:1032D0009960704700ED00E010B5FFF7F3FF0024A0
:1032E00060B20F210134FFF7D7FF2B2CF8D14FF03C
:1032F000FF300F21BDE81040FFF7CEBF01EBC00348
:103300009B0003F184431A60704700000A4B0B4A8C
:1033100013F8101003EB400370B552F821505C789D
:10332000284621460122FFF7E9FF284621460022D0
:10333000BDE87040FFF7E2BF08BA00083CBA0008D9
:10334000054B064A13F8101003EB400352F8210016
:1033500059780122FFF7D2BF08BA0008FCB900086B
:10336000054B1A680AB9054A1A60034A1368181807
:1033700010601846704700BFEC070020980B002033
:10338000002070474FF400534B600020704701202D
:1033900070474FF0FF30704700230B7001207047DB
:1033A00001F04ABF70B50C461646002503E0605D8B
:1033B000FFF7F6FF0135B542F9D3304670BD000086
:1033C000014B07221A60704710E000E0014B586083
:1033D000FFF7F6BF10E000E008B5044B1A680132B1
:1033E0001A60034B1B6803B1984708BD840800208E
:1033F000F007002041790368002201291A60DA6091
:1034000098BF1A6270470000074B10B50446186851
:10341000A047064B1868A047054B1868A047054B06
:103420001868A04710BD00BFB8000020BC000020F5
:10343000C0000020C4000020023138B550F821300F
:103440001546046823B19847236923EA05052561D9
:1034500038BD0000024B072118688022FFF7ECBF3F
:10346000B8000020024B002118680122FFF7E4BFDA
:10347000B8000020F8B50E4B1E6856F8084BE368FC
:1034800027691F4017F0400F04D0B36913B1984764
:10349000402500E0002517F0200F04D0736913B118
:1034A000984745F02005236923EA05052561F8BD05
:1034B000B8000020F8B5164B1D6855F8086BF36886
:1034C00037691F4017F0100F04D02B6913B19847CC
:1034D000102400E0002417F0080F04D0EB6813B1AB
:1034E000984744F0080417F0040F04D0AB6813B1F8
:1034F000984744F0040417F0020F04D06B6813B12E
:10350000984744F00204336923EA04043461F8BDA7
:10351000B80000202DE9F041054655F8087B8046AB
:10352000FB683E691E4016F0400F04D0AB6913B132
:103530009847402400E0002416F0100F04D02B69B7
:1035400013B1984744F0100416F0080F04D0EB684C
:1035500013B1984744F0080416F0040F04D0AB6888
:1035600013B1984744F0040416F0020F04D06B68BE
:1035700013B1984744F0020416F0010F05D0D8F8B3
:10358000083013B1984744F001043B6923EA04046E
:103590003C61BDE8F0810000014B1868FFF7BABF3D
:1035A000C4000020014B1868FFF7B4BFC000002022
:1035B000014B1868FFF7AEBFBC00002043680268EB
:1035C000D98850689A8801F1010C944504D0B3F869
:1035D00008C08C450AD14AB91968515C19899142D1
:1035E00001D1002201E0013292B29A80D9881A6892
:1035F000C0B28854DA881989914201D1002201E0D1
:10360000013292B2DA807047014B1868FFF7D6BFDB
:1036100014010020014B1868FFF7D0BF18010020EB
:10362000014B1868FFF7CABF1C010020002808DB07
:103630004211012300F01F0013FA00F0014B43F880
:103640002200704700E100E0036819B14FF4004226
:103650001A6170474FF400425A617047F8B5114B38
:103660000F211C6803222046FFF7C0FD00252E46CF
:103670000127B6F5007F02D14FF0FF3702E0002EA0
:1036800008BF0127B5F5007F01D1F6190025B54225
:10369000204601D2012100E00021FFF7D5FF0135CE
:1036A000E7E700BFF8B900080A4B4FF0FF32C3F854
:1036B000802010B5C3F884200748FFF7A5FE13202B
:1036C000FFF7B4FF1420FFF7B1FF62B6BDE810406A
:1036D000FFF7C4BF00E100E0F5330008044B1A68AF
:1036E00092B242F00C021A60024B03221A60704739
:1036F000405C004020080020054B4FF6FB72196823
:1037000001EA02021A604FF43F421A60704700BF9C
:10371000405C0040072818BF204B10B51F4C18BF55
:1037200018702378052B35D8DFE803F003070B105A
:103730001823FFF7E1FF062306E0FFF7DDFF042370
:1037400002E0022363700133237010BD6378013BF4
:10375000DBB263706378FBB9042218E0104B1A687F
:1037600092B242F010021A6005232370DB186370D6
:1037700010BD6378013BDBB26370637863B9084ABC
:103780004FF6EF73116801EA030313600622034B3F
:103790001A7010BD0623237010BD00BF88080020DA
:1037A000405C0040064B01221A60064A0020064990
:1037B000186010604FF4E0520A801A60704700BF32
:1037C000405C0040445C0040C0090020044B0122E2
:1037D0001A60044A0020106003221A60704700BF7C
:1037E000405C0040445C0040034B1868052814BF4F
:1037F00000200120704700BF20080020024B1868FD
:10380000003818BF0120704720080020134B10B566
:103810001B680C460BB100241DE03F2901D93F2451
:1038200000E0C1B1C021A2B200F0E6FF0C4B1A6863
:103830000C4B92B2D3185B001C60084B1A68A2189C
:103840001A60094B48F6BF72196801EA020282F059
:1038500030021A601B68204610BD00BF30080020EF
:10386000505C00400A300020045C0040344B354A74
:10387000196810B589B2118033491288098801EAA4
:10388000020212F4806F05D04FF6FF321A602F4B00
:103890005B6898472B4B1A882B4B1B8803EA020264
:1038A00012F4005F03D0264A4DF6FF711160254ADD
:1038B0001288134013F4805F06D0214B4EF6FF723E
:1038C0001A600020FFF726FF1E4B1F4A1B88128834
:1038D00002EA030313F4006F05D0FFF7FFFE184B55
:1038E0004FF2FF721A60174B1A88174B1B8803EAB6
:1038F000020212F4007F07D0114A4FF6FF51116007
:10390000134A1168013111600E4A1288134013F4F2
:10391000807F06D00A4B4FF6FF621A600720FFF740
:10392000F9FE084B084A1B88128802EA030313F4C5
:10393000004F03D0BDE8104000F0A0BE10BD00BF96
:10394000445C00401C080020C00900201002002038
:103950001808002007B514238DF80430143B8DF8A7
:1039600005308DF8063001A801338DF8073000F0DE
:10397000F5F90EBD036819B14FF480421A61704722
:103980004FF480425A6170470A4B10B51C680E21F3
:1039900020460322FFF72AFC074B2046DA69012163
:1039A00042F40002DA61FFF7E5FFBDE8104000F0E5
:1039B00049BE00BFF8B9000800100240014B0022C8
:1039C0001A60704730080020034B1868034B1B68CF
:1039D000C01AC0B2704700BF380800203408002069
:1039E0007047000020B9034B4FF008021B681A8291
:1039F00001487047BC090020CC0200207047704786
:103A000008B50C4B1A68137803F07F03212B0ED1F5
:103A1000202801D021280AD1074B4FF0000118704F
:103A2000064B5182936100209847002008BD022078
:103A300008BD00BFBC0900202D080020E5390008A2
:103A4000154B1B681A7802F07F02212A21D1022827
:103A50001DD022281DD1D878104B00F0030018701B
:103A60000F4B1B78032B12D8DFE803F0080208087D
:103A700010F001000A4B08D1022204E010F001000E
:103A8000074B02D103221A70704701221A700020DE
:103A900070470220704700BFBC09002024080020A6
:103AA0002C08002019B9012801D8084670470220C7
:103AB00070470000034B1B689B7A13B1024B052231
:103AC0001A607047BC09002020080020014B042226
:103AD0001A60704720080020054B1B68DB78022B1A
:103AE00001D900207047034901EBC30100F07ABA05
:103AF000BC090020B4020020014900F073BA00BFE5
:103B0000A0020020014900F06DBA00BFAC02002005
:103B100038B50C460546FFF757FF134BA04238BF98
:103B200004461B68002206E01049C95C0133A95411
:103B300003F0FF030132A242F6D30B4A0C4D13608F
:103B40002B7873B1FFF740FFBF280AD8032040212C
:103B500000F040FF03204FF4405100F099FE002395
:103B60002B70204638BD00BF340800208C08002090
:103B70002E08002038B53D4B6FF03F021B68002433
:103B80005A723B4A9C723B4B1460186848F68F117E
:103B900000EA010141F400711960186848F6BF712C
:103BA00000EA010181F0100119601168324B89B2FD
:103BB000CB1840255B001D60136880229BB203F187
:103BC000005303F540535B001A60204600F084FE6A
:103BD0002A4B20461B6893F82C1000F0FBFE204671
:103BE00000F06CFE02204FF4C06100F02EFE0220B7
:103BF0004FF4807100F0A0FE0220202100F032FE80
:103C00000220214600F044FE0320214600F01DFE64
:103C100003204FF4887100F0A1FE0320294600F034
:103C2000D9FE03204FF4405100F032FE012021461E
:103C300000F00BFE0120C02100F07EFE01202021BB
:103C400000F010FE0120214600F022FE0C4B012264
:103C50001A60204600F0D4F90A4B1C600A4B1C6025
:103C60000A4B1D600A4B1C6038BD00BFBC09002018
:103C7000505C0040005C00400430002094090020AB
:103C8000200800203C08002028080020A80200206E
:103C900030080020094B10B51B6800249C72FFF708
:103CA00081FD074B074A1C604FF43F431380064ACF
:103CB0001360FFF74FFE054B1C6010BDBC090020D0
:103CC000445C0040C0090020405C00402008002007
:103CD00010B5032090B000F09DFE4FF40051044653
:103CE000032000F0D5FD224668464FF4887100F0AD
:103CF0009AFD164B00221B680BE015491DF80200C7
:103D0000C85414490133096803F0FF038B4202D001
:103D10000132A242F1D30D4A0F4C13600D4B1268D1
:103D20001B68D31A03F0FF03BF2B0AD803204021DE
:103D300000F050FE03204FF4405100F0A9FD002395
:103D400000E00123237010B010BD00BF3808002030
:103D50008C080020340800202E080020184B30B5B5
:103D6000DB684478DB4303F4E0631B0AC3F104021D
:103D700014FA02F20F24DC40817803780C401443DB
:103D800003F0030C4FEACC0C2401FF2004FA0CF4DE
:103D900000FA0CF00B4A9908C03152F8215025EA7C
:103DA000000C04EA000040EA0C0042F82100590926
:103DB000012003F01F0310FA03F342F8213030BD55
:103DC00000ED00E000E100E010B5074C20B92268EA
:103DD0004FF00101118210BD044B1B681B6898470E
:103DE00020680A3010BD00BFBC090020B8090020BF
:103DF00010B50A4B0A491B684978DA7891420AD310
:103E0000997841B99C8834B99A72064B1B685B68F3
:103E10009847204610BD022010BD00BFBC090020FD
:103E20009C020020B809002010B5074C20B9226878
:103E30004FF00101118210BD044B1B689B6898472D
:103E400020680C3010BD00BFBC090020B80900205C
:103E500038B50E4C0E4B22681B6850799B69D1789F
:103E6000984723689A7A7AB170B91A7962B99D78BD
:103E700055B9084B1B68DB689847236828465A7970
:103E8000DA72DA781A7338BD022038BDBC09002016
:103E900094090020B809002008B50246244B20B937
:103EA0001B684FF0020119823FE0224A4FF00001E7
:103EB0001B681180197811F07F0112D15B7A13F021
:103EC000200F03D0117841F00201117013F0400F60
:103ED000184B1A7814BF22F0010242F001021A7046
:103EE0001EE0012921D0022901D000221DE05979CC
:103EF00001F00F039B0003F1804303F5B84311F079
:103F0000800F1B6803D003F03003102B03E003F491
:103F10004053B3F5805F03D1137843F0010313706E
:103F2000054B1B681B699847024A104608BD00BF35
:103F3000BC0900208C090020B809002010B51D4BD9
:103F40001D4C186894F800C0417921F0800293005C
:103F500003F1804303F5B8431B6811F0800F14BFD1
:103F600003F0300303F44053624521D24488FCB986
:103F7000F3B1837AE3B1930003F1804311F0800F32
:103F800003F5B843196806D048F6BF7201EA020289
:103F900082F0100205E04BF68F7201EA020282F411
:103FA00080521A60054B1B689B699847002010BD22
:103FB000022010BDBC0900209C020020B80900208E
:103FC00008B5064B1B685A7A42F020025A72044B1D
:103FD0001B68DB699847002008BD00BFBC090020B2
:103FE000B8090020054B1A68538A18B98988CB1A7A
:103FF0001382704708681818704700BFBC0900207A
:1040000030B50E4B1C78002310E05FFA83FC4FEABA
:104010008C0202F1804202F5B842156848F68F71B1
:1040200005EA010141EA0C0111600133A342ECD31E
:10403000034B40F08000186030BD00BF9C020020A0
:104040004C5C00407047000008B50C4B002093F812
:104050002C1000F0BFFC0A4B1B68187A082807D107
:10406000084B4FF480521A80074B4FF010021A8011
:10407000092814BF0020012008BD00BF1002002045
:10408000BC090020C2090020C409002070B52E4BD5
:104090001C68237A032B01D0052B46D1A369228A01
:1040A000ABB1A2B1A58A954228BF154628469847CC
:1040B000238A06465B1B2382638A0020EB186382F7
:1040C00000F06CFC2A460146304600F0ACFB238A27
:1040D0005BB11E4B4FF4405200201A80014600F0A5
:1040E0006BFC1B4B4FF030021A80238AA28A9A4243
:1040F00003D8154B03221B6803E0134A1BB1136856
:1041000005221A720DE0126806211172114A116817
:10411000114A89B28A18520013600D4B4FF03002D9
:104120001A80094B1B681B7A06E0072B03D10B4B47
:104130001B68DB6898470823034A12681372BDE8BE
:104140007040FFF781BF00BFBC090020C2090020FA
:10415000C4090020505C0040023000209409002077
:10416000F8B5244B1C68238A267AC3B9042E16D1CD
:10417000214822490278012A0CD1214A0370126891
:104180001FFA82FC1F4A6244520013604FF0300253
:104190000A802AE04FF010030B80072625E0A58A4D
:1041A000AB4294BF042602269D4228BF1D462846E6
:1041B000A36998470746002000F0E2FB2A46014623
:1041C000384600F019FB2946002000F0F5FB238A51
:1041D0004FF030025B1B2382638AED18074B658228
:1041E0001A80094B4FF440521A80024B1B681E7212
:1041F000F8BD00BFBC09002040080020C409002011
:10420000505C004002300020C209002010B5144B61
:104210001B681A7A022A01D0042A05D1FFF7A0FFF1
:104220000F4B1B681B7A14E0062A11D15A78052A15
:104230000AD11A7812F07F0F06D1D878FFF7E0FE86
:10424000084B1B681B6A9847074B1B689B6898477D
:104250000823034A12681372BDE81040FFF7F4BE4A
:10426000BC090020B80900209409002010B5304B8B
:104270001B68187810F07F0004D15A7A22F02002CF
:104280005A7210BD022851D15A88002A4ED11A798B
:10429000002A4BD15A7922F08000840004F1804436
:1042A00004F5B8442168234C12F0800F94F800C044
:1042B00014BF01F0300101F44051604536D20029AD
:1042C00034D09B7A002B31D0840004F1804404F573
:1042D000B84412F0800F23680CD003F03003102B89
:1042E0001ED1C4B2204600F015FB2046302100F05C
:1042F000B9FA15E003F44053B3F5805F10D128B943
:104300000D4B93F82C1000F065FB01E000F0F0FA83
:1043100022684BF68F7302EA030383F44053236051
:10432000064B1B685B699847002010BD022010BD3A
:10433000BC0900209C02002010020020B8090020C7
:104340008C4BF7B51A688C4E8C4B92B2D3183568EB
:104350005B001F682B7A092B1AD0BFB207F10057F8
:1043600007F540577F003C4614F8013B2B707B78E3
:104370000A376B70B4F8030000F05CFB6880B4F897
:104380000700356800F056FBA88033687F88DF801F
:10439000794C012322681372D3885578002B62D19F
:1043A000137813F07F032ED1092D02D1FFF720FDE2
:1043B0003BE0052D0DD192F90330002B4EDB9378B5
:1043C000002B4BD19388002B48D1937A002B37D008
:1043D00044E0032D0BD1D378012B27D193882BBB3D
:1043E000537A13F0200F21D0FFF7EAFD1DE0012DD5
:1043F0001CD1D378012B19D19388BBB9537A13F010
:10440000200F13D00AE0012B04D10B2D0ED1FFF7A2
:104410001FFD0AE0022B09D1012D02D1FFF726FF73
:1044200003E0032D02D1FFF789FD48B1544B284624
:104430001B685B699847032801D109230FE068B91D
:104440004C4B4FF030011A684E4B92B2D3185B00C0
:1044500000221A604C4B1980062300E00823464ACC
:1044600012681372E0E0062D18D1137813F07F0F55
:1044700040F094809378012B03D1414B1B68DB699A
:104480006CE0022B03D13E4B1B681B6A66E0032BDA
:1044900040F084803A4B1B685B6A5FE0002D3BD1A3
:1044A000518800297AD1536823F47F43B3F5003F44
:1044B00074D1137813F07F0303D19388002B6DD14F
:1044C00028E0012B0BD12E4B50791B689B69984734
:1044D000002863D123689B7A002B5FD01AE0022B5F
:1044E0005CD15379294803F00F018A0002F1804220
:1044F00002F5B8421268007813F0800F14BF02F082
:10450000300202F44052814248D213F0700F45D17C
:10451000002A43D01E4B22E0082D05D1137813F05A
:104520007F0F3BD11B4B1AE00A2D37D1137803F0D4
:104530007F03012B32D1937A002B2FD0518869BB96
:10454000536823F47F43B3F5803F27D10C4B507958
:104550001B689B69984708BB0F4B00E0F3B1064A04
:104560004FF00001126800205182936198470020AB
:104570001FE000BF505C0040BC0900200430002058
:104580009409002002300020C40900209C02002071
:10459000993E0008C93D0008293E0008254B264CDD
:1045A0001B6822681B6950789847032801D123684B
:1045B00006E0214B4FF6FF711B681A8A8A4201D12F
:1045C000092203E0022800D012B908221A722BE057
:1045D00093F90010002921DAD988019101988242CB
:1045E00002D9019A1A8211E08A420FD21149096850
:1045F00091F82C108A4201D2002105E092FBF1F0E3
:1046000001FB102212B901210C4A1170094A1268EB
:1046100092F82C209A82FFF7A3FD05E003221A727C
:10462000074B4FF440521A8003B0BDE8F040FFF74B
:104630000BBD00BF94090020BC09002040080020E9
:10464000C209002008B5074A074B08491360022237
:104650001A72074B074A1360074A1B681160984794
:1046600008BD00BFBC0900209C0900207802002082
:104670001002002094090020B809002038B59FE0FE
:1046800047F6FF7119601388534903F00F030B704D
:10469000002B69D1514C524D2368216803F44053DB
:1046A0002B80504B01F03001198021684BF68F733D
:1046B00001EA030383F400532360216848F6BF73C3
:1046C00001EA030383F020032360138813F0100F23
:1046D00004D023689BB213F0800F08D0226848F6FC
:1046E0000F7302EA03032360FFF790FD16E013F453
:1046F000006F08D0226840F68F7302EA030323603C
:10470000FFF71EFE0AE013F4004F59D0226840F66E
:104710008F7302EA03032360FFF7B8FC22684BF6AD
:104720008F7302EA03032A8812F4805F18BF83F4B0
:10473000805312F4005F294A18BF83F400531360BA
:10474000126848F6BF7302EA0303264A128812F081
:10475000100F18BF83F0100312F0200F1F4A18BF6C
:1047600083F02003136038BD9B0003F1804303F501
:10477000B8431C68A4B214F4004F0BD0186840F67C
:104780008F7200EA02021A600A78174B013A53F856
:104790002230984714F0800F12D00F4948F60F725C
:1047A0000B789B0003F1804303F5B843186800EAD7
:1047B00002021A600A780D4B013A53F822309847EA
:1047C0000B4B0C4A196889B21180118809B2002973
:1047D000FFF656AF38BD00BF98090020005C0040CE
:1047E000C2090020C40900205C0200204002002011
:1047F000445C00401C08002001F10051013201F529
:10480000405110B549005208002309E0C41810F8BF
:1048100003C06478013A4CEA042C21F813C0023337
:10482000002AF3D110BD01F10051013201F54051D0
:1048300049005208002305E031F813C0013A20F87E
:1048400003C00233002AF7D17047800000F1804096
:1048500000F5B840026848F68F1302EA03030B43E1
:1048600003607047800000F1804000F5B8400268A6
:1048700048F6BF7302EA030311F0100F18BF83F06C
:10488000100311F0200F18BF83F02003036070475E
:10489000800000F1804000F5B84002684BF68F734D
:1048A00002EA030311F4805F18BF83F4805311F40C
:1048B000005F18BF83F4005303607047800000F16D
:1048C000804000F5B84002684BF68F7302EA03039C
:1048D00083F4405303607047800000F1804000F58E
:1048E000B840026848F68F6302EA0303036070472A
:1048F000800000F1804000F5B840036813F4804F59
:1049000007D0026848F68F7302EA030343F480433A
:1049100003607047800000F1804000F5B8400368F4
:1049200013F0400F07D0026848F68F7302EA0303C2
:1049300043F0400303607047074B4FF6FE721B685D
:1049400001EA02029BB203EBC00303F1005303F53B
:1049500040535B001A607047505C0040064B074AAA
:104960001B689BB203EBC0039A184FF6FE7352000C
:1049700001EA030313607047505C004004300020DC
:10498000054B1B689BB203EBC00303F1005303F517
:1049900040535B0018887047505C0040044B054A48
:1049A0001B689BB203EBC0039A1852001088704733
:1049B000505C004004300020044B054A1B689BB249
:1049C00003EBC0039A18520011607047505C00401E
:1049D000023000200D4B1A680D4B92B2D31803EB36
:1049E000C0035B003E2909D94A0911F01F0F01D10C
:1049F000013A92B2920242F4004205E04A0811F0F4
:104A0000010F18BF013292021A607047505C0040DB
:104A100006300020054B064A1B689BB203EBC0031F
:104A20009A18520010688005800D7047505C004055
:104A300006300020C3B2000A40EA0320704700009D
:104A4000012007E0022005E0032003E0042001E04C
:104A50000520FFE70D4A0121116072B60C4A0021C2
:104A60001160074902B4084902B486B005498E4670
:104A7000704700BFAFF30080AFF30080AFF300805A
:104A800000000061F9FFFFFFA936000814ED00E007
:104A900010E000E0AFF30080AFF30080AFF30080E0
:104AA0000E4B0F491A6842F001021A600D4A106855
:104AB00000EA01011160196821F0847121F480314C
:104AC0001960196821F480211960136823F4FE032A
:104AD0001360054B00221A60704700BF00100240AF
:104AE0000000FFF80410024008100240134B1A683F
:104AF00042F001121A60114B1A6812F4003FFAD00A
:104B00000F4A122111600F490A6842F4881242F4D8
:104B100080620A601A6842F080721A60074B1B6854
:104B200013F0407FFAD0074B1A6842F002021A6075
:104B3000044B1B6813F0080FFAD0704700100240B6
:104B400000200240041002400B4B1A6802221A6037
:104B50000A4B1B6813F0010FFAD1094B422218606F
:104B6000043B1A60054B1B6813F00103FAD1024A9B
:104B700001201360704700BF102002400C2002404B
:104B80001420024013B58BB201930B0C0093114B10
:104B900001241A681C60104B1B6813F0010FFAD136
:104BA000009B9BB243800C4B1B6813F0010FFAD1A2
:104BB000019B9BB20380084B1B6813F0010FFAD1D5
:104BC000044B22F001021A600068401A18BF01204D
:104BD0001CBD00BF102002400C200240014B80226F
:104BE0001A60704710200240024B034A1A60034AC1
:104BF0001A6070470420024023016745AB89EFCD5E
:104C000010B5FFF74DFFFFF771FF00210B48FEF7CE
:104C100063FBFEF729FBFEF714FB00F0A1F8084840
:104C2000FEF7D4FB0D20002100F074F80D200021C8
:104C300000F024F8BDE81040FEF7A6BE00300008E2
:104C40003F190100004870470C3100080D2000F0AA
:104C50002BB80000064B07491A68096801328A42DE
:104C60001A6003DB00221A60FFF7F0BF704700BF35
:104C700044080020D4020020FEF7A8BD094B021111
:104C800053F8223011F0FF0F00F00F001B6804D022
:104C9000012212FA00F018617047012212FA00F0A6
:104CA00058617047FCBA00080211012100F00F00A2
:104CB00011FA00F0034B53F822301B68DA685040B9
:104CC000D8607047FCBA0008002305E000BF00BFB1
:104CD00000BF00BF00BF01338342F7DB7047C00055
:104CE000FFF7F2BF38B50546002404E04FF47A70B0
:104CF000FFF7F5FF0134AC42F8DB38BD002305E0D7
:104D000011F803C0013A00F803C00133002AF7D1BB
:104D1000704700002F2803461FDC08291DD8DFE854
:104D200001F00705090B0D0F0911130007220CE014
:104D300003220AE0042208E0002206E0092204E03F
:104D4000082202E00B2200E00F220449181151F85A
:104D5000200003F00F01FEF749BA7047FCBA0008C3
:104D6000034B1A6822F0E06242F080621A607047DA
:104D70000400014001384B42411803EA010070472A
:104D800008B5094A094B0A481A600A4A0A4B8018B2
:104D9000C01A4FF48061FFF7EDFF084B0022186046
:104DA000074B1A6008BD00BF00300008DC0200207D
:104DB000E8070020C8BD000800000020D80200203D
:104DC0004C080020064B1B68984201DA012070470E
:104DD000044B1B689842B4BF00200120704700BFFD
:104DE000DC020020D802002050F8043DB3F1FF3F60
:104DF000FAD0704770B50C4C6FF05C0363700B4BCE
:104E00000B485B78012500266371A570E57026715B
:104E1000A060FFF7E9FF074BE0601A681E60064BD1
:104E200022611D7070BD00BFCC090020100A002057
:104E300000000208480800204E0A002030B5184B38
:104E40005A789878012A0DD0022A1AD05A6800237D
:104E500004E01349C918097A99540133D9B281423F
:104E6000F7D330BD5C681A46002107E01589C3EB13
:104E7000020C02312CF80450C9B202328142F5D33F
:104E800030BD5C681A46002107E09568C3EB020C50
:104E900004314CF80450C9B204328142F5D330BD1C
:104EA000100A002008B5804708BD00000A4B6FF0CB
:104EB00055021A70094A1278A02A02D19E3A5A70F5
:104EC00005E001225A70064A126812789A70054B62
:104ED00001221A70704700BFCC090020500A002040
:104EE000080A00204E0A0020044B054A5988117018
:104EF0005A68044B1A60FFF7D9BF00BF100A0020A0
:104F0000500A0020080A002038B505460C4600F07B
:104F10009CF9002801DC002403E02846214600F02B
:104F200096F9204638BD38B505460C46FFF792FE87
:104F300028462146FFF7E8FF0028F7D038BD10B516
:104F40000C4600F04FF9204610BDFFF7F8BF0000F7
:104F500010B51A4B59885A783C2904DD5868BDE8C9
:104F60001040FFF7F2BF012A0DD0022A5A6816D06E
:104F7000002305E013F802C0114803F800C0013314
:104F80008B42F7DB13E05A68002305E033F802C0D8
:104F90000B4823F800C002338B42F7DB07E0002305
:104FA00003E09C5806481C5004338B42F9DB04484C
:104FB0003C21BDE81040FFF7C2BF00BF100A00202F
:104FC000CC09002010B5044B586800F071F900209E
:104FD000BDE8104000F030B9100A002010B50446BA
:104FE00029B1FFF749FE4FF49660FFF77BFE20469C
:104FF000BDE81040FFF756BF30B50F4B91B05A686F
:105000005C880E4B1B689A4201D0FEF74DFB0B4BA0
:105010001A6801323B2C1A600CDD3C2503E03C2C65
:10502000B4BF25463C2568462946641BFFF77BFF35
:10503000002CF4DC11B030BD100A00204C08002018
:105040002DE9F84503310026044692464FEAA108AF
:10505000054637460DE02846FFF7B4FE38B1C4EBED
:105060000A0328465959FFF78DFD00B10137043571
:1050700001364645EFDB3846BDE8F8852DE9F045B9
:10508000154A91B054885568302C09DC134E2846D7
:10509000214608323768FFF7D3FFC019306017E0A8
:1050A0003C2CB4BF26463C2631460C4F6846FFF7E1
:1050B0003AFF284631466A46D7F80080FFF7C0FF1E
:1050C000A41B4044002CEA46386001DDAD19E7E737
:1050D00011B0BDE8F08500BF100A0020480800208C
:1050E000034B5B880BB1FFF779BDFFF77DBD00BFB8
:1050F000100A002010B5064B5C682046FFF762FEE0
:1051000020B12046BDE81040FFF71EBD10BD00BF16
:10511000100A002010B5204B204A1B781370013B69
:105120000D2B28D8DFE803F02227270A070D1C13D0
:1051300027161F252719FFF70BFF1CE0FFF77EFE40
:1051400019E0154B58685988FFF748FF13E0FFF73F
:10515000D1FF10E0FFF792FF0DE0FFF7C1FF0AE07B
:10516000FFF7C2FE07E0FFF747FF04E0FFF742FE4C
:1051700001E0FFF727FF0A4C237863B107483C2181
:10518000FFF7DDFE00232370064B1B781BB1BDE843
:105190001040FFF78BBE10BD100A0020CC09002084
:1051A0004E0A0020500A002000B591B0FFF74AFDDA
:1051B000FFF7E6FD3C2101A8FFF7B5FE00280CDB58
:1051C0009DF80430012B08D10DF105013B22044864
:1051D000FFF794FDFFF79EFFECE711B000BD00BFA5
:1051E000100A00202DE9F84507468846FEF706FB21
:1051F000E8B1FEF7F9FAD0B1CFB10E4B00251E6829
:1052000007E03819C4EB0801FEF700FB2418A5429B
:1052100001D12C4602E0DAF800602546444506D26A
:10522000DFF810A0DAF800309B1B312BE9D9BDE87C
:10523000F88500BF8408002007B502AB03F8040D11
:1052400018460121FFF7CEFF0EBDFEF7BDBB70B5BE
:105250000E46054608B904460CE0002408E0FFF7B6
:10526000F4FF0028FBD02819311BFEF751FC24184D
:10527000B442F4D3204670BD07B5FFF7E6FF08B986
:10528000013805E001A80121FFF7E1FF9DF80400C6
:105290000EBD08B5FFF7F0FF002805DAFFF7DAFCCE
:1052A0002820FFF711FDF5E708BD00000000000011
:1052B00070B5234800F00CFF1FA3D3E90023214859
:1052C00000F0FCFD0025204B20481B682024996835
:1052D00000F0E6F81C4B18688268916801390029D3
:1052E000916011DA9669B1420ADB1268147018688D
:1052F0008268136819780A2903D0013313600AE021
:10530000214602F0ABFD06E0126814701B689B6832
:105310001A6801321A600134522CDBD10A4B013574
:105320001B680A209968ADB200F024F8102DCAD18C
:1053300070BD00BFAFF30080182D4454FB2109401D
:1053400010BB00081CBB0008E002002028BB0008BE
:1053500008B5FFF79EFFAA28FBD1FFF79AFF552853
:10536000F7D1FFF721FFF4E708B5FFF749FCFFF796
:10537000EFFFFCE770B540F2E025C2F200050646FB
:105380000C46286808B18369E3B14BF6B833C0F620
:1053900000039C4208BF44680ED04BF6D833C0F6D9
:1053A00000039C4208BF846806D04BF6F833C0F671
:1053B00000039C4208BFC46831462246BDE87040E5
:1053C00000F002BE03F094FF2868DEE710B5044643
:1053D00082B008B18369E3B14BF6B833C0F600037D
:1053E0009A4208BF62680ED04BF6D833C0F600036D
:1053F0009A4208BFA26806D04BF6F833C0F6000305
:105400009A4208BFE268204602B0BDE8104000F0B2
:10541000DBBD0191009203F06BFF009A0199DBE77D
:1054200030B587B0044608461546049101F046F8A9
:1054300004AB0193012302930590039014B1A36977
:10544000002B29D04BF6B833C0F600039D4208BFAD
:1054500065680ED04BF6D833C0F600039D4208BFF6
:10546000A56806D04BF6F833C0F600039D4208BF8E
:10547000E568AB892046294613F4005F01BF43F479
:105480000053AB816A6E22F4005301AA08BF6B6619
:1054900000F00EF807B030BD204603F029FFD1E739
:1054A00040F2E0230A46C2F2000301461868B7E75B
:1054B0002DE9F04F936885B090460C460390002B81
:1054C00064D088891FFA80FA1AF0080F00F0A080D3
:1054D0000B69002B00F09C801AF0020BD8F80050EA
:1054E0001CBF4FF0000A574636D11AF0010A1DBF03
:1054F000DC46D9465F46564652D126B380B2A768ED
:1055000010F4007F00F08F80BE42BB4680F0A78081
:1055100020683746B3465A46514600F06FFCA268F1
:105520002368B146D71BA76037465B442360D8F891
:105530000830C9EB0606CA44DF1BC8F808702FB351
:10554000A089002EDAD1D5F800A06E680835D4E71E
:10555000D5F800A06F680835B7F5806F34BF3B46BB
:105560004FF4806352460398002FF1D0A66A216A57
:10557000B04700288244C0EB070740F3EC80D8F81E
:105580000830181AC8F808000028E5D1002005B036
:10559000BDE8F08FD5F800904FF0000C6F6808352B
:1055A000002FF7D0BCF1000F00F0B5806369BB4558
:1055B00034BFDA46BA46A668206822699E1990422E
:1055C00094BF00220122B245D4BF002202F00102A2
:1055D000002A40F0AE809A45C0F28280A66A4A4610
:1055E000CDF804C00398216AB047DDF804C0061E58
:1055F00040F3B180BBEB060B00F08680D8F8083092
:10560000B144BF1B9E1BC8F80860002EC8D1BDE77F
:105610000398214602F09EFC002840F0D480A08927
:105620001FFA80FA58E72068B9462369984294BF68
:1056300000230123B7422CBF002303F00103002BFA
:1056400040F09D8063699E42C0F08C80A76A5246FC
:105650000398216AB847071E7DDDB94667E710F455
:10566000906F08BF20683FF456AF626921692368D4
:1056700002EB42095B1A09EBD97903F1010CB4443E
:105680004FEA6909E1454A463CBFE1464A4610F403
:10569000806F00F0838011460398029300F0A2F817
:1056A000029B002800F099801A462169029301901C
:1056B000FFF724FBA289029BDDF804C022F490626C
:1056C00042F08002A281C3EB09020CEB03003746D3
:1056D000B346A260C4F810C02060C4F814901AE762
:1056E000524649465646CDF804C000F087FBA268F2
:1056F0002368BBEB060BCAEB0202DDF804C053447F
:10570000A26023607FF47AAF0398214603F080FC07
:1057100008BBDC4672E748460A213A4600F034FBF3
:1057200000284BD000F1010B4FF0010CC9EB0B0B23
:105730003CE749463246CDF804C000F05FFB2368E1
:10574000214603989B19236003F062FCDDF804C036
:1057500000283FF44FAFA3894FF0FF3043F04003E0
:10576000A38114E73246514600F048FBA268236843
:105770003746921BB1469B19A2602360D7E651467B
:105780003A4600F03BFB236803982146DB1923606F
:1057900003F03EFC00283FF4CAAEDCE70398029316
:1057A00000F09EFC029B844600288CD1216903985E
:1057B00003F022FE03990C230B60CCE707F1010BE9
:1057C0004FF0010CF2E603990922A3894FF0FF3054
:1057D00043F040030A60A381D9E6039A0C231360C7
:1057E000B9E700BF2DE9F04F01F10B04162C83B08F
:1057F00006462FD8002310248C422CBF194643F0B4
:105800000101002930D1304600F054FBB4F5FC7F93
:105810002ED24FEAD40E40F2D435C2F2000505EB89
:10582000CE02D368934200F006825A6803F108055D
:10583000D968304622F0030C9A6863445C688A6039
:1058400044F00104D1605C6000F036FB284603B0F0
:10585000BDE8F08F24F00704E30F8C422CBF1946FB
:1058600043F001010029CED00C2300253360EDE781
:105870005FEA542E04BF4FEAD40E4FEACE0040F048
:10588000908040F2D435C2F200052818C3689842CF
:1058900006D10DE0002A80F26F81DB68984207D0C4
:1058A000596821F003010A1B0F2AF3DD0EF1FF3EB8
:1058B0000EF1010E40F2D437C2F2000707F10801E1
:1058C0008B68994208BF7A6826D05A6822F0030C88
:1058D000C4EB0C020F2A00F39481002AC96089608E
:1058E00080F29980BCF5007F80F065814FEADC0C86
:1058F0004FF0010A7A6807EBCC004FEAAC0C0AFAC9
:105900000CFCD860D0F808804CEA02027A60C3F838
:105910000880C8F80C3083604FF0010C4FEAAE03EA
:105920000CFA03FC944500F2828012EA0C0F08D1B5
:105930002EF0030E4FEA4C0C0EF1040E12EA0C0F7F
:10594000F8D007EBCE09F246C846D8F80C30984597
:1059500007D168E1002A80F27881DB68984500F081
:105960006281586820F00300021B0F2AF2DD1D46F9
:105970001F19D3F80CC044F0010E55F8084F3046FB
:10598000BA5042F00102C3F804E0CCF80840C4F871
:105990000CC08F60CF607A60B960F96000F08CFA5B
:1059A00054E7BEF1040F9EBF4FEA941E0EF1380E6D
:1059B0004FEACE007FF665AFBEF1140F9CBF0EF12B
:1059C0005B0E4FEACE007FF65CAFBEF1540F9EBF78
:1059D0004FEA143E0EF16E0E4FEACE007FF651AF45
:1059E000BEF5AA7F9EBF4FEAD43E0EF1770E4FEA76
:1059F000CE007FF646AF40F254539E4595BF4FEA26
:105A0000944E4FF47C700EF17C0E4FF07E0E98BFDA
:105A10004FEACE0035E703EB0C0203F108053046F0
:105A2000536843F00103536000F046FA0EE7D7F8DD
:105A30000880D8F8043023F00309C4EB09024C4570
:105A400094BF002301230F2AD8BF43F00103002B8A
:105A500000F0A18040F6500BD5F80824C2F2000BEC
:105A6000DBF8003010331B19B2F1FF3F06D003F50D
:105A70007E631F3323F47E6323F01F0319463046F1
:105A8000019300F007FD019BB0F1FF3F824600F05B
:105A9000F48008EB0901814200F2EC80DBF804207D
:105AA0009A185145CBF8042000F04581D5F80854E8
:105AB00040F2D430C2F20000B5F1FF3F08BFC0F899
:105AC00008A403D05244511ACBF804101AF0070569
:105AD000304617BFC5F108054FF48055AA4405F5B7
:105AE000805553441B051B0DED1A294600F0D2FCCE
:105AF000B0F1FF3F00F02C81CAEB0001491941F0E1
:105B00000101DBF8042040F65003C7F808A0C2F2F8
:105B10000003AA18B845CBF80420CAF8041017D01F
:105B2000B9F10F0F40F2DF80A9F10C01052521F03A
:105B3000070108EB01000F2985604560D8F80400D3
:105B400000F0010041EA0000C8F8040000F2AC8057
:105B5000D04640F65003DBF82C10C2F200038A4214
:105B6000DBF8301088BFDA6240F65003C2F200035F
:105B70008A4288BF1A6382E05C189A68D968304606
:105B8000666803F108058A6046F00103D16063602E
:105B900000F092F95AE608EB040342F0010244F0E7
:105BA00001043046C8F8044008F108055A60BB609B
:105BB00000F082F94AE64FEA5C22042A54D9142AFA
:105BC00000F289805B324FEAC208A84440F2D43721
:105BD000C2F20007D8F80800404503D16FE08068A2
:105BE000804504D0426822F003029445F7D3D0F8F0
:105BF0000CC0C3F80CC098607A68C360CCF8083059
:105C00008AE61F19304644F00104CF605C6003F15E
:105C10000805BA5042F001028F607A60B960F960FD
:105C200000F04AF912E60AF1010A1AF0030F5FD0F8
:105C300003F1080889E603F10802D3689A4208BF15
:105C40000EF1020E3FF436AEEFE51D461918DA6884
:105C5000304655F8083F4C68936044F00104DA6020
:105C60004C6000F029F9F1E54FEA9C1238324FEA16
:105C7000C208AAE7B8453FF411AFD7F80880D8F8B2
:105C8000042022F00302944294BF00230123121B3C
:105C90000F2AD8BF43F00103002B3FF47CAF3046FE
:105CA000002500F009F9D1E508F10801304601931B
:105CB00003F0A2FB019BD7F808805A6849E74FF030
:105CC000010AD7F80480921084460AFA02F248EAE0
:105CD00002027A608DE7542A24D84FEA1C326E32D1
:105CE0004FEAC20871E70123D046CAF80430C6E77C
:105CF0004A461EF0030F13460EF1FF3E33D053F811
:105D000008299A42F5D07B684FEA4C0C9C453FF637
:105D10008EAEBCF1000F3FF48AAE1CEA030F27D011
:105D2000D6460EE6B2F5AA7F15D84FEADC327732B6
:105D30004FEAC20849E70805000D00287FF4B6AE17
:105D4000D7F808804B4443F00103C8F8043000E75B
:105D500001210025D5E640F2545082420DD94FF47E
:105D60007C787E2231E77B6823EA0C037B60CBE7FB
:105D70004FEA4C0C0AF1040ACFE74FEA9C427C320E
:105D80004FEAC20821E700BF10F0030FC9B210B4F8
:105D900010D0002A2FD003788B422AD0013A05E098
:105DA000002A28D00378013A8B4222D0013010F02B
:105DB000030FF5D1032A11D941EA012444EA04442E
:105DC000036884EA0303A3F1013C2CEA030313F004
:105DD000803F03D1043A0430032AF1D85AB1037842
:105DE0008B4206D0013A32B110F8013F013A8B42A2
:105DF000F9D110BC70470020FBE700BF88428C46F9
:105E000070B4054614460ED98B1898420BD242B195
:105E1000C2EB030C0146531E1CF80320CA54013B7D
:105E2000FAD270BC70470F2A09D8002CF9D0002391
:105E30001CF80320EA540133A342F9D1F1E741EA07
:105E4000000313F0030FF0D194460C460346256877
:105E5000ACF1100C1D6065685D60A5689D60E5682B
:105E60001034DD601033BCF10F0FF0D8103A4FEA58
:105E7000121C0CF10105CCEB0C7C2D0102EB0C1675
:105E800001EB050C4519032E3446CED900235CF8EE
:105E90000320EA500433F21A032AF8D8043EB30868
:105EA0005A1CC3EB83739200944406EB8304AD1831
:105EB000BBE700BF704700BF704700BF0FB440F2A0
:105EC000E023C2F2000310B51C6882B024B1A369BC
:105ED00013B9204603F00CFA204605AC049A234679
:105EE0008168019400F028FB02B0BDE8104004B0C6
:105EF000704700BF0EB410B5044683B018B1836973
:105F00000BB903F0F5F9204606AC059A23468168E3
:105F1000019400F011FB03B0BDE8104003B07047DE
:105F200070B540F2E025C2F2000506460C4628682E
:105F300010B18369002B2CD04BF6B833C0F60003A8
:105F40009C422ED04BF6D833C0F600039C4232D090
:105F50004BF6F833C0F600039C4204BF2B68DC68A4
:105F6000A368013BA360002B06DB23681E70236837
:105F700013F8010B236070BDA269934214DB236800
:105F80001E70236819780A2918D001330846236047
:105F900070BD03F0ADF94BF6B833C0F600039C4278
:105FA000D0D12B685C68DBE7286831462246BDE823
:105FB000704001F053BF2B689C68D1E728682246E7
:105FC000BDE8704001F04ABF70B50D461446064664
:105FD00010B18369002B2FD04BF6B833C0F6000305
:105FE0009C4208BF74680ED04BF6D833C0F600034D
:105FF0009C4208BFB46806D04BF6F833C0F60003E5
:106000009C4208BFF468A368013BA360002B06DB39
:1060100023681D70236813F8010B236070BDA2690B
:1060200093420CDB23681D70236819780A290DD070
:1060300001330846236070BD03F05AF9CCE73046BF
:1060400029462246BDE8704001F008BF304622468E
:10605000BDE8704001F002BF30B5044689B0084683
:106060000D4600F02BFA4BF640330195C0F60003C5
:1060700003930290431C07930123049301AB059300
:10608000022306930CB1A369EBB140F2E023204652
:10609000C2F200031B689B689A8912F4005F01BF7B
:1060A00042F400529A81596E21F40052A16808BF4F
:1060B0005A6605AAFFF7FCF9002814BF4FF0FF301D
:1060C0000A2009B030BD204603F012F9DDE700BF19
:1060D00040F2E0230146C2F200031868BCE700BFAB
:1060E0002DE9F04F914683B007460E46002900F097
:1060F0003A81A1F1080809F10B04FFF7DBFE162C29
:10610000D8F804100B4600F2A08010220025144697
:106110004C4538BF45F00105002D40F02A8121F0A3
:10612000030A9245A2BF4046554608F1080875DAB1
:1061300040F2D43308EB0A00C2F20003D3F808E0BF
:10614000864500F01A81D0F804C02CF0010B83447E
:10615000DBF804B01BF0010F7CD0AC46284611F0F0
:10616000010F40F09B8056F8081CC1EB080BDBF8D0
:10617000045025F00305002800F0DD80704500F094
:106180001F8105EB0A030CEB03059542B8BF1D46C2
:10619000C0F2D28081685B46C068AAF10402242A5A
:1061A0008160C86053F8081FDBF80C008160C8608C
:1061B00000F2D080132A9C4621D931460BF1100CF5
:1061C00051F8040BCBF8080070680E1D1B2ACBF8A1
:1061D0000C0014D94868311D0BF1180CCBF81000D5
:1061E00070680E1D242ACBF8140008D14A680BF100
:1061F000200CCBF8182072680836CBF81C203146EA
:1062000098466246584651F8043B42F8043B73688E
:10621000CCF804304B685360DBF80430C4EB050C59
:10622000BCF10F0F26D8421903F0010343EA05051C
:106230004560536843F00103536038464546FFF715
:106240003BFE284603B0BDE8F08F24F00704224649
:10625000E50F5DE72CF0030C0CEB0A059542FFF609
:106260007EAF82680B46C168404608F108088A6024
:10627000D160D3E7011903F0010301EB0C0243EAFB
:1062800004044CF0010344604B6038465368083105
:1062900043F00103536003F0AFF8CEE749463846B8
:1062A000FFF7A0FA0546002841D0D8F80430A0F145
:1062B000080223F0010141448A4200F0D780AAF18C
:1062C00004023146242A78D8132A034621D93446B9
:1062D00054F8043B211D40F8043B031DD6F804C0CC
:1062E0001B2AC5F804C014D9D4F804E01C1D01F120
:1062F000040CC0F804E048680CF104015860231D48
:10630000242A06D1DCF8042062604A6808315A6009
:10631000083308461A4650F8044B42F8044B4968C3
:106320005960436853603146384603F065F8384693
:10633000FFF7C2FD85E755449542AFDB5B46DBF8CE
:106340000C00AAF1040253F8081F242A8160C860D7
:106350007FF630AF184631469846FFF74FFD584656
:10636000DBF804305AE7114603B0BDE8F04FFFF701
:1063700039BA0C2300253B6063E7DEF8045004F1D2
:10638000100B25F0030C0CEB0A005845B8BF704603
:10639000FFF6E5AE08EB0402011B41F001019A6033
:1063A00051603846D8F80410354601F001031C430B
:1063B000C8F80440FFF780FD43E7FFF71FFDB2E791
:1063C000554404F11001AC448C45B5DB5D46DBF867
:1063D0000C00AAF1040255F8081F242A8160C86045
:1063E0004CD8132A284624D931460BF1100051F815
:1063F00004EBCBF808E0D6F804E00E1D1B2ACBF81E
:106400000CE016D9D1F804E0311D0BF11800CBF8DF
:1064100010E0D6F804E00E1D242ACBF814E008D1D1
:106420004A680BF12000CBF8182072680836CBF8C8
:106430001C203146024651F804EB42F804EB766822
:106440004660496851600BEB0402C4EB0C0141F05B
:1064500001019A6051603846DBF8041001F0010335
:106460001C43CBF80440FFF727FDEAE65568404699
:1064700008F1080825F003055544CFE631462846C3
:106480000093CDF804C0FFF7B9FCDDF804C0009B11
:10649000D9E700BF38B540F69434C2F2000405468F
:1064A000084600232360FCF75BFFB0F1FF3F00D0FC
:1064B00038BD2368002BFBD02B6038BD20F00301D2
:1064C00010F00300C0F1000051F8043B00F1040C8F
:1064D0004FEACC0C6FF000021CBF22FA0CF21343FF
:1064E0004FF0010C4CEA0C2C4CEA0C4CA3EB0C02C8
:1064F00022EA030212EACC1204BF51F8043B043032
:10650000F4D013F0FF0F1FBF013013F47F4F0130A1
:1065100013F47F0F18BF0130704700BF936810B5A8
:10652000144613B95360184610BDFEF7C1FF00238F
:106530006360A36010BD00BF2DE9F04FADF5AE6DF7
:1065400083B00E4615469A46814603F08BF80068E4
:106550001D90B9F1000F04D0D9F81830002B00F0CD
:106560005A814BF6B833C0F600039E4208BFD9F8F3
:10657000046010D04BF6D833C0F600039E4208BF2B
:10658000D9F8086007D04BF6F833C0F600039E42F6
:1065900008BFD9F80C60B6F80CC01FFA8CF313F4DE
:1065A000005F09D14CF4005C726EA6F80CC01FFAB3
:1065B0008CF322F40052726613F0080F01F001838D
:1065C0003269002A01F0FD8203F01A030A2B00F061
:1065D000E080002212921A9200231C920DF59C6416
:1065E0001192043419920DF5A4621B9304320DF537
:1065F000906328320333189207930023CDF84C455B
:10660000CDF85035CDF854352B781A1E18BF01221D
:10661000252B0CBF002202F0010232B32F4617F8DF
:10662000013F1A1E18BF0122252B0CBF002202F0C9
:106630000102002AF3D1B7EB050808BF3D4614D08C
:10664000C4F80480DDF85035DDF8542501332560A9
:10665000072B4244CDF85035CDF8542578DC08346A
:1066600011983D46404411903B78002B7CD06B1C28
:106670004FF0FF372B204FF0200C00214FF000028D
:106680000F918DF87725CDF82CA06A780A915D1CC2
:10669000A2F12003582B00F28682DFE813F0980263
:1066A00084028402A402840284028402840284029A
:1066B0008402AD02BA028402C102CA028402E70265
:1066C000F002F002F002F002F002F002F002F0023A
:1066D000F00284028402840284028402840284021E
:1066E00084028402840204032603840226038402B3
:1066F0008402840284026A03840284028104840284
:1067000084028402840284021404840284022F041A
:106710008402840284028402840284028402840249
:10672000840284024F0465042603260326037303B0
:106730006504840284027903840285039603AD0311
:106740000A048402CC038402F40384028402C0009D
:106750000DF5A862484631460C32FFF7DFFE58B906
:106760000DF59C6404347BE7DDF85435002B41F0D3
:1067700092810023CDF85035B38913F0400F02D039
:106780004FF0FF30119011985FB00DF5806DBDE8AE
:10679000F08FB6F90E30002BFFF61BAF376A2CF0E6
:1067A000020CD6F828E00DF58E64ADF888C40C34E0
:1067B000B6F80EC02A465346484621461FADCDF8CE
:1067C0009C740027CDF88C54CDF87C544FF4806530
:1067D000CDF8A4E4ADF88AC4CDF89054CDF8947403
:1067E000CDF88454FFF7A8FE0028119009DB21465C
:1067F000484602F00DFC1199B84218BF4FF0FF3126
:106800001191BDF8883413F0400FBCD0B38943F028
:106810004003B381B7E7484602F06AFDA1E60A9853
:106820004BF6883CC0F6000C169210F0200FCDF805
:1068300064C000F06E830B99CB1D23F0070303F1B6
:1068400008020B92D3E900AB5AEA0B020A9B0CBF79
:1068500000220122134240F06B8602234FF0000118
:106860008DF87715002FA2BFDDF828C02CF0800C22
:10687000CDF828C0002F18BF42F00102002A00F016
:106880001E84012B00F0DE85022B00F0C1851899D3
:1068900013914FEADA084FEADB0C48EA4B780AF02A
:1068A0000700E346C24630305AEA0B0201F8010DF8
:1068B000EFD1DDF828C013911CF0010F40F08C8659
:1068C0001898401A10909DF87735109A1797BA4289
:1068D000B8BF3A460C9213B10C9A01320C920A9B43
:1068E0000A9813F0020315931EBFDDF830C00CF1B7
:1068F000020CCDF830C010F0840014904DD10F99E7
:106900000C9A8F1A002F48DD102F4BF64438D8BF51
:10691000C0F6000830DDC0F600080DF5A86B434650
:106920004FF0100AA8460BF10C0B1D4602E0103F79
:10693000102F1EDDC4F804A0DDF85035DDF8542515
:10694000013325601032072BCDF8542504F10804DB
:10695000CDF85035EBDD0DF59C64484631465A467E
:106960000434FFF7DBFD00287FF406AF103F102F43
:10697000E0DC2B46454698466760DDF85035C4F8A4
:1069800000805A1CDDF85435CDF85025DB19072A54
:10699000CDF8543500F38A8508349DF877359BB1DE
:1069A00001236360DDF850350DF5AE6207322260D9
:1069B000DDF854250133CDF850350132072BCDF8E1
:1069C000542500F3B6840834159B9BB10223636001
:1069D000DDF850350DF5AE6204322260DDF8542545
:1069E0000133CDF850350232072BCDF8542500F392
:1069F000AF840834DDF850C0BCF1800F00F076831E
:106A0000179B109A9F1A002F43DD102FDFF88C8BF5
:106A10002EDD43460DF5A86BA8464FF0100A0BF18A
:106A20000C0B1D4602E0103F102F1EDDC4F804A021
:106A3000DDF85035DDF85425013325601032072B81
:106A4000CDF8542504F10804CDF85035EBDD0DF5F3
:106A50009C64484631465A460434FFF75FFD0028DF
:106A60007FF48AAE103F102FE0DC2B464546984657
:106A70006760DDF85035DDF854250133C4F8008037
:106A8000D219072BCDF85425CDF8503500F34284A8
:106A90000834DDF828C01CF4807F40F09D821098F7
:106AA00013996060DDF85035DDF85425013321601D
:106AB0001218072BCDF85035D8BF04F10803CDF8D4
:106AC000542500F39B830A9911F0040F55D00F9AB7
:106AD000DDF830C0CCEB0207002F4EDD102F4BF657
:106AE0004438D8BFC0F600082EDDC0F600080DF50A
:106AF000A86A42461024A8460AF10C0A154602E08C
:106B0000103F102F1DDD5C60DDF85025DDF85415B9
:106B100001321D601031072ACDF8541503F1080326
:106B2000CDF85025ECDD484631465246FFF7F6FCDD
:106B30000DF59C63043300287FF41EAE103F102F28
:106B4000E1DC2A46454690465F60DDF85025C3F8F3
:106B50000080DDF854350132CDF85025FB18072AA6
:106B6000CDF854350BDD0DF5A862484631460C32A0
:106B7000FFF7D4FC00287FF4FFADDDF85435119801
:106B80000C9A0F998A42ACBF801840181190002BC4
:106B900040F042830DF59C640023DDF82CA0043402
:106BA000CDF8503530E51692002A3FF4DDAD0DF5F5
:106BB000A46001234FF0000C04300C938DF82425C1
:106BC0008DF877C5139010930021179187E69DF8F3
:106BD0007735002B40F02B850B992B468DF877C528
:106BE0002A780B9153E50B990A9B43F001030A9312
:106BF0002B462A780B914AE50B990B9A09680F915D
:106C0000111D0F9B002BC0F280872A782B460B9119
:106C10003DE50B992B468DF877052A780B9136E5E3
:106C20000B990A9B43F004030A932B462A780B9195
:106C30002DE52B4613F8012B2A2A01F0CD80A2F175
:106C40003001092901F237800235002715F8012C9F
:106C500007EB87072B46013501EB4707A2F130010F
:106C60000929F3D947EAE7771D4611E50B992B4629
:106C70000A9A42F080020A922A780B9107E5A2F163
:106C800030014FF000082B4608EB880813F8012B61
:106C900001EB4808A2F130011D460929F3D9CDF8CE
:106CA0003C801D46F4E40A9B169243F010030A93BD
:106CB000DDF828C01CF0200F00F05D810B98C31D8B
:106CC00023F0070303F108010B91D3E900ABBAF1FC
:106CD000000F7BF10002C0F29B845AEA0B034FF0D5
:106CE00001030CBF00220122BCE50A98169210F0A5
:106CF000080F00F0ED840B99CB1D23F0070303F17F
:106D000008020B92D3F80480D3F800A0CDF86C8071
:106D1000CDF848A05046414603F06CFA834600285F
:106D200000F09985504600220023414604F034FAD1
:106D3000002840F00B859DF877354BF67C314BF6FB
:106D400078321698C0F60001C0F600024FF0030C2E
:106D50004728D8BF114613910A99CDF830C021F0C9
:106D60008001CDF840C00A914FF0000CCDF85CC016
:106D7000B1E50B990A9B43F008030A932B462A7846
:106D80000B9184E40A9941F040010A910B993CE788
:106D90002A786C2A00F055850B990A9B0B9143F0D9
:106DA00010030A932B4672E40A9A12F0200F00F0A7
:106DB00082840B98119A036810464FEAE0710B9A8F
:106DC000C3E9000102F1040A1EE416920A9A12F0C5
:106DD000200300F0EF800B9BDA1D002322F0070256
:106DE00002F1080CCDF82CC0D2E900AB5AEA0B0036
:106DF0000CBF0022012231E50B987821DDF828C074
:106E0000169103684BF688308DF8751530218DF892
:106E100074154CF0020C0B991A1E18BF0122C0F613
:106E200000009A464FF0000B0431CDF828C01990AD
:106E300002230B9112E50B9B16924FF00002181DD6
:106E40008DF877251B680B901393002B00F0C686F6
:106E5000002F1398C0F28F8600213A46FEF794FF68
:106E60000346002800F0F58613981B1A1093BB42C6
:106E700040F3BE851097002127EAE7779DF8773524
:106E80000C97179127E5DDF828C016921CF0200F0B
:106E900023D00B980123C21D22F0070202F1080142
:106EA0000B91D2E900AB5AEA0B020CBF002201227F
:106EB000D4E40A992B4641F020010A910B992A78D3
:106EC0000B91FFF7E4BB0A9B169243F010030A9361
:106ED000DDF828C01CF0200FDBD10A9B13F0100F47
:106EE00000F0D5830B980123021D0B9201680A1E46
:106EF00018BF01228A464FF0000BAFE40A981692A1
:106F00004BF6643210F0200FC0F6000219927FF4A5
:106F100092AC0A9B13F0100F40F01A830A9A12F0F9
:106F2000400F00F015830B9B03F1040CCDF82CC02F
:106F3000B3F800A0D2464FF0000B85E416920DF591
:106F4000A4610B9A4FF0010C4FF000000431CDF812
:106F500030C0136804328DF877050B921391CDF889
:106F600040C08DF824352FE6DDF828C016921CF0BD
:106F7000200F7FF4A3AE0A9A12F0100F40F0F182B6
:106F80000A9A12F0400F00F0EC820B9B03F1040C04
:106F9000CDF82CC0B3F900A0D2464FEAEA7B96E6C2
:106FA0000A99169241F010010A910A9A12F02003F0
:106FB0007FF411AF0A9911F0100200F054830B9A7C
:106FC00002F1040CCDF82CC011680A1E18BF012272
:106FD0008A464FF0000B41E4169A652A40F3288157
:106FE0001298002200231B9904F0CCF8002800F02E
:106FF000BE8101236360DDF850254BF6A433C0F653
:1070000000032360DDF854350132CDF850250133FB
:10701000072ACDF85435D8BF04F1080300F39B8349
:10702000DDF870251A98824204DB0A9911F0010FED
:107030003FF449AD01225A60DDF85025DDF85415C2
:1070400001321D980131072ACDF854151860CDF88A
:10705000502500F35F8508331A994F1E002F7FF7E4
:1070600032AD102FDFF8348540F3EA8242460DF549
:10707000A86AA84610240AF10C0A154603E0103F3E
:10708000102F40F3DA825C60DDF85025DDF85415EE
:1070900001321D601031072ACDF8541503F10803A1
:1070A000CDF85025EBDD484631465246FFF736FA1B
:1070B0000DF59C6304330028E1D0FFF75DBB7BB97D
:1070C0000A9911F0010F0BD00DF5A46230230432A0
:1070D0008DF84B352732012313921093FFF7F3BB42
:1070E0001898002110911390FFF7EDBB0F980C99A1
:1070F000471A002F7FF784AC102FDFF8A0842EDD15
:1071000043460DF5A86BA8464FF0100A0BF10C0B87
:107110001D4602E0103F102F1EDDC4F804A0DDF86C
:107120005035DDF85425013325601032072BCDF89A
:10713000542504F10804CDF85035EBDD0DF59C64C1
:10714000484631465A460434FFF7E8F900287FF4F0
:1071500013AB103F102FE0DC2B4645469846676086
:10716000DDF85035C4F800805A1CDDF85435CDF8F0
:107170005025DB19072ACDF8543500F33A8208343C
:107180003EE413996360DDF850252160DDF8541565
:107190000132CDF85025CB18072ACDF8543500F32D
:1071A000498508341D9A0123DDF870756360DDF8A8
:1071B00050352260DDF854250133CDF850350132C9
:1071C000072BCDF85425D8BF04F1080300F323851D
:1071D0001398DDF87025C7191A981F60811A596035
:1071E000DDF854158A1ADDF850151218CDF854251B
:1071F0000131CDF85015072940F332820DF5A86210
:10720000484631460C32FFF789F900287FF4B4AACA
:107210000DF59C63043356E40DF5A86248463146EB
:107220000C32FFF77BF900283FF4B4ACFFF7A4BAA7
:107230001A9901294CDD01236360DDF85035DDF832
:107240005425013313980132072BCDF854252060C3
:10725000CDF8503500F3B281083401236360DDF8C6
:107260005035DDF8542501331D990132072BCDF837
:1072700054252160CDF8503500F3928108341298DE
:10728000002200231B9903F07DFF002840F01D81A0
:107290001A9B13985A1E6260DDF85035411C21601C
:1072A000DDF854150133CDF850358A18072BCDF889
:1072B000542521DC08341C9B0DF5AC621C9822601F
:1072C0006360DDF85035DDF854250133FFF7F0BB7E
:1072D0000A9A12F0010FAED1139A01236360DDF810
:1072E00050352260DDF854250133CDF85035013298
:1072F000072BCDF85425DDDD0DF5A8624846314653
:107300000C32FFF70BF900287FF436AA0DF59C64C8
:107310000434D0E70DF5A862484631460C32FFF739
:10732000FDF800287FF428AA0DF59C640434FFF7CB
:10733000B0BB0DF5A862484631460C32FFF7EEF8B7
:1073400000287FF419AA0DF59C640434FFF73CBBB8
:107350000DF5A862484631460C32FFF7DFF80028E9
:107360007FF40AAA0DF59C640434FFF743BBDDF8F3
:107370007035002B40F3FD811A998B42FFF601AF67
:10738000139A6160DDF850352260DDF85425013331
:10739000CDF850355218072BCDF85425D8BF04F13D
:1073A000080300F32984DDF870451A98241A002C8C
:1073B00040F3B381102CDFF8E48140F39D81424615
:1073C0000DF5A86AA84610270AF10C0A154603E035
:1073D000103C102C40F38D815F60DDF85025DDF806
:1073E000541501321D601031072ACDF8541503F1F0
:1073F0000803CDF85025EBDD484631465246FFF7ED
:107400008DF80DF59C6304330028E1D0FFF7B4B983
:10741000189A1998134613920AF00F024FEA1A119C
:1074200041EA0B714FEA1B1C825C8A46E3465AEA2A
:107430000B0C03F8012DEFD118981393C01A10907C
:10744000FFF741BA09220023524573EB0B00DDF828
:1074500060801FD223464446B8461F4650465946D0
:107460000A22002303F0E8FE00235046594602F1A9
:10747000300C0A2204F801CD03F0DEFE09220023BD
:1074800082468B46524573EB0B03E7D33B46474698
:10749000A0461C4608F1FF300AF1300A139008F8A4
:1074A00001AC1899091A1091FFF70DBA0DF5A862F1
:1074B000484631460C32FFF731F800287FF45CA9CA
:1074C0000DF59C640434FFF768BA1A994F1E002F1B
:1074D0007FF7F1AE102FDFF8C4804EDD43460DF587
:1074E000A86BA8464FF0100A0BF10C0B1D4602E0EA
:1074F000103F102F3EDDC4F804A0DDF85035DDF854
:107500005425013325601032072BCDF8542504F1A2
:107510000804CDF85035EBDD0DF59C644846314646
:107520005A460434FEF7FAFF0028E1D0FFF724B9E9
:1075300016983021DDF828C0012202238DF8741539
:107540004CF0020C8DF87505CDF828C0FFF786B910
:107550000B98011D03680B919A464FF0000BFFF743
:1075600073B90B98011D03680B919A464FEAEA7BA9
:10757000FFF7ADBB2B46454698466760DDF85035B2
:10758000DDF854250133C4F80080D219072BCDF85B
:107590005425CDF850357FF78DAEADE654BB0008CD
:1075A0000DF5A862484631460C32FEF7B7FF0028B9
:1075B0007FF4E2A80DF59C64043460E60DF5A86242
:1075C000484631460C32FEF7A9FF00287FF4D4A8C4
:1075D0000DF59C64043440E6302800F0EC821398EA
:1075E000302300F8013D18991390091A1091FFF704
:1075F0006AB90DF5A862484631460C32FEF78EFF97
:1076000000287FF4B9A80DF59C640434FFF7F8B99D
:10761000DAF1000A6BEB4B0B2D235AEA0B0C8DF8B9
:1076200077350CBF002201220123FFF71BB90B990C
:107630002B462A780B91FFF72AB82A4645469046F2
:107640005F60DDF85025DDF854150132C3F8008085
:10765000C919072ACDF85415CDF850253FF7CEADFE
:107660000833FFF730BA0A9810F0400300F0ED81BC
:107670000B9913460A1D0B92B1F800A0BAF1000253
:1076800018BF0122D2464FF0000BFFF7E7B80A9B64
:1076900013F0400F00F0CC810B980123011D0B91DA
:1076A000B0F800A0BAF1000218BF0122D2464FF094
:1076B000000BFFF7D3B80A9B13F0100F00F0A48162
:1076C0000B98119900F1040A03681960FEF79CBF3A
:1076D0000B98C31D23F0070303F108010B91D3F8A6
:1076E0000480D3F800A0CDF86C80CDF848A0FFF757
:1076F00011BB2A46454690465C60DDF85025DDF812
:1077000054150132C3F800800919072ACDF8541521
:10771000CDF8502500F3EA8208330A9911F0010FE1
:107720003FF4D1A901225A60DDF85025DDF8541547
:1077300001321D980131072ACDF854151860CDF893
:1077400050253FF75BAD0833FFF7BDB92D238DF80A
:107750007735FFF7F2BA0DF5A862484631460C328C
:10776000FEF7DCFE00287FF407A80DF59C630433C8
:1077700056E401236360DDF850254BF6A433C0F6D0
:1077800000032360DDF854350132CDF85025013374
:10779000072ACDF85435D8BF04F1080300F38781D8
:1077A000DDF870253AB91A9A2AB9DDF828C01CF01C
:1077B000010F3FF488A901225A60DDF85025DDF859
:1077C000541501321D980131072ACDF8541518605F
:1077D000CDF8502500F379810833DDF870757F42CC
:1077E000002F40F3B381102FDFF8508640F3D28191
:1077F00042460DF5A86AA84610240AF10C0A15465F
:1078000003E0103F102F40F3C2815C60DDF850258B
:10781000DDF8541501321D601031072ACDF85415DA
:1078200003F10803CDF85025EBDD484631465246BA
:10783000FEF774FE0DF59C6304330028E1D0FEF7DB
:107840009BBF0B996B1C0A9A42F020020A926A783D
:107850000B91FEF71CBF5046414602F0DDFC0028AC
:1078600040F0FF80B7F1FF3F00F051821698672883
:1078700014BF00230123472808BF43F0010313B1BD
:10788000002F08BF01270DF5AB60434652460A9909
:10789000C0E90023DDF85C3541F480710A91002BCA
:1078A000C0F26482002117911698662814BF002345
:1078B0000123462808BF43F001031093002B00F07A
:1078C000D181BC460323CDF830A00DF5AE61CDF8D3
:1078D00034804846009302910DF5AC61DDE90C233C
:1078E0000C31CDF804C003910DF5AD61CDF824C085
:1078F000049100F041FC169ADDF824C0B2F1670350
:1079000018BF0123472A0CBF002303F00103139083
:1079100033B90A9B13F0010F08BFDDF868B516D024
:107920001398109900EB0C0B31B10378302B00F059
:10793000DA80DDF870359B44504600220023414632
:1079400003F020FC002800F0C281CDF868B5169A3B
:107950001398672A14BF00230123472A08BF43F066
:107960000103C0EB0B001A90002B00F08A81DDF8B8
:10797000701511F1030F109102DB8F4280F28C81A0
:10798000169A023A16921099169A4B1ECDF8703537
:10799000002B8DF86025C0F234822B228DF86125F2
:1079A000092B00F3B6810DF5AC62303304328DF84B
:1079B000633530238DF862350DF5AC631A981A994A
:1079C000D31A18181C930129109040F310821098B4
:1079D0000130109020EAE0710C911798002800F017
:1079E0006E812D2300218DF877351791FEF774BF36
:1079F000109A4FF0000C9DF8773522EAE272CDF82C
:107A00005CC00C92FEF767BF0A9A12F0400F17BFD6
:107A10000B980B9A119900F1040A11BF036802F147
:107A2000040A1368119814BF19801860FEF7ECBDA2
:107A30000B9A131D0B93116801230A1E18BF012214
:107A40008A464FF0000BFEF709BF0B98021D0B9200
:107A500001680A1E18BF01228A464FF0000BFEF78C
:107A6000FDBE4BF684324BF680331699C0F6000308
:107A7000C0F6000203204729D8BF1A4613920A9A7B
:107A80000C9022F08002CDF85CB00A929DF8773518
:107A90001090FEF720BF0DF5A862484631460C3223
:107AA000FEF73CFD00287EF467AEFEF762BE0DF5E2
:107AB000A862484631460C32FEF730FD00287EF4BD
:107AC0005BAE0DF59C6304336AE60DF5A86248468B
:107AD00031460C32FEF722FD00287EF44DAE0DF546
:107AE0009C63043379E65046002200234146CDF8DA
:107AF00024C003F047FBDDF824C000287FF419AF51
:107B0000CCF10103CDF8703515E70F9A52420F9270
:107B1000FFF787B80DF5A862484631460C32FEF7EC
:107B2000FDFC00287EF428AE0DF59C630433FFF7BE
:107B300093BA0DF5A862484631460C32FEF7EEFCCA
:107B400000287EF419AE0DF59C6304331A9913983E
:107B50005960DDF85025DDF85415186001321A9887
:107B6000CDF850250918072ACDF854153FF746AB34
:107B70000833FEF7A8BF00211791FEF79FFC9DF880
:107B8000773520EAE07210900C92FEF7A4BE2A46E8
:107B9000454690465F60DDF85025DDF8541501320A
:107BA000C3F80080C919072ACDF85415CDF850251F
:107BB000BFDC0833CAE7189A1399511A1091FEF7DF
:107BC00082BE4846314600F0C5F900287EF4D8ADA3
:107BD000B6F80CC01FFA8CF3FEF7F6BC062F28BFD0
:107BE00006274BF69C31C0F6000127EAE772109792
:107BF00013910C92FEF7E8BF0DF5A8624846314696
:107C00000C32FEF78BFC00287EF4B6AD0DF59C63BC
:107C10000433FFF7C8BB0DF5A862484631460C3265
:107C2000FEF77CFC00287EF4A7AD0DF59C630433C1
:107C3000FFF7CEBA0DF5A862484631460C32FEF782
:107C40006DFC00287EF498AD0DF59C640434FFF7BC
:107C5000A9BA109727EAE77717900C979DF8773520
:107C6000FEF739BE1699652914BF00230123452963
:107C700008BF43F00103002B46D007F1010C02239B
:107C800021E6169B652B76DD169A662A1CBFDDF869
:107C90007035109300F083801A9B109883426EDC3D
:107CA0000A9911F0010F40F08E8020EAE0726723FC
:107CB0000C92169391E600271D46FEF7E9BC109939
:107CC0009DF8773521EAE1710C91FEF704BEDDF8ED
:107CD00068359B4598BF9B467FF639AE302203F846
:107CE000012B9B45CDF86835F9D830E60DF5A86233
:107CF000484631460C32FEF711FC00287EF43CADBC
:107D00000DF59C63043308E5BC460233DBE5073719
:107D1000B9E546F2676C0DF590610331C6F2666C09
:107D20008CFB0320DA17C2EBA00202EB8200A3EB6C
:107D3000400013463030092A01F8010DF0DC3033E1
:107D4000481EDAB201F8012C079B83426AD90DF56F
:107D5000AC63033301E011F8012B03F8012C1A4640
:107D6000DDF81CC001338C45F5D825E62D2208F13D
:107D70000048179298E5DDF87005109003E6109B17
:107D80001A99002BDABF1098C0F1020301235B1887
:107D90006722109323EAE37316920C931DE6DDF835
:107DA00070050028109031DD1FB90A9911F0010FFC
:107DB0000ED0109866211691431CDB19109323EA0C
:107DC000E3720C9209E61098672116910130109029
:107DD00020EAE0720C9200E60B991A780F680431E1
:107DE0000B91002FB8BF4FF0FF37FEF750BC0A9A37
:107DF00012F0010F04BF20EAE0730C933FF4EDADE5
:107E0000E5E52D225B428DF86125C9E577B90A9B2E
:107E100013F0010F0AD14FF0010CCDF830C0CDF8AE
:107E200040C0DAE50DF5AC620232C5E502376621E5
:107E300027EAE772109716910C92CEE554BB000822
:107E400010B440F2E024C2F200048C46134601460E
:107E50006246206810BCFEF76FBB00BF70B50C46D1
:107E60001546064610B18369002B4CD04BF6B8334B
:107E7000C0F600039D4208BF75680ED04BF6D8339C
:107E8000C0F600039D4208BFB56806D04BF6F83334
:107E9000C0F600039D4208BFF568AA89A96993B29C
:107EA00013F0080FA96025D0296919B313F4005FF6
:107EB000686901BF42F40052AA816B6E23F400533B
:107EC00008BF6B662B685A1A824228DA0132A96809
:107ED000E4B20139A96003F8014B69692B60914252
:107EE00014D0AB890A2C14BF002303F001036BB933
:107EF000204670BD3046294600F02CF8C0B9AA894A
:107F0000296993B2D2E701F0F3F9AFE73046294689
:107F100001F07EF80028EBD04FF0FF34E8E7304660
:107F2000294601F075F80028F6D12B680122CEE72A
:107F3000AB8909224FF0FF34326043F04003AB813C
:107F4000D6E700BF40F2E0230A46C2F20003014632
:107F5000186883E770B540F2E025C2F200050646D6
:107F60000C46286810B18369002B36D04BF6B83325
:107F7000C0F600039C4238D04BF6D833C0F600035D
:107F80009C4241D04BF6F833C0F600039C4204BF3C
:107F90002B68DC68A289114693B213F0080F1846CB
:107FA00018BF226933D01AB313F0010107D06369F7
:107FB0000021A1605B42A36142B1002070BD13F0BB
:107FC000020F08BF6169A160002AF6D1A38913F0EE
:107FD000800FF2D04FF0FF3070BD01F089F94BF601
:107FE000B833C0F600039C42C6D12B685C68D1E769
:107FF00003F42071B1F5007FD6D03046214601F060
:1080000065FBA3892269CFE72B689C68C2E713F060
:10801000100FDFD013F0040F08BF226917D0616B77
:1080200051B104F14403994203D0304601F0E4F920
:10803000A28990B20023636322694FF6DB71C0F21C
:108040000001002300EA01016360A181226041F088
:108050000803A3819BB2A6E72DE9F84F03690E69D7
:10806000824689469E4200F38380F21C01F114058A
:1080700000F11404013E92008B18121803F1040859
:1080800059685068013102F01FFB0746002839D0BB
:1080900000239C461A46E958E0581FFA81FE4FEA31
:1080A000114B81B20EFB07CE51180BFB07FC0CEBFA
:1080B0001E4C1FFA8EFECEEB01011FFA8CF24FEA26
:1080C0001C4CC2EB10421FFA81FE02EB21424EEA29
:1080D0000241E1500433121459198845DBD2321D94
:1080E0000AEB8203596869B99C4209D25AF82220E6
:1080F00012B105E01A681AB9043B013E9C42F9D35B
:10810000CAF810604946504601F01AFC00282CDBE2
:10811000002301379C46EA58E05891B2120C1FFA2E
:1081200080F9C2EB1042C1EB0901614402EB21422C
:1081300089B241EA0241E15004334FEA224C5A1914
:108140009045E8D2321D0AEB8203596869B99C4216
:1081500009D25AF8222012B105E01A681AB9043B74
:10816000013E9C42F9D3CAF810603846BDE8F88F4A
:108170000020BDE8F88F00BF2DE9F04F466AA1B09E
:108180000446904699462D9D002E00F023843268C7
:1081900082B1616A4FF0010C766820460B68566028
:1081A0004A6819460CFA02F29A6001F003FD636A0C
:1081B00000221A60B9F1000638DB00232B6040F280
:1081C0000003C7F6F0731A4606EA0303934217D07A
:1081D0000022002340464946CDE9068902F0D2FF3D
:1081E000002829D02C9801232E990360002900F043
:1081F000D080794B581E2E9A136021B0BDE8F08FC5
:108200002C9842F20F730360B8F1000F00F09580D4
:108210004BF6B430C0F600002E990029EDD0C2789C
:10822000C31C002AE7D000F10803E4E726F000466B
:108230000123B1462B60C2E72046DDE906231EA9D3
:1082400000911FA9019101F007FDC6F30A5583466D
:10825000002D7ED0DDE90601A5F57E751F9F073D47
:1082600021F07F4323F4700343F07E51002341F457
:10827000E001199340F200030022C3F6F87302F004
:1082800065FB4FA3D3E9002302F014FD4EA3D3E90D
:10829000002302F05DFBCDE90801284602F0A4FCB2
:1082A0004BA3D3E9002302F005FD02460B46DDE9AE
:1082B000080102F04DFBCDE9080102F095FF002214
:1082C00000230646DDE9080102F066FF40B13046B2
:1082D00002F08AFCDDE9082302F054FF00B9013EF8
:1082E000162E5BD901231893013FB7EB050A42BF55
:1082F000CAF1000ACDF83CA04FF0000A01D40022D8
:108300000F92002EC0F27183B2440023179615938A
:108310002A9B092B62D8052B40F377862A980027E1
:1083200004382A902A998B1E032B00F2DD83DFE8A4
:1083300013F0A503D803D503C40326F07F4626F423
:108340007006002E7FF464AF4BF6A830C0F6000034
:1083500062E71F9F1E9BFB1803F586639D1C202D63
:10836000DCBFC5F1200008FA00F008DD1E3BC5F1B6
:10837000400216FA02F228FA03F342EA030002F07E
:1083800023FCA5F586650122033D1992A1F1F87140
:1083900070E74BF6A430C0F600002EE74BF66043C2
:1083A000DDE90601C0F6000303EBC603D3E90023B1
:1083B00002F0F2FE002840F02083189094E700BFFE
:1083C00061436F63A787D23FB3C8608B288AC63FDB
:1083D000FB799F501344D33FA5BB000800234FF007
:1083E000FF301F4601212A931190169108902B937C
:1083F000656A00236B602046696801F0F7FB636AD9
:1084000028601B681093002F00F05B81002E40F362
:108410002A844BF6604306F00F02C0F600033511C4
:1084200003EBC20315F0100FD3E90001CDE90C01F5
:1084300000F0E7824BF63853DDE90601C0F6000391
:1084400005F00F054FF00308D3E9082302F05CFDA7
:10845000CDE91201BDB14BF63857DDE90C23C0F66A
:10846000000715F0010F1046194607D0D7E9002381
:1084700008F1010802F01EFC02460B4608376D1099
:10848000EFD1CDE90C23DDE90C23DDE9120102F087
:108490003BFDCDE90C011899002900F0DE8040F287
:1084A0000003DDE90C010022C3F6F0734FF0000574
:1084B00002F072FE08B14FF00105089A002AD4BFFD
:1084C000002505F00105002D00F0C780119B002B51
:1084D00040F3F58040F200030022C4F22403DDE9FA
:1084E0000C0102F0E7FBCDE90C0108F10100711E5F
:1084F000129102F079FB02460B46DDE90C0102F015
:10850000D9FB40F200030022C4F21C0302F020FA5F
:10851000DDF844C08046A1F15079169B002B00F095
:10852000AD834BF6604340F20001C0F6000300202B
:1085300003EBCC03C3F6E071CDF80CC053E9022382
:1085400002F0E2FC42464B46109D02F0FFF98046E5
:108550008946DDE90C0102F047FE074602F044FBC4
:1085600002460B46DDE90C0102F0F0F907F1300399
:10857000CDE90C01404605F8013B4946DDE90C23F5
:1085800002F028FE002840F0138240F20001DDE9ED
:108590000C230020C3F6F07102F0D8F902460B4616
:1085A0004046494602F016FEDDF80CC0002840F0B7
:1085B000E783BCF1010F40F38280CDF868B001275A
:1085C000CDF870A01D966646DDE90CAB0C9410E06A
:1085D00040F200010020C3F6F07102F0B7F9424604
:1085E0004B4602F0D9FD002840F0C783B74280F225
:1085F0008B8440F20003404649460022C4F2240323
:10860000013502F057FB40F200030022C4F22403BC
:10861000804689465046594602F04CFB8B468246BE
:1086200002F0E2FD044602F0DFFA303402460B4667
:108630005046594602F08AF9109A4B46D4554246A4
:10864000013782468B4602F0A7FD52465B46002862
:10865000BED0DDF868B00C9CAAE1404602F0C4FA36
:10866000DDE90C2302F026FB40F200030022C4F2F5
:108670001C0302F06DF9089AA1F150758046A946D5
:10868000002A40F0EC8240F20003DDE90C010022F8
:10869000C4F2140302F05AF942462B46CDE90C010C
:1086A00002F098FD002840F04A824246DDE90C01C4
:1086B00005F1004302F070FD002840F0D581DDE9AE
:1086C00006891E9B6FEA03074FEAD7770E2ECCBFB1
:1086D000002707F00107002F00F0B7802B984BF61A
:1086E0006043C0F60003089903EBC603C20F0029DC
:1086F000CCBF002202F00102D3E90001CDE9040160
:10870000002A40F0A08102460B464046494602F04E
:10871000FBFB109D02F068FD824602F065FADDE980
:10872000042302F0C7FA02460B464046494602F0CF
:108730000DF90AF1300305F8013B089A012A804639
:10874000894652D040F200030022C4F2240302F012
:10875000B1FA00220023CDE9060102F013FD002842
:1087600040F0EB8110984FF00108CDF82CB0A346F3
:10877000871C0F96DDF82090DDE906450AE002F03F
:1087800099FA0022002304460D4602F0FBFC002863
:1087900040F0CE81DDE904232046294608F1010896
:1087A00002F0B2FB3E4602F01FFD824602F01CFAC8
:1087B000DDE9042302F07EFA02460B4620462946F4
:1087C00002F0C4F800220AF1300C07F801CC01379E
:1087D000C14540F20003C4F22403D0D135465C46C3
:1087E0000F9E8046DDF82CB0894642464B464046F7
:1087F000494602F0ADF8804689464246DDE904016B
:108800004B4602F0C9FC60B9DDE9040142464B4623
:1088100002F0B8FC002800F090811AF0010F00F07F
:108820008C81109900E01D4615F8012C6B1E392A29
:1088300040F067838B42F6D1109930230136312204
:108840000B70109B1A701296B2E0169A002A40F034
:10885000DF80159F0F9D0C92002DD4BF00230123B4
:10886000BAF1000FD4BF002303F001034BB1AA45B6
:10887000B4BF53462B460F98C3EB0A0AED1AC01A31
:108880000F90159900291CDD169A002A00F0E98244
:10889000002F12DD0C993A46204601F007FC5A469B
:1088A0000C9020460C9901F019FB594603462046CE
:1088B000039301F07FF9039B9B46159BDA1B40F065
:1088C00011830121204601F0A3FB06901798002890
:1088D00005DD06992046179A01F0E8FB06902A99D3
:1088E000012940F30A810027179B002B40F0618289
:1088F0000123534413F01F0340F02A811C230F9AD5
:108900009A44ED18D2180F920F9B002B05DD5946A3
:108910001A46204601F084FA8346BAF1000F05DDBD
:1089200006995246204601F07BFA069018980028D6
:1089300040F029822A9808990228D4BF00230123F5
:108940000029CCBF002303F00103002B00F00C81B1
:10895000002940F08C8005220699089B204601F0F2
:1089600061FB06905846069900F0EAFF00287EDD7C
:10897000109D01360027DDF830A0312305F8013BBA
:108980000699204601F016F9BAF1000F00F0D580E3
:108990003B1E18BF012357450CBF002303F0010302
:1089A000002B40F0D0805146204601F003F912968A
:1089B0002046594601F0FEF8129A531C00222A70F4
:1089C0002C982E990360002900F0D4812E9A1098DB
:1089D000156012E4102000F0EFFEC660466086606D
:1089E000066006466062FFF7D2BB0F987142002214
:1089F0001591801B17920F908AE40021013E189177
:108A000072E4DDE906234FF00208CDE9122321E5E7
:108A10002A98012840F36C82089A1598531E9842B0
:108A2000C0F25882C71A089B002BA8BF0F9DC0F246
:108A300073820F9A204601219A44D2180F9201F0B6
:108A4000E7FA0C9008E7089B73B940F20003002294
:108A5000C4F21403DDE9040102F02CF942464B464E
:108A600002F0AEFB00286AD0002206920C922B9BEB
:108A70000027DDF830A0DE43109D81E7002116912C
:108A80002B98002840F39F812B9801461190089065
:108A9000656A002217296A6040F2AB8204235B00FA
:108AA000013203F114008842F9D9089B6A600E2B49
:108AB0008CBF002707F001079DE4012216922B9B33
:108AC000F3181193591C0029C8BF0891E0DC0E2946
:108AD0008CBF002707F00107089189E40123169352
